{
	"data": {
		"bytecode": {
			"linkReferences": {
				"remix_tests.sol": {
					"Assert": [
						{
							"length": 20,
							"start": 422
						},
						{
							"length": 20,
							"start": 1261
						},
						{
							"length": 20,
							"start": 1380
						},
						{
							"length": 20,
							"start": 1499
						},
						{
							"length": 20,
							"start": 1618
						},
						{
							"length": 20,
							"start": 1772
						},
						{
							"length": 20,
							"start": 2584
						},
						{
							"length": 20,
							"start": 2938
						},
						{
							"length": 20,
							"start": 3065
						},
						{
							"length": 20,
							"start": 3190
						},
						{
							"length": 20,
							"start": 3772
						}
					]
				}
			},
			"object": "60806040523060015f6101000a81548173ffffffffffffffffffffffffffffffffffffffff021916908373ffffffffffffffffffffffffffffffffffffffff16021790555061012360025f6101000a81548173ffffffffffffffffffffffffffffffffffffffff021916908373ffffffffffffffffffffffffffffffffffffffff1602179055503480156090575f80fd5b50613efa8061009e5f395ff3fe608060405234801561000f575f80fd5b506004361061004a575f3560e01c80637fea0d4b1461004e578063a18bc98114610058578063b37575ce14610062578063e183f22c1461006c575b5f80fd5b610056610076565b005b6100606102c6565b005b61006a610811565b005b6100746109f6565b005b60015f9054906101000a900473ffffffffffffffffffffffffffffffffffffffff166040516100a490610e97565b6100ae9190610ee3565b604051809103905ff0801580156100c7573d5f803e3d5ffd5b505f806101000a81548173ffffffffffffffffffffffffffffffffffffffff021916908373ffffffffffffffffffffffffffffffffffffffff16021790555073__$acbfb1c35000d78352310b16a054a6b106$__63767392b35f8054906101000a900473ffffffffffffffffffffffffffffffffffffffff1673ffffffffffffffffffffffffffffffffffffffff166391d148545f8054906101000a900473ffffffffffffffffffffffffffffffffffffffff1673ffffffffffffffffffffffffffffffffffffffff166394fce43b6040518163ffffffff1660e01b8152600401602060405180830381865afa1580156101c3573d5f803e3d5ffd5b505050506040513d601f19601f820116820180604052508101906101e79190610f40565b60015f9054906101000a900473ffffffffffffffffffffffffffffffffffffffff166040518363ffffffff1660e01b8152600401610226929190610f7a565b602060405180830381865afa158015610241573d5f803e3d5ffd5b505050506040513d601f19601f820116820180604052508101906102659190610fd6565b60016040518363ffffffff1660e01b8152600401610284929190611090565b602060405180830381865af415801561029f573d5f803e3d5ffd5b505050506040513d601f19601f820116820180604052508101906102c39190610fd6565b50565b5f6040518060400160405280600f81526020017f6469643a6578616d706c653a313233000000000000000000000000000000000081525090505f8054906101000a900473ffffffffffffffffffffffffffffffffffffffff1673ffffffffffffffffffffffffffffffffffffffff1663dc25e0688260025f9054906101000a900473ffffffffffffffffffffffffffffffffffffffff166040518363ffffffff1660e01b815260040161037a929190611218565b5f604051808303815f87803b158015610391575f80fd5b505af11580156103a3573d5f803e3d5ffd5b505050505f805f805f8054906101000a900473ffffffffffffffffffffffffffffffffffffffff1673ffffffffffffffffffffffffffffffffffffffff1663fd8a0056866040518263ffffffff1660e01b8152600401610403919061127f565b5f60405180830381865afa15801561041d573d5f803e3d5ffd5b505050506040513d5f823e3d601f19601f8201168201806040525081019061044591906113e7565b935093509350935073__$acbfb1c35000d78352310b16a054a6b106$__63e8c2cb16856040518263ffffffff1660e01b81526004016104849190611569565b602060405180830381865af415801561049f573d5f803e3d5ffd5b505050506040513d601f19601f820116820180604052508101906104c39190610fd6565b5073__$acbfb1c35000d78352310b16a054a6b106$__63e8c2cb16846040518263ffffffff1660e01b81526004016104fb919061161b565b602060405180830381865af4158015610516573d5f803e3d5ffd5b505050506040513d601f19601f8201168201806040525081019061053a9190610fd6565b5073__$acbfb1c35000d78352310b16a054a6b106$__63e8c2cb16836040518263ffffffff1660e01b815260040161057291906116f3565b602060405180830381865af415801561058d573d5f803e3d5ffd5b505050506040513d601f19601f820116820180604052508101906105b19190610fd6565b5073__$acbfb1c35000d78352310b16a054a6b106$__63bfba5dd68260025f9054906101000a900473ffffffffffffffffffffffffffffffffffffffff166040518363ffffffff1660e01b815260040161060c9291906117b8565b602060405180830381865af4158015610627573d5f803e3d5ffd5b505050506040513d601f19601f8201168201806040525081019061064b9190610fd6565b5073__$acbfb1c35000d78352310b16a054a6b106$__63767392b35f8054906101000a900473ffffffffffffffffffffffffffffffffffffffff1673ffffffffffffffffffffffffffffffffffffffff166391d148545f8054906101000a900473ffffffffffffffffffffffffffffffffffffffff1673ffffffffffffffffffffffffffffffffffffffff1663131191616040518163ffffffff1660e01b8152600401602060405180830381865afa158015610709573d5f803e3d5ffd5b505050506040513d601f19601f8201168201806040525081019061072d9190610f40565b60025f9054906101000a900473ffffffffffffffffffffffffffffffffffffffff166040518363ffffffff1660e01b815260040161076c929190610f7a565b602060405180830381865afa158015610787573d5f803e3d5ffd5b505050506040513d601f19601f820116820180604052508101906107ab9190610fd6565b60016040518363ffffffff1660e01b81526004016107ca929190611888565b602060405180830381865af41580156107e5573d5f803e3d5ffd5b505050506040513d601f19601f820116820180604052508101906108099190610fd6565b505050505050565b5f6040518060400160405280600f81526020017f6469643a6578616d706c653a313233000000000000000000000000000000000081525090505f61045690505f8054906101000a900473ffffffffffffffffffffffffffffffffffffffff1673ffffffffffffffffffffffffffffffffffffffff1663ab25837483836040518363ffffffff1660e01b81526004016108aa9291906118c2565b5f604051808303815f87803b1580156108c1575f80fd5b505af11580156108d3573d5f803e3d5ffd5b505050505f805f9054906101000a900473ffffffffffffffffffffffffffffffffffffffff1673ffffffffffffffffffffffffffffffffffffffff1663fd8a0056846040518263ffffffff1660e01b8152600401610931919061127f565b5f60405180830381865afa15801561094b573d5f803e3d5ffd5b505050506040513d5f823e3d601f19601f8201168201806040525081019061097391906113e7565b935050505073__$acbfb1c35000d78352310b16a054a6b106$__63bfba5dd682846040518363ffffffff1660e01b81526004016109b1929190611960565b602060405180830381865af41580156109cc573d5f803e3d5ffd5b505050506040513d601f19601f820116820180604052508101906109f09190610fd6565b50505050565b5f6040518060400160405280600f81526020017f6469643a6578616d706c653a313233000000000000000000000000000000000081525090505f8054906101000a900473ffffffffffffffffffffffffffffffffffffffff1673ffffffffffffffffffffffffffffffffffffffff1663b42a02b5826040518263ffffffff1660e01b8152600401610a8791906119e4565b5f604051808303815f87803b158015610a9e575f80fd5b505af1925050508015610aaf575060015b610bd657610abb611a23565b806308c379a003610b575750610acf611a42565b80610ada5750610b59565b73__$acbfb1c35000d78352310b16a054a6b106$__63e8c2cb16826040518263ffffffff1660e01b8152600401610b119190611bb1565b602060405180830381865af4158015610b2c573d5f803e3d5ffd5b505050506040513d601f19601f82011682018060405250810190610b509190610fd6565b5050610bd1565b505b73__$acbfb1c35000d78352310b16a054a6b106$__6339df137f5f6040518263ffffffff1660e01b8152600401610b909190611c67565b602060405180830381865af4158015610bab573d5f803e3d5ffd5b505050506040513d601f19601f82011682018060405250810190610bcf9190610fd6565b505b610c4e565b73__$acbfb1c35000d78352310b16a054a6b106$__6339df137f5f6040518263ffffffff1660e01b8152600401610c0d9190611d29565b602060405180830381865af4158015610c28573d5f803e3d5ffd5b505050506040513d601f19601f82011682018060405250810190610c4c9190610fd6565b505b5f8054906101000a900473ffffffffffffffffffffffffffffffffffffffff1673ffffffffffffffffffffffffffffffffffffffff1663ab2583748260015f9054906101000a900473ffffffffffffffffffffffffffffffffffffffff166040518363ffffffff1660e01b8152600401610cc99291906118c2565b5f604051808303815f87803b158015610ce0575f80fd5b505af1158015610cf2573d5f803e3d5ffd5b505050505f8054906101000a900473ffffffffffffffffffffffffffffffffffffffff1673ffffffffffffffffffffffffffffffffffffffff1663b42a02b5826040518263ffffffff1660e01b8152600401610d4e91906119e4565b5f604051808303815f87803b158015610d65575f80fd5b505af1158015610d77573d5f803e3d5ffd5b505050505f805f9054906101000a900473ffffffffffffffffffffffffffffffffffffffff1673ffffffffffffffffffffffffffffffffffffffff1663fd8a0056836040518263ffffffff1660e01b8152600401610dd5919061127f565b5f60405180830381865afa158015610def573d5f803e3d5ffd5b505050506040513d5f823e3d601f19601f82011682018060405250810190610e1791906113e7565b505050905073__$acbfb1c35000d78352310b16a054a6b106$__63e8c2cb16826040518263ffffffff1660e01b8152600401610e539190611de7565b602060405180830381865af4158015610e6e573d5f803e3d5ffd5b505050506040513d601f19601f82011682018060405250810190610e929190610fd6565b505050565b61209780611e2e83390190565b5f73ffffffffffffffffffffffffffffffffffffffff82169050919050565b5f610ecd82610ea4565b9050919050565b610edd81610ec3565b82525050565b5f602082019050610ef65f830184610ed4565b92915050565b5f604051905090565b5f80fd5b5f80fd5b5f819050919050565b610f1f81610f0d565b8114610f29575f80fd5b50565b5f81519050610f3a81610f16565b92915050565b5f60208284031215610f5557610f54610f05565b5b5f610f6284828501610f2c565b91505092915050565b610f7481610f0d565b82525050565b5f604082019050610f8d5f830185610f6b565b610f9a6020830184610ed4565b9392505050565b5f8115159050919050565b610fb581610fa1565b8114610fbf575f80fd5b50565b5f81519050610fd081610fac565b92915050565b5f60208284031215610feb57610fea610f05565b5b5f610ff884828501610fc2565b91505092915050565b61100a81610fa1565b82525050565b5f82825260208201905092915050565b7f4c2761646d696e69737472617465757220646f69742061766f6972206c6520725f8201527fc3b46c6520434f4e5354525543544f525f41444d494e5f524f4c450000000000602082015250565b5f61107a603b83611010565b915061108582611020565b604082019050919050565b5f6060820190506110a35f830185611001565b6110b06020830184611001565b81810360408301526110c18161106e565b90509392505050565b5f81519050919050565b5f82825260208201905092915050565b8281835e5f83830152505050565b5f601f19601f8301169050919050565b5f61110c826110ca565b61111681856110d4565b93506111268185602086016110e4565b61112f816110f2565b840191505092915050565b7f5465737420446f63756d656e74000000000000000000000000000000000000005f82015250565b5f61116e600d836110d4565b91506111798261113a565b602082019050919050565b7f416c6963650000000000000000000000000000000000000000000000000000005f82015250565b5f6111b86005836110d4565b91506111c382611184565b602082019050919050565b7f616c696365406578616d706c652e636f6d0000000000000000000000000000005f82015250565b5f6112026011836110d4565b915061120d826111ce565b602082019050919050565b5f60a0820190508181035f8301526112308185611102565b9050818103602083015261124381611162565b90508181036040830152611256816111ac565b90508181036060830152611269816111f6565b90506112786080830184610ed4565b9392505050565b5f6020820190508181035f8301526112978184611102565b905092915050565b5f80fd5b5f80fd5b7f4e487b71000000000000000000000000000000000000000000000000000000005f52604160045260245ffd5b6112dd826110f2565b810181811067ffffffffffffffff821117156112fc576112fb6112a7565b5b80604052505050565b5f61130e610efc565b905061131a82826112d4565b919050565b5f67ffffffffffffffff821115611339576113386112a7565b5b611342826110f2565b9050602081019050919050565b5f61136161135c8461131f565b611305565b90508281526020810184848401111561137d5761137c6112a3565b5b6113888482856110e4565b509392505050565b5f82601f8301126113a4576113a361129f565b5b81516113b484826020860161134f565b91505092915050565b6113c681610ec3565b81146113d0575f80fd5b50565b5f815190506113e1816113bd565b92915050565b5f805f80608085870312156113ff576113fe610f05565b5b5f85015167ffffffffffffffff81111561141c5761141b610f09565b5b61142887828801611390565b945050602085015167ffffffffffffffff81111561144957611448610f09565b5b61145587828801611390565b935050604085015167ffffffffffffffff81111561147657611475610f09565b5b61148287828801611390565b9250506060611493878288016113d3565b91505092959194509250565b5f6114a9826110ca565b6114b38185611010565b93506114c38185602086016110e4565b6114cc816110f2565b840191505092915050565b5f6114e3600d83611010565b91506114ee8261113a565b602082019050919050565b7f4c6520646f63756d656e742044494420646f697420c3aa7472652027546573745f8201527f20446f63756d656e742700000000000000000000000000000000000000000000602082015250565b5f611553602a83611010565b915061155e826114f9565b604082019050919050565b5f6060820190508181035f830152611581818461149f565b90508181036020830152611594816114d7565b905081810360408301526115a781611547565b905092915050565b5f6115bb600583611010565b91506115c682611184565b602082019050919050565b7f4c65206e6f6d20646f697420c3aa7472652027416c69636527000000000000005f82015250565b5f611605601983611010565b9150611610826115d1565b602082019050919050565b5f6060820190508181035f830152611633818461149f565b90508181036020830152611646816115af565b90508181036040830152611659816115f9565b905092915050565b5f61166d601183611010565b9150611678826111ce565b602082019050919050565b7f4c27656d61696c20646f697420c3aa7472652027616c696365406578616d706c5f8201527f652e636f6d270000000000000000000000000000000000000000000000000000602082015250565b5f6116dd602683611010565b91506116e882611683565b604082019050919050565b5f6060820190508181035f83015261170b818461149f565b9050818103602083015261171e81611661565b90508181036040830152611731816116d1565b905092915050565b61174281610ec3565b82525050565b7f4c652070726f707269c3a9746169726520646f697420c3aa747265206c2775745f8201527f696c69736174657572207370c3a963696669c3a9000000000000000000000000602082015250565b5f6117a2603483611010565b91506117ad82611748565b604082019050919050565b5f6060820190506117cb5f830185611739565b6117d86020830184611739565b81810360408301526117e981611796565b90509392505050565b7f4c277574696c6973617465757220646f69742061766f6972206c652072c3b46c5f8201527f6520555345525f524f4c4520617072c3a873206c61206372c3a96174696f6e2060208201527f6475204449440000000000000000000000000000000000000000000000000000604082015250565b5f611872604683611010565b915061187d826117f2565b606082019050919050565b5f60608201905061189b5f830185611001565b6118a86020830184611001565b81810360408301526118b981611866565b90509392505050565b5f6040820190508181035f8301526118da8185611102565b90506118e96020830184610ed4565b9392505050565b7f4c652070726f707269c3a9746169726520646f697420c3aa747265206c65206e5f8201527f6f7576656c207574696c69736174657572000000000000000000000000000000602082015250565b5f61194a603183611010565b9150611955826118f0565b604082019050919050565b5f6060820190506119735f830185611739565b6119806020830184611739565b81810360408301526119918161193e565b90509392505050565b7f5570646174656420446f63756d656e74000000000000000000000000000000005f82015250565b5f6119ce6010836110d4565b91506119d98261199a565b602082019050919050565b5f6040820190508181035f8301526119fc8184611102565b90508181036020830152611a0f816119c2565b905092915050565b5f8160e01c9050919050565b5f60033d1115611a3f5760045f803e611a3c5f51611a17565b90505b90565b5f60443d10611ace57611a53610efc565b60043d036004823e80513d602482011167ffffffffffffffff82111715611a7b575050611ace565b808201805167ffffffffffffffff811115611a995750505050611ace565b80602083010160043d038501811115611ab6575050505050611ace565b611ac5826020018501866112d4565b82955050505050505b90565b7f4e6f7420746865206f776e6572206f66207468652044494400000000000000005f82015250565b5f611b05601883611010565b9150611b1082611ad1565b602082019050919050565b7f4c65206d65737361676520642765727265757220646f697420696e64697175655f8201527f7220717565206c277574696c69736174657572206e2765737420706173206c6560208201527f2070726f707269c3a97461697265000000000000000000000000000000000000604082015250565b5f611b9b604e83611010565b9150611ba682611b1b565b606082019050919050565b5f6060820190508181035f830152611bc9818461149f565b90508181036020830152611bdc81611af9565b90508181036040830152611bef81611b8f565b905092915050565b7f556e652065727265757220696e617474656e6475652073276573742070726f645f8201527f7569746500000000000000000000000000000000000000000000000000000000602082015250565b5f611c51602483611010565b9150611c5c82611bf7565b604082019050919050565b5f604082019050611c7a5f830184611001565b8181036020830152611c8b81611c45565b905092915050565b7f4c277574696c69736174657572206e6f6e2070726f707269c3a97461697265205f8201527f6e65207065757420706173206d657474726520c3a0206a6f7572206c6520444960208201527f4400000000000000000000000000000000000000000000000000000000000000604082015250565b5f611d13604183611010565b9150611d1e82611c93565b606082019050919050565b5f604082019050611d3c5f830184611001565b8181036020830152611d4d81611d07565b905092915050565b5f611d61601083611010565b9150611d6c8261199a565b602082019050919050565b7f4c6520646f63756d656e742044494420646f697420c3aa747265206d697320c35f8201527fa0206a6f75720000000000000000000000000000000000000000000000000000602082015250565b5f611dd1602683611010565b9150611ddc82611d77565b604082019050919050565b5f6060820190508181035f830152611dff818461149f565b90508181036020830152611e1281611d55565b90508181036040830152611e2581611dc5565b90509291505056fe608060405234801561000f575f80fd5b5060405161209738038061209783398181016040528101906100319190610238565b6100435f801b8261007b60201b60201c565b506100747f1b0a231506479db2482c2292b1c6a04ee5d0ab623a9347dd702500688937ab618261007b60201b60201c565b5050610263565b5f61008c838361017060201b60201c565b6101665760015f808581526020019081526020015f205f015f8473ffffffffffffffffffffffffffffffffffffffff1673ffffffffffffffffffffffffffffffffffffffff1681526020019081526020015f205f6101000a81548160ff0219169083151502179055506101036101d360201b60201c565b73ffffffffffffffffffffffffffffffffffffffff168273ffffffffffffffffffffffffffffffffffffffff16847f2f8788117e7eff1d82e926ec794901d17c78024a50270940304540a733656f0d60405160405180910390a46001905061016a565b5f90505b92915050565b5f805f8481526020019081526020015f205f015f8373ffffffffffffffffffffffffffffffffffffffff1673ffffffffffffffffffffffffffffffffffffffff1681526020019081526020015f205f9054906101000a900460ff16905092915050565b5f33905090565b5f80fd5b5f73ffffffffffffffffffffffffffffffffffffffff82169050919050565b5f610207826101de565b9050919050565b610217816101fd565b8114610221575f80fd5b50565b5f815190506102328161020e565b92915050565b5f6020828403121561024d5761024c6101da565b5b5f61025a84828501610224565b91505092915050565b611e27806102705f395ff3fe608060405234801561000f575f80fd5b5060043610610109575f3560e01c806394fce43b116100a0578063d547741f1161006f578063d547741f1461029f578063dc25e068146102bb578063e7705db6146102d7578063facea43a146102f5578063fd8a00561461031157610109565b806394fce43b1461022b578063a217fddf14610249578063ab25837414610267578063b42a02b51461028357610109565b806336568abe116100dc57806336568abe146101a757806341858c4b146101c35780639000b3d6146101df57806391d14854146101fb57610109565b806301ffc9a71461010d578063131191611461013d578063248a9ca31461015b5780632f2ff15d1461018b575b5f80fd5b6101276004803603810190610122919061120f565b610344565b6040516101349190611254565b60405180910390f35b6101456103bd565b6040516101529190611285565b60405180910390f35b610175600480360381019061017091906112c8565b6103e1565b6040516101829190611285565b60405180910390f35b6101a560048036038101906101a0919061134d565b6103fd565b005b6101c160048036038101906101bc919061134d565b61041f565b005b6101dd60048036038101906101d8919061138b565b61049a565b005b6101f960048036038101906101f4919061138b565b61051c565b005b6102156004803603810190610210919061134d565b610574565b6040516102229190611254565b60405180910390f35b6102336105d7565b6040516102409190611285565b60405180910390f35b6102516105fb565b60405161025e9190611285565b60405180910390f35b610281600480360381019061027c91906114f2565b610601565b005b61029d6004803603810190610298919061154c565b6107b1565b005b6102b960048036038101906102b4919061134d565b6108ca565b005b6102d560048036038101906102d091906115c2565b6108ec565b005b6102df610b0e565b6040516102ec9190611285565b60405180910390f35b61030f600480360381019061030a91906116a9565b610b32565b005b61032b6004803603810190610326919061174d565b610c7e565b60405161033b9493929190611803565b60405180910390f35b5f7f7965db0b000000000000000000000000000000000000000000000000000000007bffffffffffffffffffffffffffffffffffffffffffffffffffffffff1916827bffffffffffffffffffffffffffffffffffffffffffffffffffffffff191614806103b657506103b582610f02565b5b9050919050565b7f14823911f2da1b49f045a0929a60b8c1f2a7fc8c06c7284ca3e8ab4e193a08c881565b5f805f8381526020019081526020015f20600101549050919050565b610406826103e1565b61040f81610f6b565b6104198383610f7f565b50505050565b610427611068565b73ffffffffffffffffffffffffffffffffffffffff168173ffffffffffffffffffffffffffffffffffffffff161461048b576040517f6697b23200000000000000000000000000000000000000000000000000000000815260040160405180910390fd5b610495828261106f565b505050565b7f1b0a231506479db2482c2292b1c6a04ee5d0ab623a9347dd702500688937ab616104c481610f6b565b6104ee7f1b0a231506479db2482c2292b1c6a04ee5d0ab623a9347dd702500688937ab61836103fd565b6105187f1b0a231506479db2482c2292b1c6a04ee5d0ab623a9347dd702500688937ab61336108ca565b5050565b7f1b0a231506479db2482c2292b1c6a04ee5d0ab623a9347dd702500688937ab6161054681610f6b565b6105707f0ce23c3e399818cfee81a7ab0880f714e53d7672b08df0fa62f2843416e1ea09836103fd565b5050565b5f805f8481526020019081526020015f205f015f8373ffffffffffffffffffffffffffffffffffffffff1673ffffffffffffffffffffffffffffffffffffffff1681526020019081526020015f205f9054906101000a900460ff16905092915050565b7f1b0a231506479db2482c2292b1c6a04ee5d0ab623a9347dd702500688937ab6181565b5f801b81565b3373ffffffffffffffffffffffffffffffffffffffff166001836040516106289190611895565b90815260200160405180910390206003015f9054906101000a900473ffffffffffffffffffffffffffffffffffffffff1673ffffffffffffffffffffffffffffffffffffffff1614806106a157506106a07f1b0a231506479db2482c2292b1c6a04ee5d0ab623a9347dd702500688937ab6133610574565b5b6106e0576040517f08c379a00000000000000000000000000000000000000000000000000000000081526004016106d7906118f5565b60405180910390fd5b5f73ffffffffffffffffffffffffffffffffffffffff168173ffffffffffffffffffffffffffffffffffffffff160361074e576040517f08c379a00000000000000000000000000000000000000000000000000000000081526004016107459061195d565b60405180910390fd5b8060018360405161075f9190611895565b90815260200160405180910390206003015f6101000a81548173ffffffffffffffffffffffffffffffffffffffff021916908373ffffffffffffffffffffffffffffffffffffffff1602179055505050565b3373ffffffffffffffffffffffffffffffffffffffff166001836040516107d89190611895565b90815260200160405180910390206003015f9054906101000a900473ffffffffffffffffffffffffffffffffffffffff1673ffffffffffffffffffffffffffffffffffffffff161461085f576040517f08c379a0000000000000000000000000000000000000000000000000000000008152600401610856906119c5565b60405180910390fd5b806001836040516108709190611895565b90815260200160405180910390205f01908161088c9190611be6565b507fef928790e3ba239e686d4c1e6e85a60d67ddf17a606292c714ca966a2720f26882826040516108be929190611cb5565b60405180910390a15050565b6108d3826103e1565b6108dc81610f6b565b6108e6838361106f565b50505050565b7f1b0a231506479db2482c2292b1c6a04ee5d0ab623a9347dd702500688937ab6161091681610f6b565b5f73ffffffffffffffffffffffffffffffffffffffff1660018760405161093d9190611895565b90815260200160405180910390206003015f9054906101000a900473ffffffffffffffffffffffffffffffffffffffff1673ffffffffffffffffffffffffffffffffffffffff16146109c4576040517f08c379a00000000000000000000000000000000000000000000000000000000081526004016109bb90611d34565b60405180910390fd5b60405180608001604052808681526020018581526020018481526020018373ffffffffffffffffffffffffffffffffffffffff16815250600187604051610a0b9190611895565b90815260200160405180910390205f820151815f019081610a2c9190611be6565b506020820151816001019081610a429190611be6565b506040820151816002019081610a589190611be6565b506060820151816003015f6101000a81548173ffffffffffffffffffffffffffffffffffffffff021916908373ffffffffffffffffffffffffffffffffffffffff160217905550905050610acc7f14823911f2da1b49f045a0929a60b8c1f2a7fc8c06c7284ca3e8ab4e193a08c883610f7f565b507f44ca9609d2fe597457041d7e98533a969452ef425c10a46d0dd9f074497ea1ba8683604051610afe929190611d52565b60405180910390a1505050505050565b7f0ce23c3e399818cfee81a7ab0880f714e53d7672b08df0fa62f2843416e1ea0981565b3373ffffffffffffffffffffffffffffffffffffffff16600184604051610b599190611895565b90815260200160405180910390206003015f9054906101000a900473ffffffffffffffffffffffffffffffffffffffff1673ffffffffffffffffffffffffffffffffffffffff1614610be0576040517f08c379a0000000000000000000000000000000000000000000000000000000008152600401610bd7906119c5565b60405180910390fd5b81600184604051610bf19190611895565b90815260200160405180910390206001019081610c0e9190611be6565b5080600184604051610c209190611895565b90815260200160405180910390206002019081610c3d9190611be6565b507ffcdad05ce3c89a367c74c08f373cf092af7e367cdcdeecfd3a89bf55fa9d28e1838383604051610c7193929190611d80565b60405180910390a1505050565b60608060605f7f0ce23c3e399818cfee81a7ab0880f714e53d7672b08df0fa62f2843416e1ea09610cae81610f6b565b5f600187604051610cbf9190611895565b90815260200160405180910390206040518060800160405290815f82018054610ce790611a10565b80601f0160208091040260200160405190810160405280929190818152602001828054610d1390611a10565b8015610d5e5780601f10610d3557610100808354040283529160200191610d5e565b820191905f5260205f20905b815481529060010190602001808311610d4157829003601f168201915b50505050508152602001600182018054610d7790611a10565b80601f0160208091040260200160405190810160405280929190818152602001828054610da390611a10565b8015610dee5780601f10610dc557610100808354040283529160200191610dee565b820191905f5260205f20905b815481529060010190602001808311610dd157829003601f168201915b50505050508152602001600282018054610e0790611a10565b80601f0160208091040260200160405190810160405280929190818152602001828054610e3390611a10565b8015610e7e5780601f10610e5557610100808354040283529160200191610e7e565b820191905f5260205f20905b815481529060010190602001808311610e6157829003601f168201915b50505050508152602001600382015f9054906101000a900473ffffffffffffffffffffffffffffffffffffffff1673ffffffffffffffffffffffffffffffffffffffff1673ffffffffffffffffffffffffffffffffffffffff16815250509050805f0151816020015182604001518360600151955095509550955050509193509193565b5f7f01ffc9a7000000000000000000000000000000000000000000000000000000007bffffffffffffffffffffffffffffffffffffffffffffffffffffffff1916827bffffffffffffffffffffffffffffffffffffffffffffffffffffffff1916149050919050565b610f7c81610f77611068565b611158565b50565b5f610f8a8383610574565b61105e5760015f808581526020019081526020015f205f015f8473ffffffffffffffffffffffffffffffffffffffff1673ffffffffffffffffffffffffffffffffffffffff1681526020019081526020015f205f6101000a81548160ff021916908315150217905550610ffb611068565b73ffffffffffffffffffffffffffffffffffffffff168273ffffffffffffffffffffffffffffffffffffffff16847f2f8788117e7eff1d82e926ec794901d17c78024a50270940304540a733656f0d60405160405180910390a460019050611062565b5f90505b92915050565b5f33905090565b5f61107a8383610574565b1561114e575f805f8581526020019081526020015f205f015f8473ffffffffffffffffffffffffffffffffffffffff1673ffffffffffffffffffffffffffffffffffffffff1681526020019081526020015f205f6101000a81548160ff0219169083151502179055506110eb611068565b73ffffffffffffffffffffffffffffffffffffffff168273ffffffffffffffffffffffffffffffffffffffff16847ff6391f5c32d9c69d2a47ea670b442974b53935d1edc7fd64eb21e047a839171b60405160405180910390a460019050611152565b5f90505b92915050565b6111628282610574565b6111a55780826040517fe2517d3f00000000000000000000000000000000000000000000000000000000815260040161119c929190611dca565b60405180910390fd5b5050565b5f604051905090565b5f80fd5b5f80fd5b5f7fffffffff0000000000000000000000000000000000000000000000000000000082169050919050565b6111ee816111ba565b81146111f8575f80fd5b50565b5f81359050611209816111e5565b92915050565b5f60208284031215611224576112236111b2565b5b5f611231848285016111fb565b91505092915050565b5f8115159050919050565b61124e8161123a565b82525050565b5f6020820190506112675f830184611245565b92915050565b5f819050919050565b61127f8161126d565b82525050565b5f6020820190506112985f830184611276565b92915050565b6112a78161126d565b81146112b1575f80fd5b50565b5f813590506112c28161129e565b92915050565b5f602082840312156112dd576112dc6111b2565b5b5f6112ea848285016112b4565b91505092915050565b5f73ffffffffffffffffffffffffffffffffffffffff82169050919050565b5f61131c826112f3565b9050919050565b61132c81611312565b8114611336575f80fd5b50565b5f8135905061134781611323565b92915050565b5f8060408385031215611363576113626111b2565b5b5f611370858286016112b4565b925050602061138185828601611339565b9150509250929050565b5f602082840312156113a05761139f6111b2565b5b5f6113ad84828501611339565b91505092915050565b5f80fd5b5f80fd5b5f601f19601f8301169050919050565b7f4e487b71000000000000000000000000000000000000000000000000000000005f52604160045260245ffd5b611404826113be565b810181811067ffffffffffffffff82111715611423576114226113ce565b5b80604052505050565b5f6114356111a9565b905061144182826113fb565b919050565b5f67ffffffffffffffff8211156114605761145f6113ce565b5b611469826113be565b9050602081019050919050565b828183375f83830152505050565b5f61149661149184611446565b61142c565b9050828152602081018484840111156114b2576114b16113ba565b5b6114bd848285611476565b509392505050565b5f82601f8301126114d9576114d86113b6565b5b81356114e9848260208601611484565b91505092915050565b5f8060408385031215611508576115076111b2565b5b5f83013567ffffffffffffffff811115611525576115246111b6565b5b611531858286016114c5565b925050602061154285828601611339565b9150509250929050565b5f8060408385031215611562576115616111b2565b5b5f83013567ffffffffffffffff81111561157f5761157e6111b6565b5b61158b858286016114c5565b925050602083013567ffffffffffffffff8111156115ac576115ab6111b6565b5b6115b8858286016114c5565b9150509250929050565b5f805f805f60a086880312156115db576115da6111b2565b5b5f86013567ffffffffffffffff8111156115f8576115f76111b6565b5b611604888289016114c5565b955050602086013567ffffffffffffffff811115611625576116246111b6565b5b611631888289016114c5565b945050604086013567ffffffffffffffff811115611652576116516111b6565b5b61165e888289016114c5565b935050606086013567ffffffffffffffff81111561167f5761167e6111b6565b5b61168b888289016114c5565b925050608061169c88828901611339565b9150509295509295909350565b5f805f606084860312156116c0576116bf6111b2565b5b5f84013567ffffffffffffffff8111156116dd576116dc6111b6565b5b6116e9868287016114c5565b935050602084013567ffffffffffffffff81111561170a576117096111b6565b5b611716868287016114c5565b925050604084013567ffffffffffffffff811115611737576117366111b6565b5b611743868287016114c5565b9150509250925092565b5f60208284031215611762576117616111b2565b5b5f82013567ffffffffffffffff81111561177f5761177e6111b6565b5b61178b848285016114c5565b91505092915050565b5f81519050919050565b5f82825260208201905092915050565b8281835e5f83830152505050565b5f6117c682611794565b6117d0818561179e565b93506117e08185602086016117ae565b6117e9816113be565b840191505092915050565b6117fd81611312565b82525050565b5f6080820190508181035f83015261181b81876117bc565b9050818103602083015261182f81866117bc565b9050818103604083015261184381856117bc565b905061185260608301846117f4565b95945050505050565b5f81905092915050565b5f61186f82611794565b611879818561185b565b93506118898185602086016117ae565b80840191505092915050565b5f6118a08284611865565b915081905092915050565b7f4e6f7420617574686f72697a65640000000000000000000000000000000000005f82015250565b5f6118df600e8361179e565b91506118ea826118ab565b602082019050919050565b5f6020820190508181035f83015261190c816118d3565b9050919050565b7f4e6577206f776e6572206164647265737320697320696e76616c6964000000005f82015250565b5f611947601c8361179e565b915061195282611913565b602082019050919050565b5f6020820190508181035f8301526119748161193b565b9050919050565b7f4e6f7420746865206f776e6572206f66207468652044494400000000000000005f82015250565b5f6119af60188361179e565b91506119ba8261197b565b602082019050919050565b5f6020820190508181035f8301526119dc816119a3565b9050919050565b7f4e487b71000000000000000000000000000000000000000000000000000000005f52602260045260245ffd5b5f6002820490506001821680611a2757607f821691505b602082108103611a3a57611a396119e3565b5b50919050565b5f819050815f5260205f209050919050565b5f6020601f8301049050919050565b5f82821b905092915050565b5f60088302611a9c7fffffffffffffffffffffffffffffffffffffffffffffffffffffffffffffffff82611a61565b611aa68683611a61565b95508019841693508086168417925050509392505050565b5f819050919050565b5f819050919050565b5f611aea611ae5611ae084611abe565b611ac7565b611abe565b9050919050565b5f819050919050565b611b0383611ad0565b611b17611b0f82611af1565b848454611a6d565b825550505050565b5f90565b611b2b611b1f565b611b36818484611afa565b505050565b5b81811015611b5957611b4e5f82611b23565b600181019050611b3c565b5050565b601f821115611b9e57611b6f81611a40565b611b7884611a52565b81016020851015611b87578190505b611b9b611b9385611a52565b830182611b3b565b50505b505050565b5f82821c905092915050565b5f611bbe5f1984600802611ba3565b1980831691505092915050565b5f611bd68383611baf565b9150826002028217905092915050565b611bef82611794565b67ffffffffffffffff811115611c0857611c076113ce565b5b611c128254611a10565b611c1d828285611b5d565b5f60209050601f831160018114611c4e575f8415611c3c578287015190505b611c468582611bcb565b865550611cad565b601f198416611c5c86611a40565b5f5b82811015611c8357848901518255600182019150602085019450602081019050611c5e565b86831015611ca05784890151611c9c601f891682611baf565b8355505b6001600288020188555050505b505050505050565b5f6040820190508181035f830152611ccd81856117bc565b90508181036020830152611ce181846117bc565b90509392505050565b7f44494420616c72656164792065786973747300000000000000000000000000005f82015250565b5f611d1e60128361179e565b9150611d2982611cea565b602082019050919050565b5f6020820190508181035f830152611d4b81611d12565b9050919050565b5f6040820190508181035f830152611d6a81856117bc565b9050611d7960208301846117f4565b9392505050565b5f6060820190508181035f830152611d9881866117bc565b90508181036020830152611dac81856117bc565b90508181036040830152611dc081846117bc565b9050949350505050565b5f604082019050611ddd5f8301856117f4565b611dea6020830184611276565b939250505056fea2646970667358221220d7d77e7365cbc82bda823a9eca44a85c82495168cb1a71d54f4a5739586e9f0d64736f6c634300081a0033a2646970667358221220cfe286e12760a466e417ab1eea43a21d5d7d5c67330c8dc7b5aeac31f4fffb0d64736f6c634300081a0033",
			"opcodes": "PUSH1 0x80 PUSH1 0x40 MSTORE ADDRESS PUSH1 0x1 PUSH0 PUSH2 0x100 EXP DUP2 SLOAD DUP2 PUSH20 0xFFFFFFFFFFFFFFFFFFFFFFFFFFFFFFFFFFFFFFFF MUL NOT AND SWAP1 DUP4 PUSH20 0xFFFFFFFFFFFFFFFFFFFFFFFFFFFFFFFFFFFFFFFF AND MUL OR SWAP1 SSTORE POP PUSH2 0x123 PUSH1 0x2 PUSH0 PUSH2 0x100 EXP DUP2 SLOAD DUP2 PUSH20 0xFFFFFFFFFFFFFFFFFFFFFFFFFFFFFFFFFFFFFFFF MUL NOT AND SWAP1 DUP4 PUSH20 0xFFFFFFFFFFFFFFFFFFFFFFFFFFFFFFFFFFFFFFFF AND MUL OR SWAP1 SSTORE POP CALLVALUE DUP1 ISZERO PUSH1 0x90 JUMPI PUSH0 DUP1 REVERT JUMPDEST POP PUSH2 0x3EFA DUP1 PUSH2 0x9E PUSH0 CODECOPY PUSH0 RETURN INVALID PUSH1 0x80 PUSH1 0x40 MSTORE CALLVALUE DUP1 ISZERO PUSH2 0xF JUMPI PUSH0 DUP1 REVERT JUMPDEST POP PUSH1 0x4 CALLDATASIZE LT PUSH2 0x4A JUMPI PUSH0 CALLDATALOAD PUSH1 0xE0 SHR DUP1 PUSH4 0x7FEA0D4B EQ PUSH2 0x4E JUMPI DUP1 PUSH4 0xA18BC981 EQ PUSH2 0x58 JUMPI DUP1 PUSH4 0xB37575CE EQ PUSH2 0x62 JUMPI DUP1 PUSH4 0xE183F22C EQ PUSH2 0x6C JUMPI JUMPDEST PUSH0 DUP1 REVERT JUMPDEST PUSH2 0x56 PUSH2 0x76 JUMP JUMPDEST STOP JUMPDEST PUSH2 0x60 PUSH2 0x2C6 JUMP JUMPDEST STOP JUMPDEST PUSH2 0x6A PUSH2 0x811 JUMP JUMPDEST STOP JUMPDEST PUSH2 0x74 PUSH2 0x9F6 JUMP JUMPDEST STOP JUMPDEST PUSH1 0x1 PUSH0 SWAP1 SLOAD SWAP1 PUSH2 0x100 EXP SWAP1 DIV PUSH20 0xFFFFFFFFFFFFFFFFFFFFFFFFFFFFFFFFFFFFFFFF AND PUSH1 0x40 MLOAD PUSH2 0xA4 SWAP1 PUSH2 0xE97 JUMP JUMPDEST PUSH2 0xAE SWAP2 SWAP1 PUSH2 0xEE3 JUMP JUMPDEST PUSH1 0x40 MLOAD DUP1 SWAP2 SUB SWAP1 PUSH0 CREATE DUP1 ISZERO DUP1 ISZERO PUSH2 0xC7 JUMPI RETURNDATASIZE PUSH0 DUP1 RETURNDATACOPY RETURNDATASIZE PUSH0 REVERT JUMPDEST POP PUSH0 DUP1 PUSH2 0x100 EXP DUP2 SLOAD DUP2 PUSH20 0xFFFFFFFFFFFFFFFFFFFFFFFFFFFFFFFFFFFFFFFF MUL NOT AND SWAP1 DUP4 PUSH20 0xFFFFFFFFFFFFFFFFFFFFFFFFFFFFFFFFFFFFFFFF AND MUL OR SWAP1 SSTORE POP PUSH20 0x0 PUSH4 0x767392B3 PUSH0 DUP1 SLOAD SWAP1 PUSH2 0x100 EXP SWAP1 DIV PUSH20 0xFFFFFFFFFFFFFFFFFFFFFFFFFFFFFFFFFFFFFFFF AND PUSH20 0xFFFFFFFFFFFFFFFFFFFFFFFFFFFFFFFFFFFFFFFF AND PUSH4 0x91D14854 PUSH0 DUP1 SLOAD SWAP1 PUSH2 0x100 EXP SWAP1 DIV PUSH20 0xFFFFFFFFFFFFFFFFFFFFFFFFFFFFFFFFFFFFFFFF AND PUSH20 0xFFFFFFFFFFFFFFFFFFFFFFFFFFFFFFFFFFFFFFFF AND PUSH4 0x94FCE43B PUSH1 0x40 MLOAD DUP2 PUSH4 0xFFFFFFFF AND PUSH1 0xE0 SHL DUP2 MSTORE PUSH1 0x4 ADD PUSH1 0x20 PUSH1 0x40 MLOAD DUP1 DUP4 SUB DUP2 DUP7 GAS STATICCALL ISZERO DUP1 ISZERO PUSH2 0x1C3 JUMPI RETURNDATASIZE PUSH0 DUP1 RETURNDATACOPY RETURNDATASIZE PUSH0 REVERT JUMPDEST POP POP POP POP PUSH1 0x40 MLOAD RETURNDATASIZE PUSH1 0x1F NOT PUSH1 0x1F DUP3 ADD AND DUP3 ADD DUP1 PUSH1 0x40 MSTORE POP DUP2 ADD SWAP1 PUSH2 0x1E7 SWAP2 SWAP1 PUSH2 0xF40 JUMP JUMPDEST PUSH1 0x1 PUSH0 SWAP1 SLOAD SWAP1 PUSH2 0x100 EXP SWAP1 DIV PUSH20 0xFFFFFFFFFFFFFFFFFFFFFFFFFFFFFFFFFFFFFFFF AND PUSH1 0x40 MLOAD DUP4 PUSH4 0xFFFFFFFF AND PUSH1 0xE0 SHL DUP2 MSTORE PUSH1 0x4 ADD PUSH2 0x226 SWAP3 SWAP2 SWAP1 PUSH2 0xF7A JUMP JUMPDEST PUSH1 0x20 PUSH1 0x40 MLOAD DUP1 DUP4 SUB DUP2 DUP7 GAS STATICCALL ISZERO DUP1 ISZERO PUSH2 0x241 JUMPI RETURNDATASIZE PUSH0 DUP1 RETURNDATACOPY RETURNDATASIZE PUSH0 REVERT JUMPDEST POP POP POP POP PUSH1 0x40 MLOAD RETURNDATASIZE PUSH1 0x1F NOT PUSH1 0x1F DUP3 ADD AND DUP3 ADD DUP1 PUSH1 0x40 MSTORE POP DUP2 ADD SWAP1 PUSH2 0x265 SWAP2 SWAP1 PUSH2 0xFD6 JUMP JUMPDEST PUSH1 0x1 PUSH1 0x40 MLOAD DUP4 PUSH4 0xFFFFFFFF AND PUSH1 0xE0 SHL DUP2 MSTORE PUSH1 0x4 ADD PUSH2 0x284 SWAP3 SWAP2 SWAP1 PUSH2 0x1090 JUMP JUMPDEST PUSH1 0x20 PUSH1 0x40 MLOAD DUP1 DUP4 SUB DUP2 DUP7 GAS DELEGATECALL ISZERO DUP1 ISZERO PUSH2 0x29F JUMPI RETURNDATASIZE PUSH0 DUP1 RETURNDATACOPY RETURNDATASIZE PUSH0 REVERT JUMPDEST POP POP POP POP PUSH1 0x40 MLOAD RETURNDATASIZE PUSH1 0x1F NOT PUSH1 0x1F DUP3 ADD AND DUP3 ADD DUP1 PUSH1 0x40 MSTORE POP DUP2 ADD SWAP1 PUSH2 0x2C3 SWAP2 SWAP1 PUSH2 0xFD6 JUMP JUMPDEST POP JUMP JUMPDEST PUSH0 PUSH1 0x40 MLOAD DUP1 PUSH1 0x40 ADD PUSH1 0x40 MSTORE DUP1 PUSH1 0xF DUP2 MSTORE PUSH1 0x20 ADD PUSH32 0x6469643A6578616D706C653A3132330000000000000000000000000000000000 DUP2 MSTORE POP SWAP1 POP PUSH0 DUP1 SLOAD SWAP1 PUSH2 0x100 EXP SWAP1 DIV PUSH20 0xFFFFFFFFFFFFFFFFFFFFFFFFFFFFFFFFFFFFFFFF AND PUSH20 0xFFFFFFFFFFFFFFFFFFFFFFFFFFFFFFFFFFFFFFFF AND PUSH4 0xDC25E068 DUP3 PUSH1 0x2 PUSH0 SWAP1 SLOAD SWAP1 PUSH2 0x100 EXP SWAP1 DIV PUSH20 0xFFFFFFFFFFFFFFFFFFFFFFFFFFFFFFFFFFFFFFFF AND PUSH1 0x40 MLOAD DUP4 PUSH4 0xFFFFFFFF AND PUSH1 0xE0 SHL DUP2 MSTORE PUSH1 0x4 ADD PUSH2 0x37A SWAP3 SWAP2 SWAP1 PUSH2 0x1218 JUMP JUMPDEST PUSH0 PUSH1 0x40 MLOAD DUP1 DUP4 SUB DUP2 PUSH0 DUP8 DUP1 EXTCODESIZE ISZERO DUP1 ISZERO PUSH2 0x391 JUMPI PUSH0 DUP1 REVERT JUMPDEST POP GAS CALL ISZERO DUP1 ISZERO PUSH2 0x3A3 JUMPI RETURNDATASIZE PUSH0 DUP1 RETURNDATACOPY RETURNDATASIZE PUSH0 REVERT JUMPDEST POP POP POP POP PUSH0 DUP1 PUSH0 DUP1 PUSH0 DUP1 SLOAD SWAP1 PUSH2 0x100 EXP SWAP1 DIV PUSH20 0xFFFFFFFFFFFFFFFFFFFFFFFFFFFFFFFFFFFFFFFF AND PUSH20 0xFFFFFFFFFFFFFFFFFFFFFFFFFFFFFFFFFFFFFFFF AND PUSH4 0xFD8A0056 DUP7 PUSH1 0x40 MLOAD DUP3 PUSH4 0xFFFFFFFF AND PUSH1 0xE0 SHL DUP2 MSTORE PUSH1 0x4 ADD PUSH2 0x403 SWAP2 SWAP1 PUSH2 0x127F JUMP JUMPDEST PUSH0 PUSH1 0x40 MLOAD DUP1 DUP4 SUB DUP2 DUP7 GAS STATICCALL ISZERO DUP1 ISZERO PUSH2 0x41D JUMPI RETURNDATASIZE PUSH0 DUP1 RETURNDATACOPY RETURNDATASIZE PUSH0 REVERT JUMPDEST POP POP POP POP PUSH1 0x40 MLOAD RETURNDATASIZE PUSH0 DUP3 RETURNDATACOPY RETURNDATASIZE PUSH1 0x1F NOT PUSH1 0x1F DUP3 ADD AND DUP3 ADD DUP1 PUSH1 0x40 MSTORE POP DUP2 ADD SWAP1 PUSH2 0x445 SWAP2 SWAP1 PUSH2 0x13E7 JUMP JUMPDEST SWAP4 POP SWAP4 POP SWAP4 POP SWAP4 POP PUSH20 0x0 PUSH4 0xE8C2CB16 DUP6 PUSH1 0x40 MLOAD DUP3 PUSH4 0xFFFFFFFF AND PUSH1 0xE0 SHL DUP2 MSTORE PUSH1 0x4 ADD PUSH2 0x484 SWAP2 SWAP1 PUSH2 0x1569 JUMP JUMPDEST PUSH1 0x20 PUSH1 0x40 MLOAD DUP1 DUP4 SUB DUP2 DUP7 GAS DELEGATECALL ISZERO DUP1 ISZERO PUSH2 0x49F JUMPI RETURNDATASIZE PUSH0 DUP1 RETURNDATACOPY RETURNDATASIZE PUSH0 REVERT JUMPDEST POP POP POP POP PUSH1 0x40 MLOAD RETURNDATASIZE PUSH1 0x1F NOT PUSH1 0x1F DUP3 ADD AND DUP3 ADD DUP1 PUSH1 0x40 MSTORE POP DUP2 ADD SWAP1 PUSH2 0x4C3 SWAP2 SWAP1 PUSH2 0xFD6 JUMP JUMPDEST POP PUSH20 0x0 PUSH4 0xE8C2CB16 DUP5 PUSH1 0x40 MLOAD DUP3 PUSH4 0xFFFFFFFF AND PUSH1 0xE0 SHL DUP2 MSTORE PUSH1 0x4 ADD PUSH2 0x4FB SWAP2 SWAP1 PUSH2 0x161B JUMP JUMPDEST PUSH1 0x20 PUSH1 0x40 MLOAD DUP1 DUP4 SUB DUP2 DUP7 GAS DELEGATECALL ISZERO DUP1 ISZERO PUSH2 0x516 JUMPI RETURNDATASIZE PUSH0 DUP1 RETURNDATACOPY RETURNDATASIZE PUSH0 REVERT JUMPDEST POP POP POP POP PUSH1 0x40 MLOAD RETURNDATASIZE PUSH1 0x1F NOT PUSH1 0x1F DUP3 ADD AND DUP3 ADD DUP1 PUSH1 0x40 MSTORE POP DUP2 ADD SWAP1 PUSH2 0x53A SWAP2 SWAP1 PUSH2 0xFD6 JUMP JUMPDEST POP PUSH20 0x0 PUSH4 0xE8C2CB16 DUP4 PUSH1 0x40 MLOAD DUP3 PUSH4 0xFFFFFFFF AND PUSH1 0xE0 SHL DUP2 MSTORE PUSH1 0x4 ADD PUSH2 0x572 SWAP2 SWAP1 PUSH2 0x16F3 JUMP JUMPDEST PUSH1 0x20 PUSH1 0x40 MLOAD DUP1 DUP4 SUB DUP2 DUP7 GAS DELEGATECALL ISZERO DUP1 ISZERO PUSH2 0x58D JUMPI RETURNDATASIZE PUSH0 DUP1 RETURNDATACOPY RETURNDATASIZE PUSH0 REVERT JUMPDEST POP POP POP POP PUSH1 0x40 MLOAD RETURNDATASIZE PUSH1 0x1F NOT PUSH1 0x1F DUP3 ADD AND DUP3 ADD DUP1 PUSH1 0x40 MSTORE POP DUP2 ADD SWAP1 PUSH2 0x5B1 SWAP2 SWAP1 PUSH2 0xFD6 JUMP JUMPDEST POP PUSH20 0x0 PUSH4 0xBFBA5DD6 DUP3 PUSH1 0x2 PUSH0 SWAP1 SLOAD SWAP1 PUSH2 0x100 EXP SWAP1 DIV PUSH20 0xFFFFFFFFFFFFFFFFFFFFFFFFFFFFFFFFFFFFFFFF AND PUSH1 0x40 MLOAD DUP4 PUSH4 0xFFFFFFFF AND PUSH1 0xE0 SHL DUP2 MSTORE PUSH1 0x4 ADD PUSH2 0x60C SWAP3 SWAP2 SWAP1 PUSH2 0x17B8 JUMP JUMPDEST PUSH1 0x20 PUSH1 0x40 MLOAD DUP1 DUP4 SUB DUP2 DUP7 GAS DELEGATECALL ISZERO DUP1 ISZERO PUSH2 0x627 JUMPI RETURNDATASIZE PUSH0 DUP1 RETURNDATACOPY RETURNDATASIZE PUSH0 REVERT JUMPDEST POP POP POP POP PUSH1 0x40 MLOAD RETURNDATASIZE PUSH1 0x1F NOT PUSH1 0x1F DUP3 ADD AND DUP3 ADD DUP1 PUSH1 0x40 MSTORE POP DUP2 ADD SWAP1 PUSH2 0x64B SWAP2 SWAP1 PUSH2 0xFD6 JUMP JUMPDEST POP PUSH20 0x0 PUSH4 0x767392B3 PUSH0 DUP1 SLOAD SWAP1 PUSH2 0x100 EXP SWAP1 DIV PUSH20 0xFFFFFFFFFFFFFFFFFFFFFFFFFFFFFFFFFFFFFFFF AND PUSH20 0xFFFFFFFFFFFFFFFFFFFFFFFFFFFFFFFFFFFFFFFF AND PUSH4 0x91D14854 PUSH0 DUP1 SLOAD SWAP1 PUSH2 0x100 EXP SWAP1 DIV PUSH20 0xFFFFFFFFFFFFFFFFFFFFFFFFFFFFFFFFFFFFFFFF AND PUSH20 0xFFFFFFFFFFFFFFFFFFFFFFFFFFFFFFFFFFFFFFFF AND PUSH4 0x13119161 PUSH1 0x40 MLOAD DUP2 PUSH4 0xFFFFFFFF AND PUSH1 0xE0 SHL DUP2 MSTORE PUSH1 0x4 ADD PUSH1 0x20 PUSH1 0x40 MLOAD DUP1 DUP4 SUB DUP2 DUP7 GAS STATICCALL ISZERO DUP1 ISZERO PUSH2 0x709 JUMPI RETURNDATASIZE PUSH0 DUP1 RETURNDATACOPY RETURNDATASIZE PUSH0 REVERT JUMPDEST POP POP POP POP PUSH1 0x40 MLOAD RETURNDATASIZE PUSH1 0x1F NOT PUSH1 0x1F DUP3 ADD AND DUP3 ADD DUP1 PUSH1 0x40 MSTORE POP DUP2 ADD SWAP1 PUSH2 0x72D SWAP2 SWAP1 PUSH2 0xF40 JUMP JUMPDEST PUSH1 0x2 PUSH0 SWAP1 SLOAD SWAP1 PUSH2 0x100 EXP SWAP1 DIV PUSH20 0xFFFFFFFFFFFFFFFFFFFFFFFFFFFFFFFFFFFFFFFF AND PUSH1 0x40 MLOAD DUP4 PUSH4 0xFFFFFFFF AND PUSH1 0xE0 SHL DUP2 MSTORE PUSH1 0x4 ADD PUSH2 0x76C SWAP3 SWAP2 SWAP1 PUSH2 0xF7A JUMP JUMPDEST PUSH1 0x20 PUSH1 0x40 MLOAD DUP1 DUP4 SUB DUP2 DUP7 GAS STATICCALL ISZERO DUP1 ISZERO PUSH2 0x787 JUMPI RETURNDATASIZE PUSH0 DUP1 RETURNDATACOPY RETURNDATASIZE PUSH0 REVERT JUMPDEST POP POP POP POP PUSH1 0x40 MLOAD RETURNDATASIZE PUSH1 0x1F NOT PUSH1 0x1F DUP3 ADD AND DUP3 ADD DUP1 PUSH1 0x40 MSTORE POP DUP2 ADD SWAP1 PUSH2 0x7AB SWAP2 SWAP1 PUSH2 0xFD6 JUMP JUMPDEST PUSH1 0x1 PUSH1 0x40 MLOAD DUP4 PUSH4 0xFFFFFFFF AND PUSH1 0xE0 SHL DUP2 MSTORE PUSH1 0x4 ADD PUSH2 0x7CA SWAP3 SWAP2 SWAP1 PUSH2 0x1888 JUMP JUMPDEST PUSH1 0x20 PUSH1 0x40 MLOAD DUP1 DUP4 SUB DUP2 DUP7 GAS DELEGATECALL ISZERO DUP1 ISZERO PUSH2 0x7E5 JUMPI RETURNDATASIZE PUSH0 DUP1 RETURNDATACOPY RETURNDATASIZE PUSH0 REVERT JUMPDEST POP POP POP POP PUSH1 0x40 MLOAD RETURNDATASIZE PUSH1 0x1F NOT PUSH1 0x1F DUP3 ADD AND DUP3 ADD DUP1 PUSH1 0x40 MSTORE POP DUP2 ADD SWAP1 PUSH2 0x809 SWAP2 SWAP1 PUSH2 0xFD6 JUMP JUMPDEST POP POP POP POP POP POP JUMP JUMPDEST PUSH0 PUSH1 0x40 MLOAD DUP1 PUSH1 0x40 ADD PUSH1 0x40 MSTORE DUP1 PUSH1 0xF DUP2 MSTORE PUSH1 0x20 ADD PUSH32 0x6469643A6578616D706C653A3132330000000000000000000000000000000000 DUP2 MSTORE POP SWAP1 POP PUSH0 PUSH2 0x456 SWAP1 POP PUSH0 DUP1 SLOAD SWAP1 PUSH2 0x100 EXP SWAP1 DIV PUSH20 0xFFFFFFFFFFFFFFFFFFFFFFFFFFFFFFFFFFFFFFFF AND PUSH20 0xFFFFFFFFFFFFFFFFFFFFFFFFFFFFFFFFFFFFFFFF AND PUSH4 0xAB258374 DUP4 DUP4 PUSH1 0x40 MLOAD DUP4 PUSH4 0xFFFFFFFF AND PUSH1 0xE0 SHL DUP2 MSTORE PUSH1 0x4 ADD PUSH2 0x8AA SWAP3 SWAP2 SWAP1 PUSH2 0x18C2 JUMP JUMPDEST PUSH0 PUSH1 0x40 MLOAD DUP1 DUP4 SUB DUP2 PUSH0 DUP8 DUP1 EXTCODESIZE ISZERO DUP1 ISZERO PUSH2 0x8C1 JUMPI PUSH0 DUP1 REVERT JUMPDEST POP GAS CALL ISZERO DUP1 ISZERO PUSH2 0x8D3 JUMPI RETURNDATASIZE PUSH0 DUP1 RETURNDATACOPY RETURNDATASIZE PUSH0 REVERT JUMPDEST POP POP POP POP PUSH0 DUP1 PUSH0 SWAP1 SLOAD SWAP1 PUSH2 0x100 EXP SWAP1 DIV PUSH20 0xFFFFFFFFFFFFFFFFFFFFFFFFFFFFFFFFFFFFFFFF AND PUSH20 0xFFFFFFFFFFFFFFFFFFFFFFFFFFFFFFFFFFFFFFFF AND PUSH4 0xFD8A0056 DUP5 PUSH1 0x40 MLOAD DUP3 PUSH4 0xFFFFFFFF AND PUSH1 0xE0 SHL DUP2 MSTORE PUSH1 0x4 ADD PUSH2 0x931 SWAP2 SWAP1 PUSH2 0x127F JUMP JUMPDEST PUSH0 PUSH1 0x40 MLOAD DUP1 DUP4 SUB DUP2 DUP7 GAS STATICCALL ISZERO DUP1 ISZERO PUSH2 0x94B JUMPI RETURNDATASIZE PUSH0 DUP1 RETURNDATACOPY RETURNDATASIZE PUSH0 REVERT JUMPDEST POP POP POP POP PUSH1 0x40 MLOAD RETURNDATASIZE PUSH0 DUP3 RETURNDATACOPY RETURNDATASIZE PUSH1 0x1F NOT PUSH1 0x1F DUP3 ADD AND DUP3 ADD DUP1 PUSH1 0x40 MSTORE POP DUP2 ADD SWAP1 PUSH2 0x973 SWAP2 SWAP1 PUSH2 0x13E7 JUMP JUMPDEST SWAP4 POP POP POP POP PUSH20 0x0 PUSH4 0xBFBA5DD6 DUP3 DUP5 PUSH1 0x40 MLOAD DUP4 PUSH4 0xFFFFFFFF AND PUSH1 0xE0 SHL DUP2 MSTORE PUSH1 0x4 ADD PUSH2 0x9B1 SWAP3 SWAP2 SWAP1 PUSH2 0x1960 JUMP JUMPDEST PUSH1 0x20 PUSH1 0x40 MLOAD DUP1 DUP4 SUB DUP2 DUP7 GAS DELEGATECALL ISZERO DUP1 ISZERO PUSH2 0x9CC JUMPI RETURNDATASIZE PUSH0 DUP1 RETURNDATACOPY RETURNDATASIZE PUSH0 REVERT JUMPDEST POP POP POP POP PUSH1 0x40 MLOAD RETURNDATASIZE PUSH1 0x1F NOT PUSH1 0x1F DUP3 ADD AND DUP3 ADD DUP1 PUSH1 0x40 MSTORE POP DUP2 ADD SWAP1 PUSH2 0x9F0 SWAP2 SWAP1 PUSH2 0xFD6 JUMP JUMPDEST POP POP POP POP JUMP JUMPDEST PUSH0 PUSH1 0x40 MLOAD DUP1 PUSH1 0x40 ADD PUSH1 0x40 MSTORE DUP1 PUSH1 0xF DUP2 MSTORE PUSH1 0x20 ADD PUSH32 0x6469643A6578616D706C653A3132330000000000000000000000000000000000 DUP2 MSTORE POP SWAP1 POP PUSH0 DUP1 SLOAD SWAP1 PUSH2 0x100 EXP SWAP1 DIV PUSH20 0xFFFFFFFFFFFFFFFFFFFFFFFFFFFFFFFFFFFFFFFF AND PUSH20 0xFFFFFFFFFFFFFFFFFFFFFFFFFFFFFFFFFFFFFFFF AND PUSH4 0xB42A02B5 DUP3 PUSH1 0x40 MLOAD DUP3 PUSH4 0xFFFFFFFF AND PUSH1 0xE0 SHL DUP2 MSTORE PUSH1 0x4 ADD PUSH2 0xA87 SWAP2 SWAP1 PUSH2 0x19E4 JUMP JUMPDEST PUSH0 PUSH1 0x40 MLOAD DUP1 DUP4 SUB DUP2 PUSH0 DUP8 DUP1 EXTCODESIZE ISZERO DUP1 ISZERO PUSH2 0xA9E JUMPI PUSH0 DUP1 REVERT JUMPDEST POP GAS CALL SWAP3 POP POP POP DUP1 ISZERO PUSH2 0xAAF JUMPI POP PUSH1 0x1 JUMPDEST PUSH2 0xBD6 JUMPI PUSH2 0xABB PUSH2 0x1A23 JUMP JUMPDEST DUP1 PUSH4 0x8C379A0 SUB PUSH2 0xB57 JUMPI POP PUSH2 0xACF PUSH2 0x1A42 JUMP JUMPDEST DUP1 PUSH2 0xADA JUMPI POP PUSH2 0xB59 JUMP JUMPDEST PUSH20 0x0 PUSH4 0xE8C2CB16 DUP3 PUSH1 0x40 MLOAD DUP3 PUSH4 0xFFFFFFFF AND PUSH1 0xE0 SHL DUP2 MSTORE PUSH1 0x4 ADD PUSH2 0xB11 SWAP2 SWAP1 PUSH2 0x1BB1 JUMP JUMPDEST PUSH1 0x20 PUSH1 0x40 MLOAD DUP1 DUP4 SUB DUP2 DUP7 GAS DELEGATECALL ISZERO DUP1 ISZERO PUSH2 0xB2C JUMPI RETURNDATASIZE PUSH0 DUP1 RETURNDATACOPY RETURNDATASIZE PUSH0 REVERT JUMPDEST POP POP POP POP PUSH1 0x40 MLOAD RETURNDATASIZE PUSH1 0x1F NOT PUSH1 0x1F DUP3 ADD AND DUP3 ADD DUP1 PUSH1 0x40 MSTORE POP DUP2 ADD SWAP1 PUSH2 0xB50 SWAP2 SWAP1 PUSH2 0xFD6 JUMP JUMPDEST POP POP PUSH2 0xBD1 JUMP JUMPDEST POP JUMPDEST PUSH20 0x0 PUSH4 0x39DF137F PUSH0 PUSH1 0x40 MLOAD DUP3 PUSH4 0xFFFFFFFF AND PUSH1 0xE0 SHL DUP2 MSTORE PUSH1 0x4 ADD PUSH2 0xB90 SWAP2 SWAP1 PUSH2 0x1C67 JUMP JUMPDEST PUSH1 0x20 PUSH1 0x40 MLOAD DUP1 DUP4 SUB DUP2 DUP7 GAS DELEGATECALL ISZERO DUP1 ISZERO PUSH2 0xBAB JUMPI RETURNDATASIZE PUSH0 DUP1 RETURNDATACOPY RETURNDATASIZE PUSH0 REVERT JUMPDEST POP POP POP POP PUSH1 0x40 MLOAD RETURNDATASIZE PUSH1 0x1F NOT PUSH1 0x1F DUP3 ADD AND DUP3 ADD DUP1 PUSH1 0x40 MSTORE POP DUP2 ADD SWAP1 PUSH2 0xBCF SWAP2 SWAP1 PUSH2 0xFD6 JUMP JUMPDEST POP JUMPDEST PUSH2 0xC4E JUMP JUMPDEST PUSH20 0x0 PUSH4 0x39DF137F PUSH0 PUSH1 0x40 MLOAD DUP3 PUSH4 0xFFFFFFFF AND PUSH1 0xE0 SHL DUP2 MSTORE PUSH1 0x4 ADD PUSH2 0xC0D SWAP2 SWAP1 PUSH2 0x1D29 JUMP JUMPDEST PUSH1 0x20 PUSH1 0x40 MLOAD DUP1 DUP4 SUB DUP2 DUP7 GAS DELEGATECALL ISZERO DUP1 ISZERO PUSH2 0xC28 JUMPI RETURNDATASIZE PUSH0 DUP1 RETURNDATACOPY RETURNDATASIZE PUSH0 REVERT JUMPDEST POP POP POP POP PUSH1 0x40 MLOAD RETURNDATASIZE PUSH1 0x1F NOT PUSH1 0x1F DUP3 ADD AND DUP3 ADD DUP1 PUSH1 0x40 MSTORE POP DUP2 ADD SWAP1 PUSH2 0xC4C SWAP2 SWAP1 PUSH2 0xFD6 JUMP JUMPDEST POP JUMPDEST PUSH0 DUP1 SLOAD SWAP1 PUSH2 0x100 EXP SWAP1 DIV PUSH20 0xFFFFFFFFFFFFFFFFFFFFFFFFFFFFFFFFFFFFFFFF AND PUSH20 0xFFFFFFFFFFFFFFFFFFFFFFFFFFFFFFFFFFFFFFFF AND PUSH4 0xAB258374 DUP3 PUSH1 0x1 PUSH0 SWAP1 SLOAD SWAP1 PUSH2 0x100 EXP SWAP1 DIV PUSH20 0xFFFFFFFFFFFFFFFFFFFFFFFFFFFFFFFFFFFFFFFF AND PUSH1 0x40 MLOAD DUP4 PUSH4 0xFFFFFFFF AND PUSH1 0xE0 SHL DUP2 MSTORE PUSH1 0x4 ADD PUSH2 0xCC9 SWAP3 SWAP2 SWAP1 PUSH2 0x18C2 JUMP JUMPDEST PUSH0 PUSH1 0x40 MLOAD DUP1 DUP4 SUB DUP2 PUSH0 DUP8 DUP1 EXTCODESIZE ISZERO DUP1 ISZERO PUSH2 0xCE0 JUMPI PUSH0 DUP1 REVERT JUMPDEST POP GAS CALL ISZERO DUP1 ISZERO PUSH2 0xCF2 JUMPI RETURNDATASIZE PUSH0 DUP1 RETURNDATACOPY RETURNDATASIZE PUSH0 REVERT JUMPDEST POP POP POP POP PUSH0 DUP1 SLOAD SWAP1 PUSH2 0x100 EXP SWAP1 DIV PUSH20 0xFFFFFFFFFFFFFFFFFFFFFFFFFFFFFFFFFFFFFFFF AND PUSH20 0xFFFFFFFFFFFFFFFFFFFFFFFFFFFFFFFFFFFFFFFF AND PUSH4 0xB42A02B5 DUP3 PUSH1 0x40 MLOAD DUP3 PUSH4 0xFFFFFFFF AND PUSH1 0xE0 SHL DUP2 MSTORE PUSH1 0x4 ADD PUSH2 0xD4E SWAP2 SWAP1 PUSH2 0x19E4 JUMP JUMPDEST PUSH0 PUSH1 0x40 MLOAD DUP1 DUP4 SUB DUP2 PUSH0 DUP8 DUP1 EXTCODESIZE ISZERO DUP1 ISZERO PUSH2 0xD65 JUMPI PUSH0 DUP1 REVERT JUMPDEST POP GAS CALL ISZERO DUP1 ISZERO PUSH2 0xD77 JUMPI RETURNDATASIZE PUSH0 DUP1 RETURNDATACOPY RETURNDATASIZE PUSH0 REVERT JUMPDEST POP POP POP POP PUSH0 DUP1 PUSH0 SWAP1 SLOAD SWAP1 PUSH2 0x100 EXP SWAP1 DIV PUSH20 0xFFFFFFFFFFFFFFFFFFFFFFFFFFFFFFFFFFFFFFFF AND PUSH20 0xFFFFFFFFFFFFFFFFFFFFFFFFFFFFFFFFFFFFFFFF AND PUSH4 0xFD8A0056 DUP4 PUSH1 0x40 MLOAD DUP3 PUSH4 0xFFFFFFFF AND PUSH1 0xE0 SHL DUP2 MSTORE PUSH1 0x4 ADD PUSH2 0xDD5 SWAP2 SWAP1 PUSH2 0x127F JUMP JUMPDEST PUSH0 PUSH1 0x40 MLOAD DUP1 DUP4 SUB DUP2 DUP7 GAS STATICCALL ISZERO DUP1 ISZERO PUSH2 0xDEF JUMPI RETURNDATASIZE PUSH0 DUP1 RETURNDATACOPY RETURNDATASIZE PUSH0 REVERT JUMPDEST POP POP POP POP PUSH1 0x40 MLOAD RETURNDATASIZE PUSH0 DUP3 RETURNDATACOPY RETURNDATASIZE PUSH1 0x1F NOT PUSH1 0x1F DUP3 ADD AND DUP3 ADD DUP1 PUSH1 0x40 MSTORE POP DUP2 ADD SWAP1 PUSH2 0xE17 SWAP2 SWAP1 PUSH2 0x13E7 JUMP JUMPDEST POP POP POP SWAP1 POP PUSH20 0x0 PUSH4 0xE8C2CB16 DUP3 PUSH1 0x40 MLOAD DUP3 PUSH4 0xFFFFFFFF AND PUSH1 0xE0 SHL DUP2 MSTORE PUSH1 0x4 ADD PUSH2 0xE53 SWAP2 SWAP1 PUSH2 0x1DE7 JUMP JUMPDEST PUSH1 0x20 PUSH1 0x40 MLOAD DUP1 DUP4 SUB DUP2 DUP7 GAS DELEGATECALL ISZERO DUP1 ISZERO PUSH2 0xE6E JUMPI RETURNDATASIZE PUSH0 DUP1 RETURNDATACOPY RETURNDATASIZE PUSH0 REVERT JUMPDEST POP POP POP POP PUSH1 0x40 MLOAD RETURNDATASIZE PUSH1 0x1F NOT PUSH1 0x1F DUP3 ADD AND DUP3 ADD DUP1 PUSH1 0x40 MSTORE POP DUP2 ADD SWAP1 PUSH2 0xE92 SWAP2 SWAP1 PUSH2 0xFD6 JUMP JUMPDEST POP POP POP JUMP JUMPDEST PUSH2 0x2097 DUP1 PUSH2 0x1E2E DUP4 CODECOPY ADD SWAP1 JUMP JUMPDEST PUSH0 PUSH20 0xFFFFFFFFFFFFFFFFFFFFFFFFFFFFFFFFFFFFFFFF DUP3 AND SWAP1 POP SWAP2 SWAP1 POP JUMP JUMPDEST PUSH0 PUSH2 0xECD DUP3 PUSH2 0xEA4 JUMP JUMPDEST SWAP1 POP SWAP2 SWAP1 POP JUMP JUMPDEST PUSH2 0xEDD DUP2 PUSH2 0xEC3 JUMP JUMPDEST DUP3 MSTORE POP POP JUMP JUMPDEST PUSH0 PUSH1 0x20 DUP3 ADD SWAP1 POP PUSH2 0xEF6 PUSH0 DUP4 ADD DUP5 PUSH2 0xED4 JUMP JUMPDEST SWAP3 SWAP2 POP POP JUMP JUMPDEST PUSH0 PUSH1 0x40 MLOAD SWAP1 POP SWAP1 JUMP JUMPDEST PUSH0 DUP1 REVERT JUMPDEST PUSH0 DUP1 REVERT JUMPDEST PUSH0 DUP2 SWAP1 POP SWAP2 SWAP1 POP JUMP JUMPDEST PUSH2 0xF1F DUP2 PUSH2 0xF0D JUMP JUMPDEST DUP2 EQ PUSH2 0xF29 JUMPI PUSH0 DUP1 REVERT JUMPDEST POP JUMP JUMPDEST PUSH0 DUP2 MLOAD SWAP1 POP PUSH2 0xF3A DUP2 PUSH2 0xF16 JUMP JUMPDEST SWAP3 SWAP2 POP POP JUMP JUMPDEST PUSH0 PUSH1 0x20 DUP3 DUP5 SUB SLT ISZERO PUSH2 0xF55 JUMPI PUSH2 0xF54 PUSH2 0xF05 JUMP JUMPDEST JUMPDEST PUSH0 PUSH2 0xF62 DUP5 DUP3 DUP6 ADD PUSH2 0xF2C JUMP JUMPDEST SWAP2 POP POP SWAP3 SWAP2 POP POP JUMP JUMPDEST PUSH2 0xF74 DUP2 PUSH2 0xF0D JUMP JUMPDEST DUP3 MSTORE POP POP JUMP JUMPDEST PUSH0 PUSH1 0x40 DUP3 ADD SWAP1 POP PUSH2 0xF8D PUSH0 DUP4 ADD DUP6 PUSH2 0xF6B JUMP JUMPDEST PUSH2 0xF9A PUSH1 0x20 DUP4 ADD DUP5 PUSH2 0xED4 JUMP JUMPDEST SWAP4 SWAP3 POP POP POP JUMP JUMPDEST PUSH0 DUP2 ISZERO ISZERO SWAP1 POP SWAP2 SWAP1 POP JUMP JUMPDEST PUSH2 0xFB5 DUP2 PUSH2 0xFA1 JUMP JUMPDEST DUP2 EQ PUSH2 0xFBF JUMPI PUSH0 DUP1 REVERT JUMPDEST POP JUMP JUMPDEST PUSH0 DUP2 MLOAD SWAP1 POP PUSH2 0xFD0 DUP2 PUSH2 0xFAC JUMP JUMPDEST SWAP3 SWAP2 POP POP JUMP JUMPDEST PUSH0 PUSH1 0x20 DUP3 DUP5 SUB SLT ISZERO PUSH2 0xFEB JUMPI PUSH2 0xFEA PUSH2 0xF05 JUMP JUMPDEST JUMPDEST PUSH0 PUSH2 0xFF8 DUP5 DUP3 DUP6 ADD PUSH2 0xFC2 JUMP JUMPDEST SWAP2 POP POP SWAP3 SWAP2 POP POP JUMP JUMPDEST PUSH2 0x100A DUP2 PUSH2 0xFA1 JUMP JUMPDEST DUP3 MSTORE POP POP JUMP JUMPDEST PUSH0 DUP3 DUP3 MSTORE PUSH1 0x20 DUP3 ADD SWAP1 POP SWAP3 SWAP2 POP POP JUMP JUMPDEST PUSH32 0x4C2761646D696E69737472617465757220646F69742061766F6972206C652072 PUSH0 DUP3 ADD MSTORE PUSH32 0xC3B46C6520434F4E5354525543544F525F41444D494E5F524F4C450000000000 PUSH1 0x20 DUP3 ADD MSTORE POP JUMP JUMPDEST PUSH0 PUSH2 0x107A PUSH1 0x3B DUP4 PUSH2 0x1010 JUMP JUMPDEST SWAP2 POP PUSH2 0x1085 DUP3 PUSH2 0x1020 JUMP JUMPDEST PUSH1 0x40 DUP3 ADD SWAP1 POP SWAP2 SWAP1 POP JUMP JUMPDEST PUSH0 PUSH1 0x60 DUP3 ADD SWAP1 POP PUSH2 0x10A3 PUSH0 DUP4 ADD DUP6 PUSH2 0x1001 JUMP JUMPDEST PUSH2 0x10B0 PUSH1 0x20 DUP4 ADD DUP5 PUSH2 0x1001 JUMP JUMPDEST DUP2 DUP2 SUB PUSH1 0x40 DUP4 ADD MSTORE PUSH2 0x10C1 DUP2 PUSH2 0x106E JUMP JUMPDEST SWAP1 POP SWAP4 SWAP3 POP POP POP JUMP JUMPDEST PUSH0 DUP2 MLOAD SWAP1 POP SWAP2 SWAP1 POP JUMP JUMPDEST PUSH0 DUP3 DUP3 MSTORE PUSH1 0x20 DUP3 ADD SWAP1 POP SWAP3 SWAP2 POP POP JUMP JUMPDEST DUP3 DUP2 DUP4 MCOPY PUSH0 DUP4 DUP4 ADD MSTORE POP POP POP JUMP JUMPDEST PUSH0 PUSH1 0x1F NOT PUSH1 0x1F DUP4 ADD AND SWAP1 POP SWAP2 SWAP1 POP JUMP JUMPDEST PUSH0 PUSH2 0x110C DUP3 PUSH2 0x10CA JUMP JUMPDEST PUSH2 0x1116 DUP2 DUP6 PUSH2 0x10D4 JUMP JUMPDEST SWAP4 POP PUSH2 0x1126 DUP2 DUP6 PUSH1 0x20 DUP7 ADD PUSH2 0x10E4 JUMP JUMPDEST PUSH2 0x112F DUP2 PUSH2 0x10F2 JUMP JUMPDEST DUP5 ADD SWAP2 POP POP SWAP3 SWAP2 POP POP JUMP JUMPDEST PUSH32 0x5465737420446F63756D656E7400000000000000000000000000000000000000 PUSH0 DUP3 ADD MSTORE POP JUMP JUMPDEST PUSH0 PUSH2 0x116E PUSH1 0xD DUP4 PUSH2 0x10D4 JUMP JUMPDEST SWAP2 POP PUSH2 0x1179 DUP3 PUSH2 0x113A JUMP JUMPDEST PUSH1 0x20 DUP3 ADD SWAP1 POP SWAP2 SWAP1 POP JUMP JUMPDEST PUSH32 0x416C696365000000000000000000000000000000000000000000000000000000 PUSH0 DUP3 ADD MSTORE POP JUMP JUMPDEST PUSH0 PUSH2 0x11B8 PUSH1 0x5 DUP4 PUSH2 0x10D4 JUMP JUMPDEST SWAP2 POP PUSH2 0x11C3 DUP3 PUSH2 0x1184 JUMP JUMPDEST PUSH1 0x20 DUP3 ADD SWAP1 POP SWAP2 SWAP1 POP JUMP JUMPDEST PUSH32 0x616C696365406578616D706C652E636F6D000000000000000000000000000000 PUSH0 DUP3 ADD MSTORE POP JUMP JUMPDEST PUSH0 PUSH2 0x1202 PUSH1 0x11 DUP4 PUSH2 0x10D4 JUMP JUMPDEST SWAP2 POP PUSH2 0x120D DUP3 PUSH2 0x11CE JUMP JUMPDEST PUSH1 0x20 DUP3 ADD SWAP1 POP SWAP2 SWAP1 POP JUMP JUMPDEST PUSH0 PUSH1 0xA0 DUP3 ADD SWAP1 POP DUP2 DUP2 SUB PUSH0 DUP4 ADD MSTORE PUSH2 0x1230 DUP2 DUP6 PUSH2 0x1102 JUMP JUMPDEST SWAP1 POP DUP2 DUP2 SUB PUSH1 0x20 DUP4 ADD MSTORE PUSH2 0x1243 DUP2 PUSH2 0x1162 JUMP JUMPDEST SWAP1 POP DUP2 DUP2 SUB PUSH1 0x40 DUP4 ADD MSTORE PUSH2 0x1256 DUP2 PUSH2 0x11AC JUMP JUMPDEST SWAP1 POP DUP2 DUP2 SUB PUSH1 0x60 DUP4 ADD MSTORE PUSH2 0x1269 DUP2 PUSH2 0x11F6 JUMP JUMPDEST SWAP1 POP PUSH2 0x1278 PUSH1 0x80 DUP4 ADD DUP5 PUSH2 0xED4 JUMP JUMPDEST SWAP4 SWAP3 POP POP POP JUMP JUMPDEST PUSH0 PUSH1 0x20 DUP3 ADD SWAP1 POP DUP2 DUP2 SUB PUSH0 DUP4 ADD MSTORE PUSH2 0x1297 DUP2 DUP5 PUSH2 0x1102 JUMP JUMPDEST SWAP1 POP SWAP3 SWAP2 POP POP JUMP JUMPDEST PUSH0 DUP1 REVERT JUMPDEST PUSH0 DUP1 REVERT JUMPDEST PUSH32 0x4E487B7100000000000000000000000000000000000000000000000000000000 PUSH0 MSTORE PUSH1 0x41 PUSH1 0x4 MSTORE PUSH1 0x24 PUSH0 REVERT JUMPDEST PUSH2 0x12DD DUP3 PUSH2 0x10F2 JUMP JUMPDEST DUP2 ADD DUP2 DUP2 LT PUSH8 0xFFFFFFFFFFFFFFFF DUP3 GT OR ISZERO PUSH2 0x12FC JUMPI PUSH2 0x12FB PUSH2 0x12A7 JUMP JUMPDEST JUMPDEST DUP1 PUSH1 0x40 MSTORE POP POP POP JUMP JUMPDEST PUSH0 PUSH2 0x130E PUSH2 0xEFC JUMP JUMPDEST SWAP1 POP PUSH2 0x131A DUP3 DUP3 PUSH2 0x12D4 JUMP JUMPDEST SWAP2 SWAP1 POP JUMP JUMPDEST PUSH0 PUSH8 0xFFFFFFFFFFFFFFFF DUP3 GT ISZERO PUSH2 0x1339 JUMPI PUSH2 0x1338 PUSH2 0x12A7 JUMP JUMPDEST JUMPDEST PUSH2 0x1342 DUP3 PUSH2 0x10F2 JUMP JUMPDEST SWAP1 POP PUSH1 0x20 DUP2 ADD SWAP1 POP SWAP2 SWAP1 POP JUMP JUMPDEST PUSH0 PUSH2 0x1361 PUSH2 0x135C DUP5 PUSH2 0x131F JUMP JUMPDEST PUSH2 0x1305 JUMP JUMPDEST SWAP1 POP DUP3 DUP2 MSTORE PUSH1 0x20 DUP2 ADD DUP5 DUP5 DUP5 ADD GT ISZERO PUSH2 0x137D JUMPI PUSH2 0x137C PUSH2 0x12A3 JUMP JUMPDEST JUMPDEST PUSH2 0x1388 DUP5 DUP3 DUP6 PUSH2 0x10E4 JUMP JUMPDEST POP SWAP4 SWAP3 POP POP POP JUMP JUMPDEST PUSH0 DUP3 PUSH1 0x1F DUP4 ADD SLT PUSH2 0x13A4 JUMPI PUSH2 0x13A3 PUSH2 0x129F JUMP JUMPDEST JUMPDEST DUP2 MLOAD PUSH2 0x13B4 DUP5 DUP3 PUSH1 0x20 DUP7 ADD PUSH2 0x134F JUMP JUMPDEST SWAP2 POP POP SWAP3 SWAP2 POP POP JUMP JUMPDEST PUSH2 0x13C6 DUP2 PUSH2 0xEC3 JUMP JUMPDEST DUP2 EQ PUSH2 0x13D0 JUMPI PUSH0 DUP1 REVERT JUMPDEST POP JUMP JUMPDEST PUSH0 DUP2 MLOAD SWAP1 POP PUSH2 0x13E1 DUP2 PUSH2 0x13BD JUMP JUMPDEST SWAP3 SWAP2 POP POP JUMP JUMPDEST PUSH0 DUP1 PUSH0 DUP1 PUSH1 0x80 DUP6 DUP8 SUB SLT ISZERO PUSH2 0x13FF JUMPI PUSH2 0x13FE PUSH2 0xF05 JUMP JUMPDEST JUMPDEST PUSH0 DUP6 ADD MLOAD PUSH8 0xFFFFFFFFFFFFFFFF DUP2 GT ISZERO PUSH2 0x141C JUMPI PUSH2 0x141B PUSH2 0xF09 JUMP JUMPDEST JUMPDEST PUSH2 0x1428 DUP8 DUP3 DUP9 ADD PUSH2 0x1390 JUMP JUMPDEST SWAP5 POP POP PUSH1 0x20 DUP6 ADD MLOAD PUSH8 0xFFFFFFFFFFFFFFFF DUP2 GT ISZERO PUSH2 0x1449 JUMPI PUSH2 0x1448 PUSH2 0xF09 JUMP JUMPDEST JUMPDEST PUSH2 0x1455 DUP8 DUP3 DUP9 ADD PUSH2 0x1390 JUMP JUMPDEST SWAP4 POP POP PUSH1 0x40 DUP6 ADD MLOAD PUSH8 0xFFFFFFFFFFFFFFFF DUP2 GT ISZERO PUSH2 0x1476 JUMPI PUSH2 0x1475 PUSH2 0xF09 JUMP JUMPDEST JUMPDEST PUSH2 0x1482 DUP8 DUP3 DUP9 ADD PUSH2 0x1390 JUMP JUMPDEST SWAP3 POP POP PUSH1 0x60 PUSH2 0x1493 DUP8 DUP3 DUP9 ADD PUSH2 0x13D3 JUMP JUMPDEST SWAP2 POP POP SWAP3 SWAP6 SWAP2 SWAP5 POP SWAP3 POP JUMP JUMPDEST PUSH0 PUSH2 0x14A9 DUP3 PUSH2 0x10CA JUMP JUMPDEST PUSH2 0x14B3 DUP2 DUP6 PUSH2 0x1010 JUMP JUMPDEST SWAP4 POP PUSH2 0x14C3 DUP2 DUP6 PUSH1 0x20 DUP7 ADD PUSH2 0x10E4 JUMP JUMPDEST PUSH2 0x14CC DUP2 PUSH2 0x10F2 JUMP JUMPDEST DUP5 ADD SWAP2 POP POP SWAP3 SWAP2 POP POP JUMP JUMPDEST PUSH0 PUSH2 0x14E3 PUSH1 0xD DUP4 PUSH2 0x1010 JUMP JUMPDEST SWAP2 POP PUSH2 0x14EE DUP3 PUSH2 0x113A JUMP JUMPDEST PUSH1 0x20 DUP3 ADD SWAP1 POP SWAP2 SWAP1 POP JUMP JUMPDEST PUSH32 0x4C6520646F63756D656E742044494420646F697420C3AA747265202754657374 PUSH0 DUP3 ADD MSTORE PUSH32 0x20446F63756D656E742700000000000000000000000000000000000000000000 PUSH1 0x20 DUP3 ADD MSTORE POP JUMP JUMPDEST PUSH0 PUSH2 0x1553 PUSH1 0x2A DUP4 PUSH2 0x1010 JUMP JUMPDEST SWAP2 POP PUSH2 0x155E DUP3 PUSH2 0x14F9 JUMP JUMPDEST PUSH1 0x40 DUP3 ADD SWAP1 POP SWAP2 SWAP1 POP JUMP JUMPDEST PUSH0 PUSH1 0x60 DUP3 ADD SWAP1 POP DUP2 DUP2 SUB PUSH0 DUP4 ADD MSTORE PUSH2 0x1581 DUP2 DUP5 PUSH2 0x149F JUMP JUMPDEST SWAP1 POP DUP2 DUP2 SUB PUSH1 0x20 DUP4 ADD MSTORE PUSH2 0x1594 DUP2 PUSH2 0x14D7 JUMP JUMPDEST SWAP1 POP DUP2 DUP2 SUB PUSH1 0x40 DUP4 ADD MSTORE PUSH2 0x15A7 DUP2 PUSH2 0x1547 JUMP JUMPDEST SWAP1 POP SWAP3 SWAP2 POP POP JUMP JUMPDEST PUSH0 PUSH2 0x15BB PUSH1 0x5 DUP4 PUSH2 0x1010 JUMP JUMPDEST SWAP2 POP PUSH2 0x15C6 DUP3 PUSH2 0x1184 JUMP JUMPDEST PUSH1 0x20 DUP3 ADD SWAP1 POP SWAP2 SWAP1 POP JUMP JUMPDEST PUSH32 0x4C65206E6F6D20646F697420C3AA7472652027416C6963652700000000000000 PUSH0 DUP3 ADD MSTORE POP JUMP JUMPDEST PUSH0 PUSH2 0x1605 PUSH1 0x19 DUP4 PUSH2 0x1010 JUMP JUMPDEST SWAP2 POP PUSH2 0x1610 DUP3 PUSH2 0x15D1 JUMP JUMPDEST PUSH1 0x20 DUP3 ADD SWAP1 POP SWAP2 SWAP1 POP JUMP JUMPDEST PUSH0 PUSH1 0x60 DUP3 ADD SWAP1 POP DUP2 DUP2 SUB PUSH0 DUP4 ADD MSTORE PUSH2 0x1633 DUP2 DUP5 PUSH2 0x149F JUMP JUMPDEST SWAP1 POP DUP2 DUP2 SUB PUSH1 0x20 DUP4 ADD MSTORE PUSH2 0x1646 DUP2 PUSH2 0x15AF JUMP JUMPDEST SWAP1 POP DUP2 DUP2 SUB PUSH1 0x40 DUP4 ADD MSTORE PUSH2 0x1659 DUP2 PUSH2 0x15F9 JUMP JUMPDEST SWAP1 POP SWAP3 SWAP2 POP POP JUMP JUMPDEST PUSH0 PUSH2 0x166D PUSH1 0x11 DUP4 PUSH2 0x1010 JUMP JUMPDEST SWAP2 POP PUSH2 0x1678 DUP3 PUSH2 0x11CE JUMP JUMPDEST PUSH1 0x20 DUP3 ADD SWAP1 POP SWAP2 SWAP1 POP JUMP JUMPDEST PUSH32 0x4C27656D61696C20646F697420C3AA7472652027616C696365406578616D706C PUSH0 DUP3 ADD MSTORE PUSH32 0x652E636F6D270000000000000000000000000000000000000000000000000000 PUSH1 0x20 DUP3 ADD MSTORE POP JUMP JUMPDEST PUSH0 PUSH2 0x16DD PUSH1 0x26 DUP4 PUSH2 0x1010 JUMP JUMPDEST SWAP2 POP PUSH2 0x16E8 DUP3 PUSH2 0x1683 JUMP JUMPDEST PUSH1 0x40 DUP3 ADD SWAP1 POP SWAP2 SWAP1 POP JUMP JUMPDEST PUSH0 PUSH1 0x60 DUP3 ADD SWAP1 POP DUP2 DUP2 SUB PUSH0 DUP4 ADD MSTORE PUSH2 0x170B DUP2 DUP5 PUSH2 0x149F JUMP JUMPDEST SWAP1 POP DUP2 DUP2 SUB PUSH1 0x20 DUP4 ADD MSTORE PUSH2 0x171E DUP2 PUSH2 0x1661 JUMP JUMPDEST SWAP1 POP DUP2 DUP2 SUB PUSH1 0x40 DUP4 ADD MSTORE PUSH2 0x1731 DUP2 PUSH2 0x16D1 JUMP JUMPDEST SWAP1 POP SWAP3 SWAP2 POP POP JUMP JUMPDEST PUSH2 0x1742 DUP2 PUSH2 0xEC3 JUMP JUMPDEST DUP3 MSTORE POP POP JUMP JUMPDEST PUSH32 0x4C652070726F707269C3A9746169726520646F697420C3AA747265206C277574 PUSH0 DUP3 ADD MSTORE PUSH32 0x696C69736174657572207370C3A963696669C3A9000000000000000000000000 PUSH1 0x20 DUP3 ADD MSTORE POP JUMP JUMPDEST PUSH0 PUSH2 0x17A2 PUSH1 0x34 DUP4 PUSH2 0x1010 JUMP JUMPDEST SWAP2 POP PUSH2 0x17AD DUP3 PUSH2 0x1748 JUMP JUMPDEST PUSH1 0x40 DUP3 ADD SWAP1 POP SWAP2 SWAP1 POP JUMP JUMPDEST PUSH0 PUSH1 0x60 DUP3 ADD SWAP1 POP PUSH2 0x17CB PUSH0 DUP4 ADD DUP6 PUSH2 0x1739 JUMP JUMPDEST PUSH2 0x17D8 PUSH1 0x20 DUP4 ADD DUP5 PUSH2 0x1739 JUMP JUMPDEST DUP2 DUP2 SUB PUSH1 0x40 DUP4 ADD MSTORE PUSH2 0x17E9 DUP2 PUSH2 0x1796 JUMP JUMPDEST SWAP1 POP SWAP4 SWAP3 POP POP POP JUMP JUMPDEST PUSH32 0x4C277574696C6973617465757220646F69742061766F6972206C652072C3B46C PUSH0 DUP3 ADD MSTORE PUSH32 0x6520555345525F524F4C4520617072C3A873206C61206372C3A96174696F6E20 PUSH1 0x20 DUP3 ADD MSTORE PUSH32 0x6475204449440000000000000000000000000000000000000000000000000000 PUSH1 0x40 DUP3 ADD MSTORE POP JUMP JUMPDEST PUSH0 PUSH2 0x1872 PUSH1 0x46 DUP4 PUSH2 0x1010 JUMP JUMPDEST SWAP2 POP PUSH2 0x187D DUP3 PUSH2 0x17F2 JUMP JUMPDEST PUSH1 0x60 DUP3 ADD SWAP1 POP SWAP2 SWAP1 POP JUMP JUMPDEST PUSH0 PUSH1 0x60 DUP3 ADD SWAP1 POP PUSH2 0x189B PUSH0 DUP4 ADD DUP6 PUSH2 0x1001 JUMP JUMPDEST PUSH2 0x18A8 PUSH1 0x20 DUP4 ADD DUP5 PUSH2 0x1001 JUMP JUMPDEST DUP2 DUP2 SUB PUSH1 0x40 DUP4 ADD MSTORE PUSH2 0x18B9 DUP2 PUSH2 0x1866 JUMP JUMPDEST SWAP1 POP SWAP4 SWAP3 POP POP POP JUMP JUMPDEST PUSH0 PUSH1 0x40 DUP3 ADD SWAP1 POP DUP2 DUP2 SUB PUSH0 DUP4 ADD MSTORE PUSH2 0x18DA DUP2 DUP6 PUSH2 0x1102 JUMP JUMPDEST SWAP1 POP PUSH2 0x18E9 PUSH1 0x20 DUP4 ADD DUP5 PUSH2 0xED4 JUMP JUMPDEST SWAP4 SWAP3 POP POP POP JUMP JUMPDEST PUSH32 0x4C652070726F707269C3A9746169726520646F697420C3AA747265206C65206E PUSH0 DUP3 ADD MSTORE PUSH32 0x6F7576656C207574696C69736174657572000000000000000000000000000000 PUSH1 0x20 DUP3 ADD MSTORE POP JUMP JUMPDEST PUSH0 PUSH2 0x194A PUSH1 0x31 DUP4 PUSH2 0x1010 JUMP JUMPDEST SWAP2 POP PUSH2 0x1955 DUP3 PUSH2 0x18F0 JUMP JUMPDEST PUSH1 0x40 DUP3 ADD SWAP1 POP SWAP2 SWAP1 POP JUMP JUMPDEST PUSH0 PUSH1 0x60 DUP3 ADD SWAP1 POP PUSH2 0x1973 PUSH0 DUP4 ADD DUP6 PUSH2 0x1739 JUMP JUMPDEST PUSH2 0x1980 PUSH1 0x20 DUP4 ADD DUP5 PUSH2 0x1739 JUMP JUMPDEST DUP2 DUP2 SUB PUSH1 0x40 DUP4 ADD MSTORE PUSH2 0x1991 DUP2 PUSH2 0x193E JUMP JUMPDEST SWAP1 POP SWAP4 SWAP3 POP POP POP JUMP JUMPDEST PUSH32 0x5570646174656420446F63756D656E7400000000000000000000000000000000 PUSH0 DUP3 ADD MSTORE POP JUMP JUMPDEST PUSH0 PUSH2 0x19CE PUSH1 0x10 DUP4 PUSH2 0x10D4 JUMP JUMPDEST SWAP2 POP PUSH2 0x19D9 DUP3 PUSH2 0x199A JUMP JUMPDEST PUSH1 0x20 DUP3 ADD SWAP1 POP SWAP2 SWAP1 POP JUMP JUMPDEST PUSH0 PUSH1 0x40 DUP3 ADD SWAP1 POP DUP2 DUP2 SUB PUSH0 DUP4 ADD MSTORE PUSH2 0x19FC DUP2 DUP5 PUSH2 0x1102 JUMP JUMPDEST SWAP1 POP DUP2 DUP2 SUB PUSH1 0x20 DUP4 ADD MSTORE PUSH2 0x1A0F DUP2 PUSH2 0x19C2 JUMP JUMPDEST SWAP1 POP SWAP3 SWAP2 POP POP JUMP JUMPDEST PUSH0 DUP2 PUSH1 0xE0 SHR SWAP1 POP SWAP2 SWAP1 POP JUMP JUMPDEST PUSH0 PUSH1 0x3 RETURNDATASIZE GT ISZERO PUSH2 0x1A3F JUMPI PUSH1 0x4 PUSH0 DUP1 RETURNDATACOPY PUSH2 0x1A3C PUSH0 MLOAD PUSH2 0x1A17 JUMP JUMPDEST SWAP1 POP JUMPDEST SWAP1 JUMP JUMPDEST PUSH0 PUSH1 0x44 RETURNDATASIZE LT PUSH2 0x1ACE JUMPI PUSH2 0x1A53 PUSH2 0xEFC JUMP JUMPDEST PUSH1 0x4 RETURNDATASIZE SUB PUSH1 0x4 DUP3 RETURNDATACOPY DUP1 MLOAD RETURNDATASIZE PUSH1 0x24 DUP3 ADD GT PUSH8 0xFFFFFFFFFFFFFFFF DUP3 GT OR ISZERO PUSH2 0x1A7B JUMPI POP POP PUSH2 0x1ACE JUMP JUMPDEST DUP1 DUP3 ADD DUP1 MLOAD PUSH8 0xFFFFFFFFFFFFFFFF DUP2 GT ISZERO PUSH2 0x1A99 JUMPI POP POP POP POP PUSH2 0x1ACE JUMP JUMPDEST DUP1 PUSH1 0x20 DUP4 ADD ADD PUSH1 0x4 RETURNDATASIZE SUB DUP6 ADD DUP2 GT ISZERO PUSH2 0x1AB6 JUMPI POP POP POP POP POP PUSH2 0x1ACE JUMP JUMPDEST PUSH2 0x1AC5 DUP3 PUSH1 0x20 ADD DUP6 ADD DUP7 PUSH2 0x12D4 JUMP JUMPDEST DUP3 SWAP6 POP POP POP POP POP POP JUMPDEST SWAP1 JUMP JUMPDEST PUSH32 0x4E6F7420746865206F776E6572206F6620746865204449440000000000000000 PUSH0 DUP3 ADD MSTORE POP JUMP JUMPDEST PUSH0 PUSH2 0x1B05 PUSH1 0x18 DUP4 PUSH2 0x1010 JUMP JUMPDEST SWAP2 POP PUSH2 0x1B10 DUP3 PUSH2 0x1AD1 JUMP JUMPDEST PUSH1 0x20 DUP3 ADD SWAP1 POP SWAP2 SWAP1 POP JUMP JUMPDEST PUSH32 0x4C65206D65737361676520642765727265757220646F697420696E6469717565 PUSH0 DUP3 ADD MSTORE PUSH32 0x7220717565206C277574696C69736174657572206E2765737420706173206C65 PUSH1 0x20 DUP3 ADD MSTORE PUSH32 0x2070726F707269C3A97461697265000000000000000000000000000000000000 PUSH1 0x40 DUP3 ADD MSTORE POP JUMP JUMPDEST PUSH0 PUSH2 0x1B9B PUSH1 0x4E DUP4 PUSH2 0x1010 JUMP JUMPDEST SWAP2 POP PUSH2 0x1BA6 DUP3 PUSH2 0x1B1B JUMP JUMPDEST PUSH1 0x60 DUP3 ADD SWAP1 POP SWAP2 SWAP1 POP JUMP JUMPDEST PUSH0 PUSH1 0x60 DUP3 ADD SWAP1 POP DUP2 DUP2 SUB PUSH0 DUP4 ADD MSTORE PUSH2 0x1BC9 DUP2 DUP5 PUSH2 0x149F JUMP JUMPDEST SWAP1 POP DUP2 DUP2 SUB PUSH1 0x20 DUP4 ADD MSTORE PUSH2 0x1BDC DUP2 PUSH2 0x1AF9 JUMP JUMPDEST SWAP1 POP DUP2 DUP2 SUB PUSH1 0x40 DUP4 ADD MSTORE PUSH2 0x1BEF DUP2 PUSH2 0x1B8F JUMP JUMPDEST SWAP1 POP SWAP3 SWAP2 POP POP JUMP JUMPDEST PUSH32 0x556E652065727265757220696E617474656E6475652073276573742070726F64 PUSH0 DUP3 ADD MSTORE PUSH32 0x7569746500000000000000000000000000000000000000000000000000000000 PUSH1 0x20 DUP3 ADD MSTORE POP JUMP JUMPDEST PUSH0 PUSH2 0x1C51 PUSH1 0x24 DUP4 PUSH2 0x1010 JUMP JUMPDEST SWAP2 POP PUSH2 0x1C5C DUP3 PUSH2 0x1BF7 JUMP JUMPDEST PUSH1 0x40 DUP3 ADD SWAP1 POP SWAP2 SWAP1 POP JUMP JUMPDEST PUSH0 PUSH1 0x40 DUP3 ADD SWAP1 POP PUSH2 0x1C7A PUSH0 DUP4 ADD DUP5 PUSH2 0x1001 JUMP JUMPDEST DUP2 DUP2 SUB PUSH1 0x20 DUP4 ADD MSTORE PUSH2 0x1C8B DUP2 PUSH2 0x1C45 JUMP JUMPDEST SWAP1 POP SWAP3 SWAP2 POP POP JUMP JUMPDEST PUSH32 0x4C277574696C69736174657572206E6F6E2070726F707269C3A9746169726520 PUSH0 DUP3 ADD MSTORE PUSH32 0x6E65207065757420706173206D657474726520C3A0206A6F7572206C65204449 PUSH1 0x20 DUP3 ADD MSTORE PUSH32 0x4400000000000000000000000000000000000000000000000000000000000000 PUSH1 0x40 DUP3 ADD MSTORE POP JUMP JUMPDEST PUSH0 PUSH2 0x1D13 PUSH1 0x41 DUP4 PUSH2 0x1010 JUMP JUMPDEST SWAP2 POP PUSH2 0x1D1E DUP3 PUSH2 0x1C93 JUMP JUMPDEST PUSH1 0x60 DUP3 ADD SWAP1 POP SWAP2 SWAP1 POP JUMP JUMPDEST PUSH0 PUSH1 0x40 DUP3 ADD SWAP1 POP PUSH2 0x1D3C PUSH0 DUP4 ADD DUP5 PUSH2 0x1001 JUMP JUMPDEST DUP2 DUP2 SUB PUSH1 0x20 DUP4 ADD MSTORE PUSH2 0x1D4D DUP2 PUSH2 0x1D07 JUMP JUMPDEST SWAP1 POP SWAP3 SWAP2 POP POP JUMP JUMPDEST PUSH0 PUSH2 0x1D61 PUSH1 0x10 DUP4 PUSH2 0x1010 JUMP JUMPDEST SWAP2 POP PUSH2 0x1D6C DUP3 PUSH2 0x199A JUMP JUMPDEST PUSH1 0x20 DUP3 ADD SWAP1 POP SWAP2 SWAP1 POP JUMP JUMPDEST PUSH32 0x4C6520646F63756D656E742044494420646F697420C3AA747265206D697320C3 PUSH0 DUP3 ADD MSTORE PUSH32 0xA0206A6F75720000000000000000000000000000000000000000000000000000 PUSH1 0x20 DUP3 ADD MSTORE POP JUMP JUMPDEST PUSH0 PUSH2 0x1DD1 PUSH1 0x26 DUP4 PUSH2 0x1010 JUMP JUMPDEST SWAP2 POP PUSH2 0x1DDC DUP3 PUSH2 0x1D77 JUMP JUMPDEST PUSH1 0x40 DUP3 ADD SWAP1 POP SWAP2 SWAP1 POP JUMP JUMPDEST PUSH0 PUSH1 0x60 DUP3 ADD SWAP1 POP DUP2 DUP2 SUB PUSH0 DUP4 ADD MSTORE PUSH2 0x1DFF DUP2 DUP5 PUSH2 0x149F JUMP JUMPDEST SWAP1 POP DUP2 DUP2 SUB PUSH1 0x20 DUP4 ADD MSTORE PUSH2 0x1E12 DUP2 PUSH2 0x1D55 JUMP JUMPDEST SWAP1 POP DUP2 DUP2 SUB PUSH1 0x40 DUP4 ADD MSTORE PUSH2 0x1E25 DUP2 PUSH2 0x1DC5 JUMP JUMPDEST SWAP1 POP SWAP3 SWAP2 POP POP JUMP INVALID PUSH1 0x80 PUSH1 0x40 MSTORE CALLVALUE DUP1 ISZERO PUSH2 0xF JUMPI PUSH0 DUP1 REVERT JUMPDEST POP PUSH1 0x40 MLOAD PUSH2 0x2097 CODESIZE SUB DUP1 PUSH2 0x2097 DUP4 CODECOPY DUP2 DUP2 ADD PUSH1 0x40 MSTORE DUP2 ADD SWAP1 PUSH2 0x31 SWAP2 SWAP1 PUSH2 0x238 JUMP JUMPDEST PUSH2 0x43 PUSH0 DUP1 SHL DUP3 PUSH2 0x7B PUSH1 0x20 SHL PUSH1 0x20 SHR JUMP JUMPDEST POP PUSH2 0x74 PUSH32 0x1B0A231506479DB2482C2292B1C6A04EE5D0AB623A9347DD702500688937AB61 DUP3 PUSH2 0x7B PUSH1 0x20 SHL PUSH1 0x20 SHR JUMP JUMPDEST POP POP PUSH2 0x263 JUMP JUMPDEST PUSH0 PUSH2 0x8C DUP4 DUP4 PUSH2 0x170 PUSH1 0x20 SHL PUSH1 0x20 SHR JUMP JUMPDEST PUSH2 0x166 JUMPI PUSH1 0x1 PUSH0 DUP1 DUP6 DUP2 MSTORE PUSH1 0x20 ADD SWAP1 DUP2 MSTORE PUSH1 0x20 ADD PUSH0 KECCAK256 PUSH0 ADD PUSH0 DUP5 PUSH20 0xFFFFFFFFFFFFFFFFFFFFFFFFFFFFFFFFFFFFFFFF AND PUSH20 0xFFFFFFFFFFFFFFFFFFFFFFFFFFFFFFFFFFFFFFFF AND DUP2 MSTORE PUSH1 0x20 ADD SWAP1 DUP2 MSTORE PUSH1 0x20 ADD PUSH0 KECCAK256 PUSH0 PUSH2 0x100 EXP DUP2 SLOAD DUP2 PUSH1 0xFF MUL NOT AND SWAP1 DUP4 ISZERO ISZERO MUL OR SWAP1 SSTORE POP PUSH2 0x103 PUSH2 0x1D3 PUSH1 0x20 SHL PUSH1 0x20 SHR JUMP JUMPDEST PUSH20 0xFFFFFFFFFFFFFFFFFFFFFFFFFFFFFFFFFFFFFFFF AND DUP3 PUSH20 0xFFFFFFFFFFFFFFFFFFFFFFFFFFFFFFFFFFFFFFFF AND DUP5 PUSH32 0x2F8788117E7EFF1D82E926EC794901D17C78024A50270940304540A733656F0D PUSH1 0x40 MLOAD PUSH1 0x40 MLOAD DUP1 SWAP2 SUB SWAP1 LOG4 PUSH1 0x1 SWAP1 POP PUSH2 0x16A JUMP JUMPDEST PUSH0 SWAP1 POP JUMPDEST SWAP3 SWAP2 POP POP JUMP JUMPDEST PUSH0 DUP1 PUSH0 DUP5 DUP2 MSTORE PUSH1 0x20 ADD SWAP1 DUP2 MSTORE PUSH1 0x20 ADD PUSH0 KECCAK256 PUSH0 ADD PUSH0 DUP4 PUSH20 0xFFFFFFFFFFFFFFFFFFFFFFFFFFFFFFFFFFFFFFFF AND PUSH20 0xFFFFFFFFFFFFFFFFFFFFFFFFFFFFFFFFFFFFFFFF AND DUP2 MSTORE PUSH1 0x20 ADD SWAP1 DUP2 MSTORE PUSH1 0x20 ADD PUSH0 KECCAK256 PUSH0 SWAP1 SLOAD SWAP1 PUSH2 0x100 EXP SWAP1 DIV PUSH1 0xFF AND SWAP1 POP SWAP3 SWAP2 POP POP JUMP JUMPDEST PUSH0 CALLER SWAP1 POP SWAP1 JUMP JUMPDEST PUSH0 DUP1 REVERT JUMPDEST PUSH0 PUSH20 0xFFFFFFFFFFFFFFFFFFFFFFFFFFFFFFFFFFFFFFFF DUP3 AND SWAP1 POP SWAP2 SWAP1 POP JUMP JUMPDEST PUSH0 PUSH2 0x207 DUP3 PUSH2 0x1DE JUMP JUMPDEST SWAP1 POP SWAP2 SWAP1 POP JUMP JUMPDEST PUSH2 0x217 DUP2 PUSH2 0x1FD JUMP JUMPDEST DUP2 EQ PUSH2 0x221 JUMPI PUSH0 DUP1 REVERT JUMPDEST POP JUMP JUMPDEST PUSH0 DUP2 MLOAD SWAP1 POP PUSH2 0x232 DUP2 PUSH2 0x20E JUMP JUMPDEST SWAP3 SWAP2 POP POP JUMP JUMPDEST PUSH0 PUSH1 0x20 DUP3 DUP5 SUB SLT ISZERO PUSH2 0x24D JUMPI PUSH2 0x24C PUSH2 0x1DA JUMP JUMPDEST JUMPDEST PUSH0 PUSH2 0x25A DUP5 DUP3 DUP6 ADD PUSH2 0x224 JUMP JUMPDEST SWAP2 POP POP SWAP3 SWAP2 POP POP JUMP JUMPDEST PUSH2 0x1E27 DUP1 PUSH2 0x270 PUSH0 CODECOPY PUSH0 RETURN INVALID PUSH1 0x80 PUSH1 0x40 MSTORE CALLVALUE DUP1 ISZERO PUSH2 0xF JUMPI PUSH0 DUP1 REVERT JUMPDEST POP PUSH1 0x4 CALLDATASIZE LT PUSH2 0x109 JUMPI PUSH0 CALLDATALOAD PUSH1 0xE0 SHR DUP1 PUSH4 0x94FCE43B GT PUSH2 0xA0 JUMPI DUP1 PUSH4 0xD547741F GT PUSH2 0x6F JUMPI DUP1 PUSH4 0xD547741F EQ PUSH2 0x29F JUMPI DUP1 PUSH4 0xDC25E068 EQ PUSH2 0x2BB JUMPI DUP1 PUSH4 0xE7705DB6 EQ PUSH2 0x2D7 JUMPI DUP1 PUSH4 0xFACEA43A EQ PUSH2 0x2F5 JUMPI DUP1 PUSH4 0xFD8A0056 EQ PUSH2 0x311 JUMPI PUSH2 0x109 JUMP JUMPDEST DUP1 PUSH4 0x94FCE43B EQ PUSH2 0x22B JUMPI DUP1 PUSH4 0xA217FDDF EQ PUSH2 0x249 JUMPI DUP1 PUSH4 0xAB258374 EQ PUSH2 0x267 JUMPI DUP1 PUSH4 0xB42A02B5 EQ PUSH2 0x283 JUMPI PUSH2 0x109 JUMP JUMPDEST DUP1 PUSH4 0x36568ABE GT PUSH2 0xDC JUMPI DUP1 PUSH4 0x36568ABE EQ PUSH2 0x1A7 JUMPI DUP1 PUSH4 0x41858C4B EQ PUSH2 0x1C3 JUMPI DUP1 PUSH4 0x9000B3D6 EQ PUSH2 0x1DF JUMPI DUP1 PUSH4 0x91D14854 EQ PUSH2 0x1FB JUMPI PUSH2 0x109 JUMP JUMPDEST DUP1 PUSH4 0x1FFC9A7 EQ PUSH2 0x10D JUMPI DUP1 PUSH4 0x13119161 EQ PUSH2 0x13D JUMPI DUP1 PUSH4 0x248A9CA3 EQ PUSH2 0x15B JUMPI DUP1 PUSH4 0x2F2FF15D EQ PUSH2 0x18B JUMPI JUMPDEST PUSH0 DUP1 REVERT JUMPDEST PUSH2 0x127 PUSH1 0x4 DUP1 CALLDATASIZE SUB DUP2 ADD SWAP1 PUSH2 0x122 SWAP2 SWAP1 PUSH2 0x120F JUMP JUMPDEST PUSH2 0x344 JUMP JUMPDEST PUSH1 0x40 MLOAD PUSH2 0x134 SWAP2 SWAP1 PUSH2 0x1254 JUMP JUMPDEST PUSH1 0x40 MLOAD DUP1 SWAP2 SUB SWAP1 RETURN JUMPDEST PUSH2 0x145 PUSH2 0x3BD JUMP JUMPDEST PUSH1 0x40 MLOAD PUSH2 0x152 SWAP2 SWAP1 PUSH2 0x1285 JUMP JUMPDEST PUSH1 0x40 MLOAD DUP1 SWAP2 SUB SWAP1 RETURN JUMPDEST PUSH2 0x175 PUSH1 0x4 DUP1 CALLDATASIZE SUB DUP2 ADD SWAP1 PUSH2 0x170 SWAP2 SWAP1 PUSH2 0x12C8 JUMP JUMPDEST PUSH2 0x3E1 JUMP JUMPDEST PUSH1 0x40 MLOAD PUSH2 0x182 SWAP2 SWAP1 PUSH2 0x1285 JUMP JUMPDEST PUSH1 0x40 MLOAD DUP1 SWAP2 SUB SWAP1 RETURN JUMPDEST PUSH2 0x1A5 PUSH1 0x4 DUP1 CALLDATASIZE SUB DUP2 ADD SWAP1 PUSH2 0x1A0 SWAP2 SWAP1 PUSH2 0x134D JUMP JUMPDEST PUSH2 0x3FD JUMP JUMPDEST STOP JUMPDEST PUSH2 0x1C1 PUSH1 0x4 DUP1 CALLDATASIZE SUB DUP2 ADD SWAP1 PUSH2 0x1BC SWAP2 SWAP1 PUSH2 0x134D JUMP JUMPDEST PUSH2 0x41F JUMP JUMPDEST STOP JUMPDEST PUSH2 0x1DD PUSH1 0x4 DUP1 CALLDATASIZE SUB DUP2 ADD SWAP1 PUSH2 0x1D8 SWAP2 SWAP1 PUSH2 0x138B JUMP JUMPDEST PUSH2 0x49A JUMP JUMPDEST STOP JUMPDEST PUSH2 0x1F9 PUSH1 0x4 DUP1 CALLDATASIZE SUB DUP2 ADD SWAP1 PUSH2 0x1F4 SWAP2 SWAP1 PUSH2 0x138B JUMP JUMPDEST PUSH2 0x51C JUMP JUMPDEST STOP JUMPDEST PUSH2 0x215 PUSH1 0x4 DUP1 CALLDATASIZE SUB DUP2 ADD SWAP1 PUSH2 0x210 SWAP2 SWAP1 PUSH2 0x134D JUMP JUMPDEST PUSH2 0x574 JUMP JUMPDEST PUSH1 0x40 MLOAD PUSH2 0x222 SWAP2 SWAP1 PUSH2 0x1254 JUMP JUMPDEST PUSH1 0x40 MLOAD DUP1 SWAP2 SUB SWAP1 RETURN JUMPDEST PUSH2 0x233 PUSH2 0x5D7 JUMP JUMPDEST PUSH1 0x40 MLOAD PUSH2 0x240 SWAP2 SWAP1 PUSH2 0x1285 JUMP JUMPDEST PUSH1 0x40 MLOAD DUP1 SWAP2 SUB SWAP1 RETURN JUMPDEST PUSH2 0x251 PUSH2 0x5FB JUMP JUMPDEST PUSH1 0x40 MLOAD PUSH2 0x25E SWAP2 SWAP1 PUSH2 0x1285 JUMP JUMPDEST PUSH1 0x40 MLOAD DUP1 SWAP2 SUB SWAP1 RETURN JUMPDEST PUSH2 0x281 PUSH1 0x4 DUP1 CALLDATASIZE SUB DUP2 ADD SWAP1 PUSH2 0x27C SWAP2 SWAP1 PUSH2 0x14F2 JUMP JUMPDEST PUSH2 0x601 JUMP JUMPDEST STOP JUMPDEST PUSH2 0x29D PUSH1 0x4 DUP1 CALLDATASIZE SUB DUP2 ADD SWAP1 PUSH2 0x298 SWAP2 SWAP1 PUSH2 0x154C JUMP JUMPDEST PUSH2 0x7B1 JUMP JUMPDEST STOP JUMPDEST PUSH2 0x2B9 PUSH1 0x4 DUP1 CALLDATASIZE SUB DUP2 ADD SWAP1 PUSH2 0x2B4 SWAP2 SWAP1 PUSH2 0x134D JUMP JUMPDEST PUSH2 0x8CA JUMP JUMPDEST STOP JUMPDEST PUSH2 0x2D5 PUSH1 0x4 DUP1 CALLDATASIZE SUB DUP2 ADD SWAP1 PUSH2 0x2D0 SWAP2 SWAP1 PUSH2 0x15C2 JUMP JUMPDEST PUSH2 0x8EC JUMP JUMPDEST STOP JUMPDEST PUSH2 0x2DF PUSH2 0xB0E JUMP JUMPDEST PUSH1 0x40 MLOAD PUSH2 0x2EC SWAP2 SWAP1 PUSH2 0x1285 JUMP JUMPDEST PUSH1 0x40 MLOAD DUP1 SWAP2 SUB SWAP1 RETURN JUMPDEST PUSH2 0x30F PUSH1 0x4 DUP1 CALLDATASIZE SUB DUP2 ADD SWAP1 PUSH2 0x30A SWAP2 SWAP1 PUSH2 0x16A9 JUMP JUMPDEST PUSH2 0xB32 JUMP JUMPDEST STOP JUMPDEST PUSH2 0x32B PUSH1 0x4 DUP1 CALLDATASIZE SUB DUP2 ADD SWAP1 PUSH2 0x326 SWAP2 SWAP1 PUSH2 0x174D JUMP JUMPDEST PUSH2 0xC7E JUMP JUMPDEST PUSH1 0x40 MLOAD PUSH2 0x33B SWAP5 SWAP4 SWAP3 SWAP2 SWAP1 PUSH2 0x1803 JUMP JUMPDEST PUSH1 0x40 MLOAD DUP1 SWAP2 SUB SWAP1 RETURN JUMPDEST PUSH0 PUSH32 0x7965DB0B00000000000000000000000000000000000000000000000000000000 PUSH28 0xFFFFFFFFFFFFFFFFFFFFFFFFFFFFFFFFFFFFFFFFFFFFFFFFFFFFFFFF NOT AND DUP3 PUSH28 0xFFFFFFFFFFFFFFFFFFFFFFFFFFFFFFFFFFFFFFFFFFFFFFFFFFFFFFFF NOT AND EQ DUP1 PUSH2 0x3B6 JUMPI POP PUSH2 0x3B5 DUP3 PUSH2 0xF02 JUMP JUMPDEST JUMPDEST SWAP1 POP SWAP2 SWAP1 POP JUMP JUMPDEST PUSH32 0x14823911F2DA1B49F045A0929A60B8C1F2A7FC8C06C7284CA3E8AB4E193A08C8 DUP2 JUMP JUMPDEST PUSH0 DUP1 PUSH0 DUP4 DUP2 MSTORE PUSH1 0x20 ADD SWAP1 DUP2 MSTORE PUSH1 0x20 ADD PUSH0 KECCAK256 PUSH1 0x1 ADD SLOAD SWAP1 POP SWAP2 SWAP1 POP JUMP JUMPDEST PUSH2 0x406 DUP3 PUSH2 0x3E1 JUMP JUMPDEST PUSH2 0x40F DUP2 PUSH2 0xF6B JUMP JUMPDEST PUSH2 0x419 DUP4 DUP4 PUSH2 0xF7F JUMP JUMPDEST POP POP POP POP JUMP JUMPDEST PUSH2 0x427 PUSH2 0x1068 JUMP JUMPDEST PUSH20 0xFFFFFFFFFFFFFFFFFFFFFFFFFFFFFFFFFFFFFFFF AND DUP2 PUSH20 0xFFFFFFFFFFFFFFFFFFFFFFFFFFFFFFFFFFFFFFFF AND EQ PUSH2 0x48B JUMPI PUSH1 0x40 MLOAD PUSH32 0x6697B23200000000000000000000000000000000000000000000000000000000 DUP2 MSTORE PUSH1 0x4 ADD PUSH1 0x40 MLOAD DUP1 SWAP2 SUB SWAP1 REVERT JUMPDEST PUSH2 0x495 DUP3 DUP3 PUSH2 0x106F JUMP JUMPDEST POP POP POP JUMP JUMPDEST PUSH32 0x1B0A231506479DB2482C2292B1C6A04EE5D0AB623A9347DD702500688937AB61 PUSH2 0x4C4 DUP2 PUSH2 0xF6B JUMP JUMPDEST PUSH2 0x4EE PUSH32 0x1B0A231506479DB2482C2292B1C6A04EE5D0AB623A9347DD702500688937AB61 DUP4 PUSH2 0x3FD JUMP JUMPDEST PUSH2 0x518 PUSH32 0x1B0A231506479DB2482C2292B1C6A04EE5D0AB623A9347DD702500688937AB61 CALLER PUSH2 0x8CA JUMP JUMPDEST POP POP JUMP JUMPDEST PUSH32 0x1B0A231506479DB2482C2292B1C6A04EE5D0AB623A9347DD702500688937AB61 PUSH2 0x546 DUP2 PUSH2 0xF6B JUMP JUMPDEST PUSH2 0x570 PUSH32 0xCE23C3E399818CFEE81A7AB0880F714E53D7672B08DF0FA62F2843416E1EA09 DUP4 PUSH2 0x3FD JUMP JUMPDEST POP POP JUMP JUMPDEST PUSH0 DUP1 PUSH0 DUP5 DUP2 MSTORE PUSH1 0x20 ADD SWAP1 DUP2 MSTORE PUSH1 0x20 ADD PUSH0 KECCAK256 PUSH0 ADD PUSH0 DUP4 PUSH20 0xFFFFFFFFFFFFFFFFFFFFFFFFFFFFFFFFFFFFFFFF AND PUSH20 0xFFFFFFFFFFFFFFFFFFFFFFFFFFFFFFFFFFFFFFFF AND DUP2 MSTORE PUSH1 0x20 ADD SWAP1 DUP2 MSTORE PUSH1 0x20 ADD PUSH0 KECCAK256 PUSH0 SWAP1 SLOAD SWAP1 PUSH2 0x100 EXP SWAP1 DIV PUSH1 0xFF AND SWAP1 POP SWAP3 SWAP2 POP POP JUMP JUMPDEST PUSH32 0x1B0A231506479DB2482C2292B1C6A04EE5D0AB623A9347DD702500688937AB61 DUP2 JUMP JUMPDEST PUSH0 DUP1 SHL DUP2 JUMP JUMPDEST CALLER PUSH20 0xFFFFFFFFFFFFFFFFFFFFFFFFFFFFFFFFFFFFFFFF AND PUSH1 0x1 DUP4 PUSH1 0x40 MLOAD PUSH2 0x628 SWAP2 SWAP1 PUSH2 0x1895 JUMP JUMPDEST SWAP1 DUP2 MSTORE PUSH1 0x20 ADD PUSH1 0x40 MLOAD DUP1 SWAP2 SUB SWAP1 KECCAK256 PUSH1 0x3 ADD PUSH0 SWAP1 SLOAD SWAP1 PUSH2 0x100 EXP SWAP1 DIV PUSH20 0xFFFFFFFFFFFFFFFFFFFFFFFFFFFFFFFFFFFFFFFF AND PUSH20 0xFFFFFFFFFFFFFFFFFFFFFFFFFFFFFFFFFFFFFFFF AND EQ DUP1 PUSH2 0x6A1 JUMPI POP PUSH2 0x6A0 PUSH32 0x1B0A231506479DB2482C2292B1C6A04EE5D0AB623A9347DD702500688937AB61 CALLER PUSH2 0x574 JUMP JUMPDEST JUMPDEST PUSH2 0x6E0 JUMPI PUSH1 0x40 MLOAD PUSH32 0x8C379A000000000000000000000000000000000000000000000000000000000 DUP2 MSTORE PUSH1 0x4 ADD PUSH2 0x6D7 SWAP1 PUSH2 0x18F5 JUMP JUMPDEST PUSH1 0x40 MLOAD DUP1 SWAP2 SUB SWAP1 REVERT JUMPDEST PUSH0 PUSH20 0xFFFFFFFFFFFFFFFFFFFFFFFFFFFFFFFFFFFFFFFF AND DUP2 PUSH20 0xFFFFFFFFFFFFFFFFFFFFFFFFFFFFFFFFFFFFFFFF AND SUB PUSH2 0x74E JUMPI PUSH1 0x40 MLOAD PUSH32 0x8C379A000000000000000000000000000000000000000000000000000000000 DUP2 MSTORE PUSH1 0x4 ADD PUSH2 0x745 SWAP1 PUSH2 0x195D JUMP JUMPDEST PUSH1 0x40 MLOAD DUP1 SWAP2 SUB SWAP1 REVERT JUMPDEST DUP1 PUSH1 0x1 DUP4 PUSH1 0x40 MLOAD PUSH2 0x75F SWAP2 SWAP1 PUSH2 0x1895 JUMP JUMPDEST SWAP1 DUP2 MSTORE PUSH1 0x20 ADD PUSH1 0x40 MLOAD DUP1 SWAP2 SUB SWAP1 KECCAK256 PUSH1 0x3 ADD PUSH0 PUSH2 0x100 EXP DUP2 SLOAD DUP2 PUSH20 0xFFFFFFFFFFFFFFFFFFFFFFFFFFFFFFFFFFFFFFFF MUL NOT AND SWAP1 DUP4 PUSH20 0xFFFFFFFFFFFFFFFFFFFFFFFFFFFFFFFFFFFFFFFF AND MUL OR SWAP1 SSTORE POP POP POP JUMP JUMPDEST CALLER PUSH20 0xFFFFFFFFFFFFFFFFFFFFFFFFFFFFFFFFFFFFFFFF AND PUSH1 0x1 DUP4 PUSH1 0x40 MLOAD PUSH2 0x7D8 SWAP2 SWAP1 PUSH2 0x1895 JUMP JUMPDEST SWAP1 DUP2 MSTORE PUSH1 0x20 ADD PUSH1 0x40 MLOAD DUP1 SWAP2 SUB SWAP1 KECCAK256 PUSH1 0x3 ADD PUSH0 SWAP1 SLOAD SWAP1 PUSH2 0x100 EXP SWAP1 DIV PUSH20 0xFFFFFFFFFFFFFFFFFFFFFFFFFFFFFFFFFFFFFFFF AND PUSH20 0xFFFFFFFFFFFFFFFFFFFFFFFFFFFFFFFFFFFFFFFF AND EQ PUSH2 0x85F JUMPI PUSH1 0x40 MLOAD PUSH32 0x8C379A000000000000000000000000000000000000000000000000000000000 DUP2 MSTORE PUSH1 0x4 ADD PUSH2 0x856 SWAP1 PUSH2 0x19C5 JUMP JUMPDEST PUSH1 0x40 MLOAD DUP1 SWAP2 SUB SWAP1 REVERT JUMPDEST DUP1 PUSH1 0x1 DUP4 PUSH1 0x40 MLOAD PUSH2 0x870 SWAP2 SWAP1 PUSH2 0x1895 JUMP JUMPDEST SWAP1 DUP2 MSTORE PUSH1 0x20 ADD PUSH1 0x40 MLOAD DUP1 SWAP2 SUB SWAP1 KECCAK256 PUSH0 ADD SWAP1 DUP2 PUSH2 0x88C SWAP2 SWAP1 PUSH2 0x1BE6 JUMP JUMPDEST POP PUSH32 0xEF928790E3BA239E686D4C1E6E85A60D67DDF17A606292C714CA966A2720F268 DUP3 DUP3 PUSH1 0x40 MLOAD PUSH2 0x8BE SWAP3 SWAP2 SWAP1 PUSH2 0x1CB5 JUMP JUMPDEST PUSH1 0x40 MLOAD DUP1 SWAP2 SUB SWAP1 LOG1 POP POP JUMP JUMPDEST PUSH2 0x8D3 DUP3 PUSH2 0x3E1 JUMP JUMPDEST PUSH2 0x8DC DUP2 PUSH2 0xF6B JUMP JUMPDEST PUSH2 0x8E6 DUP4 DUP4 PUSH2 0x106F JUMP JUMPDEST POP POP POP POP JUMP JUMPDEST PUSH32 0x1B0A231506479DB2482C2292B1C6A04EE5D0AB623A9347DD702500688937AB61 PUSH2 0x916 DUP2 PUSH2 0xF6B JUMP JUMPDEST PUSH0 PUSH20 0xFFFFFFFFFFFFFFFFFFFFFFFFFFFFFFFFFFFFFFFF AND PUSH1 0x1 DUP8 PUSH1 0x40 MLOAD PUSH2 0x93D SWAP2 SWAP1 PUSH2 0x1895 JUMP JUMPDEST SWAP1 DUP2 MSTORE PUSH1 0x20 ADD PUSH1 0x40 MLOAD DUP1 SWAP2 SUB SWAP1 KECCAK256 PUSH1 0x3 ADD PUSH0 SWAP1 SLOAD SWAP1 PUSH2 0x100 EXP SWAP1 DIV PUSH20 0xFFFFFFFFFFFFFFFFFFFFFFFFFFFFFFFFFFFFFFFF AND PUSH20 0xFFFFFFFFFFFFFFFFFFFFFFFFFFFFFFFFFFFFFFFF AND EQ PUSH2 0x9C4 JUMPI PUSH1 0x40 MLOAD PUSH32 0x8C379A000000000000000000000000000000000000000000000000000000000 DUP2 MSTORE PUSH1 0x4 ADD PUSH2 0x9BB SWAP1 PUSH2 0x1D34 JUMP JUMPDEST PUSH1 0x40 MLOAD DUP1 SWAP2 SUB SWAP1 REVERT JUMPDEST PUSH1 0x40 MLOAD DUP1 PUSH1 0x80 ADD PUSH1 0x40 MSTORE DUP1 DUP7 DUP2 MSTORE PUSH1 0x20 ADD DUP6 DUP2 MSTORE PUSH1 0x20 ADD DUP5 DUP2 MSTORE PUSH1 0x20 ADD DUP4 PUSH20 0xFFFFFFFFFFFFFFFFFFFFFFFFFFFFFFFFFFFFFFFF AND DUP2 MSTORE POP PUSH1 0x1 DUP8 PUSH1 0x40 MLOAD PUSH2 0xA0B SWAP2 SWAP1 PUSH2 0x1895 JUMP JUMPDEST SWAP1 DUP2 MSTORE PUSH1 0x20 ADD PUSH1 0x40 MLOAD DUP1 SWAP2 SUB SWAP1 KECCAK256 PUSH0 DUP3 ADD MLOAD DUP2 PUSH0 ADD SWAP1 DUP2 PUSH2 0xA2C SWAP2 SWAP1 PUSH2 0x1BE6 JUMP JUMPDEST POP PUSH1 0x20 DUP3 ADD MLOAD DUP2 PUSH1 0x1 ADD SWAP1 DUP2 PUSH2 0xA42 SWAP2 SWAP1 PUSH2 0x1BE6 JUMP JUMPDEST POP PUSH1 0x40 DUP3 ADD MLOAD DUP2 PUSH1 0x2 ADD SWAP1 DUP2 PUSH2 0xA58 SWAP2 SWAP1 PUSH2 0x1BE6 JUMP JUMPDEST POP PUSH1 0x60 DUP3 ADD MLOAD DUP2 PUSH1 0x3 ADD PUSH0 PUSH2 0x100 EXP DUP2 SLOAD DUP2 PUSH20 0xFFFFFFFFFFFFFFFFFFFFFFFFFFFFFFFFFFFFFFFF MUL NOT AND SWAP1 DUP4 PUSH20 0xFFFFFFFFFFFFFFFFFFFFFFFFFFFFFFFFFFFFFFFF AND MUL OR SWAP1 SSTORE POP SWAP1 POP POP PUSH2 0xACC PUSH32 0x14823911F2DA1B49F045A0929A60B8C1F2A7FC8C06C7284CA3E8AB4E193A08C8 DUP4 PUSH2 0xF7F JUMP JUMPDEST POP PUSH32 0x44CA9609D2FE597457041D7E98533A969452EF425C10A46D0DD9F074497EA1BA DUP7 DUP4 PUSH1 0x40 MLOAD PUSH2 0xAFE SWAP3 SWAP2 SWAP1 PUSH2 0x1D52 JUMP JUMPDEST PUSH1 0x40 MLOAD DUP1 SWAP2 SUB SWAP1 LOG1 POP POP POP POP POP POP JUMP JUMPDEST PUSH32 0xCE23C3E399818CFEE81A7AB0880F714E53D7672B08DF0FA62F2843416E1EA09 DUP2 JUMP JUMPDEST CALLER PUSH20 0xFFFFFFFFFFFFFFFFFFFFFFFFFFFFFFFFFFFFFFFF AND PUSH1 0x1 DUP5 PUSH1 0x40 MLOAD PUSH2 0xB59 SWAP2 SWAP1 PUSH2 0x1895 JUMP JUMPDEST SWAP1 DUP2 MSTORE PUSH1 0x20 ADD PUSH1 0x40 MLOAD DUP1 SWAP2 SUB SWAP1 KECCAK256 PUSH1 0x3 ADD PUSH0 SWAP1 SLOAD SWAP1 PUSH2 0x100 EXP SWAP1 DIV PUSH20 0xFFFFFFFFFFFFFFFFFFFFFFFFFFFFFFFFFFFFFFFF AND PUSH20 0xFFFFFFFFFFFFFFFFFFFFFFFFFFFFFFFFFFFFFFFF AND EQ PUSH2 0xBE0 JUMPI PUSH1 0x40 MLOAD PUSH32 0x8C379A000000000000000000000000000000000000000000000000000000000 DUP2 MSTORE PUSH1 0x4 ADD PUSH2 0xBD7 SWAP1 PUSH2 0x19C5 JUMP JUMPDEST PUSH1 0x40 MLOAD DUP1 SWAP2 SUB SWAP1 REVERT JUMPDEST DUP2 PUSH1 0x1 DUP5 PUSH1 0x40 MLOAD PUSH2 0xBF1 SWAP2 SWAP1 PUSH2 0x1895 JUMP JUMPDEST SWAP1 DUP2 MSTORE PUSH1 0x20 ADD PUSH1 0x40 MLOAD DUP1 SWAP2 SUB SWAP1 KECCAK256 PUSH1 0x1 ADD SWAP1 DUP2 PUSH2 0xC0E SWAP2 SWAP1 PUSH2 0x1BE6 JUMP JUMPDEST POP DUP1 PUSH1 0x1 DUP5 PUSH1 0x40 MLOAD PUSH2 0xC20 SWAP2 SWAP1 PUSH2 0x1895 JUMP JUMPDEST SWAP1 DUP2 MSTORE PUSH1 0x20 ADD PUSH1 0x40 MLOAD DUP1 SWAP2 SUB SWAP1 KECCAK256 PUSH1 0x2 ADD SWAP1 DUP2 PUSH2 0xC3D SWAP2 SWAP1 PUSH2 0x1BE6 JUMP JUMPDEST POP PUSH32 0xFCDAD05CE3C89A367C74C08F373CF092AF7E367CDCDEECFD3A89BF55FA9D28E1 DUP4 DUP4 DUP4 PUSH1 0x40 MLOAD PUSH2 0xC71 SWAP4 SWAP3 SWAP2 SWAP1 PUSH2 0x1D80 JUMP JUMPDEST PUSH1 0x40 MLOAD DUP1 SWAP2 SUB SWAP1 LOG1 POP POP POP JUMP JUMPDEST PUSH1 0x60 DUP1 PUSH1 0x60 PUSH0 PUSH32 0xCE23C3E399818CFEE81A7AB0880F714E53D7672B08DF0FA62F2843416E1EA09 PUSH2 0xCAE DUP2 PUSH2 0xF6B JUMP JUMPDEST PUSH0 PUSH1 0x1 DUP8 PUSH1 0x40 MLOAD PUSH2 0xCBF SWAP2 SWAP1 PUSH2 0x1895 JUMP JUMPDEST SWAP1 DUP2 MSTORE PUSH1 0x20 ADD PUSH1 0x40 MLOAD DUP1 SWAP2 SUB SWAP1 KECCAK256 PUSH1 0x40 MLOAD DUP1 PUSH1 0x80 ADD PUSH1 0x40 MSTORE SWAP1 DUP2 PUSH0 DUP3 ADD DUP1 SLOAD PUSH2 0xCE7 SWAP1 PUSH2 0x1A10 JUMP JUMPDEST DUP1 PUSH1 0x1F ADD PUSH1 0x20 DUP1 SWAP2 DIV MUL PUSH1 0x20 ADD PUSH1 0x40 MLOAD SWAP1 DUP2 ADD PUSH1 0x40 MSTORE DUP1 SWAP3 SWAP2 SWAP1 DUP2 DUP2 MSTORE PUSH1 0x20 ADD DUP3 DUP1 SLOAD PUSH2 0xD13 SWAP1 PUSH2 0x1A10 JUMP JUMPDEST DUP1 ISZERO PUSH2 0xD5E JUMPI DUP1 PUSH1 0x1F LT PUSH2 0xD35 JUMPI PUSH2 0x100 DUP1 DUP4 SLOAD DIV MUL DUP4 MSTORE SWAP2 PUSH1 0x20 ADD SWAP2 PUSH2 0xD5E JUMP JUMPDEST DUP3 ADD SWAP2 SWAP1 PUSH0 MSTORE PUSH1 0x20 PUSH0 KECCAK256 SWAP1 JUMPDEST DUP2 SLOAD DUP2 MSTORE SWAP1 PUSH1 0x1 ADD SWAP1 PUSH1 0x20 ADD DUP1 DUP4 GT PUSH2 0xD41 JUMPI DUP3 SWAP1 SUB PUSH1 0x1F AND DUP3 ADD SWAP2 JUMPDEST POP POP POP POP POP DUP2 MSTORE PUSH1 0x20 ADD PUSH1 0x1 DUP3 ADD DUP1 SLOAD PUSH2 0xD77 SWAP1 PUSH2 0x1A10 JUMP JUMPDEST DUP1 PUSH1 0x1F ADD PUSH1 0x20 DUP1 SWAP2 DIV MUL PUSH1 0x20 ADD PUSH1 0x40 MLOAD SWAP1 DUP2 ADD PUSH1 0x40 MSTORE DUP1 SWAP3 SWAP2 SWAP1 DUP2 DUP2 MSTORE PUSH1 0x20 ADD DUP3 DUP1 SLOAD PUSH2 0xDA3 SWAP1 PUSH2 0x1A10 JUMP JUMPDEST DUP1 ISZERO PUSH2 0xDEE JUMPI DUP1 PUSH1 0x1F LT PUSH2 0xDC5 JUMPI PUSH2 0x100 DUP1 DUP4 SLOAD DIV MUL DUP4 MSTORE SWAP2 PUSH1 0x20 ADD SWAP2 PUSH2 0xDEE JUMP JUMPDEST DUP3 ADD SWAP2 SWAP1 PUSH0 MSTORE PUSH1 0x20 PUSH0 KECCAK256 SWAP1 JUMPDEST DUP2 SLOAD DUP2 MSTORE SWAP1 PUSH1 0x1 ADD SWAP1 PUSH1 0x20 ADD DUP1 DUP4 GT PUSH2 0xDD1 JUMPI DUP3 SWAP1 SUB PUSH1 0x1F AND DUP3 ADD SWAP2 JUMPDEST POP POP POP POP POP DUP2 MSTORE PUSH1 0x20 ADD PUSH1 0x2 DUP3 ADD DUP1 SLOAD PUSH2 0xE07 SWAP1 PUSH2 0x1A10 JUMP JUMPDEST DUP1 PUSH1 0x1F ADD PUSH1 0x20 DUP1 SWAP2 DIV MUL PUSH1 0x20 ADD PUSH1 0x40 MLOAD SWAP1 DUP2 ADD PUSH1 0x40 MSTORE DUP1 SWAP3 SWAP2 SWAP1 DUP2 DUP2 MSTORE PUSH1 0x20 ADD DUP3 DUP1 SLOAD PUSH2 0xE33 SWAP1 PUSH2 0x1A10 JUMP JUMPDEST DUP1 ISZERO PUSH2 0xE7E JUMPI DUP1 PUSH1 0x1F LT PUSH2 0xE55 JUMPI PUSH2 0x100 DUP1 DUP4 SLOAD DIV MUL DUP4 MSTORE SWAP2 PUSH1 0x20 ADD SWAP2 PUSH2 0xE7E JUMP JUMPDEST DUP3 ADD SWAP2 SWAP1 PUSH0 MSTORE PUSH1 0x20 PUSH0 KECCAK256 SWAP1 JUMPDEST DUP2 SLOAD DUP2 MSTORE SWAP1 PUSH1 0x1 ADD SWAP1 PUSH1 0x20 ADD DUP1 DUP4 GT PUSH2 0xE61 JUMPI DUP3 SWAP1 SUB PUSH1 0x1F AND DUP3 ADD SWAP2 JUMPDEST POP POP POP POP POP DUP2 MSTORE PUSH1 0x20 ADD PUSH1 0x3 DUP3 ADD PUSH0 SWAP1 SLOAD SWAP1 PUSH2 0x100 EXP SWAP1 DIV PUSH20 0xFFFFFFFFFFFFFFFFFFFFFFFFFFFFFFFFFFFFFFFF AND PUSH20 0xFFFFFFFFFFFFFFFFFFFFFFFFFFFFFFFFFFFFFFFF AND PUSH20 0xFFFFFFFFFFFFFFFFFFFFFFFFFFFFFFFFFFFFFFFF AND DUP2 MSTORE POP POP SWAP1 POP DUP1 PUSH0 ADD MLOAD DUP2 PUSH1 0x20 ADD MLOAD DUP3 PUSH1 0x40 ADD MLOAD DUP4 PUSH1 0x60 ADD MLOAD SWAP6 POP SWAP6 POP SWAP6 POP SWAP6 POP POP POP SWAP2 SWAP4 POP SWAP2 SWAP4 JUMP JUMPDEST PUSH0 PUSH32 0x1FFC9A700000000000000000000000000000000000000000000000000000000 PUSH28 0xFFFFFFFFFFFFFFFFFFFFFFFFFFFFFFFFFFFFFFFFFFFFFFFFFFFFFFFF NOT AND DUP3 PUSH28 0xFFFFFFFFFFFFFFFFFFFFFFFFFFFFFFFFFFFFFFFFFFFFFFFFFFFFFFFF NOT AND EQ SWAP1 POP SWAP2 SWAP1 POP JUMP JUMPDEST PUSH2 0xF7C DUP2 PUSH2 0xF77 PUSH2 0x1068 JUMP JUMPDEST PUSH2 0x1158 JUMP JUMPDEST POP JUMP JUMPDEST PUSH0 PUSH2 0xF8A DUP4 DUP4 PUSH2 0x574 JUMP JUMPDEST PUSH2 0x105E JUMPI PUSH1 0x1 PUSH0 DUP1 DUP6 DUP2 MSTORE PUSH1 0x20 ADD SWAP1 DUP2 MSTORE PUSH1 0x20 ADD PUSH0 KECCAK256 PUSH0 ADD PUSH0 DUP5 PUSH20 0xFFFFFFFFFFFFFFFFFFFFFFFFFFFFFFFFFFFFFFFF AND PUSH20 0xFFFFFFFFFFFFFFFFFFFFFFFFFFFFFFFFFFFFFFFF AND DUP2 MSTORE PUSH1 0x20 ADD SWAP1 DUP2 MSTORE PUSH1 0x20 ADD PUSH0 KECCAK256 PUSH0 PUSH2 0x100 EXP DUP2 SLOAD DUP2 PUSH1 0xFF MUL NOT AND SWAP1 DUP4 ISZERO ISZERO MUL OR SWAP1 SSTORE POP PUSH2 0xFFB PUSH2 0x1068 JUMP JUMPDEST PUSH20 0xFFFFFFFFFFFFFFFFFFFFFFFFFFFFFFFFFFFFFFFF AND DUP3 PUSH20 0xFFFFFFFFFFFFFFFFFFFFFFFFFFFFFFFFFFFFFFFF AND DUP5 PUSH32 0x2F8788117E7EFF1D82E926EC794901D17C78024A50270940304540A733656F0D PUSH1 0x40 MLOAD PUSH1 0x40 MLOAD DUP1 SWAP2 SUB SWAP1 LOG4 PUSH1 0x1 SWAP1 POP PUSH2 0x1062 JUMP JUMPDEST PUSH0 SWAP1 POP JUMPDEST SWAP3 SWAP2 POP POP JUMP JUMPDEST PUSH0 CALLER SWAP1 POP SWAP1 JUMP JUMPDEST PUSH0 PUSH2 0x107A DUP4 DUP4 PUSH2 0x574 JUMP JUMPDEST ISZERO PUSH2 0x114E JUMPI PUSH0 DUP1 PUSH0 DUP6 DUP2 MSTORE PUSH1 0x20 ADD SWAP1 DUP2 MSTORE PUSH1 0x20 ADD PUSH0 KECCAK256 PUSH0 ADD PUSH0 DUP5 PUSH20 0xFFFFFFFFFFFFFFFFFFFFFFFFFFFFFFFFFFFFFFFF AND PUSH20 0xFFFFFFFFFFFFFFFFFFFFFFFFFFFFFFFFFFFFFFFF AND DUP2 MSTORE PUSH1 0x20 ADD SWAP1 DUP2 MSTORE PUSH1 0x20 ADD PUSH0 KECCAK256 PUSH0 PUSH2 0x100 EXP DUP2 SLOAD DUP2 PUSH1 0xFF MUL NOT AND SWAP1 DUP4 ISZERO ISZERO MUL OR SWAP1 SSTORE POP PUSH2 0x10EB PUSH2 0x1068 JUMP JUMPDEST PUSH20 0xFFFFFFFFFFFFFFFFFFFFFFFFFFFFFFFFFFFFFFFF AND DUP3 PUSH20 0xFFFFFFFFFFFFFFFFFFFFFFFFFFFFFFFFFFFFFFFF AND DUP5 PUSH32 0xF6391F5C32D9C69D2A47EA670B442974B53935D1EDC7FD64EB21E047A839171B PUSH1 0x40 MLOAD PUSH1 0x40 MLOAD DUP1 SWAP2 SUB SWAP1 LOG4 PUSH1 0x1 SWAP1 POP PUSH2 0x1152 JUMP JUMPDEST PUSH0 SWAP1 POP JUMPDEST SWAP3 SWAP2 POP POP JUMP JUMPDEST PUSH2 0x1162 DUP3 DUP3 PUSH2 0x574 JUMP JUMPDEST PUSH2 0x11A5 JUMPI DUP1 DUP3 PUSH1 0x40 MLOAD PUSH32 0xE2517D3F00000000000000000000000000000000000000000000000000000000 DUP2 MSTORE PUSH1 0x4 ADD PUSH2 0x119C SWAP3 SWAP2 SWAP1 PUSH2 0x1DCA JUMP JUMPDEST PUSH1 0x40 MLOAD DUP1 SWAP2 SUB SWAP1 REVERT JUMPDEST POP POP JUMP JUMPDEST PUSH0 PUSH1 0x40 MLOAD SWAP1 POP SWAP1 JUMP JUMPDEST PUSH0 DUP1 REVERT JUMPDEST PUSH0 DUP1 REVERT JUMPDEST PUSH0 PUSH32 0xFFFFFFFF00000000000000000000000000000000000000000000000000000000 DUP3 AND SWAP1 POP SWAP2 SWAP1 POP JUMP JUMPDEST PUSH2 0x11EE DUP2 PUSH2 0x11BA JUMP JUMPDEST DUP2 EQ PUSH2 0x11F8 JUMPI PUSH0 DUP1 REVERT JUMPDEST POP JUMP JUMPDEST PUSH0 DUP2 CALLDATALOAD SWAP1 POP PUSH2 0x1209 DUP2 PUSH2 0x11E5 JUMP JUMPDEST SWAP3 SWAP2 POP POP JUMP JUMPDEST PUSH0 PUSH1 0x20 DUP3 DUP5 SUB SLT ISZERO PUSH2 0x1224 JUMPI PUSH2 0x1223 PUSH2 0x11B2 JUMP JUMPDEST JUMPDEST PUSH0 PUSH2 0x1231 DUP5 DUP3 DUP6 ADD PUSH2 0x11FB JUMP JUMPDEST SWAP2 POP POP SWAP3 SWAP2 POP POP JUMP JUMPDEST PUSH0 DUP2 ISZERO ISZERO SWAP1 POP SWAP2 SWAP1 POP JUMP JUMPDEST PUSH2 0x124E DUP2 PUSH2 0x123A JUMP JUMPDEST DUP3 MSTORE POP POP JUMP JUMPDEST PUSH0 PUSH1 0x20 DUP3 ADD SWAP1 POP PUSH2 0x1267 PUSH0 DUP4 ADD DUP5 PUSH2 0x1245 JUMP JUMPDEST SWAP3 SWAP2 POP POP JUMP JUMPDEST PUSH0 DUP2 SWAP1 POP SWAP2 SWAP1 POP JUMP JUMPDEST PUSH2 0x127F DUP2 PUSH2 0x126D JUMP JUMPDEST DUP3 MSTORE POP POP JUMP JUMPDEST PUSH0 PUSH1 0x20 DUP3 ADD SWAP1 POP PUSH2 0x1298 PUSH0 DUP4 ADD DUP5 PUSH2 0x1276 JUMP JUMPDEST SWAP3 SWAP2 POP POP JUMP JUMPDEST PUSH2 0x12A7 DUP2 PUSH2 0x126D JUMP JUMPDEST DUP2 EQ PUSH2 0x12B1 JUMPI PUSH0 DUP1 REVERT JUMPDEST POP JUMP JUMPDEST PUSH0 DUP2 CALLDATALOAD SWAP1 POP PUSH2 0x12C2 DUP2 PUSH2 0x129E JUMP JUMPDEST SWAP3 SWAP2 POP POP JUMP JUMPDEST PUSH0 PUSH1 0x20 DUP3 DUP5 SUB SLT ISZERO PUSH2 0x12DD JUMPI PUSH2 0x12DC PUSH2 0x11B2 JUMP JUMPDEST JUMPDEST PUSH0 PUSH2 0x12EA DUP5 DUP3 DUP6 ADD PUSH2 0x12B4 JUMP JUMPDEST SWAP2 POP POP SWAP3 SWAP2 POP POP JUMP JUMPDEST PUSH0 PUSH20 0xFFFFFFFFFFFFFFFFFFFFFFFFFFFFFFFFFFFFFFFF DUP3 AND SWAP1 POP SWAP2 SWAP1 POP JUMP JUMPDEST PUSH0 PUSH2 0x131C DUP3 PUSH2 0x12F3 JUMP JUMPDEST SWAP1 POP SWAP2 SWAP1 POP JUMP JUMPDEST PUSH2 0x132C DUP2 PUSH2 0x1312 JUMP JUMPDEST DUP2 EQ PUSH2 0x1336 JUMPI PUSH0 DUP1 REVERT JUMPDEST POP JUMP JUMPDEST PUSH0 DUP2 CALLDATALOAD SWAP1 POP PUSH2 0x1347 DUP2 PUSH2 0x1323 JUMP JUMPDEST SWAP3 SWAP2 POP POP JUMP JUMPDEST PUSH0 DUP1 PUSH1 0x40 DUP4 DUP6 SUB SLT ISZERO PUSH2 0x1363 JUMPI PUSH2 0x1362 PUSH2 0x11B2 JUMP JUMPDEST JUMPDEST PUSH0 PUSH2 0x1370 DUP6 DUP3 DUP7 ADD PUSH2 0x12B4 JUMP JUMPDEST SWAP3 POP POP PUSH1 0x20 PUSH2 0x1381 DUP6 DUP3 DUP7 ADD PUSH2 0x1339 JUMP JUMPDEST SWAP2 POP POP SWAP3 POP SWAP3 SWAP1 POP JUMP JUMPDEST PUSH0 PUSH1 0x20 DUP3 DUP5 SUB SLT ISZERO PUSH2 0x13A0 JUMPI PUSH2 0x139F PUSH2 0x11B2 JUMP JUMPDEST JUMPDEST PUSH0 PUSH2 0x13AD DUP5 DUP3 DUP6 ADD PUSH2 0x1339 JUMP JUMPDEST SWAP2 POP POP SWAP3 SWAP2 POP POP JUMP JUMPDEST PUSH0 DUP1 REVERT JUMPDEST PUSH0 DUP1 REVERT JUMPDEST PUSH0 PUSH1 0x1F NOT PUSH1 0x1F DUP4 ADD AND SWAP1 POP SWAP2 SWAP1 POP JUMP JUMPDEST PUSH32 0x4E487B7100000000000000000000000000000000000000000000000000000000 PUSH0 MSTORE PUSH1 0x41 PUSH1 0x4 MSTORE PUSH1 0x24 PUSH0 REVERT JUMPDEST PUSH2 0x1404 DUP3 PUSH2 0x13BE JUMP JUMPDEST DUP2 ADD DUP2 DUP2 LT PUSH8 0xFFFFFFFFFFFFFFFF DUP3 GT OR ISZERO PUSH2 0x1423 JUMPI PUSH2 0x1422 PUSH2 0x13CE JUMP JUMPDEST JUMPDEST DUP1 PUSH1 0x40 MSTORE POP POP POP JUMP JUMPDEST PUSH0 PUSH2 0x1435 PUSH2 0x11A9 JUMP JUMPDEST SWAP1 POP PUSH2 0x1441 DUP3 DUP3 PUSH2 0x13FB JUMP JUMPDEST SWAP2 SWAP1 POP JUMP JUMPDEST PUSH0 PUSH8 0xFFFFFFFFFFFFFFFF DUP3 GT ISZERO PUSH2 0x1460 JUMPI PUSH2 0x145F PUSH2 0x13CE JUMP JUMPDEST JUMPDEST PUSH2 0x1469 DUP3 PUSH2 0x13BE JUMP JUMPDEST SWAP1 POP PUSH1 0x20 DUP2 ADD SWAP1 POP SWAP2 SWAP1 POP JUMP JUMPDEST DUP3 DUP2 DUP4 CALLDATACOPY PUSH0 DUP4 DUP4 ADD MSTORE POP POP POP JUMP JUMPDEST PUSH0 PUSH2 0x1496 PUSH2 0x1491 DUP5 PUSH2 0x1446 JUMP JUMPDEST PUSH2 0x142C JUMP JUMPDEST SWAP1 POP DUP3 DUP2 MSTORE PUSH1 0x20 DUP2 ADD DUP5 DUP5 DUP5 ADD GT ISZERO PUSH2 0x14B2 JUMPI PUSH2 0x14B1 PUSH2 0x13BA JUMP JUMPDEST JUMPDEST PUSH2 0x14BD DUP5 DUP3 DUP6 PUSH2 0x1476 JUMP JUMPDEST POP SWAP4 SWAP3 POP POP POP JUMP JUMPDEST PUSH0 DUP3 PUSH1 0x1F DUP4 ADD SLT PUSH2 0x14D9 JUMPI PUSH2 0x14D8 PUSH2 0x13B6 JUMP JUMPDEST JUMPDEST DUP2 CALLDATALOAD PUSH2 0x14E9 DUP5 DUP3 PUSH1 0x20 DUP7 ADD PUSH2 0x1484 JUMP JUMPDEST SWAP2 POP POP SWAP3 SWAP2 POP POP JUMP JUMPDEST PUSH0 DUP1 PUSH1 0x40 DUP4 DUP6 SUB SLT ISZERO PUSH2 0x1508 JUMPI PUSH2 0x1507 PUSH2 0x11B2 JUMP JUMPDEST JUMPDEST PUSH0 DUP4 ADD CALLDATALOAD PUSH8 0xFFFFFFFFFFFFFFFF DUP2 GT ISZERO PUSH2 0x1525 JUMPI PUSH2 0x1524 PUSH2 0x11B6 JUMP JUMPDEST JUMPDEST PUSH2 0x1531 DUP6 DUP3 DUP7 ADD PUSH2 0x14C5 JUMP JUMPDEST SWAP3 POP POP PUSH1 0x20 PUSH2 0x1542 DUP6 DUP3 DUP7 ADD PUSH2 0x1339 JUMP JUMPDEST SWAP2 POP POP SWAP3 POP SWAP3 SWAP1 POP JUMP JUMPDEST PUSH0 DUP1 PUSH1 0x40 DUP4 DUP6 SUB SLT ISZERO PUSH2 0x1562 JUMPI PUSH2 0x1561 PUSH2 0x11B2 JUMP JUMPDEST JUMPDEST PUSH0 DUP4 ADD CALLDATALOAD PUSH8 0xFFFFFFFFFFFFFFFF DUP2 GT ISZERO PUSH2 0x157F JUMPI PUSH2 0x157E PUSH2 0x11B6 JUMP JUMPDEST JUMPDEST PUSH2 0x158B DUP6 DUP3 DUP7 ADD PUSH2 0x14C5 JUMP JUMPDEST SWAP3 POP POP PUSH1 0x20 DUP4 ADD CALLDATALOAD PUSH8 0xFFFFFFFFFFFFFFFF DUP2 GT ISZERO PUSH2 0x15AC JUMPI PUSH2 0x15AB PUSH2 0x11B6 JUMP JUMPDEST JUMPDEST PUSH2 0x15B8 DUP6 DUP3 DUP7 ADD PUSH2 0x14C5 JUMP JUMPDEST SWAP2 POP POP SWAP3 POP SWAP3 SWAP1 POP JUMP JUMPDEST PUSH0 DUP1 PUSH0 DUP1 PUSH0 PUSH1 0xA0 DUP7 DUP9 SUB SLT ISZERO PUSH2 0x15DB JUMPI PUSH2 0x15DA PUSH2 0x11B2 JUMP JUMPDEST JUMPDEST PUSH0 DUP7 ADD CALLDATALOAD PUSH8 0xFFFFFFFFFFFFFFFF DUP2 GT ISZERO PUSH2 0x15F8 JUMPI PUSH2 0x15F7 PUSH2 0x11B6 JUMP JUMPDEST JUMPDEST PUSH2 0x1604 DUP9 DUP3 DUP10 ADD PUSH2 0x14C5 JUMP JUMPDEST SWAP6 POP POP PUSH1 0x20 DUP7 ADD CALLDATALOAD PUSH8 0xFFFFFFFFFFFFFFFF DUP2 GT ISZERO PUSH2 0x1625 JUMPI PUSH2 0x1624 PUSH2 0x11B6 JUMP JUMPDEST JUMPDEST PUSH2 0x1631 DUP9 DUP3 DUP10 ADD PUSH2 0x14C5 JUMP JUMPDEST SWAP5 POP POP PUSH1 0x40 DUP7 ADD CALLDATALOAD PUSH8 0xFFFFFFFFFFFFFFFF DUP2 GT ISZERO PUSH2 0x1652 JUMPI PUSH2 0x1651 PUSH2 0x11B6 JUMP JUMPDEST JUMPDEST PUSH2 0x165E DUP9 DUP3 DUP10 ADD PUSH2 0x14C5 JUMP JUMPDEST SWAP4 POP POP PUSH1 0x60 DUP7 ADD CALLDATALOAD PUSH8 0xFFFFFFFFFFFFFFFF DUP2 GT ISZERO PUSH2 0x167F JUMPI PUSH2 0x167E PUSH2 0x11B6 JUMP JUMPDEST JUMPDEST PUSH2 0x168B DUP9 DUP3 DUP10 ADD PUSH2 0x14C5 JUMP JUMPDEST SWAP3 POP POP PUSH1 0x80 PUSH2 0x169C DUP9 DUP3 DUP10 ADD PUSH2 0x1339 JUMP JUMPDEST SWAP2 POP POP SWAP3 SWAP6 POP SWAP3 SWAP6 SWAP1 SWAP4 POP JUMP JUMPDEST PUSH0 DUP1 PUSH0 PUSH1 0x60 DUP5 DUP7 SUB SLT ISZERO PUSH2 0x16C0 JUMPI PUSH2 0x16BF PUSH2 0x11B2 JUMP JUMPDEST JUMPDEST PUSH0 DUP5 ADD CALLDATALOAD PUSH8 0xFFFFFFFFFFFFFFFF DUP2 GT ISZERO PUSH2 0x16DD JUMPI PUSH2 0x16DC PUSH2 0x11B6 JUMP JUMPDEST JUMPDEST PUSH2 0x16E9 DUP7 DUP3 DUP8 ADD PUSH2 0x14C5 JUMP JUMPDEST SWAP4 POP POP PUSH1 0x20 DUP5 ADD CALLDATALOAD PUSH8 0xFFFFFFFFFFFFFFFF DUP2 GT ISZERO PUSH2 0x170A JUMPI PUSH2 0x1709 PUSH2 0x11B6 JUMP JUMPDEST JUMPDEST PUSH2 0x1716 DUP7 DUP3 DUP8 ADD PUSH2 0x14C5 JUMP JUMPDEST SWAP3 POP POP PUSH1 0x40 DUP5 ADD CALLDATALOAD PUSH8 0xFFFFFFFFFFFFFFFF DUP2 GT ISZERO PUSH2 0x1737 JUMPI PUSH2 0x1736 PUSH2 0x11B6 JUMP JUMPDEST JUMPDEST PUSH2 0x1743 DUP7 DUP3 DUP8 ADD PUSH2 0x14C5 JUMP JUMPDEST SWAP2 POP POP SWAP3 POP SWAP3 POP SWAP3 JUMP JUMPDEST PUSH0 PUSH1 0x20 DUP3 DUP5 SUB SLT ISZERO PUSH2 0x1762 JUMPI PUSH2 0x1761 PUSH2 0x11B2 JUMP JUMPDEST JUMPDEST PUSH0 DUP3 ADD CALLDATALOAD PUSH8 0xFFFFFFFFFFFFFFFF DUP2 GT ISZERO PUSH2 0x177F JUMPI PUSH2 0x177E PUSH2 0x11B6 JUMP JUMPDEST JUMPDEST PUSH2 0x178B DUP5 DUP3 DUP6 ADD PUSH2 0x14C5 JUMP JUMPDEST SWAP2 POP POP SWAP3 SWAP2 POP POP JUMP JUMPDEST PUSH0 DUP2 MLOAD SWAP1 POP SWAP2 SWAP1 POP JUMP JUMPDEST PUSH0 DUP3 DUP3 MSTORE PUSH1 0x20 DUP3 ADD SWAP1 POP SWAP3 SWAP2 POP POP JUMP JUMPDEST DUP3 DUP2 DUP4 MCOPY PUSH0 DUP4 DUP4 ADD MSTORE POP POP POP JUMP JUMPDEST PUSH0 PUSH2 0x17C6 DUP3 PUSH2 0x1794 JUMP JUMPDEST PUSH2 0x17D0 DUP2 DUP6 PUSH2 0x179E JUMP JUMPDEST SWAP4 POP PUSH2 0x17E0 DUP2 DUP6 PUSH1 0x20 DUP7 ADD PUSH2 0x17AE JUMP JUMPDEST PUSH2 0x17E9 DUP2 PUSH2 0x13BE JUMP JUMPDEST DUP5 ADD SWAP2 POP POP SWAP3 SWAP2 POP POP JUMP JUMPDEST PUSH2 0x17FD DUP2 PUSH2 0x1312 JUMP JUMPDEST DUP3 MSTORE POP POP JUMP JUMPDEST PUSH0 PUSH1 0x80 DUP3 ADD SWAP1 POP DUP2 DUP2 SUB PUSH0 DUP4 ADD MSTORE PUSH2 0x181B DUP2 DUP8 PUSH2 0x17BC JUMP JUMPDEST SWAP1 POP DUP2 DUP2 SUB PUSH1 0x20 DUP4 ADD MSTORE PUSH2 0x182F DUP2 DUP7 PUSH2 0x17BC JUMP JUMPDEST SWAP1 POP DUP2 DUP2 SUB PUSH1 0x40 DUP4 ADD MSTORE PUSH2 0x1843 DUP2 DUP6 PUSH2 0x17BC JUMP JUMPDEST SWAP1 POP PUSH2 0x1852 PUSH1 0x60 DUP4 ADD DUP5 PUSH2 0x17F4 JUMP JUMPDEST SWAP6 SWAP5 POP POP POP POP POP JUMP JUMPDEST PUSH0 DUP2 SWAP1 POP SWAP3 SWAP2 POP POP JUMP JUMPDEST PUSH0 PUSH2 0x186F DUP3 PUSH2 0x1794 JUMP JUMPDEST PUSH2 0x1879 DUP2 DUP6 PUSH2 0x185B JUMP JUMPDEST SWAP4 POP PUSH2 0x1889 DUP2 DUP6 PUSH1 0x20 DUP7 ADD PUSH2 0x17AE JUMP JUMPDEST DUP1 DUP5 ADD SWAP2 POP POP SWAP3 SWAP2 POP POP JUMP JUMPDEST PUSH0 PUSH2 0x18A0 DUP3 DUP5 PUSH2 0x1865 JUMP JUMPDEST SWAP2 POP DUP2 SWAP1 POP SWAP3 SWAP2 POP POP JUMP JUMPDEST PUSH32 0x4E6F7420617574686F72697A6564000000000000000000000000000000000000 PUSH0 DUP3 ADD MSTORE POP JUMP JUMPDEST PUSH0 PUSH2 0x18DF PUSH1 0xE DUP4 PUSH2 0x179E JUMP JUMPDEST SWAP2 POP PUSH2 0x18EA DUP3 PUSH2 0x18AB JUMP JUMPDEST PUSH1 0x20 DUP3 ADD SWAP1 POP SWAP2 SWAP1 POP JUMP JUMPDEST PUSH0 PUSH1 0x20 DUP3 ADD SWAP1 POP DUP2 DUP2 SUB PUSH0 DUP4 ADD MSTORE PUSH2 0x190C DUP2 PUSH2 0x18D3 JUMP JUMPDEST SWAP1 POP SWAP2 SWAP1 POP JUMP JUMPDEST PUSH32 0x4E6577206F776E6572206164647265737320697320696E76616C696400000000 PUSH0 DUP3 ADD MSTORE POP JUMP JUMPDEST PUSH0 PUSH2 0x1947 PUSH1 0x1C DUP4 PUSH2 0x179E JUMP JUMPDEST SWAP2 POP PUSH2 0x1952 DUP3 PUSH2 0x1913 JUMP JUMPDEST PUSH1 0x20 DUP3 ADD SWAP1 POP SWAP2 SWAP1 POP JUMP JUMPDEST PUSH0 PUSH1 0x20 DUP3 ADD SWAP1 POP DUP2 DUP2 SUB PUSH0 DUP4 ADD MSTORE PUSH2 0x1974 DUP2 PUSH2 0x193B JUMP JUMPDEST SWAP1 POP SWAP2 SWAP1 POP JUMP JUMPDEST PUSH32 0x4E6F7420746865206F776E6572206F6620746865204449440000000000000000 PUSH0 DUP3 ADD MSTORE POP JUMP JUMPDEST PUSH0 PUSH2 0x19AF PUSH1 0x18 DUP4 PUSH2 0x179E JUMP JUMPDEST SWAP2 POP PUSH2 0x19BA DUP3 PUSH2 0x197B JUMP JUMPDEST PUSH1 0x20 DUP3 ADD SWAP1 POP SWAP2 SWAP1 POP JUMP JUMPDEST PUSH0 PUSH1 0x20 DUP3 ADD SWAP1 POP DUP2 DUP2 SUB PUSH0 DUP4 ADD MSTORE PUSH2 0x19DC DUP2 PUSH2 0x19A3 JUMP JUMPDEST SWAP1 POP SWAP2 SWAP1 POP JUMP JUMPDEST PUSH32 0x4E487B7100000000000000000000000000000000000000000000000000000000 PUSH0 MSTORE PUSH1 0x22 PUSH1 0x4 MSTORE PUSH1 0x24 PUSH0 REVERT JUMPDEST PUSH0 PUSH1 0x2 DUP3 DIV SWAP1 POP PUSH1 0x1 DUP3 AND DUP1 PUSH2 0x1A27 JUMPI PUSH1 0x7F DUP3 AND SWAP2 POP JUMPDEST PUSH1 0x20 DUP3 LT DUP2 SUB PUSH2 0x1A3A JUMPI PUSH2 0x1A39 PUSH2 0x19E3 JUMP JUMPDEST JUMPDEST POP SWAP2 SWAP1 POP JUMP JUMPDEST PUSH0 DUP2 SWAP1 POP DUP2 PUSH0 MSTORE PUSH1 0x20 PUSH0 KECCAK256 SWAP1 POP SWAP2 SWAP1 POP JUMP JUMPDEST PUSH0 PUSH1 0x20 PUSH1 0x1F DUP4 ADD DIV SWAP1 POP SWAP2 SWAP1 POP JUMP JUMPDEST PUSH0 DUP3 DUP3 SHL SWAP1 POP SWAP3 SWAP2 POP POP JUMP JUMPDEST PUSH0 PUSH1 0x8 DUP4 MUL PUSH2 0x1A9C PUSH32 0xFFFFFFFFFFFFFFFFFFFFFFFFFFFFFFFFFFFFFFFFFFFFFFFFFFFFFFFFFFFFFFFF DUP3 PUSH2 0x1A61 JUMP JUMPDEST PUSH2 0x1AA6 DUP7 DUP4 PUSH2 0x1A61 JUMP JUMPDEST SWAP6 POP DUP1 NOT DUP5 AND SWAP4 POP DUP1 DUP7 AND DUP5 OR SWAP3 POP POP POP SWAP4 SWAP3 POP POP POP JUMP JUMPDEST PUSH0 DUP2 SWAP1 POP SWAP2 SWAP1 POP JUMP JUMPDEST PUSH0 DUP2 SWAP1 POP SWAP2 SWAP1 POP JUMP JUMPDEST PUSH0 PUSH2 0x1AEA PUSH2 0x1AE5 PUSH2 0x1AE0 DUP5 PUSH2 0x1ABE JUMP JUMPDEST PUSH2 0x1AC7 JUMP JUMPDEST PUSH2 0x1ABE JUMP JUMPDEST SWAP1 POP SWAP2 SWAP1 POP JUMP JUMPDEST PUSH0 DUP2 SWAP1 POP SWAP2 SWAP1 POP JUMP JUMPDEST PUSH2 0x1B03 DUP4 PUSH2 0x1AD0 JUMP JUMPDEST PUSH2 0x1B17 PUSH2 0x1B0F DUP3 PUSH2 0x1AF1 JUMP JUMPDEST DUP5 DUP5 SLOAD PUSH2 0x1A6D JUMP JUMPDEST DUP3 SSTORE POP POP POP POP JUMP JUMPDEST PUSH0 SWAP1 JUMP JUMPDEST PUSH2 0x1B2B PUSH2 0x1B1F JUMP JUMPDEST PUSH2 0x1B36 DUP2 DUP5 DUP5 PUSH2 0x1AFA JUMP JUMPDEST POP POP POP JUMP JUMPDEST JUMPDEST DUP2 DUP2 LT ISZERO PUSH2 0x1B59 JUMPI PUSH2 0x1B4E PUSH0 DUP3 PUSH2 0x1B23 JUMP JUMPDEST PUSH1 0x1 DUP2 ADD SWAP1 POP PUSH2 0x1B3C JUMP JUMPDEST POP POP JUMP JUMPDEST PUSH1 0x1F DUP3 GT ISZERO PUSH2 0x1B9E JUMPI PUSH2 0x1B6F DUP2 PUSH2 0x1A40 JUMP JUMPDEST PUSH2 0x1B78 DUP5 PUSH2 0x1A52 JUMP JUMPDEST DUP2 ADD PUSH1 0x20 DUP6 LT ISZERO PUSH2 0x1B87 JUMPI DUP2 SWAP1 POP JUMPDEST PUSH2 0x1B9B PUSH2 0x1B93 DUP6 PUSH2 0x1A52 JUMP JUMPDEST DUP4 ADD DUP3 PUSH2 0x1B3B JUMP JUMPDEST POP POP JUMPDEST POP POP POP JUMP JUMPDEST PUSH0 DUP3 DUP3 SHR SWAP1 POP SWAP3 SWAP2 POP POP JUMP JUMPDEST PUSH0 PUSH2 0x1BBE PUSH0 NOT DUP5 PUSH1 0x8 MUL PUSH2 0x1BA3 JUMP JUMPDEST NOT DUP1 DUP4 AND SWAP2 POP POP SWAP3 SWAP2 POP POP JUMP JUMPDEST PUSH0 PUSH2 0x1BD6 DUP4 DUP4 PUSH2 0x1BAF JUMP JUMPDEST SWAP2 POP DUP3 PUSH1 0x2 MUL DUP3 OR SWAP1 POP SWAP3 SWAP2 POP POP JUMP JUMPDEST PUSH2 0x1BEF DUP3 PUSH2 0x1794 JUMP JUMPDEST PUSH8 0xFFFFFFFFFFFFFFFF DUP2 GT ISZERO PUSH2 0x1C08 JUMPI PUSH2 0x1C07 PUSH2 0x13CE JUMP JUMPDEST JUMPDEST PUSH2 0x1C12 DUP3 SLOAD PUSH2 0x1A10 JUMP JUMPDEST PUSH2 0x1C1D DUP3 DUP3 DUP6 PUSH2 0x1B5D JUMP JUMPDEST PUSH0 PUSH1 0x20 SWAP1 POP PUSH1 0x1F DUP4 GT PUSH1 0x1 DUP2 EQ PUSH2 0x1C4E JUMPI PUSH0 DUP5 ISZERO PUSH2 0x1C3C JUMPI DUP3 DUP8 ADD MLOAD SWAP1 POP JUMPDEST PUSH2 0x1C46 DUP6 DUP3 PUSH2 0x1BCB JUMP JUMPDEST DUP7 SSTORE POP PUSH2 0x1CAD JUMP JUMPDEST PUSH1 0x1F NOT DUP5 AND PUSH2 0x1C5C DUP7 PUSH2 0x1A40 JUMP JUMPDEST PUSH0 JUMPDEST DUP3 DUP2 LT ISZERO PUSH2 0x1C83 JUMPI DUP5 DUP10 ADD MLOAD DUP3 SSTORE PUSH1 0x1 DUP3 ADD SWAP2 POP PUSH1 0x20 DUP6 ADD SWAP5 POP PUSH1 0x20 DUP2 ADD SWAP1 POP PUSH2 0x1C5E JUMP JUMPDEST DUP7 DUP4 LT ISZERO PUSH2 0x1CA0 JUMPI DUP5 DUP10 ADD MLOAD PUSH2 0x1C9C PUSH1 0x1F DUP10 AND DUP3 PUSH2 0x1BAF JUMP JUMPDEST DUP4 SSTORE POP JUMPDEST PUSH1 0x1 PUSH1 0x2 DUP9 MUL ADD DUP9 SSTORE POP POP POP JUMPDEST POP POP POP POP POP POP JUMP JUMPDEST PUSH0 PUSH1 0x40 DUP3 ADD SWAP1 POP DUP2 DUP2 SUB PUSH0 DUP4 ADD MSTORE PUSH2 0x1CCD DUP2 DUP6 PUSH2 0x17BC JUMP JUMPDEST SWAP1 POP DUP2 DUP2 SUB PUSH1 0x20 DUP4 ADD MSTORE PUSH2 0x1CE1 DUP2 DUP5 PUSH2 0x17BC JUMP JUMPDEST SWAP1 POP SWAP4 SWAP3 POP POP POP JUMP JUMPDEST PUSH32 0x44494420616C7265616479206578697374730000000000000000000000000000 PUSH0 DUP3 ADD MSTORE POP JUMP JUMPDEST PUSH0 PUSH2 0x1D1E PUSH1 0x12 DUP4 PUSH2 0x179E JUMP JUMPDEST SWAP2 POP PUSH2 0x1D29 DUP3 PUSH2 0x1CEA JUMP JUMPDEST PUSH1 0x20 DUP3 ADD SWAP1 POP SWAP2 SWAP1 POP JUMP JUMPDEST PUSH0 PUSH1 0x20 DUP3 ADD SWAP1 POP DUP2 DUP2 SUB PUSH0 DUP4 ADD MSTORE PUSH2 0x1D4B DUP2 PUSH2 0x1D12 JUMP JUMPDEST SWAP1 POP SWAP2 SWAP1 POP JUMP JUMPDEST PUSH0 PUSH1 0x40 DUP3 ADD SWAP1 POP DUP2 DUP2 SUB PUSH0 DUP4 ADD MSTORE PUSH2 0x1D6A DUP2 DUP6 PUSH2 0x17BC JUMP JUMPDEST SWAP1 POP PUSH2 0x1D79 PUSH1 0x20 DUP4 ADD DUP5 PUSH2 0x17F4 JUMP JUMPDEST SWAP4 SWAP3 POP POP POP JUMP JUMPDEST PUSH0 PUSH1 0x60 DUP3 ADD SWAP1 POP DUP2 DUP2 SUB PUSH0 DUP4 ADD MSTORE PUSH2 0x1D98 DUP2 DUP7 PUSH2 0x17BC JUMP JUMPDEST SWAP1 POP DUP2 DUP2 SUB PUSH1 0x20 DUP4 ADD MSTORE PUSH2 0x1DAC DUP2 DUP6 PUSH2 0x17BC JUMP JUMPDEST SWAP1 POP DUP2 DUP2 SUB PUSH1 0x40 DUP4 ADD MSTORE PUSH2 0x1DC0 DUP2 DUP5 PUSH2 0x17BC JUMP JUMPDEST SWAP1 POP SWAP5 SWAP4 POP POP POP POP JUMP JUMPDEST PUSH0 PUSH1 0x40 DUP3 ADD SWAP1 POP PUSH2 0x1DDD PUSH0 DUP4 ADD DUP6 PUSH2 0x17F4 JUMP JUMPDEST PUSH2 0x1DEA PUSH1 0x20 DUP4 ADD DUP5 PUSH2 0x1276 JUMP JUMPDEST SWAP4 SWAP3 POP POP POP JUMP INVALID LOG2 PUSH5 0x6970667358 0x22 SLT KECCAK256 0xD7 0xD7 PUSH31 0x7365CBC82BDA823A9ECA44A85C82495168CB1A71D54F4A5739586E9F0D6473 PUSH16 0x6C634300081A0033A264697066735822 SLT KECCAK256 0xCF 0xE2 DUP7 0xE1 0x27 PUSH1 0xA4 PUSH7 0xE417AB1EEA43A2 SAR TSTORE PUSH30 0x5C67330C8DC7B5AEAC31F4FFFB0D64736F6C634300081A00330000000000 "
		},
		"gasEstimates": {
			"creation": {
				"codeDepositCost": "3224400",
				"executionCost": "52100",
				"totalCost": "3276500"
			},
			"external": {
				"beforeAll()": "infinite",
				"testCreateDID()": "infinite",
				"testTransferDID()": "infinite",
				"testUpdateDID()": "infinite"
			}
		},
		"methodIdentifiers": {
			"beforeAll()": "7fea0d4b",
			"testCreateDID()": "a18bc981",
			"testTransferDID()": "b37575ce",
			"testUpdateDID()": "e183f22c"
		}
	},
	"abi": [
		{
			"inputs": [],
			"name": "beforeAll",
			"outputs": [],
			"stateMutability": "nonpayable",
			"type": "function"
		},
		{
			"inputs": [],
			"name": "testCreateDID",
			"outputs": [],
			"stateMutability": "nonpayable",
			"type": "function"
		},
		{
			"inputs": [],
			"name": "testTransferDID",
			"outputs": [],
			"stateMutability": "nonpayable",
			"type": "function"
		},
		{
			"inputs": [],
			"name": "testUpdateDID",
			"outputs": [],
			"stateMutability": "nonpayable",
			"type": "function"
		}
	]
}