{
	"contracts/DIDContract.sol": {
		"DIDContract": {
			"abi": [
				{
					"inputs": [],
					"stateMutability": "nonpayable",
					"type": "constructor"
				},
				{
					"inputs": [],
					"name": "AccessControlBadConfirmation",
					"type": "error"
				},
				{
					"inputs": [
						{
							"internalType": "address",
							"name": "account",
							"type": "address"
						},
						{
							"internalType": "bytes32",
							"name": "neededRole",
							"type": "bytes32"
						}
					],
					"name": "AccessControlUnauthorizedAccount",
					"type": "error"
				},
				{
					"anonymous": false,
					"inputs": [
						{
							"indexed": false,
							"internalType": "string",
							"name": "did",
							"type": "string"
						},
						{
							"indexed": false,
							"internalType": "address",
							"name": "owner",
							"type": "address"
						}
					],
					"name": "DIDCreated",
					"type": "event"
				},
				{
					"anonymous": false,
					"inputs": [
						{
							"indexed": false,
							"internalType": "string",
							"name": "did",
							"type": "string"
						},
						{
							"indexed": false,
							"internalType": "string",
							"name": "newDidDocument",
							"type": "string"
						}
					],
					"name": "DIDUpdated",
					"type": "event"
				},
				{
					"anonymous": false,
					"inputs": [
						{
							"indexed": true,
							"internalType": "bytes32",
							"name": "role",
							"type": "bytes32"
						},
						{
							"indexed": true,
							"internalType": "bytes32",
							"name": "previousAdminRole",
							"type": "bytes32"
						},
						{
							"indexed": true,
							"internalType": "bytes32",
							"name": "newAdminRole",
							"type": "bytes32"
						}
					],
					"name": "RoleAdminChanged",
					"type": "event"
				},
				{
					"anonymous": false,
					"inputs": [
						{
							"indexed": true,
							"internalType": "bytes32",
							"name": "role",
							"type": "bytes32"
						},
						{
							"indexed": true,
							"internalType": "address",
							"name": "account",
							"type": "address"
						},
						{
							"indexed": true,
							"internalType": "address",
							"name": "sender",
							"type": "address"
						}
					],
					"name": "RoleGranted",
					"type": "event"
				},
				{
					"anonymous": false,
					"inputs": [
						{
							"indexed": true,
							"internalType": "bytes32",
							"name": "role",
							"type": "bytes32"
						},
						{
							"indexed": true,
							"internalType": "address",
							"name": "account",
							"type": "address"
						},
						{
							"indexed": true,
							"internalType": "address",
							"name": "sender",
							"type": "address"
						}
					],
					"name": "RoleRevoked",
					"type": "event"
				},
				{
					"anonymous": false,
					"inputs": [
						{
							"indexed": false,
							"internalType": "string",
							"name": "did",
							"type": "string"
						},
						{
							"indexed": false,
							"internalType": "string",
							"name": "name",
							"type": "string"
						},
						{
							"indexed": false,
							"internalType": "string",
							"name": "email",
							"type": "string"
						}
					],
					"name": "UserInfoUpdated",
					"type": "event"
				},
				{
					"inputs": [],
					"name": "CONSTRUCTOR_ADMIN_ROLE",
					"outputs": [
						{
							"internalType": "bytes32",
							"name": "",
							"type": "bytes32"
						}
					],
					"stateMutability": "view",
					"type": "function"
				},
				{
					"inputs": [],
					"name": "DEFAULT_ADMIN_ROLE",
					"outputs": [
						{
							"internalType": "bytes32",
							"name": "",
							"type": "bytes32"
						}
					],
					"stateMutability": "view",
					"type": "function"
				},
				{
					"inputs": [],
					"name": "USER_ROLE",
					"outputs": [
						{
							"internalType": "bytes32",
							"name": "",
							"type": "bytes32"
						}
					],
					"stateMutability": "view",
					"type": "function"
				},
				{
					"inputs": [],
					"name": "VERIFIER_ROLE",
					"outputs": [
						{
							"internalType": "bytes32",
							"name": "",
							"type": "bytes32"
						}
					],
					"stateMutability": "view",
					"type": "function"
				},
				{
					"inputs": [
						{
							"internalType": "address",
							"name": "verifier",
							"type": "address"
						}
					],
					"name": "addVerifier",
					"outputs": [],
					"stateMutability": "nonpayable",
					"type": "function"
				},
				{
					"inputs": [
						{
							"internalType": "address",
							"name": "newAdmin",
							"type": "address"
						}
					],
					"name": "changeSuperAdmin",
					"outputs": [],
					"stateMutability": "nonpayable",
					"type": "function"
				},
				{
					"inputs": [
						{
							"internalType": "string",
							"name": "_did",
							"type": "string"
						},
						{
							"internalType": "string",
							"name": "_didDocument",
							"type": "string"
						},
						{
							"internalType": "string",
							"name": "_name",
							"type": "string"
						},
						{
							"internalType": "string",
							"name": "_email",
							"type": "string"
						},
						{
							"internalType": "address",
							"name": "userAddress",
							"type": "address"
						}
					],
					"name": "createDID",
					"outputs": [],
					"stateMutability": "nonpayable",
					"type": "function"
				},
				{
					"inputs": [
						{
							"internalType": "bytes32",
							"name": "role",
							"type": "bytes32"
						}
					],
					"name": "getRoleAdmin",
					"outputs": [
						{
							"internalType": "bytes32",
							"name": "",
							"type": "bytes32"
						}
					],
					"stateMutability": "view",
					"type": "function"
				},
				{
					"inputs": [
						{
							"internalType": "bytes32",
							"name": "role",
							"type": "bytes32"
						},
						{
							"internalType": "address",
							"name": "account",
							"type": "address"
						}
					],
					"name": "grantRole",
					"outputs": [],
					"stateMutability": "nonpayable",
					"type": "function"
				},
				{
					"inputs": [
						{
							"internalType": "bytes32",
							"name": "role",
							"type": "bytes32"
						},
						{
							"internalType": "address",
							"name": "account",
							"type": "address"
						}
					],
					"name": "hasRole",
					"outputs": [
						{
							"internalType": "bool",
							"name": "",
							"type": "bool"
						}
					],
					"stateMutability": "view",
					"type": "function"
				},
				{
					"inputs": [
						{
							"internalType": "bytes32",
							"name": "role",
							"type": "bytes32"
						},
						{
							"internalType": "address",
							"name": "callerConfirmation",
							"type": "address"
						}
					],
					"name": "renounceRole",
					"outputs": [],
					"stateMutability": "nonpayable",
					"type": "function"
				},
				{
					"inputs": [
						{
							"internalType": "bytes32",
							"name": "role",
							"type": "bytes32"
						},
						{
							"internalType": "address",
							"name": "account",
							"type": "address"
						}
					],
					"name": "revokeRole",
					"outputs": [],
					"stateMutability": "nonpayable",
					"type": "function"
				},
				{
					"inputs": [
						{
							"internalType": "bytes4",
							"name": "interfaceId",
							"type": "bytes4"
						}
					],
					"name": "supportsInterface",
					"outputs": [
						{
							"internalType": "bool",
							"name": "",
							"type": "bool"
						}
					],
					"stateMutability": "view",
					"type": "function"
				},
				{
					"inputs": [
						{
							"internalType": "string",
							"name": "_did",
							"type": "string"
						},
						{
							"internalType": "address",
							"name": "newOwner",
							"type": "address"
						}
					],
					"name": "transferDID",
					"outputs": [],
					"stateMutability": "nonpayable",
					"type": "function"
				},
				{
					"inputs": [
						{
							"internalType": "string",
							"name": "_did",
							"type": "string"
						},
						{
							"internalType": "string",
							"name": "_newDidDocument",
							"type": "string"
						}
					],
					"name": "updateDID",
					"outputs": [],
					"stateMutability": "nonpayable",
					"type": "function"
				},
				{
					"inputs": [
						{
							"internalType": "string",
							"name": "_did",
							"type": "string"
						},
						{
							"internalType": "string",
							"name": "_name",
							"type": "string"
						},
						{
							"internalType": "string",
							"name": "_email",
							"type": "string"
						}
					],
					"name": "updateUserInfo",
					"outputs": [],
					"stateMutability": "nonpayable",
					"type": "function"
				},
				{
					"inputs": [
						{
							"internalType": "string",
							"name": "_did",
							"type": "string"
						}
					],
					"name": "verifyDID",
					"outputs": [
						{
							"internalType": "string",
							"name": "",
							"type": "string"
						},
						{
							"internalType": "string",
							"name": "",
							"type": "string"
						},
						{
							"internalType": "string",
							"name": "",
							"type": "string"
						},
						{
							"internalType": "address",
							"name": "",
							"type": "address"
						}
					],
					"stateMutability": "view",
					"type": "function"
				}
			],
			"devdoc": {
				"errors": {
					"AccessControlBadConfirmation()": [
						{
							"details": "The caller of a function is not the expected one. NOTE: Don't confuse with {AccessControlUnauthorizedAccount}."
						}
					],
					"AccessControlUnauthorizedAccount(address,bytes32)": [
						{
							"details": "The `account` is missing a role."
						}
					]
				},
				"events": {
					"RoleAdminChanged(bytes32,bytes32,bytes32)": {
						"details": "Emitted when `newAdminRole` is set as ``role``'s admin role, replacing `previousAdminRole` `DEFAULT_ADMIN_ROLE` is the starting admin for all roles, despite {RoleAdminChanged} not being emitted signaling this."
					},
					"RoleGranted(bytes32,address,address)": {
						"details": "Emitted when `account` is granted `role`. `sender` is the account that originated the contract call. This account bears the admin role (for the granted role). Expected in cases where the role was granted using the internal {AccessControl-_grantRole}."
					},
					"RoleRevoked(bytes32,address,address)": {
						"details": "Emitted when `account` is revoked `role`. `sender` is the account that originated the contract call:   - if using `revokeRole`, it is the admin role bearer   - if using `renounceRole`, it is the role bearer (i.e. `account`)"
					}
				},
				"kind": "dev",
				"methods": {
					"getRoleAdmin(bytes32)": {
						"details": "Returns the admin role that controls `role`. See {grantRole} and {revokeRole}. To change a role's admin, use {_setRoleAdmin}."
					},
					"grantRole(bytes32,address)": {
						"details": "Grants `role` to `account`. If `account` had not been already granted `role`, emits a {RoleGranted} event. Requirements: - the caller must have ``role``'s admin role. May emit a {RoleGranted} event."
					},
					"hasRole(bytes32,address)": {
						"details": "Returns `true` if `account` has been granted `role`."
					},
					"renounceRole(bytes32,address)": {
						"details": "Revokes `role` from the calling account. Roles are often managed via {grantRole} and {revokeRole}: this function's purpose is to provide a mechanism for accounts to lose their privileges if they are compromised (such as when a trusted device is misplaced). If the calling account had been revoked `role`, emits a {RoleRevoked} event. Requirements: - the caller must be `callerConfirmation`. May emit a {RoleRevoked} event."
					},
					"revokeRole(bytes32,address)": {
						"details": "Revokes `role` from `account`. If `account` had been granted `role`, emits a {RoleRevoked} event. Requirements: - the caller must have ``role``'s admin role. May emit a {RoleRevoked} event."
					},
					"supportsInterface(bytes4)": {
						"details": "See {IERC165-supportsInterface}."
					}
				},
				"version": 1
			},
			"evm": {
				"assembly": "    /* \"contracts/DIDContract.sol\":117:3360  contract DIDContract is AccessControl {... */\n  mstore(0x40, 0x80)\n    /* \"contracts/DIDContract.sol\":721:1183  constructor() {... */\n  callvalue\n  dup1\n  iszero\n  tag_1\n  jumpi\n  0x00\n  dup1\n  revert\ntag_1:\n  pop\n    /* \"contracts/DIDContract.sol\":788:802  address admin1 */\n  0x00\n    /* \"contracts/DIDContract.sol\":805:847  0x5B38Da6a701c568545dCfcB03FcB875f56beddC4 */\n  0x5b38da6a701c568545dcfcb03fcb875f56beddc4\n    /* \"contracts/DIDContract.sol\":788:847  address admin1 = 0x5B38Da6a701c568545dCfcB03FcB875f56beddC4 */\n  swap1\n  pop\n    /* \"contracts/DIDContract.sol\":857:871  address admin2 */\n  0x00\n    /* \"contracts/DIDContract.sol\":874:916  0xDC5C413A63CCecE3A99063901E7F2497b81d455a */\n  0xdc5c413a63ccece3a99063901e7f2497b81d455a\n    /* \"contracts/DIDContract.sol\":857:916  address admin2 = 0xDC5C413A63CCecE3A99063901E7F2497b81d455a */\n  swap1\n  pop\n    /* \"contracts/DIDContract.sol\":986:1024  _grantRole(DEFAULT_ADMIN_ROLE, admin1) */\n  tag_4\n    /* \"@openzeppelin/contracts/access/AccessControl.sol\":2232:2236  0x00 */\n  0x00\n    /* \"contracts/DIDContract.sol\":997:1015  DEFAULT_ADMIN_ROLE */\n  dup1\n  shl\n    /* \"contracts/DIDContract.sol\":1017:1023  admin1 */\n  dup4\n    /* \"contracts/DIDContract.sol\":986:996  _grantRole */\n  shl(0x20, tag_5)\n    /* \"contracts/DIDContract.sol\":986:1024  _grantRole(DEFAULT_ADMIN_ROLE, admin1) */\n  0x20\n  shr\n  jump\t// in\ntag_4:\n  pop\n    /* \"contracts/DIDContract.sol\":1034:1076  _grantRole(CONSTRUCTOR_ADMIN_ROLE, admin1) */\n  tag_6\n    /* \"contracts/DIDContract.sol\":210:245  keccak256(\"CONSTRUCTOR_ADMIN_ROLE\") */\n  0x1b0a231506479db2482c2292b1c6a04ee5d0ab623a9347dd702500688937ab61\n    /* \"contracts/DIDContract.sol\":1069:1075  admin1 */\n  dup4\n    /* \"contracts/DIDContract.sol\":1034:1044  _grantRole */\n  shl(0x20, tag_5)\n    /* \"contracts/DIDContract.sol\":1034:1076  _grantRole(CONSTRUCTOR_ADMIN_ROLE, admin1) */\n  0x20\n  shr\n  jump\t// in\ntag_6:\n  pop\n    /* \"contracts/DIDContract.sol\":1086:1124  _grantRole(DEFAULT_ADMIN_ROLE, admin2) */\n  tag_7\n    /* \"@openzeppelin/contracts/access/AccessControl.sol\":2232:2236  0x00 */\n  0x00\n    /* \"contracts/DIDContract.sol\":1097:1115  DEFAULT_ADMIN_ROLE */\n  dup1\n  shl\n    /* \"contracts/DIDContract.sol\":1117:1123  admin2 */\n  dup3\n    /* \"contracts/DIDContract.sol\":1086:1096  _grantRole */\n  shl(0x20, tag_5)\n    /* \"contracts/DIDContract.sol\":1086:1124  _grantRole(DEFAULT_ADMIN_ROLE, admin2) */\n  0x20\n  shr\n  jump\t// in\ntag_7:\n  pop\n    /* \"contracts/DIDContract.sol\":1134:1176  _grantRole(CONSTRUCTOR_ADMIN_ROLE, admin2) */\n  tag_8\n    /* \"contracts/DIDContract.sol\":210:245  keccak256(\"CONSTRUCTOR_ADMIN_ROLE\") */\n  0x1b0a231506479db2482c2292b1c6a04ee5d0ab623a9347dd702500688937ab61\n    /* \"contracts/DIDContract.sol\":1169:1175  admin2 */\n  dup3\n    /* \"contracts/DIDContract.sol\":1134:1144  _grantRole */\n  shl(0x20, tag_5)\n    /* \"contracts/DIDContract.sol\":1134:1176  _grantRole(CONSTRUCTOR_ADMIN_ROLE, admin2) */\n  0x20\n  shr\n  jump\t// in\ntag_8:\n  pop\n    /* \"contracts/DIDContract.sol\":735:1183  {... */\n  pop\n  pop\n    /* \"contracts/DIDContract.sol\":117:3360  contract DIDContract is AccessControl {... */\n  jump(tag_9)\n    /* \"@openzeppelin/contracts/access/AccessControl.sol\":6179:6495  function _grantRole(bytes32 role, address account) internal virtual returns (bool) {... */\ntag_5:\n    /* \"@openzeppelin/contracts/access/AccessControl.sol\":6256:6260  bool */\n  0x00\n    /* \"@openzeppelin/contracts/access/AccessControl.sol\":6277:6299  hasRole(role, account) */\n  tag_11\n    /* \"@openzeppelin/contracts/access/AccessControl.sol\":6285:6289  role */\n  dup4\n    /* \"@openzeppelin/contracts/access/AccessControl.sol\":6291:6298  account */\n  dup4\n    /* \"@openzeppelin/contracts/access/AccessControl.sol\":6277:6284  hasRole */\n  shl(0x20, tag_12)\n    /* \"@openzeppelin/contracts/access/AccessControl.sol\":6277:6299  hasRole(role, account) */\n  0x20\n  shr\n  jump\t// in\ntag_11:\n    /* \"@openzeppelin/contracts/access/AccessControl.sol\":6272:6489  if (!hasRole(role, account)) {... */\n  tag_13\n  jumpi\n    /* \"@openzeppelin/contracts/access/AccessControl.sol\":6347:6351  true */\n  0x01\n    /* \"@openzeppelin/contracts/access/AccessControl.sol\":6315:6321  _roles */\n  0x00\n    /* \"@openzeppelin/contracts/access/AccessControl.sol\":6315:6327  _roles[role] */\n  dup1\n    /* \"@openzeppelin/contracts/access/AccessControl.sol\":6322:6326  role */\n  dup6\n    /* \"@openzeppelin/contracts/access/AccessControl.sol\":6315:6327  _roles[role] */\n  dup2\n  mstore\n  0x20\n  add\n  swap1\n  dup2\n  mstore\n  0x20\n  add\n  0x00\n  keccak256\n    /* \"@openzeppelin/contracts/access/AccessControl.sol\":6315:6335  _roles[role].hasRole */\n  0x00\n  add\n    /* \"@openzeppelin/contracts/access/AccessControl.sol\":6315:6344  _roles[role].hasRole[account] */\n  0x00\n    /* \"@openzeppelin/contracts/access/AccessControl.sol\":6336:6343  account */\n  dup5\n    /* \"@openzeppelin/contracts/access/AccessControl.sol\":6315:6344  _roles[role].hasRole[account] */\n  0xffffffffffffffffffffffffffffffffffffffff\n  and\n  0xffffffffffffffffffffffffffffffffffffffff\n  and\n  dup2\n  mstore\n  0x20\n  add\n  swap1\n  dup2\n  mstore\n  0x20\n  add\n  0x00\n  keccak256\n  0x00\n    /* \"@openzeppelin/contracts/access/AccessControl.sol\":6315:6351  _roles[role].hasRole[account] = true */\n  0x0100\n  exp\n  dup2\n  sload\n  dup2\n  0xff\n  mul\n  not\n  and\n  swap1\n  dup4\n  iszero\n  iszero\n  mul\n  or\n  swap1\n  sstore\n  pop\n    /* \"@openzeppelin/contracts/access/AccessControl.sol\":6397:6409  _msgSender() */\n  tag_14\n    /* \"@openzeppelin/contracts/access/AccessControl.sol\":6397:6407  _msgSender */\n  shl(0x20, tag_15)\n    /* \"@openzeppelin/contracts/access/AccessControl.sol\":6397:6409  _msgSender() */\n  0x20\n  shr\n  jump\t// in\ntag_14:\n    /* \"@openzeppelin/contracts/access/AccessControl.sol\":6370:6410  RoleGranted(role, account, _msgSender()) */\n  0xffffffffffffffffffffffffffffffffffffffff\n  and\n    /* \"@openzeppelin/contracts/access/AccessControl.sol\":6388:6395  account */\n  dup3\n    /* \"@openzeppelin/contracts/access/AccessControl.sol\":6370:6410  RoleGranted(role, account, _msgSender()) */\n  0xffffffffffffffffffffffffffffffffffffffff\n  and\n    /* \"@openzeppelin/contracts/access/AccessControl.sol\":6382:6386  role */\n  dup5\n    /* \"@openzeppelin/contracts/access/AccessControl.sol\":6370:6410  RoleGranted(role, account, _msgSender()) */\n  0x2f8788117e7eff1d82e926ec794901d17c78024a50270940304540a733656f0d\n  mload(0x40)\n  mload(0x40)\n  dup1\n  swap2\n  sub\n  swap1\n  log4\n    /* \"@openzeppelin/contracts/access/AccessControl.sol\":6431:6435  true */\n  0x01\n    /* \"@openzeppelin/contracts/access/AccessControl.sol\":6424:6435  return true */\n  swap1\n  pop\n  jump(tag_10)\n    /* \"@openzeppelin/contracts/access/AccessControl.sol\":6272:6489  if (!hasRole(role, account)) {... */\ntag_13:\n    /* \"@openzeppelin/contracts/access/AccessControl.sol\":6473:6478  false */\n  0x00\n    /* \"@openzeppelin/contracts/access/AccessControl.sol\":6466:6478  return false */\n  swap1\n  pop\n    /* \"@openzeppelin/contracts/access/AccessControl.sol\":6179:6495  function _grantRole(bytes32 role, address account) internal virtual returns (bool) {... */\ntag_10:\n  swap3\n  swap2\n  pop\n  pop\n  jump\t// out\n    /* \"@openzeppelin/contracts/access/AccessControl.sol\":2854:2990  function hasRole(bytes32 role, address account) public view virtual returns (bool) {... */\ntag_12:\n    /* \"@openzeppelin/contracts/access/AccessControl.sol\":2931:2935  bool */\n  0x00\n    /* \"@openzeppelin/contracts/access/AccessControl.sol\":2954:2960  _roles */\n  dup1\n    /* \"@openzeppelin/contracts/access/AccessControl.sol\":2954:2966  _roles[role] */\n  0x00\n    /* \"@openzeppelin/contracts/access/AccessControl.sol\":2961:2965  role */\n  dup5\n    /* \"@openzeppelin/contracts/access/AccessControl.sol\":2954:2966  _roles[role] */\n  dup2\n  mstore\n  0x20\n  add\n  swap1\n  dup2\n  mstore\n  0x20\n  add\n  0x00\n  keccak256\n    /* \"@openzeppelin/contracts/access/AccessControl.sol\":2954:2974  _roles[role].hasRole */\n  0x00\n  add\n    /* \"@openzeppelin/contracts/access/AccessControl.sol\":2954:2983  _roles[role].hasRole[account] */\n  0x00\n    /* \"@openzeppelin/contracts/access/AccessControl.sol\":2975:2982  account */\n  dup4\n    /* \"@openzeppelin/contracts/access/AccessControl.sol\":2954:2983  _roles[role].hasRole[account] */\n  0xffffffffffffffffffffffffffffffffffffffff\n  and\n  0xffffffffffffffffffffffffffffffffffffffff\n  and\n  dup2\n  mstore\n  0x20\n  add\n  swap1\n  dup2\n  mstore\n  0x20\n  add\n  0x00\n  keccak256\n  0x00\n  swap1\n  sload\n  swap1\n  0x0100\n  exp\n  swap1\n  div\n  0xff\n  and\n    /* \"@openzeppelin/contracts/access/AccessControl.sol\":2947:2983  return _roles[role].hasRole[account] */\n  swap1\n  pop\n    /* \"@openzeppelin/contracts/access/AccessControl.sol\":2854:2990  function hasRole(bytes32 role, address account) public view virtual returns (bool) {... */\n  swap3\n  swap2\n  pop\n  pop\n  jump\t// out\n    /* \"@openzeppelin/contracts/utils/Context.sol\":656:752  function _msgSender() internal view virtual returns (address) {... */\ntag_15:\n    /* \"@openzeppelin/contracts/utils/Context.sol\":709:716  address */\n  0x00\n    /* \"@openzeppelin/contracts/utils/Context.sol\":735:745  msg.sender */\n  caller\n    /* \"@openzeppelin/contracts/utils/Context.sol\":728:745  return msg.sender */\n  swap1\n  pop\n    /* \"@openzeppelin/contracts/utils/Context.sol\":656:752  function _msgSender() internal view virtual returns (address) {... */\n  swap1\n  jump\t// out\n    /* \"contracts/DIDContract.sol\":117:3360  contract DIDContract is AccessControl {... */\ntag_9:\n  dataSize(sub_0)\n  dup1\n  dataOffset(sub_0)\n  0x00\n  codecopy\n  0x00\n  return\nstop\n\nsub_0: assembly {\n        /* \"contracts/DIDContract.sol\":117:3360  contract DIDContract is AccessControl {... */\n      mstore(0x40, 0x80)\n      callvalue\n      dup1\n      iszero\n      tag_1\n      jumpi\n      0x00\n      dup1\n      revert\n    tag_1:\n      pop\n      jumpi(tag_2, lt(calldatasize, 0x04))\n      shr(0xe0, calldataload(0x00))\n      dup1\n      0x94fce43b\n      gt\n      tag_20\n      jumpi\n      dup1\n      0xd547741f\n      gt\n      tag_21\n      jumpi\n      dup1\n      0xd547741f\n      eq\n      tag_15\n      jumpi\n      dup1\n      0xdc25e068\n      eq\n      tag_16\n      jumpi\n      dup1\n      0xe7705db6\n      eq\n      tag_17\n      jumpi\n      dup1\n      0xfacea43a\n      eq\n      tag_18\n      jumpi\n      dup1\n      0xfd8a0056\n      eq\n      tag_19\n      jumpi\n      jump(tag_2)\n    tag_21:\n      dup1\n      0x94fce43b\n      eq\n      tag_11\n      jumpi\n      dup1\n      0xa217fddf\n      eq\n      tag_12\n      jumpi\n      dup1\n      0xab258374\n      eq\n      tag_13\n      jumpi\n      dup1\n      0xb42a02b5\n      eq\n      tag_14\n      jumpi\n      jump(tag_2)\n    tag_20:\n      dup1\n      0x36568abe\n      gt\n      tag_22\n      jumpi\n      dup1\n      0x36568abe\n      eq\n      tag_7\n      jumpi\n      dup1\n      0x41858c4b\n      eq\n      tag_8\n      jumpi\n      dup1\n      0x9000b3d6\n      eq\n      tag_9\n      jumpi\n      dup1\n      0x91d14854\n      eq\n      tag_10\n      jumpi\n      jump(tag_2)\n    tag_22:\n      dup1\n      0x01ffc9a7\n      eq\n      tag_3\n      jumpi\n      dup1\n      0x13119161\n      eq\n      tag_4\n      jumpi\n      dup1\n      0x248a9ca3\n      eq\n      tag_5\n      jumpi\n      dup1\n      0x2f2ff15d\n      eq\n      tag_6\n      jumpi\n    tag_2:\n      0x00\n      dup1\n      revert\n        /* \"@openzeppelin/contracts/access/AccessControl.sol\":2565:2767  function supportsInterface(bytes4 interfaceId) public view virtual override returns (bool) {... */\n    tag_3:\n      tag_23\n      0x04\n      dup1\n      calldatasize\n      sub\n      dup2\n      add\n      swap1\n      tag_24\n      swap2\n      swap1\n      tag_25\n      jump\t// in\n    tag_24:\n      tag_26\n      jump\t// in\n    tag_23:\n      mload(0x40)\n      tag_27\n      swap2\n      swap1\n      tag_28\n      jump\t// in\n    tag_27:\n      mload(0x40)\n      dup1\n      swap2\n      sub\n      swap1\n      return\n        /* \"contracts/DIDContract.sol\":323:381  bytes32 public constant USER_ROLE = keccak256(\"USER_ROLE\") */\n    tag_4:\n      tag_29\n      tag_30\n      jump\t// in\n    tag_29:\n      mload(0x40)\n      tag_31\n      swap2\n      swap1\n      tag_32\n      jump\t// in\n    tag_31:\n      mload(0x40)\n      dup1\n      swap2\n      sub\n      swap1\n      return\n        /* \"@openzeppelin/contracts/access/AccessControl.sol\":3810:3930  function getRoleAdmin(bytes32 role) public view virtual returns (bytes32) {... */\n    tag_5:\n      tag_33\n      0x04\n      dup1\n      calldatasize\n      sub\n      dup2\n      add\n      swap1\n      tag_34\n      swap2\n      swap1\n      tag_35\n      jump\t// in\n    tag_34:\n      tag_36\n      jump\t// in\n    tag_33:\n      mload(0x40)\n      tag_37\n      swap2\n      swap1\n      tag_32\n      jump\t// in\n    tag_37:\n      mload(0x40)\n      dup1\n      swap2\n      sub\n      swap1\n      return\n        /* \"@openzeppelin/contracts/access/AccessControl.sol\":4226:4362  function grantRole(bytes32 role, address account) public virtual onlyRole(getRoleAdmin(role)) {... */\n    tag_6:\n      tag_38\n      0x04\n      dup1\n      calldatasize\n      sub\n      dup2\n      add\n      swap1\n      tag_39\n      swap2\n      swap1\n      tag_40\n      jump\t// in\n    tag_39:\n      tag_41\n      jump\t// in\n    tag_38:\n      stop\n        /* \"@openzeppelin/contracts/access/AccessControl.sol\":5328:5573  function renounceRole(bytes32 role, address callerConfirmation) public virtual {... */\n    tag_7:\n      tag_42\n      0x04\n      dup1\n      calldatasize\n      sub\n      dup2\n      add\n      swap1\n      tag_43\n      swap2\n      swap1\n      tag_40\n      jump\t// in\n    tag_43:\n      tag_44\n      jump\t// in\n    tag_42:\n      stop\n        /* \"contracts/DIDContract.sol\":2865:3065  function changeSuperAdmin(address newAdmin) public onlyRole(CONSTRUCTOR_ADMIN_ROLE) {... */\n    tag_8:\n      tag_45\n      0x04\n      dup1\n      calldatasize\n      sub\n      dup2\n      add\n      swap1\n      tag_46\n      swap2\n      swap1\n      tag_47\n      jump\t// in\n    tag_46:\n      tag_48\n      jump\t// in\n    tag_45:\n      stop\n        /* \"contracts/DIDContract.sol\":2729:2859  function addVerifier(address verifier) public onlyRole(CONSTRUCTOR_ADMIN_ROLE) {... */\n    tag_9:\n      tag_49\n      0x04\n      dup1\n      calldatasize\n      sub\n      dup2\n      add\n      swap1\n      tag_50\n      swap2\n      swap1\n      tag_47\n      jump\t// in\n    tag_50:\n      tag_51\n      jump\t// in\n    tag_49:\n      stop\n        /* \"@openzeppelin/contracts/access/AccessControl.sol\":2854:2990  function hasRole(bytes32 role, address account) public view virtual returns (bool) {... */\n    tag_10:\n      tag_52\n      0x04\n      dup1\n      calldatasize\n      sub\n      dup2\n      add\n      swap1\n      tag_53\n      swap2\n      swap1\n      tag_40\n      jump\t// in\n    tag_53:\n      tag_54\n      jump\t// in\n    tag_52:\n      mload(0x40)\n      tag_55\n      swap2\n      swap1\n      tag_28\n      jump\t// in\n    tag_55:\n      mload(0x40)\n      dup1\n      swap2\n      sub\n      swap1\n      return\n        /* \"contracts/DIDContract.sol\":161:245  bytes32 public constant CONSTRUCTOR_ADMIN_ROLE = keccak256(\"CONSTRUCTOR_ADMIN_ROLE\") */\n    tag_11:\n      tag_56\n      tag_57\n      jump\t// in\n    tag_56:\n      mload(0x40)\n      tag_58\n      swap2\n      swap1\n      tag_32\n      jump\t// in\n    tag_58:\n      mload(0x40)\n      dup1\n      swap2\n      sub\n      swap1\n      return\n        /* \"@openzeppelin/contracts/access/AccessControl.sol\":2187:2236  bytes32 public constant DEFAULT_ADMIN_ROLE = 0x00 */\n    tag_12:\n      tag_59\n      tag_60\n      jump\t// in\n    tag_59:\n      mload(0x40)\n      tag_61\n      swap2\n      swap1\n      tag_32\n      jump\t// in\n    tag_61:\n      mload(0x40)\n      dup1\n      swap2\n      sub\n      swap1\n      return\n        /* \"contracts/DIDContract.sol\":3071:3358  function transferDID(string memory _did, address newOwner) public onlyRole(CONSTRUCTOR_ADMIN_ROLE) {... */\n    tag_13:\n      tag_62\n      0x04\n      dup1\n      calldatasize\n      sub\n      dup2\n      add\n      swap1\n      tag_63\n      swap2\n      swap1\n      tag_64\n      jump\t// in\n    tag_63:\n      tag_65\n      jump\t// in\n    tag_62:\n      stop\n        /* \"contracts/DIDContract.sol\":1887:2146  function updateDID(string memory _did, string memory _newDidDocument) public {... */\n    tag_14:\n      tag_66\n      0x04\n      dup1\n      calldatasize\n      sub\n      dup2\n      add\n      swap1\n      tag_67\n      swap2\n      swap1\n      tag_68\n      jump\t// in\n    tag_67:\n      tag_69\n      jump\t// in\n    tag_66:\n      stop\n        /* \"@openzeppelin/contracts/access/AccessControl.sol\":4642:4780  function revokeRole(bytes32 role, address account) public virtual onlyRole(getRoleAdmin(role)) {... */\n    tag_15:\n      tag_70\n      0x04\n      dup1\n      calldatasize\n      sub\n      dup2\n      add\n      swap1\n      tag_71\n      swap2\n      swap1\n      tag_40\n      jump\t// in\n    tag_71:\n      tag_72\n      jump\t// in\n    tag_70:\n      stop\n        /* \"contracts/DIDContract.sol\":1265:1881  function createDID(... */\n    tag_16:\n      tag_73\n      0x04\n      dup1\n      calldatasize\n      sub\n      dup2\n      add\n      swap1\n      tag_74\n      swap2\n      swap1\n      tag_75\n      jump\t// in\n    tag_74:\n      tag_76\n      jump\t// in\n    tag_73:\n      stop\n        /* \"contracts/DIDContract.sol\":251:317  bytes32 public constant VERIFIER_ROLE = keccak256(\"VERIFIER_ROLE\") */\n    tag_17:\n      tag_77\n      tag_78\n      jump\t// in\n    tag_77:\n      mload(0x40)\n      tag_79\n      swap2\n      swap1\n      tag_32\n      jump\t// in\n    tag_79:\n      mload(0x40)\n      dup1\n      swap2\n      sub\n      swap1\n      return\n        /* \"contracts/DIDContract.sol\":2152:2449  function updateUserInfo(string memory _did, string memory _name, string memory _email) public {... */\n    tag_18:\n      tag_80\n      0x04\n      dup1\n      calldatasize\n      sub\n      dup2\n      add\n      swap1\n      tag_81\n      swap2\n      swap1\n      tag_82\n      jump\t// in\n    tag_81:\n      tag_83\n      jump\t// in\n    tag_80:\n      stop\n        /* \"contracts/DIDContract.sol\":2455:2723  function verifyDID(string memory _did) public view onlyRole(VERIFIER_ROLE) returns (string memory, string memory, string memory, address) {... */\n    tag_19:\n      tag_84\n      0x04\n      dup1\n      calldatasize\n      sub\n      dup2\n      add\n      swap1\n      tag_85\n      swap2\n      swap1\n      tag_86\n      jump\t// in\n    tag_85:\n      tag_87\n      jump\t// in\n    tag_84:\n      mload(0x40)\n      tag_88\n      swap5\n      swap4\n      swap3\n      swap2\n      swap1\n      tag_89\n      jump\t// in\n    tag_88:\n      mload(0x40)\n      dup1\n      swap2\n      sub\n      swap1\n      return\n        /* \"@openzeppelin/contracts/access/AccessControl.sol\":2565:2767  function supportsInterface(bytes4 interfaceId) public view virtual override returns (bool) {... */\n    tag_26:\n        /* \"@openzeppelin/contracts/access/AccessControl.sol\":2650:2654  bool */\n      0x00\n        /* \"@openzeppelin/contracts/access/AccessControl.sol\":2688:2720  type(IAccessControl).interfaceId */\n      0x7965db0b00000000000000000000000000000000000000000000000000000000\n        /* \"@openzeppelin/contracts/access/AccessControl.sol\":2673:2720  interfaceId == type(IAccessControl).interfaceId */\n      not(0xffffffffffffffffffffffffffffffffffffffffffffffffffffffff)\n      and\n        /* \"@openzeppelin/contracts/access/AccessControl.sol\":2673:2684  interfaceId */\n      dup3\n        /* \"@openzeppelin/contracts/access/AccessControl.sol\":2673:2720  interfaceId == type(IAccessControl).interfaceId */\n      not(0xffffffffffffffffffffffffffffffffffffffffffffffffffffffff)\n      and\n      eq\n        /* \"@openzeppelin/contracts/access/AccessControl.sol\":2673:2760  interfaceId == type(IAccessControl).interfaceId || super.supportsInterface(interfaceId) */\n      dup1\n      tag_91\n      jumpi\n      pop\n        /* \"@openzeppelin/contracts/access/AccessControl.sol\":2724:2760  super.supportsInterface(interfaceId) */\n      tag_92\n        /* \"@openzeppelin/contracts/access/AccessControl.sol\":2748:2759  interfaceId */\n      dup3\n        /* \"@openzeppelin/contracts/access/AccessControl.sol\":2724:2747  super.supportsInterface */\n      tag_93\n        /* \"@openzeppelin/contracts/access/AccessControl.sol\":2724:2760  super.supportsInterface(interfaceId) */\n      jump\t// in\n    tag_92:\n        /* \"@openzeppelin/contracts/access/AccessControl.sol\":2673:2760  interfaceId == type(IAccessControl).interfaceId || super.supportsInterface(interfaceId) */\n    tag_91:\n        /* \"@openzeppelin/contracts/access/AccessControl.sol\":2666:2760  return interfaceId == type(IAccessControl).interfaceId || super.supportsInterface(interfaceId) */\n      swap1\n      pop\n        /* \"@openzeppelin/contracts/access/AccessControl.sol\":2565:2767  function supportsInterface(bytes4 interfaceId) public view virtual override returns (bool) {... */\n      swap2\n      swap1\n      pop\n      jump\t// out\n        /* \"contracts/DIDContract.sol\":323:381  bytes32 public constant USER_ROLE = keccak256(\"USER_ROLE\") */\n    tag_30:\n        /* \"contracts/DIDContract.sol\":359:381  keccak256(\"USER_ROLE\") */\n      0x14823911f2da1b49f045a0929a60b8c1f2a7fc8c06c7284ca3e8ab4e193a08c8\n        /* \"contracts/DIDContract.sol\":323:381  bytes32 public constant USER_ROLE = keccak256(\"USER_ROLE\") */\n      dup2\n      jump\t// out\n        /* \"@openzeppelin/contracts/access/AccessControl.sol\":3810:3930  function getRoleAdmin(bytes32 role) public view virtual returns (bytes32) {... */\n    tag_36:\n        /* \"@openzeppelin/contracts/access/AccessControl.sol\":3875:3882  bytes32 */\n      0x00\n        /* \"@openzeppelin/contracts/access/AccessControl.sol\":3901:3907  _roles */\n      dup1\n        /* \"@openzeppelin/contracts/access/AccessControl.sol\":3901:3913  _roles[role] */\n      0x00\n        /* \"@openzeppelin/contracts/access/AccessControl.sol\":3908:3912  role */\n      dup4\n        /* \"@openzeppelin/contracts/access/AccessControl.sol\":3901:3913  _roles[role] */\n      dup2\n      mstore\n      0x20\n      add\n      swap1\n      dup2\n      mstore\n      0x20\n      add\n      0x00\n      keccak256\n        /* \"@openzeppelin/contracts/access/AccessControl.sol\":3901:3923  _roles[role].adminRole */\n      0x01\n      add\n      sload\n        /* \"@openzeppelin/contracts/access/AccessControl.sol\":3894:3923  return _roles[role].adminRole */\n      swap1\n      pop\n        /* \"@openzeppelin/contracts/access/AccessControl.sol\":3810:3930  function getRoleAdmin(bytes32 role) public view virtual returns (bytes32) {... */\n      swap2\n      swap1\n      pop\n      jump\t// out\n        /* \"@openzeppelin/contracts/access/AccessControl.sol\":4226:4362  function grantRole(bytes32 role, address account) public virtual onlyRole(getRoleAdmin(role)) {... */\n    tag_41:\n        /* \"@openzeppelin/contracts/access/AccessControl.sol\":4300:4318  getRoleAdmin(role) */\n      tag_95\n        /* \"@openzeppelin/contracts/access/AccessControl.sol\":4313:4317  role */\n      dup3\n        /* \"@openzeppelin/contracts/access/AccessControl.sol\":4300:4312  getRoleAdmin */\n      tag_36\n        /* \"@openzeppelin/contracts/access/AccessControl.sol\":4300:4318  getRoleAdmin(role) */\n      jump\t// in\n    tag_95:\n        /* \"@openzeppelin/contracts/access/AccessControl.sol\":2464:2480  _checkRole(role) */\n      tag_97\n        /* \"@openzeppelin/contracts/access/AccessControl.sol\":2475:2479  role */\n      dup2\n        /* \"@openzeppelin/contracts/access/AccessControl.sol\":2464:2474  _checkRole */\n      tag_98\n        /* \"@openzeppelin/contracts/access/AccessControl.sol\":2464:2480  _checkRole(role) */\n      jump\t// in\n    tag_97:\n        /* \"@openzeppelin/contracts/access/AccessControl.sol\":4330:4355  _grantRole(role, account) */\n      tag_100\n        /* \"@openzeppelin/contracts/access/AccessControl.sol\":4341:4345  role */\n      dup4\n        /* \"@openzeppelin/contracts/access/AccessControl.sol\":4347:4354  account */\n      dup4\n        /* \"@openzeppelin/contracts/access/AccessControl.sol\":4330:4340  _grantRole */\n      tag_101\n        /* \"@openzeppelin/contracts/access/AccessControl.sol\":4330:4355  _grantRole(role, account) */\n      jump\t// in\n    tag_100:\n      pop\n        /* \"@openzeppelin/contracts/access/AccessControl.sol\":4226:4362  function grantRole(bytes32 role, address account) public virtual onlyRole(getRoleAdmin(role)) {... */\n      pop\n      pop\n      pop\n      jump\t// out\n        /* \"@openzeppelin/contracts/access/AccessControl.sol\":5328:5573  function renounceRole(bytes32 role, address callerConfirmation) public virtual {... */\n    tag_44:\n        /* \"@openzeppelin/contracts/access/AccessControl.sol\":5443:5455  _msgSender() */\n      tag_103\n        /* \"@openzeppelin/contracts/access/AccessControl.sol\":5443:5453  _msgSender */\n      tag_104\n        /* \"@openzeppelin/contracts/access/AccessControl.sol\":5443:5455  _msgSender() */\n      jump\t// in\n    tag_103:\n        /* \"@openzeppelin/contracts/access/AccessControl.sol\":5421:5455  callerConfirmation != _msgSender() */\n      0xffffffffffffffffffffffffffffffffffffffff\n      and\n        /* \"@openzeppelin/contracts/access/AccessControl.sol\":5421:5439  callerConfirmation */\n      dup2\n        /* \"@openzeppelin/contracts/access/AccessControl.sol\":5421:5455  callerConfirmation != _msgSender() */\n      0xffffffffffffffffffffffffffffffffffffffff\n      and\n      eq\n        /* \"@openzeppelin/contracts/access/AccessControl.sol\":5417:5519  if (callerConfirmation != _msgSender()) {... */\n      tag_105\n      jumpi\n        /* \"@openzeppelin/contracts/access/AccessControl.sol\":5478:5508  AccessControlBadConfirmation() */\n      mload(0x40)\n      0x6697b23200000000000000000000000000000000000000000000000000000000\n      dup2\n      mstore\n      0x04\n      add\n      mload(0x40)\n      dup1\n      swap2\n      sub\n      swap1\n      revert\n        /* \"@openzeppelin/contracts/access/AccessControl.sol\":5417:5519  if (callerConfirmation != _msgSender()) {... */\n    tag_105:\n        /* \"@openzeppelin/contracts/access/AccessControl.sol\":5529:5566  _revokeRole(role, callerConfirmation) */\n      tag_106\n        /* \"@openzeppelin/contracts/access/AccessControl.sol\":5541:5545  role */\n      dup3\n        /* \"@openzeppelin/contracts/access/AccessControl.sol\":5547:5565  callerConfirmation */\n      dup3\n        /* \"@openzeppelin/contracts/access/AccessControl.sol\":5529:5540  _revokeRole */\n      tag_107\n        /* \"@openzeppelin/contracts/access/AccessControl.sol\":5529:5566  _revokeRole(role, callerConfirmation) */\n      jump\t// in\n    tag_106:\n      pop\n        /* \"@openzeppelin/contracts/access/AccessControl.sol\":5328:5573  function renounceRole(bytes32 role, address callerConfirmation) public virtual {... */\n      pop\n      pop\n      jump\t// out\n        /* \"contracts/DIDContract.sol\":2865:3065  function changeSuperAdmin(address newAdmin) public onlyRole(CONSTRUCTOR_ADMIN_ROLE) {... */\n    tag_48:\n        /* \"contracts/DIDContract.sol\":210:245  keccak256(\"CONSTRUCTOR_ADMIN_ROLE\") */\n      0x1b0a231506479db2482c2292b1c6a04ee5d0ab623a9347dd702500688937ab61\n        /* \"@openzeppelin/contracts/access/AccessControl.sol\":2464:2480  _checkRole(role) */\n      tag_109\n        /* \"@openzeppelin/contracts/access/AccessControl.sol\":2475:2479  role */\n      dup2\n        /* \"@openzeppelin/contracts/access/AccessControl.sol\":2464:2474  _checkRole */\n      tag_98\n        /* \"@openzeppelin/contracts/access/AccessControl.sol\":2464:2480  _checkRole(role) */\n      jump\t// in\n    tag_109:\n        /* \"contracts/DIDContract.sol\":2959:3002  grantRole(CONSTRUCTOR_ADMIN_ROLE, newAdmin) */\n      tag_111\n        /* \"contracts/DIDContract.sol\":210:245  keccak256(\"CONSTRUCTOR_ADMIN_ROLE\") */\n      0x1b0a231506479db2482c2292b1c6a04ee5d0ab623a9347dd702500688937ab61\n        /* \"contracts/DIDContract.sol\":2993:3001  newAdmin */\n      dup4\n        /* \"contracts/DIDContract.sol\":2959:2968  grantRole */\n      tag_41\n        /* \"contracts/DIDContract.sol\":2959:3002  grantRole(CONSTRUCTOR_ADMIN_ROLE, newAdmin) */\n      jump\t// in\n    tag_111:\n        /* \"contracts/DIDContract.sol\":3012:3058  revokeRole(CONSTRUCTOR_ADMIN_ROLE, msg.sender) */\n      tag_112\n        /* \"contracts/DIDContract.sol\":210:245  keccak256(\"CONSTRUCTOR_ADMIN_ROLE\") */\n      0x1b0a231506479db2482c2292b1c6a04ee5d0ab623a9347dd702500688937ab61\n        /* \"contracts/DIDContract.sol\":3047:3057  msg.sender */\n      caller\n        /* \"contracts/DIDContract.sol\":3012:3022  revokeRole */\n      tag_72\n        /* \"contracts/DIDContract.sol\":3012:3058  revokeRole(CONSTRUCTOR_ADMIN_ROLE, msg.sender) */\n      jump\t// in\n    tag_112:\n        /* \"contracts/DIDContract.sol\":2865:3065  function changeSuperAdmin(address newAdmin) public onlyRole(CONSTRUCTOR_ADMIN_ROLE) {... */\n      pop\n      pop\n      jump\t// out\n        /* \"contracts/DIDContract.sol\":2729:2859  function addVerifier(address verifier) public onlyRole(CONSTRUCTOR_ADMIN_ROLE) {... */\n    tag_51:\n        /* \"contracts/DIDContract.sol\":210:245  keccak256(\"CONSTRUCTOR_ADMIN_ROLE\") */\n      0x1b0a231506479db2482c2292b1c6a04ee5d0ab623a9347dd702500688937ab61\n        /* \"@openzeppelin/contracts/access/AccessControl.sol\":2464:2480  _checkRole(role) */\n      tag_114\n        /* \"@openzeppelin/contracts/access/AccessControl.sol\":2475:2479  role */\n      dup2\n        /* \"@openzeppelin/contracts/access/AccessControl.sol\":2464:2474  _checkRole */\n      tag_98\n        /* \"@openzeppelin/contracts/access/AccessControl.sol\":2464:2480  _checkRole(role) */\n      jump\t// in\n    tag_114:\n        /* \"contracts/DIDContract.sol\":2818:2852  grantRole(VERIFIER_ROLE, verifier) */\n      tag_116\n        /* \"contracts/DIDContract.sol\":291:317  keccak256(\"VERIFIER_ROLE\") */\n      0x0ce23c3e399818cfee81a7ab0880f714e53d7672b08df0fa62f2843416e1ea09\n        /* \"contracts/DIDContract.sol\":2843:2851  verifier */\n      dup4\n        /* \"contracts/DIDContract.sol\":2818:2827  grantRole */\n      tag_41\n        /* \"contracts/DIDContract.sol\":2818:2852  grantRole(VERIFIER_ROLE, verifier) */\n      jump\t// in\n    tag_116:\n        /* \"contracts/DIDContract.sol\":2729:2859  function addVerifier(address verifier) public onlyRole(CONSTRUCTOR_ADMIN_ROLE) {... */\n      pop\n      pop\n      jump\t// out\n        /* \"@openzeppelin/contracts/access/AccessControl.sol\":2854:2990  function hasRole(bytes32 role, address account) public view virtual returns (bool) {... */\n    tag_54:\n        /* \"@openzeppelin/contracts/access/AccessControl.sol\":2931:2935  bool */\n      0x00\n        /* \"@openzeppelin/contracts/access/AccessControl.sol\":2954:2960  _roles */\n      dup1\n        /* \"@openzeppelin/contracts/access/AccessControl.sol\":2954:2966  _roles[role] */\n      0x00\n        /* \"@openzeppelin/contracts/access/AccessControl.sol\":2961:2965  role */\n      dup5\n        /* \"@openzeppelin/contracts/access/AccessControl.sol\":2954:2966  _roles[role] */\n      dup2\n      mstore\n      0x20\n      add\n      swap1\n      dup2\n      mstore\n      0x20\n      add\n      0x00\n      keccak256\n        /* \"@openzeppelin/contracts/access/AccessControl.sol\":2954:2974  _roles[role].hasRole */\n      0x00\n      add\n        /* \"@openzeppelin/contracts/access/AccessControl.sol\":2954:2983  _roles[role].hasRole[account] */\n      0x00\n        /* \"@openzeppelin/contracts/access/AccessControl.sol\":2975:2982  account */\n      dup4\n        /* \"@openzeppelin/contracts/access/AccessControl.sol\":2954:2983  _roles[role].hasRole[account] */\n      0xffffffffffffffffffffffffffffffffffffffff\n      and\n      0xffffffffffffffffffffffffffffffffffffffff\n      and\n      dup2\n      mstore\n      0x20\n      add\n      swap1\n      dup2\n      mstore\n      0x20\n      add\n      0x00\n      keccak256\n      0x00\n      swap1\n      sload\n      swap1\n      0x0100\n      exp\n      swap1\n      div\n      0xff\n      and\n        /* \"@openzeppelin/contracts/access/AccessControl.sol\":2947:2983  return _roles[role].hasRole[account] */\n      swap1\n      pop\n        /* \"@openzeppelin/contracts/access/AccessControl.sol\":2854:2990  function hasRole(bytes32 role, address account) public view virtual returns (bool) {... */\n      swap3\n      swap2\n      pop\n      pop\n      jump\t// out\n        /* \"contracts/DIDContract.sol\":161:245  bytes32 public constant CONSTRUCTOR_ADMIN_ROLE = keccak256(\"CONSTRUCTOR_ADMIN_ROLE\") */\n    tag_57:\n        /* \"contracts/DIDContract.sol\":210:245  keccak256(\"CONSTRUCTOR_ADMIN_ROLE\") */\n      0x1b0a231506479db2482c2292b1c6a04ee5d0ab623a9347dd702500688937ab61\n        /* \"contracts/DIDContract.sol\":161:245  bytes32 public constant CONSTRUCTOR_ADMIN_ROLE = keccak256(\"CONSTRUCTOR_ADMIN_ROLE\") */\n      dup2\n      jump\t// out\n        /* \"@openzeppelin/contracts/access/AccessControl.sol\":2187:2236  bytes32 public constant DEFAULT_ADMIN_ROLE = 0x00 */\n    tag_60:\n        /* \"@openzeppelin/contracts/access/AccessControl.sol\":2232:2236  0x00 */\n      0x00\n        /* \"@openzeppelin/contracts/access/AccessControl.sol\":2187:2236  bytes32 public constant DEFAULT_ADMIN_ROLE = 0x00 */\n      dup1\n      shl\n      dup2\n      jump\t// out\n        /* \"contracts/DIDContract.sol\":3071:3358  function transferDID(string memory _did, address newOwner) public onlyRole(CONSTRUCTOR_ADMIN_ROLE) {... */\n    tag_65:\n        /* \"contracts/DIDContract.sol\":210:245  keccak256(\"CONSTRUCTOR_ADMIN_ROLE\") */\n      0x1b0a231506479db2482c2292b1c6a04ee5d0ab623a9347dd702500688937ab61\n        /* \"@openzeppelin/contracts/access/AccessControl.sol\":2464:2480  _checkRole(role) */\n      tag_119\n        /* \"@openzeppelin/contracts/access/AccessControl.sol\":2475:2479  role */\n      dup2\n        /* \"@openzeppelin/contracts/access/AccessControl.sol\":2464:2474  _checkRole */\n      tag_98\n        /* \"@openzeppelin/contracts/access/AccessControl.sol\":2464:2480  _checkRole(role) */\n      jump\t// in\n    tag_119:\n        /* \"contracts/DIDContract.sol\":3216:3217  0 */\n      0x00\n        /* \"contracts/DIDContract.sol\":3188:3218  dids[_did].owner != address(0) */\n      0xffffffffffffffffffffffffffffffffffffffff\n      and\n        /* \"contracts/DIDContract.sol\":3188:3192  dids */\n      0x01\n        /* \"contracts/DIDContract.sol\":3193:3197  _did */\n      dup5\n        /* \"contracts/DIDContract.sol\":3188:3198  dids[_did] */\n      mload(0x40)\n      tag_121\n      swap2\n      swap1\n      tag_122\n      jump\t// in\n    tag_121:\n      swap1\n      dup2\n      mstore\n      0x20\n      add\n      mload(0x40)\n      dup1\n      swap2\n      sub\n      swap1\n      keccak256\n        /* \"contracts/DIDContract.sol\":3188:3204  dids[_did].owner */\n      0x03\n      add\n      0x00\n      swap1\n      sload\n      swap1\n      0x0100\n      exp\n      swap1\n      div\n      0xffffffffffffffffffffffffffffffffffffffff\n      and\n        /* \"contracts/DIDContract.sol\":3188:3218  dids[_did].owner != address(0) */\n      0xffffffffffffffffffffffffffffffffffffffff\n      and\n      sub\n        /* \"contracts/DIDContract.sol\":3180:3241  require(dids[_did].owner != address(0), \"DID does not exist\") */\n      tag_123\n      jumpi\n      mload(0x40)\n      0x08c379a000000000000000000000000000000000000000000000000000000000\n      dup2\n      mstore\n      0x04\n      add\n      tag_124\n      swap1\n      tag_125\n      jump\t// in\n    tag_124:\n      mload(0x40)\n      dup1\n      swap2\n      sub\n      swap1\n      revert\n    tag_123:\n        /* \"contracts/DIDContract.sol\":3279:3280  0 */\n      0x00\n        /* \"contracts/DIDContract.sol\":3259:3281  newOwner != address(0) */\n      0xffffffffffffffffffffffffffffffffffffffff\n      and\n        /* \"contracts/DIDContract.sol\":3259:3267  newOwner */\n      dup3\n        /* \"contracts/DIDContract.sol\":3259:3281  newOwner != address(0) */\n      0xffffffffffffffffffffffffffffffffffffffff\n      and\n      sub\n        /* \"contracts/DIDContract.sol\":3251:3314  require(newOwner != address(0), \"New owner address is invalid\") */\n      tag_126\n      jumpi\n      mload(0x40)\n      0x08c379a000000000000000000000000000000000000000000000000000000000\n      dup2\n      mstore\n      0x04\n      add\n      tag_127\n      swap1\n      tag_128\n      jump\t// in\n    tag_127:\n      mload(0x40)\n      dup1\n      swap2\n      sub\n      swap1\n      revert\n    tag_126:\n        /* \"contracts/DIDContract.sol\":3343:3351  newOwner */\n      dup2\n        /* \"contracts/DIDContract.sol\":3324:3328  dids */\n      0x01\n        /* \"contracts/DIDContract.sol\":3329:3333  _did */\n      dup5\n        /* \"contracts/DIDContract.sol\":3324:3334  dids[_did] */\n      mload(0x40)\n      tag_129\n      swap2\n      swap1\n      tag_122\n      jump\t// in\n    tag_129:\n      swap1\n      dup2\n      mstore\n      0x20\n      add\n      mload(0x40)\n      dup1\n      swap2\n      sub\n      swap1\n      keccak256\n        /* \"contracts/DIDContract.sol\":3324:3340  dids[_did].owner */\n      0x03\n      add\n      0x00\n        /* \"contracts/DIDContract.sol\":3324:3351  dids[_did].owner = newOwner */\n      0x0100\n      exp\n      dup2\n      sload\n      dup2\n      0xffffffffffffffffffffffffffffffffffffffff\n      mul\n      not\n      and\n      swap1\n      dup4\n      0xffffffffffffffffffffffffffffffffffffffff\n      and\n      mul\n      or\n      swap1\n      sstore\n      pop\n        /* \"contracts/DIDContract.sol\":3071:3358  function transferDID(string memory _did, address newOwner) public onlyRole(CONSTRUCTOR_ADMIN_ROLE) {... */\n      pop\n      pop\n      pop\n      jump\t// out\n        /* \"contracts/DIDContract.sol\":1887:2146  function updateDID(string memory _did, string memory _newDidDocument) public {... */\n    tag_69:\n        /* \"contracts/DIDContract.sol\":2002:2012  msg.sender */\n      caller\n        /* \"contracts/DIDContract.sol\":1982:2012  dids[_did].owner == msg.sender */\n      0xffffffffffffffffffffffffffffffffffffffff\n      and\n        /* \"contracts/DIDContract.sol\":1982:1986  dids */\n      0x01\n        /* \"contracts/DIDContract.sol\":1987:1991  _did */\n      dup4\n        /* \"contracts/DIDContract.sol\":1982:1992  dids[_did] */\n      mload(0x40)\n      tag_131\n      swap2\n      swap1\n      tag_122\n      jump\t// in\n    tag_131:\n      swap1\n      dup2\n      mstore\n      0x20\n      add\n      mload(0x40)\n      dup1\n      swap2\n      sub\n      swap1\n      keccak256\n        /* \"contracts/DIDContract.sol\":1982:1998  dids[_did].owner */\n      0x03\n      add\n      0x00\n      swap1\n      sload\n      swap1\n      0x0100\n      exp\n      swap1\n      div\n      0xffffffffffffffffffffffffffffffffffffffff\n      and\n        /* \"contracts/DIDContract.sol\":1982:2012  dids[_did].owner == msg.sender */\n      0xffffffffffffffffffffffffffffffffffffffff\n      and\n      eq\n        /* \"contracts/DIDContract.sol\":1974:2041  require(dids[_did].owner == msg.sender, \"Not the owner of the DID\") */\n      tag_132\n      jumpi\n      mload(0x40)\n      0x08c379a000000000000000000000000000000000000000000000000000000000\n      dup2\n      mstore\n      0x04\n      add\n      tag_133\n      swap1\n      tag_134\n      jump\t// in\n    tag_133:\n      mload(0x40)\n      dup1\n      swap2\n      sub\n      swap1\n      revert\n    tag_132:\n        /* \"contracts/DIDContract.sol\":2076:2091  _newDidDocument */\n      dup1\n        /* \"contracts/DIDContract.sol\":2051:2055  dids */\n      0x01\n        /* \"contracts/DIDContract.sol\":2056:2060  _did */\n      dup4\n        /* \"contracts/DIDContract.sol\":2051:2061  dids[_did] */\n      mload(0x40)\n      tag_135\n      swap2\n      swap1\n      tag_122\n      jump\t// in\n    tag_135:\n      swap1\n      dup2\n      mstore\n      0x20\n      add\n      mload(0x40)\n      dup1\n      swap2\n      sub\n      swap1\n      keccak256\n        /* \"contracts/DIDContract.sol\":2051:2073  dids[_did].didDocument */\n      0x00\n      add\n        /* \"contracts/DIDContract.sol\":2051:2091  dids[_did].didDocument = _newDidDocument */\n      swap1\n      dup2\n      tag_136\n      swap2\n      swap1\n      tag_137\n      jump\t// in\n    tag_136:\n      pop\n        /* \"contracts/DIDContract.sol\":2106:2139  DIDUpdated(_did, _newDidDocument) */\n      0xef928790e3ba239e686d4c1e6e85a60d67ddf17a606292c714ca966a2720f268\n        /* \"contracts/DIDContract.sol\":2117:2121  _did */\n      dup3\n        /* \"contracts/DIDContract.sol\":2123:2138  _newDidDocument */\n      dup3\n        /* \"contracts/DIDContract.sol\":2106:2139  DIDUpdated(_did, _newDidDocument) */\n      mload(0x40)\n      tag_138\n      swap3\n      swap2\n      swap1\n      tag_139\n      jump\t// in\n    tag_138:\n      mload(0x40)\n      dup1\n      swap2\n      sub\n      swap1\n      log1\n        /* \"contracts/DIDContract.sol\":1887:2146  function updateDID(string memory _did, string memory _newDidDocument) public {... */\n      pop\n      pop\n      jump\t// out\n        /* \"@openzeppelin/contracts/access/AccessControl.sol\":4642:4780  function revokeRole(bytes32 role, address account) public virtual onlyRole(getRoleAdmin(role)) {... */\n    tag_72:\n        /* \"@openzeppelin/contracts/access/AccessControl.sol\":4717:4735  getRoleAdmin(role) */\n      tag_140\n        /* \"@openzeppelin/contracts/access/AccessControl.sol\":4730:4734  role */\n      dup3\n        /* \"@openzeppelin/contracts/access/AccessControl.sol\":4717:4729  getRoleAdmin */\n      tag_36\n        /* \"@openzeppelin/contracts/access/AccessControl.sol\":4717:4735  getRoleAdmin(role) */\n      jump\t// in\n    tag_140:\n        /* \"@openzeppelin/contracts/access/AccessControl.sol\":2464:2480  _checkRole(role) */\n      tag_142\n        /* \"@openzeppelin/contracts/access/AccessControl.sol\":2475:2479  role */\n      dup2\n        /* \"@openzeppelin/contracts/access/AccessControl.sol\":2464:2474  _checkRole */\n      tag_98\n        /* \"@openzeppelin/contracts/access/AccessControl.sol\":2464:2480  _checkRole(role) */\n      jump\t// in\n    tag_142:\n        /* \"@openzeppelin/contracts/access/AccessControl.sol\":4747:4773  _revokeRole(role, account) */\n      tag_144\n        /* \"@openzeppelin/contracts/access/AccessControl.sol\":4759:4763  role */\n      dup4\n        /* \"@openzeppelin/contracts/access/AccessControl.sol\":4765:4772  account */\n      dup4\n        /* \"@openzeppelin/contracts/access/AccessControl.sol\":4747:4758  _revokeRole */\n      tag_107\n        /* \"@openzeppelin/contracts/access/AccessControl.sol\":4747:4773  _revokeRole(role, account) */\n      jump\t// in\n    tag_144:\n      pop\n        /* \"@openzeppelin/contracts/access/AccessControl.sol\":4642:4780  function revokeRole(bytes32 role, address account) public virtual onlyRole(getRoleAdmin(role)) {... */\n      pop\n      pop\n      pop\n      jump\t// out\n        /* \"contracts/DIDContract.sol\":1265:1881  function createDID(... */\n    tag_76:\n        /* \"contracts/DIDContract.sol\":210:245  keccak256(\"CONSTRUCTOR_ADMIN_ROLE\") */\n      0x1b0a231506479db2482c2292b1c6a04ee5d0ab623a9347dd702500688937ab61\n        /* \"@openzeppelin/contracts/access/AccessControl.sol\":2464:2480  _checkRole(role) */\n      tag_146\n        /* \"@openzeppelin/contracts/access/AccessControl.sol\":2475:2479  role */\n      dup2\n        /* \"@openzeppelin/contracts/access/AccessControl.sol\":2464:2474  _checkRole */\n      tag_98\n        /* \"@openzeppelin/contracts/access/AccessControl.sol\":2464:2480  _checkRole(role) */\n      jump\t// in\n    tag_146:\n        /* \"contracts/DIDContract.sol\":1562:1563  0 */\n      0x00\n        /* \"contracts/DIDContract.sol\":1534:1564  dids[_did].owner == address(0) */\n      0xffffffffffffffffffffffffffffffffffffffff\n      and\n        /* \"contracts/DIDContract.sol\":1534:1538  dids */\n      0x01\n        /* \"contracts/DIDContract.sol\":1539:1543  _did */\n      dup8\n        /* \"contracts/DIDContract.sol\":1534:1544  dids[_did] */\n      mload(0x40)\n      tag_148\n      swap2\n      swap1\n      tag_122\n      jump\t// in\n    tag_148:\n      swap1\n      dup2\n      mstore\n      0x20\n      add\n      mload(0x40)\n      dup1\n      swap2\n      sub\n      swap1\n      keccak256\n        /* \"contracts/DIDContract.sol\":1534:1550  dids[_did].owner */\n      0x03\n      add\n      0x00\n      swap1\n      sload\n      swap1\n      0x0100\n      exp\n      swap1\n      div\n      0xffffffffffffffffffffffffffffffffffffffff\n      and\n        /* \"contracts/DIDContract.sol\":1534:1564  dids[_did].owner == address(0) */\n      0xffffffffffffffffffffffffffffffffffffffff\n      and\n      eq\n        /* \"contracts/DIDContract.sol\":1526:1587  require(dids[_did].owner == address(0), \"DID already exists\") */\n      tag_149\n      jumpi\n      mload(0x40)\n      0x08c379a000000000000000000000000000000000000000000000000000000000\n      dup2\n      mstore\n      0x04\n      add\n      tag_150\n      swap1\n      tag_151\n      jump\t// in\n    tag_150:\n      mload(0x40)\n      dup1\n      swap2\n      sub\n      swap1\n      revert\n    tag_149:\n        /* \"contracts/DIDContract.sol\":1674:1719  DID(_didDocument, _name, _email, userAddress) */\n      mload(0x40)\n      dup1\n      0x80\n      add\n      0x40\n      mstore\n      dup1\n        /* \"contracts/DIDContract.sol\":1678:1690  _didDocument */\n      dup7\n        /* \"contracts/DIDContract.sol\":1674:1719  DID(_didDocument, _name, _email, userAddress) */\n      dup2\n      mstore\n      0x20\n      add\n        /* \"contracts/DIDContract.sol\":1692:1697  _name */\n      dup6\n        /* \"contracts/DIDContract.sol\":1674:1719  DID(_didDocument, _name, _email, userAddress) */\n      dup2\n      mstore\n      0x20\n      add\n        /* \"contracts/DIDContract.sol\":1699:1705  _email */\n      dup5\n        /* \"contracts/DIDContract.sol\":1674:1719  DID(_didDocument, _name, _email, userAddress) */\n      dup2\n      mstore\n      0x20\n      add\n        /* \"contracts/DIDContract.sol\":1707:1718  userAddress */\n      dup4\n        /* \"contracts/DIDContract.sol\":1674:1719  DID(_didDocument, _name, _email, userAddress) */\n      0xffffffffffffffffffffffffffffffffffffffff\n      and\n      dup2\n      mstore\n      pop\n        /* \"contracts/DIDContract.sol\":1661:1665  dids */\n      0x01\n        /* \"contracts/DIDContract.sol\":1666:1670  _did */\n      dup8\n        /* \"contracts/DIDContract.sol\":1661:1671  dids[_did] */\n      mload(0x40)\n      tag_152\n      swap2\n      swap1\n      tag_122\n      jump\t// in\n    tag_152:\n      swap1\n      dup2\n      mstore\n      0x20\n      add\n      mload(0x40)\n      dup1\n      swap2\n      sub\n      swap1\n      keccak256\n        /* \"contracts/DIDContract.sol\":1661:1719  dids[_did] = DID(_didDocument, _name, _email, userAddress) */\n      0x00\n      dup3\n      add\n      mload\n      dup2\n      0x00\n      add\n      swap1\n      dup2\n      tag_153\n      swap2\n      swap1\n      tag_137\n      jump\t// in\n    tag_153:\n      pop\n      0x20\n      dup3\n      add\n      mload\n      dup2\n      0x01\n      add\n      swap1\n      dup2\n      tag_154\n      swap2\n      swap1\n      tag_137\n      jump\t// in\n    tag_154:\n      pop\n      0x40\n      dup3\n      add\n      mload\n      dup2\n      0x02\n      add\n      swap1\n      dup2\n      tag_155\n      swap2\n      swap1\n      tag_137\n      jump\t// in\n    tag_155:\n      pop\n      0x60\n      dup3\n      add\n      mload\n      dup2\n      0x03\n      add\n      exp(0x0100, 0x00)\n      dup2\n      sload\n      dup2\n      0xffffffffffffffffffffffffffffffffffffffff\n      mul\n      not\n      and\n      swap1\n      dup4\n      0xffffffffffffffffffffffffffffffffffffffff\n      and\n      mul\n      or\n      swap1\n      sstore\n      pop\n      swap1\n      pop\n      pop\n        /* \"contracts/DIDContract.sol\":1795:1829  _grantRole(USER_ROLE, userAddress) */\n      tag_156\n        /* \"contracts/DIDContract.sol\":359:381  keccak256(\"USER_ROLE\") */\n      0x14823911f2da1b49f045a0929a60b8c1f2a7fc8c06c7284ca3e8ab4e193a08c8\n        /* \"contracts/DIDContract.sol\":1817:1828  userAddress */\n      dup4\n        /* \"contracts/DIDContract.sol\":1795:1805  _grantRole */\n      tag_101\n        /* \"contracts/DIDContract.sol\":1795:1829  _grantRole(USER_ROLE, userAddress) */\n      jump\t// in\n    tag_156:\n      pop\n        /* \"contracts/DIDContract.sol\":1845:1874  DIDCreated(_did, userAddress) */\n      0x44ca9609d2fe597457041d7e98533a969452ef425c10a46d0dd9f074497ea1ba\n        /* \"contracts/DIDContract.sol\":1856:1860  _did */\n      dup7\n        /* \"contracts/DIDContract.sol\":1862:1873  userAddress */\n      dup4\n        /* \"contracts/DIDContract.sol\":1845:1874  DIDCreated(_did, userAddress) */\n      mload(0x40)\n      tag_157\n      swap3\n      swap2\n      swap1\n      tag_158\n      jump\t// in\n    tag_157:\n      mload(0x40)\n      dup1\n      swap2\n      sub\n      swap1\n      log1\n        /* \"contracts/DIDContract.sol\":1265:1881  function createDID(... */\n      pop\n      pop\n      pop\n      pop\n      pop\n      pop\n      jump\t// out\n        /* \"contracts/DIDContract.sol\":251:317  bytes32 public constant VERIFIER_ROLE = keccak256(\"VERIFIER_ROLE\") */\n    tag_78:\n        /* \"contracts/DIDContract.sol\":291:317  keccak256(\"VERIFIER_ROLE\") */\n      0x0ce23c3e399818cfee81a7ab0880f714e53d7672b08df0fa62f2843416e1ea09\n        /* \"contracts/DIDContract.sol\":251:317  bytes32 public constant VERIFIER_ROLE = keccak256(\"VERIFIER_ROLE\") */\n      dup2\n      jump\t// out\n        /* \"contracts/DIDContract.sol\":2152:2449  function updateUserInfo(string memory _did, string memory _name, string memory _email) public {... */\n    tag_83:\n        /* \"contracts/DIDContract.sol\":2284:2294  msg.sender */\n      caller\n        /* \"contracts/DIDContract.sol\":2264:2294  dids[_did].owner == msg.sender */\n      0xffffffffffffffffffffffffffffffffffffffff\n      and\n        /* \"contracts/DIDContract.sol\":2264:2268  dids */\n      0x01\n        /* \"contracts/DIDContract.sol\":2269:2273  _did */\n      dup5\n        /* \"contracts/DIDContract.sol\":2264:2274  dids[_did] */\n      mload(0x40)\n      tag_160\n      swap2\n      swap1\n      tag_122\n      jump\t// in\n    tag_160:\n      swap1\n      dup2\n      mstore\n      0x20\n      add\n      mload(0x40)\n      dup1\n      swap2\n      sub\n      swap1\n      keccak256\n        /* \"contracts/DIDContract.sol\":2264:2280  dids[_did].owner */\n      0x03\n      add\n      0x00\n      swap1\n      sload\n      swap1\n      0x0100\n      exp\n      swap1\n      div\n      0xffffffffffffffffffffffffffffffffffffffff\n      and\n        /* \"contracts/DIDContract.sol\":2264:2294  dids[_did].owner == msg.sender */\n      0xffffffffffffffffffffffffffffffffffffffff\n      and\n      eq\n        /* \"contracts/DIDContract.sol\":2256:2323  require(dids[_did].owner == msg.sender, \"Not the owner of the DID\") */\n      tag_161\n      jumpi\n      mload(0x40)\n      0x08c379a000000000000000000000000000000000000000000000000000000000\n      dup2\n      mstore\n      0x04\n      add\n      tag_162\n      swap1\n      tag_134\n      jump\t// in\n    tag_162:\n      mload(0x40)\n      dup1\n      swap2\n      sub\n      swap1\n      revert\n    tag_161:\n        /* \"contracts/DIDContract.sol\":2351:2356  _name */\n      dup2\n        /* \"contracts/DIDContract.sol\":2333:2337  dids */\n      0x01\n        /* \"contracts/DIDContract.sol\":2338:2342  _did */\n      dup5\n        /* \"contracts/DIDContract.sol\":2333:2343  dids[_did] */\n      mload(0x40)\n      tag_163\n      swap2\n      swap1\n      tag_122\n      jump\t// in\n    tag_163:\n      swap1\n      dup2\n      mstore\n      0x20\n      add\n      mload(0x40)\n      dup1\n      swap2\n      sub\n      swap1\n      keccak256\n        /* \"contracts/DIDContract.sol\":2333:2348  dids[_did].name */\n      0x01\n      add\n        /* \"contracts/DIDContract.sol\":2333:2356  dids[_did].name = _name */\n      swap1\n      dup2\n      tag_164\n      swap2\n      swap1\n      tag_137\n      jump\t// in\n    tag_164:\n      pop\n        /* \"contracts/DIDContract.sol\":2385:2391  _email */\n      dup1\n        /* \"contracts/DIDContract.sol\":2366:2370  dids */\n      0x01\n        /* \"contracts/DIDContract.sol\":2371:2375  _did */\n      dup5\n        /* \"contracts/DIDContract.sol\":2366:2376  dids[_did] */\n      mload(0x40)\n      tag_165\n      swap2\n      swap1\n      tag_122\n      jump\t// in\n    tag_165:\n      swap1\n      dup2\n      mstore\n      0x20\n      add\n      mload(0x40)\n      dup1\n      swap2\n      sub\n      swap1\n      keccak256\n        /* \"contracts/DIDContract.sol\":2366:2382  dids[_did].email */\n      0x02\n      add\n        /* \"contracts/DIDContract.sol\":2366:2391  dids[_did].email = _email */\n      swap1\n      dup2\n      tag_166\n      swap2\n      swap1\n      tag_137\n      jump\t// in\n    tag_166:\n      pop\n        /* \"contracts/DIDContract.sol\":2406:2442  UserInfoUpdated(_did, _name, _email) */\n      0xfcdad05ce3c89a367c74c08f373cf092af7e367cdcdeecfd3a89bf55fa9d28e1\n        /* \"contracts/DIDContract.sol\":2422:2426  _did */\n      dup4\n        /* \"contracts/DIDContract.sol\":2428:2433  _name */\n      dup4\n        /* \"contracts/DIDContract.sol\":2435:2441  _email */\n      dup4\n        /* \"contracts/DIDContract.sol\":2406:2442  UserInfoUpdated(_did, _name, _email) */\n      mload(0x40)\n      tag_167\n      swap4\n      swap3\n      swap2\n      swap1\n      tag_168\n      jump\t// in\n    tag_167:\n      mload(0x40)\n      dup1\n      swap2\n      sub\n      swap1\n      log1\n        /* \"contracts/DIDContract.sol\":2152:2449  function updateUserInfo(string memory _did, string memory _name, string memory _email) public {... */\n      pop\n      pop\n      pop\n      jump\t// out\n        /* \"contracts/DIDContract.sol\":2455:2723  function verifyDID(string memory _did) public view onlyRole(VERIFIER_ROLE) returns (string memory, string memory, string memory, address) {... */\n    tag_87:\n        /* \"contracts/DIDContract.sol\":2539:2552  string memory */\n      0x60\n        /* \"contracts/DIDContract.sol\":2554:2567  string memory */\n      dup1\n        /* \"contracts/DIDContract.sol\":2569:2582  string memory */\n      0x60\n        /* \"contracts/DIDContract.sol\":2584:2591  address */\n      0x00\n        /* \"contracts/DIDContract.sol\":291:317  keccak256(\"VERIFIER_ROLE\") */\n      0x0ce23c3e399818cfee81a7ab0880f714e53d7672b08df0fa62f2843416e1ea09\n        /* \"@openzeppelin/contracts/access/AccessControl.sol\":2464:2480  _checkRole(role) */\n      tag_170\n        /* \"@openzeppelin/contracts/access/AccessControl.sol\":2475:2479  role */\n      dup2\n        /* \"@openzeppelin/contracts/access/AccessControl.sol\":2464:2474  _checkRole */\n      tag_98\n        /* \"@openzeppelin/contracts/access/AccessControl.sol\":2464:2480  _checkRole(role) */\n      jump\t// in\n    tag_170:\n        /* \"contracts/DIDContract.sol\":2603:2621  DID memory didData */\n      0x00\n        /* \"contracts/DIDContract.sol\":2624:2628  dids */\n      0x01\n        /* \"contracts/DIDContract.sol\":2629:2633  _did */\n      dup8\n        /* \"contracts/DIDContract.sol\":2624:2634  dids[_did] */\n      mload(0x40)\n      tag_172\n      swap2\n      swap1\n      tag_122\n      jump\t// in\n    tag_172:\n      swap1\n      dup2\n      mstore\n      0x20\n      add\n      mload(0x40)\n      dup1\n      swap2\n      sub\n      swap1\n      keccak256\n        /* \"contracts/DIDContract.sol\":2603:2634  DID memory didData = dids[_did] */\n      mload(0x40)\n      dup1\n      0x80\n      add\n      0x40\n      mstore\n      swap1\n      dup2\n      0x00\n      dup3\n      add\n      dup1\n      sload\n      tag_173\n      swap1\n      tag_174\n      jump\t// in\n    tag_173:\n      dup1\n      0x1f\n      add\n      0x20\n      dup1\n      swap2\n      div\n      mul\n      0x20\n      add\n      mload(0x40)\n      swap1\n      dup2\n      add\n      0x40\n      mstore\n      dup1\n      swap3\n      swap2\n      swap1\n      dup2\n      dup2\n      mstore\n      0x20\n      add\n      dup3\n      dup1\n      sload\n      tag_175\n      swap1\n      tag_174\n      jump\t// in\n    tag_175:\n      dup1\n      iszero\n      tag_176\n      jumpi\n      dup1\n      0x1f\n      lt\n      tag_177\n      jumpi\n      0x0100\n      dup1\n      dup4\n      sload\n      div\n      mul\n      dup4\n      mstore\n      swap2\n      0x20\n      add\n      swap2\n      jump(tag_176)\n    tag_177:\n      dup3\n      add\n      swap2\n      swap1\n      0x00\n      mstore\n      keccak256(0x00, 0x20)\n      swap1\n    tag_178:\n      dup2\n      sload\n      dup2\n      mstore\n      swap1\n      0x01\n      add\n      swap1\n      0x20\n      add\n      dup1\n      dup4\n      gt\n      tag_178\n      jumpi\n      dup3\n      swap1\n      sub\n      0x1f\n      and\n      dup3\n      add\n      swap2\n    tag_176:\n      pop\n      pop\n      pop\n      pop\n      pop\n      dup2\n      mstore\n      0x20\n      add\n      0x01\n      dup3\n      add\n      dup1\n      sload\n      tag_179\n      swap1\n      tag_174\n      jump\t// in\n    tag_179:\n      dup1\n      0x1f\n      add\n      0x20\n      dup1\n      swap2\n      div\n      mul\n      0x20\n      add\n      mload(0x40)\n      swap1\n      dup2\n      add\n      0x40\n      mstore\n      dup1\n      swap3\n      swap2\n      swap1\n      dup2\n      dup2\n      mstore\n      0x20\n      add\n      dup3\n      dup1\n      sload\n      tag_180\n      swap1\n      tag_174\n      jump\t// in\n    tag_180:\n      dup1\n      iszero\n      tag_181\n      jumpi\n      dup1\n      0x1f\n      lt\n      tag_182\n      jumpi\n      0x0100\n      dup1\n      dup4\n      sload\n      div\n      mul\n      dup4\n      mstore\n      swap2\n      0x20\n      add\n      swap2\n      jump(tag_181)\n    tag_182:\n      dup3\n      add\n      swap2\n      swap1\n      0x00\n      mstore\n      keccak256(0x00, 0x20)\n      swap1\n    tag_183:\n      dup2\n      sload\n      dup2\n      mstore\n      swap1\n      0x01\n      add\n      swap1\n      0x20\n      add\n      dup1\n      dup4\n      gt\n      tag_183\n      jumpi\n      dup3\n      swap1\n      sub\n      0x1f\n      and\n      dup3\n      add\n      swap2\n    tag_181:\n      pop\n      pop\n      pop\n      pop\n      pop\n      dup2\n      mstore\n      0x20\n      add\n      0x02\n      dup3\n      add\n      dup1\n      sload\n      tag_184\n      swap1\n      tag_174\n      jump\t// in\n    tag_184:\n      dup1\n      0x1f\n      add\n      0x20\n      dup1\n      swap2\n      div\n      mul\n      0x20\n      add\n      mload(0x40)\n      swap1\n      dup2\n      add\n      0x40\n      mstore\n      dup1\n      swap3\n      swap2\n      swap1\n      dup2\n      dup2\n      mstore\n      0x20\n      add\n      dup3\n      dup1\n      sload\n      tag_185\n      swap1\n      tag_174\n      jump\t// in\n    tag_185:\n      dup1\n      iszero\n      tag_186\n      jumpi\n      dup1\n      0x1f\n      lt\n      tag_187\n      jumpi\n      0x0100\n      dup1\n      dup4\n      sload\n      div\n      mul\n      dup4\n      mstore\n      swap2\n      0x20\n      add\n      swap2\n      jump(tag_186)\n    tag_187:\n      dup3\n      add\n      swap2\n      swap1\n      0x00\n      mstore\n      keccak256(0x00, 0x20)\n      swap1\n    tag_188:\n      dup2\n      sload\n      dup2\n      mstore\n      swap1\n      0x01\n      add\n      swap1\n      0x20\n      add\n      dup1\n      dup4\n      gt\n      tag_188\n      jumpi\n      dup3\n      swap1\n      sub\n      0x1f\n      and\n      dup3\n      add\n      swap2\n    tag_186:\n      pop\n      pop\n      pop\n      pop\n      pop\n      dup2\n      mstore\n      0x20\n      add\n      0x03\n      dup3\n      add\n      0x00\n      swap1\n      sload\n      swap1\n      0x0100\n      exp\n      swap1\n      div\n      0xffffffffffffffffffffffffffffffffffffffff\n      and\n      0xffffffffffffffffffffffffffffffffffffffff\n      and\n      0xffffffffffffffffffffffffffffffffffffffff\n      and\n      dup2\n      mstore\n      pop\n      pop\n      swap1\n      pop\n        /* \"contracts/DIDContract.sol\":2652:2659  didData */\n      dup1\n        /* \"contracts/DIDContract.sol\":2652:2671  didData.didDocument */\n      0x00\n      add\n      mload\n        /* \"contracts/DIDContract.sol\":2673:2680  didData */\n      dup2\n        /* \"contracts/DIDContract.sol\":2673:2685  didData.name */\n      0x20\n      add\n      mload\n        /* \"contracts/DIDContract.sol\":2687:2694  didData */\n      dup3\n        /* \"contracts/DIDContract.sol\":2687:2700  didData.email */\n      0x40\n      add\n      mload\n        /* \"contracts/DIDContract.sol\":2702:2709  didData */\n      dup4\n        /* \"contracts/DIDContract.sol\":2702:2715  didData.owner */\n      0x60\n      add\n      mload\n        /* \"contracts/DIDContract.sol\":2644:2716  return (didData.didDocument, didData.name, didData.email, didData.owner) */\n      swap6\n      pop\n      swap6\n      pop\n      swap6\n      pop\n      swap6\n      pop\n      pop\n        /* \"contracts/DIDContract.sol\":2455:2723  function verifyDID(string memory _did) public view onlyRole(VERIFIER_ROLE) returns (string memory, string memory, string memory, address) {... */\n      pop\n      swap2\n      swap4\n      pop\n      swap2\n      swap4\n      jump\t// out\n        /* \"@openzeppelin/contracts/utils/introspection/ERC165.sol\":763:909  function supportsInterface(bytes4 interfaceId) public view virtual returns (bool) {... */\n    tag_93:\n        /* \"@openzeppelin/contracts/utils/introspection/ERC165.sol\":839:843  bool */\n      0x00\n        /* \"@openzeppelin/contracts/utils/introspection/ERC165.sol\":877:902  type(IERC165).interfaceId */\n      0x01ffc9a700000000000000000000000000000000000000000000000000000000\n        /* \"@openzeppelin/contracts/utils/introspection/ERC165.sol\":862:902  interfaceId == type(IERC165).interfaceId */\n      not(0xffffffffffffffffffffffffffffffffffffffffffffffffffffffff)\n      and\n        /* \"@openzeppelin/contracts/utils/introspection/ERC165.sol\":862:873  interfaceId */\n      dup3\n        /* \"@openzeppelin/contracts/utils/introspection/ERC165.sol\":862:902  interfaceId == type(IERC165).interfaceId */\n      not(0xffffffffffffffffffffffffffffffffffffffffffffffffffffffff)\n      and\n      eq\n        /* \"@openzeppelin/contracts/utils/introspection/ERC165.sol\":855:902  return interfaceId == type(IERC165).interfaceId */\n      swap1\n      pop\n        /* \"@openzeppelin/contracts/utils/introspection/ERC165.sol\":763:909  function supportsInterface(bytes4 interfaceId) public view virtual returns (bool) {... */\n      swap2\n      swap1\n      pop\n      jump\t// out\n        /* \"@openzeppelin/contracts/access/AccessControl.sol\":3199:3302  function _checkRole(bytes32 role) internal view virtual {... */\n    tag_98:\n        /* \"@openzeppelin/contracts/access/AccessControl.sol\":3265:3295  _checkRole(role, _msgSender()) */\n      tag_191\n        /* \"@openzeppelin/contracts/access/AccessControl.sol\":3276:3280  role */\n      dup2\n        /* \"@openzeppelin/contracts/access/AccessControl.sol\":3282:3294  _msgSender() */\n      tag_192\n        /* \"@openzeppelin/contracts/access/AccessControl.sol\":3282:3292  _msgSender */\n      tag_104\n        /* \"@openzeppelin/contracts/access/AccessControl.sol\":3282:3294  _msgSender() */\n      jump\t// in\n    tag_192:\n        /* \"@openzeppelin/contracts/access/AccessControl.sol\":3265:3275  _checkRole */\n      tag_193\n        /* \"@openzeppelin/contracts/access/AccessControl.sol\":3265:3295  _checkRole(role, _msgSender()) */\n      jump\t// in\n    tag_191:\n        /* \"@openzeppelin/contracts/access/AccessControl.sol\":3199:3302  function _checkRole(bytes32 role) internal view virtual {... */\n      pop\n      jump\t// out\n        /* \"@openzeppelin/contracts/access/AccessControl.sol\":6179:6495  function _grantRole(bytes32 role, address account) internal virtual returns (bool) {... */\n    tag_101:\n        /* \"@openzeppelin/contracts/access/AccessControl.sol\":6256:6260  bool */\n      0x00\n        /* \"@openzeppelin/contracts/access/AccessControl.sol\":6277:6299  hasRole(role, account) */\n      tag_195\n        /* \"@openzeppelin/contracts/access/AccessControl.sol\":6285:6289  role */\n      dup4\n        /* \"@openzeppelin/contracts/access/AccessControl.sol\":6291:6298  account */\n      dup4\n        /* \"@openzeppelin/contracts/access/AccessControl.sol\":6277:6284  hasRole */\n      tag_54\n        /* \"@openzeppelin/contracts/access/AccessControl.sol\":6277:6299  hasRole(role, account) */\n      jump\t// in\n    tag_195:\n        /* \"@openzeppelin/contracts/access/AccessControl.sol\":6272:6489  if (!hasRole(role, account)) {... */\n      tag_196\n      jumpi\n        /* \"@openzeppelin/contracts/access/AccessControl.sol\":6347:6351  true */\n      0x01\n        /* \"@openzeppelin/contracts/access/AccessControl.sol\":6315:6321  _roles */\n      0x00\n        /* \"@openzeppelin/contracts/access/AccessControl.sol\":6315:6327  _roles[role] */\n      dup1\n        /* \"@openzeppelin/contracts/access/AccessControl.sol\":6322:6326  role */\n      dup6\n        /* \"@openzeppelin/contracts/access/AccessControl.sol\":6315:6327  _roles[role] */\n      dup2\n      mstore\n      0x20\n      add\n      swap1\n      dup2\n      mstore\n      0x20\n      add\n      0x00\n      keccak256\n        /* \"@openzeppelin/contracts/access/AccessControl.sol\":6315:6335  _roles[role].hasRole */\n      0x00\n      add\n        /* \"@openzeppelin/contracts/access/AccessControl.sol\":6315:6344  _roles[role].hasRole[account] */\n      0x00\n        /* \"@openzeppelin/contracts/access/AccessControl.sol\":6336:6343  account */\n      dup5\n        /* \"@openzeppelin/contracts/access/AccessControl.sol\":6315:6344  _roles[role].hasRole[account] */\n      0xffffffffffffffffffffffffffffffffffffffff\n      and\n      0xffffffffffffffffffffffffffffffffffffffff\n      and\n      dup2\n      mstore\n      0x20\n      add\n      swap1\n      dup2\n      mstore\n      0x20\n      add\n      0x00\n      keccak256\n      0x00\n        /* \"@openzeppelin/contracts/access/AccessControl.sol\":6315:6351  _roles[role].hasRole[account] = true */\n      0x0100\n      exp\n      dup2\n      sload\n      dup2\n      0xff\n      mul\n      not\n      and\n      swap1\n      dup4\n      iszero\n      iszero\n      mul\n      or\n      swap1\n      sstore\n      pop\n        /* \"@openzeppelin/contracts/access/AccessControl.sol\":6397:6409  _msgSender() */\n      tag_197\n        /* \"@openzeppelin/contracts/access/AccessControl.sol\":6397:6407  _msgSender */\n      tag_104\n        /* \"@openzeppelin/contracts/access/AccessControl.sol\":6397:6409  _msgSender() */\n      jump\t// in\n    tag_197:\n        /* \"@openzeppelin/contracts/access/AccessControl.sol\":6370:6410  RoleGranted(role, account, _msgSender()) */\n      0xffffffffffffffffffffffffffffffffffffffff\n      and\n        /* \"@openzeppelin/contracts/access/AccessControl.sol\":6388:6395  account */\n      dup3\n        /* \"@openzeppelin/contracts/access/AccessControl.sol\":6370:6410  RoleGranted(role, account, _msgSender()) */\n      0xffffffffffffffffffffffffffffffffffffffff\n      and\n        /* \"@openzeppelin/contracts/access/AccessControl.sol\":6382:6386  role */\n      dup5\n        /* \"@openzeppelin/contracts/access/AccessControl.sol\":6370:6410  RoleGranted(role, account, _msgSender()) */\n      0x2f8788117e7eff1d82e926ec794901d17c78024a50270940304540a733656f0d\n      mload(0x40)\n      mload(0x40)\n      dup1\n      swap2\n      sub\n      swap1\n      log4\n        /* \"@openzeppelin/contracts/access/AccessControl.sol\":6431:6435  true */\n      0x01\n        /* \"@openzeppelin/contracts/access/AccessControl.sol\":6424:6435  return true */\n      swap1\n      pop\n      jump(tag_194)\n        /* \"@openzeppelin/contracts/access/AccessControl.sol\":6272:6489  if (!hasRole(role, account)) {... */\n    tag_196:\n        /* \"@openzeppelin/contracts/access/AccessControl.sol\":6473:6478  false */\n      0x00\n        /* \"@openzeppelin/contracts/access/AccessControl.sol\":6466:6478  return false */\n      swap1\n      pop\n        /* \"@openzeppelin/contracts/access/AccessControl.sol\":6179:6495  function _grantRole(bytes32 role, address account) internal virtual returns (bool) {... */\n    tag_194:\n      swap3\n      swap2\n      pop\n      pop\n      jump\t// out\n        /* \"@openzeppelin/contracts/utils/Context.sol\":656:752  function _msgSender() internal view virtual returns (address) {... */\n    tag_104:\n        /* \"@openzeppelin/contracts/utils/Context.sol\":709:716  address */\n      0x00\n        /* \"@openzeppelin/contracts/utils/Context.sol\":735:745  msg.sender */\n      caller\n        /* \"@openzeppelin/contracts/utils/Context.sol\":728:745  return msg.sender */\n      swap1\n      pop\n        /* \"@openzeppelin/contracts/utils/Context.sol\":656:752  function _msgSender() internal view virtual returns (address) {... */\n      swap1\n      jump\t// out\n        /* \"@openzeppelin/contracts/access/AccessControl.sol\":6730:7047  function _revokeRole(bytes32 role, address account) internal virtual returns (bool) {... */\n    tag_107:\n        /* \"@openzeppelin/contracts/access/AccessControl.sol\":6808:6812  bool */\n      0x00\n        /* \"@openzeppelin/contracts/access/AccessControl.sol\":6828:6850  hasRole(role, account) */\n      tag_201\n        /* \"@openzeppelin/contracts/access/AccessControl.sol\":6836:6840  role */\n      dup4\n        /* \"@openzeppelin/contracts/access/AccessControl.sol\":6842:6849  account */\n      dup4\n        /* \"@openzeppelin/contracts/access/AccessControl.sol\":6828:6835  hasRole */\n      tag_54\n        /* \"@openzeppelin/contracts/access/AccessControl.sol\":6828:6850  hasRole(role, account) */\n      jump\t// in\n    tag_201:\n        /* \"@openzeppelin/contracts/access/AccessControl.sol\":6824:7041  if (hasRole(role, account)) {... */\n      iszero\n      tag_202\n      jumpi\n        /* \"@openzeppelin/contracts/access/AccessControl.sol\":6898:6903  false */\n      0x00\n        /* \"@openzeppelin/contracts/access/AccessControl.sol\":6866:6872  _roles */\n      dup1\n        /* \"@openzeppelin/contracts/access/AccessControl.sol\":6866:6878  _roles[role] */\n      0x00\n        /* \"@openzeppelin/contracts/access/AccessControl.sol\":6873:6877  role */\n      dup6\n        /* \"@openzeppelin/contracts/access/AccessControl.sol\":6866:6878  _roles[role] */\n      dup2\n      mstore\n      0x20\n      add\n      swap1\n      dup2\n      mstore\n      0x20\n      add\n      0x00\n      keccak256\n        /* \"@openzeppelin/contracts/access/AccessControl.sol\":6866:6886  _roles[role].hasRole */\n      0x00\n      add\n        /* \"@openzeppelin/contracts/access/AccessControl.sol\":6866:6895  _roles[role].hasRole[account] */\n      0x00\n        /* \"@openzeppelin/contracts/access/AccessControl.sol\":6887:6894  account */\n      dup5\n        /* \"@openzeppelin/contracts/access/AccessControl.sol\":6866:6895  _roles[role].hasRole[account] */\n      0xffffffffffffffffffffffffffffffffffffffff\n      and\n      0xffffffffffffffffffffffffffffffffffffffff\n      and\n      dup2\n      mstore\n      0x20\n      add\n      swap1\n      dup2\n      mstore\n      0x20\n      add\n      0x00\n      keccak256\n      0x00\n        /* \"@openzeppelin/contracts/access/AccessControl.sol\":6866:6903  _roles[role].hasRole[account] = false */\n      0x0100\n      exp\n      dup2\n      sload\n      dup2\n      0xff\n      mul\n      not\n      and\n      swap1\n      dup4\n      iszero\n      iszero\n      mul\n      or\n      swap1\n      sstore\n      pop\n        /* \"@openzeppelin/contracts/access/AccessControl.sol\":6949:6961  _msgSender() */\n      tag_203\n        /* \"@openzeppelin/contracts/access/AccessControl.sol\":6949:6959  _msgSender */\n      tag_104\n        /* \"@openzeppelin/contracts/access/AccessControl.sol\":6949:6961  _msgSender() */\n      jump\t// in\n    tag_203:\n        /* \"@openzeppelin/contracts/access/AccessControl.sol\":6922:6962  RoleRevoked(role, account, _msgSender()) */\n      0xffffffffffffffffffffffffffffffffffffffff\n      and\n        /* \"@openzeppelin/contracts/access/AccessControl.sol\":6940:6947  account */\n      dup3\n        /* \"@openzeppelin/contracts/access/AccessControl.sol\":6922:6962  RoleRevoked(role, account, _msgSender()) */\n      0xffffffffffffffffffffffffffffffffffffffff\n      and\n        /* \"@openzeppelin/contracts/access/AccessControl.sol\":6934:6938  role */\n      dup5\n        /* \"@openzeppelin/contracts/access/AccessControl.sol\":6922:6962  RoleRevoked(role, account, _msgSender()) */\n      0xf6391f5c32d9c69d2a47ea670b442974b53935d1edc7fd64eb21e047a839171b\n      mload(0x40)\n      mload(0x40)\n      dup1\n      swap2\n      sub\n      swap1\n      log4\n        /* \"@openzeppelin/contracts/access/AccessControl.sol\":6983:6987  true */\n      0x01\n        /* \"@openzeppelin/contracts/access/AccessControl.sol\":6976:6987  return true */\n      swap1\n      pop\n      jump(tag_200)\n        /* \"@openzeppelin/contracts/access/AccessControl.sol\":6824:7041  if (hasRole(role, account)) {... */\n    tag_202:\n        /* \"@openzeppelin/contracts/access/AccessControl.sol\":7025:7030  false */\n      0x00\n        /* \"@openzeppelin/contracts/access/AccessControl.sol\":7018:7030  return false */\n      swap1\n      pop\n        /* \"@openzeppelin/contracts/access/AccessControl.sol\":6730:7047  function _revokeRole(bytes32 role, address account) internal virtual returns (bool) {... */\n    tag_200:\n      swap3\n      swap2\n      pop\n      pop\n      jump\t// out\n        /* \"@openzeppelin/contracts/access/AccessControl.sol\":3432:3629  function _checkRole(bytes32 role, address account) internal view virtual {... */\n    tag_193:\n        /* \"@openzeppelin/contracts/access/AccessControl.sol\":3520:3542  hasRole(role, account) */\n      tag_206\n        /* \"@openzeppelin/contracts/access/AccessControl.sol\":3528:3532  role */\n      dup3\n        /* \"@openzeppelin/contracts/access/AccessControl.sol\":3534:3541  account */\n      dup3\n        /* \"@openzeppelin/contracts/access/AccessControl.sol\":3520:3527  hasRole */\n      tag_54\n        /* \"@openzeppelin/contracts/access/AccessControl.sol\":3520:3542  hasRole(role, account) */\n      jump\t// in\n    tag_206:\n        /* \"@openzeppelin/contracts/access/AccessControl.sol\":3515:3623  if (!hasRole(role, account)) {... */\n      tag_207\n      jumpi\n        /* \"@openzeppelin/contracts/access/AccessControl.sol\":3598:3605  account */\n      dup1\n        /* \"@openzeppelin/contracts/access/AccessControl.sol\":3607:3611  role */\n      dup3\n        /* \"@openzeppelin/contracts/access/AccessControl.sol\":3565:3612  AccessControlUnauthorizedAccount(account, role) */\n      mload(0x40)\n      0xe2517d3f00000000000000000000000000000000000000000000000000000000\n      dup2\n      mstore\n      0x04\n      add\n      tag_208\n      swap3\n      swap2\n      swap1\n      tag_209\n      jump\t// in\n    tag_208:\n      mload(0x40)\n      dup1\n      swap2\n      sub\n      swap1\n      revert\n        /* \"@openzeppelin/contracts/access/AccessControl.sol\":3515:3623  if (!hasRole(role, account)) {... */\n    tag_207:\n        /* \"@openzeppelin/contracts/access/AccessControl.sol\":3432:3629  function _checkRole(bytes32 role, address account) internal view virtual {... */\n      pop\n      pop\n      jump\t// out\n        /* \"#utility.yul\":7:82   */\n    tag_210:\n        /* \"#utility.yul\":40:46   */\n      0x00\n        /* \"#utility.yul\":73:75   */\n      0x40\n        /* \"#utility.yul\":67:76   */\n      mload\n        /* \"#utility.yul\":57:76   */\n      swap1\n      pop\n        /* \"#utility.yul\":7:82   */\n      swap1\n      jump\t// out\n        /* \"#utility.yul\":88:205   */\n    tag_211:\n        /* \"#utility.yul\":197:198   */\n      0x00\n        /* \"#utility.yul\":194:195   */\n      dup1\n        /* \"#utility.yul\":187:199   */\n      revert\n        /* \"#utility.yul\":211:328   */\n    tag_212:\n        /* \"#utility.yul\":320:321   */\n      0x00\n        /* \"#utility.yul\":317:318   */\n      dup1\n        /* \"#utility.yul\":310:322   */\n      revert\n        /* \"#utility.yul\":334:483   */\n    tag_213:\n        /* \"#utility.yul\":370:377   */\n      0x00\n        /* \"#utility.yul\":410:476   */\n      0xffffffff00000000000000000000000000000000000000000000000000000000\n        /* \"#utility.yul\":403:408   */\n      dup3\n        /* \"#utility.yul\":399:477   */\n      and\n        /* \"#utility.yul\":388:477   */\n      swap1\n      pop\n        /* \"#utility.yul\":334:483   */\n      swap2\n      swap1\n      pop\n      jump\t// out\n        /* \"#utility.yul\":489:609   */\n    tag_214:\n        /* \"#utility.yul\":561:584   */\n      tag_274\n        /* \"#utility.yul\":578:583   */\n      dup2\n        /* \"#utility.yul\":561:584   */\n      tag_213\n      jump\t// in\n    tag_274:\n        /* \"#utility.yul\":554:559   */\n      dup2\n        /* \"#utility.yul\":551:585   */\n      eq\n        /* \"#utility.yul\":541:603   */\n      tag_275\n      jumpi\n        /* \"#utility.yul\":599:600   */\n      0x00\n        /* \"#utility.yul\":596:597   */\n      dup1\n        /* \"#utility.yul\":589:601   */\n      revert\n        /* \"#utility.yul\":541:603   */\n    tag_275:\n        /* \"#utility.yul\":489:609   */\n      pop\n      jump\t// out\n        /* \"#utility.yul\":615:752   */\n    tag_215:\n        /* \"#utility.yul\":660:665   */\n      0x00\n        /* \"#utility.yul\":698:704   */\n      dup2\n        /* \"#utility.yul\":685:705   */\n      calldataload\n        /* \"#utility.yul\":676:705   */\n      swap1\n      pop\n        /* \"#utility.yul\":714:746   */\n      tag_277\n        /* \"#utility.yul\":740:745   */\n      dup2\n        /* \"#utility.yul\":714:746   */\n      tag_214\n      jump\t// in\n    tag_277:\n        /* \"#utility.yul\":615:752   */\n      swap3\n      swap2\n      pop\n      pop\n      jump\t// out\n        /* \"#utility.yul\":758:1085   */\n    tag_25:\n        /* \"#utility.yul\":816:822   */\n      0x00\n        /* \"#utility.yul\":865:867   */\n      0x20\n        /* \"#utility.yul\":853:862   */\n      dup3\n        /* \"#utility.yul\":844:851   */\n      dup5\n        /* \"#utility.yul\":840:863   */\n      sub\n        /* \"#utility.yul\":836:868   */\n      slt\n        /* \"#utility.yul\":833:952   */\n      iszero\n      tag_279\n      jumpi\n        /* \"#utility.yul\":871:950   */\n      tag_280\n      tag_211\n      jump\t// in\n    tag_280:\n        /* \"#utility.yul\":833:952   */\n    tag_279:\n        /* \"#utility.yul\":991:992   */\n      0x00\n        /* \"#utility.yul\":1016:1068   */\n      tag_281\n        /* \"#utility.yul\":1060:1067   */\n      dup5\n        /* \"#utility.yul\":1051:1057   */\n      dup3\n        /* \"#utility.yul\":1040:1049   */\n      dup6\n        /* \"#utility.yul\":1036:1058   */\n      add\n        /* \"#utility.yul\":1016:1068   */\n      tag_215\n      jump\t// in\n    tag_281:\n        /* \"#utility.yul\":1006:1068   */\n      swap2\n      pop\n        /* \"#utility.yul\":962:1078   */\n      pop\n        /* \"#utility.yul\":758:1085   */\n      swap3\n      swap2\n      pop\n      pop\n      jump\t// out\n        /* \"#utility.yul\":1091:1181   */\n    tag_216:\n        /* \"#utility.yul\":1125:1132   */\n      0x00\n        /* \"#utility.yul\":1168:1173   */\n      dup2\n        /* \"#utility.yul\":1161:1174   */\n      iszero\n        /* \"#utility.yul\":1154:1175   */\n      iszero\n        /* \"#utility.yul\":1143:1175   */\n      swap1\n      pop\n        /* \"#utility.yul\":1091:1181   */\n      swap2\n      swap1\n      pop\n      jump\t// out\n        /* \"#utility.yul\":1187:1296   */\n    tag_217:\n        /* \"#utility.yul\":1268:1289   */\n      tag_284\n        /* \"#utility.yul\":1283:1288   */\n      dup2\n        /* \"#utility.yul\":1268:1289   */\n      tag_216\n      jump\t// in\n    tag_284:\n        /* \"#utility.yul\":1263:1266   */\n      dup3\n        /* \"#utility.yul\":1256:1290   */\n      mstore\n        /* \"#utility.yul\":1187:1296   */\n      pop\n      pop\n      jump\t// out\n        /* \"#utility.yul\":1302:1512   */\n    tag_28:\n        /* \"#utility.yul\":1389:1393   */\n      0x00\n        /* \"#utility.yul\":1427:1429   */\n      0x20\n        /* \"#utility.yul\":1416:1425   */\n      dup3\n        /* \"#utility.yul\":1412:1430   */\n      add\n        /* \"#utility.yul\":1404:1430   */\n      swap1\n      pop\n        /* \"#utility.yul\":1440:1505   */\n      tag_286\n        /* \"#utility.yul\":1502:1503   */\n      0x00\n        /* \"#utility.yul\":1491:1500   */\n      dup4\n        /* \"#utility.yul\":1487:1504   */\n      add\n        /* \"#utility.yul\":1478:1484   */\n      dup5\n        /* \"#utility.yul\":1440:1505   */\n      tag_217\n      jump\t// in\n    tag_286:\n        /* \"#utility.yul\":1302:1512   */\n      swap3\n      swap2\n      pop\n      pop\n      jump\t// out\n        /* \"#utility.yul\":1518:1595   */\n    tag_218:\n        /* \"#utility.yul\":1555:1562   */\n      0x00\n        /* \"#utility.yul\":1584:1589   */\n      dup2\n        /* \"#utility.yul\":1573:1589   */\n      swap1\n      pop\n        /* \"#utility.yul\":1518:1595   */\n      swap2\n      swap1\n      pop\n      jump\t// out\n        /* \"#utility.yul\":1601:1719   */\n    tag_219:\n        /* \"#utility.yul\":1688:1712   */\n      tag_289\n        /* \"#utility.yul\":1706:1711   */\n      dup2\n        /* \"#utility.yul\":1688:1712   */\n      tag_218\n      jump\t// in\n    tag_289:\n        /* \"#utility.yul\":1683:1686   */\n      dup3\n        /* \"#utility.yul\":1676:1713   */\n      mstore\n        /* \"#utility.yul\":1601:1719   */\n      pop\n      pop\n      jump\t// out\n        /* \"#utility.yul\":1725:1947   */\n    tag_32:\n        /* \"#utility.yul\":1818:1822   */\n      0x00\n        /* \"#utility.yul\":1856:1858   */\n      0x20\n        /* \"#utility.yul\":1845:1854   */\n      dup3\n        /* \"#utility.yul\":1841:1859   */\n      add\n        /* \"#utility.yul\":1833:1859   */\n      swap1\n      pop\n        /* \"#utility.yul\":1869:1940   */\n      tag_291\n        /* \"#utility.yul\":1937:1938   */\n      0x00\n        /* \"#utility.yul\":1926:1935   */\n      dup4\n        /* \"#utility.yul\":1922:1939   */\n      add\n        /* \"#utility.yul\":1913:1919   */\n      dup5\n        /* \"#utility.yul\":1869:1940   */\n      tag_219\n      jump\t// in\n    tag_291:\n        /* \"#utility.yul\":1725:1947   */\n      swap3\n      swap2\n      pop\n      pop\n      jump\t// out\n        /* \"#utility.yul\":1953:2075   */\n    tag_220:\n        /* \"#utility.yul\":2026:2050   */\n      tag_293\n        /* \"#utility.yul\":2044:2049   */\n      dup2\n        /* \"#utility.yul\":2026:2050   */\n      tag_218\n      jump\t// in\n    tag_293:\n        /* \"#utility.yul\":2019:2024   */\n      dup2\n        /* \"#utility.yul\":2016:2051   */\n      eq\n        /* \"#utility.yul\":2006:2069   */\n      tag_294\n      jumpi\n        /* \"#utility.yul\":2065:2066   */\n      0x00\n        /* \"#utility.yul\":2062:2063   */\n      dup1\n        /* \"#utility.yul\":2055:2067   */\n      revert\n        /* \"#utility.yul\":2006:2069   */\n    tag_294:\n        /* \"#utility.yul\":1953:2075   */\n      pop\n      jump\t// out\n        /* \"#utility.yul\":2081:2220   */\n    tag_221:\n        /* \"#utility.yul\":2127:2132   */\n      0x00\n        /* \"#utility.yul\":2165:2171   */\n      dup2\n        /* \"#utility.yul\":2152:2172   */\n      calldataload\n        /* \"#utility.yul\":2143:2172   */\n      swap1\n      pop\n        /* \"#utility.yul\":2181:2214   */\n      tag_296\n        /* \"#utility.yul\":2208:2213   */\n      dup2\n        /* \"#utility.yul\":2181:2214   */\n      tag_220\n      jump\t// in\n    tag_296:\n        /* \"#utility.yul\":2081:2220   */\n      swap3\n      swap2\n      pop\n      pop\n      jump\t// out\n        /* \"#utility.yul\":2226:2555   */\n    tag_35:\n        /* \"#utility.yul\":2285:2291   */\n      0x00\n        /* \"#utility.yul\":2334:2336   */\n      0x20\n        /* \"#utility.yul\":2322:2331   */\n      dup3\n        /* \"#utility.yul\":2313:2320   */\n      dup5\n        /* \"#utility.yul\":2309:2332   */\n      sub\n        /* \"#utility.yul\":2305:2337   */\n      slt\n        /* \"#utility.yul\":2302:2421   */\n      iszero\n      tag_298\n      jumpi\n        /* \"#utility.yul\":2340:2419   */\n      tag_299\n      tag_211\n      jump\t// in\n    tag_299:\n        /* \"#utility.yul\":2302:2421   */\n    tag_298:\n        /* \"#utility.yul\":2460:2461   */\n      0x00\n        /* \"#utility.yul\":2485:2538   */\n      tag_300\n        /* \"#utility.yul\":2530:2537   */\n      dup5\n        /* \"#utility.yul\":2521:2527   */\n      dup3\n        /* \"#utility.yul\":2510:2519   */\n      dup6\n        /* \"#utility.yul\":2506:2528   */\n      add\n        /* \"#utility.yul\":2485:2538   */\n      tag_221\n      jump\t// in\n    tag_300:\n        /* \"#utility.yul\":2475:2538   */\n      swap2\n      pop\n        /* \"#utility.yul\":2431:2548   */\n      pop\n        /* \"#utility.yul\":2226:2555   */\n      swap3\n      swap2\n      pop\n      pop\n      jump\t// out\n        /* \"#utility.yul\":2561:2687   */\n    tag_222:\n        /* \"#utility.yul\":2598:2605   */\n      0x00\n        /* \"#utility.yul\":2638:2680   */\n      0xffffffffffffffffffffffffffffffffffffffff\n        /* \"#utility.yul\":2631:2636   */\n      dup3\n        /* \"#utility.yul\":2627:2681   */\n      and\n        /* \"#utility.yul\":2616:2681   */\n      swap1\n      pop\n        /* \"#utility.yul\":2561:2687   */\n      swap2\n      swap1\n      pop\n      jump\t// out\n        /* \"#utility.yul\":2693:2789   */\n    tag_223:\n        /* \"#utility.yul\":2730:2737   */\n      0x00\n        /* \"#utility.yul\":2759:2783   */\n      tag_303\n        /* \"#utility.yul\":2777:2782   */\n      dup3\n        /* \"#utility.yul\":2759:2783   */\n      tag_222\n      jump\t// in\n    tag_303:\n        /* \"#utility.yul\":2748:2783   */\n      swap1\n      pop\n        /* \"#utility.yul\":2693:2789   */\n      swap2\n      swap1\n      pop\n      jump\t// out\n        /* \"#utility.yul\":2795:2917   */\n    tag_224:\n        /* \"#utility.yul\":2868:2892   */\n      tag_305\n        /* \"#utility.yul\":2886:2891   */\n      dup2\n        /* \"#utility.yul\":2868:2892   */\n      tag_223\n      jump\t// in\n    tag_305:\n        /* \"#utility.yul\":2861:2866   */\n      dup2\n        /* \"#utility.yul\":2858:2893   */\n      eq\n        /* \"#utility.yul\":2848:2911   */\n      tag_306\n      jumpi\n        /* \"#utility.yul\":2907:2908   */\n      0x00\n        /* \"#utility.yul\":2904:2905   */\n      dup1\n        /* \"#utility.yul\":2897:2909   */\n      revert\n        /* \"#utility.yul\":2848:2911   */\n    tag_306:\n        /* \"#utility.yul\":2795:2917   */\n      pop\n      jump\t// out\n        /* \"#utility.yul\":2923:3062   */\n    tag_225:\n        /* \"#utility.yul\":2969:2974   */\n      0x00\n        /* \"#utility.yul\":3007:3013   */\n      dup2\n        /* \"#utility.yul\":2994:3014   */\n      calldataload\n        /* \"#utility.yul\":2985:3014   */\n      swap1\n      pop\n        /* \"#utility.yul\":3023:3056   */\n      tag_308\n        /* \"#utility.yul\":3050:3055   */\n      dup2\n        /* \"#utility.yul\":3023:3056   */\n      tag_224\n      jump\t// in\n    tag_308:\n        /* \"#utility.yul\":2923:3062   */\n      swap3\n      swap2\n      pop\n      pop\n      jump\t// out\n        /* \"#utility.yul\":3068:3542   */\n    tag_40:\n        /* \"#utility.yul\":3136:3142   */\n      0x00\n        /* \"#utility.yul\":3144:3150   */\n      dup1\n        /* \"#utility.yul\":3193:3195   */\n      0x40\n        /* \"#utility.yul\":3181:3190   */\n      dup4\n        /* \"#utility.yul\":3172:3179   */\n      dup6\n        /* \"#utility.yul\":3168:3191   */\n      sub\n        /* \"#utility.yul\":3164:3196   */\n      slt\n        /* \"#utility.yul\":3161:3280   */\n      iszero\n      tag_310\n      jumpi\n        /* \"#utility.yul\":3199:3278   */\n      tag_311\n      tag_211\n      jump\t// in\n    tag_311:\n        /* \"#utility.yul\":3161:3280   */\n    tag_310:\n        /* \"#utility.yul\":3319:3320   */\n      0x00\n        /* \"#utility.yul\":3344:3397   */\n      tag_312\n        /* \"#utility.yul\":3389:3396   */\n      dup6\n        /* \"#utility.yul\":3380:3386   */\n      dup3\n        /* \"#utility.yul\":3369:3378   */\n      dup7\n        /* \"#utility.yul\":3365:3387   */\n      add\n        /* \"#utility.yul\":3344:3397   */\n      tag_221\n      jump\t// in\n    tag_312:\n        /* \"#utility.yul\":3334:3397   */\n      swap3\n      pop\n        /* \"#utility.yul\":3290:3407   */\n      pop\n        /* \"#utility.yul\":3446:3448   */\n      0x20\n        /* \"#utility.yul\":3472:3525   */\n      tag_313\n        /* \"#utility.yul\":3517:3524   */\n      dup6\n        /* \"#utility.yul\":3508:3514   */\n      dup3\n        /* \"#utility.yul\":3497:3506   */\n      dup7\n        /* \"#utility.yul\":3493:3515   */\n      add\n        /* \"#utility.yul\":3472:3525   */\n      tag_225\n      jump\t// in\n    tag_313:\n        /* \"#utility.yul\":3462:3525   */\n      swap2\n      pop\n        /* \"#utility.yul\":3417:3535   */\n      pop\n        /* \"#utility.yul\":3068:3542   */\n      swap3\n      pop\n      swap3\n      swap1\n      pop\n      jump\t// out\n        /* \"#utility.yul\":3548:3877   */\n    tag_47:\n        /* \"#utility.yul\":3607:3613   */\n      0x00\n        /* \"#utility.yul\":3656:3658   */\n      0x20\n        /* \"#utility.yul\":3644:3653   */\n      dup3\n        /* \"#utility.yul\":3635:3642   */\n      dup5\n        /* \"#utility.yul\":3631:3654   */\n      sub\n        /* \"#utility.yul\":3627:3659   */\n      slt\n        /* \"#utility.yul\":3624:3743   */\n      iszero\n      tag_315\n      jumpi\n        /* \"#utility.yul\":3662:3741   */\n      tag_316\n      tag_211\n      jump\t// in\n    tag_316:\n        /* \"#utility.yul\":3624:3743   */\n    tag_315:\n        /* \"#utility.yul\":3782:3783   */\n      0x00\n        /* \"#utility.yul\":3807:3860   */\n      tag_317\n        /* \"#utility.yul\":3852:3859   */\n      dup5\n        /* \"#utility.yul\":3843:3849   */\n      dup3\n        /* \"#utility.yul\":3832:3841   */\n      dup6\n        /* \"#utility.yul\":3828:3850   */\n      add\n        /* \"#utility.yul\":3807:3860   */\n      tag_225\n      jump\t// in\n    tag_317:\n        /* \"#utility.yul\":3797:3860   */\n      swap2\n      pop\n        /* \"#utility.yul\":3753:3870   */\n      pop\n        /* \"#utility.yul\":3548:3877   */\n      swap3\n      swap2\n      pop\n      pop\n      jump\t// out\n        /* \"#utility.yul\":3883:4000   */\n    tag_226:\n        /* \"#utility.yul\":3992:3993   */\n      0x00\n        /* \"#utility.yul\":3989:3990   */\n      dup1\n        /* \"#utility.yul\":3982:3994   */\n      revert\n        /* \"#utility.yul\":4006:4123   */\n    tag_227:\n        /* \"#utility.yul\":4115:4116   */\n      0x00\n        /* \"#utility.yul\":4112:4113   */\n      dup1\n        /* \"#utility.yul\":4105:4117   */\n      revert\n        /* \"#utility.yul\":4129:4231   */\n    tag_228:\n        /* \"#utility.yul\":4170:4176   */\n      0x00\n        /* \"#utility.yul\":4221:4223   */\n      0x1f\n        /* \"#utility.yul\":4217:4224   */\n      not\n        /* \"#utility.yul\":4212:4214   */\n      0x1f\n        /* \"#utility.yul\":4205:4210   */\n      dup4\n        /* \"#utility.yul\":4201:4215   */\n      add\n        /* \"#utility.yul\":4197:4225   */\n      and\n        /* \"#utility.yul\":4187:4225   */\n      swap1\n      pop\n        /* \"#utility.yul\":4129:4231   */\n      swap2\n      swap1\n      pop\n      jump\t// out\n        /* \"#utility.yul\":4237:4417   */\n    tag_229:\n        /* \"#utility.yul\":4285:4362   */\n      0x4e487b7100000000000000000000000000000000000000000000000000000000\n        /* \"#utility.yul\":4282:4283   */\n      0x00\n        /* \"#utility.yul\":4275:4363   */\n      mstore\n        /* \"#utility.yul\":4382:4386   */\n      0x41\n        /* \"#utility.yul\":4379:4380   */\n      0x04\n        /* \"#utility.yul\":4372:4387   */\n      mstore\n        /* \"#utility.yul\":4406:4410   */\n      0x24\n        /* \"#utility.yul\":4403:4404   */\n      0x00\n        /* \"#utility.yul\":4396:4411   */\n      revert\n        /* \"#utility.yul\":4423:4704   */\n    tag_230:\n        /* \"#utility.yul\":4506:4533   */\n      tag_323\n        /* \"#utility.yul\":4528:4532   */\n      dup3\n        /* \"#utility.yul\":4506:4533   */\n      tag_228\n      jump\t// in\n    tag_323:\n        /* \"#utility.yul\":4498:4504   */\n      dup2\n        /* \"#utility.yul\":4494:4534   */\n      add\n        /* \"#utility.yul\":4636:4642   */\n      dup2\n        /* \"#utility.yul\":4624:4634   */\n      dup2\n        /* \"#utility.yul\":4621:4643   */\n      lt\n        /* \"#utility.yul\":4600:4618   */\n      0xffffffffffffffff\n        /* \"#utility.yul\":4588:4598   */\n      dup3\n        /* \"#utility.yul\":4585:4619   */\n      gt\n        /* \"#utility.yul\":4582:4644   */\n      or\n        /* \"#utility.yul\":4579:4667   */\n      iszero\n      tag_324\n      jumpi\n        /* \"#utility.yul\":4647:4665   */\n      tag_325\n      tag_229\n      jump\t// in\n    tag_325:\n        /* \"#utility.yul\":4579:4667   */\n    tag_324:\n        /* \"#utility.yul\":4687:4697   */\n      dup1\n        /* \"#utility.yul\":4683:4685   */\n      0x40\n        /* \"#utility.yul\":4676:4698   */\n      mstore\n        /* \"#utility.yul\":4466:4704   */\n      pop\n        /* \"#utility.yul\":4423:4704   */\n      pop\n      pop\n      jump\t// out\n        /* \"#utility.yul\":4710:4839   */\n    tag_231:\n        /* \"#utility.yul\":4744:4750   */\n      0x00\n        /* \"#utility.yul\":4771:4791   */\n      tag_327\n      tag_210\n      jump\t// in\n    tag_327:\n        /* \"#utility.yul\":4761:4791   */\n      swap1\n      pop\n        /* \"#utility.yul\":4800:4833   */\n      tag_328\n        /* \"#utility.yul\":4828:4832   */\n      dup3\n        /* \"#utility.yul\":4820:4826   */\n      dup3\n        /* \"#utility.yul\":4800:4833   */\n      tag_230\n      jump\t// in\n    tag_328:\n        /* \"#utility.yul\":4710:4839   */\n      swap2\n      swap1\n      pop\n      jump\t// out\n        /* \"#utility.yul\":4845:5153   */\n    tag_232:\n        /* \"#utility.yul\":4907:4911   */\n      0x00\n        /* \"#utility.yul\":4997:5015   */\n      0xffffffffffffffff\n        /* \"#utility.yul\":4989:4995   */\n      dup3\n        /* \"#utility.yul\":4986:5016   */\n      gt\n        /* \"#utility.yul\":4983:5039   */\n      iszero\n      tag_330\n      jumpi\n        /* \"#utility.yul\":5019:5037   */\n      tag_331\n      tag_229\n      jump\t// in\n    tag_331:\n        /* \"#utility.yul\":4983:5039   */\n    tag_330:\n        /* \"#utility.yul\":5057:5086   */\n      tag_332\n        /* \"#utility.yul\":5079:5085   */\n      dup3\n        /* \"#utility.yul\":5057:5086   */\n      tag_228\n      jump\t// in\n    tag_332:\n        /* \"#utility.yul\":5049:5086   */\n      swap1\n      pop\n        /* \"#utility.yul\":5141:5145   */\n      0x20\n        /* \"#utility.yul\":5135:5139   */\n      dup2\n        /* \"#utility.yul\":5131:5146   */\n      add\n        /* \"#utility.yul\":5123:5146   */\n      swap1\n      pop\n        /* \"#utility.yul\":4845:5153   */\n      swap2\n      swap1\n      pop\n      jump\t// out\n        /* \"#utility.yul\":5159:5307   */\n    tag_233:\n        /* \"#utility.yul\":5257:5263   */\n      dup3\n        /* \"#utility.yul\":5252:5255   */\n      dup2\n        /* \"#utility.yul\":5247:5250   */\n      dup4\n        /* \"#utility.yul\":5234:5264   */\n      calldatacopy\n        /* \"#utility.yul\":5298:5299   */\n      0x00\n        /* \"#utility.yul\":5289:5295   */\n      dup4\n        /* \"#utility.yul\":5284:5287   */\n      dup4\n        /* \"#utility.yul\":5280:5296   */\n      add\n        /* \"#utility.yul\":5273:5300   */\n      mstore\n        /* \"#utility.yul\":5159:5307   */\n      pop\n      pop\n      pop\n      jump\t// out\n        /* \"#utility.yul\":5313:5738   */\n    tag_234:\n        /* \"#utility.yul\":5391:5396   */\n      0x00\n        /* \"#utility.yul\":5416:5482   */\n      tag_335\n        /* \"#utility.yul\":5432:5481   */\n      tag_336\n        /* \"#utility.yul\":5474:5480   */\n      dup5\n        /* \"#utility.yul\":5432:5481   */\n      tag_232\n      jump\t// in\n    tag_336:\n        /* \"#utility.yul\":5416:5482   */\n      tag_231\n      jump\t// in\n    tag_335:\n        /* \"#utility.yul\":5407:5482   */\n      swap1\n      pop\n        /* \"#utility.yul\":5505:5511   */\n      dup3\n        /* \"#utility.yul\":5498:5503   */\n      dup2\n        /* \"#utility.yul\":5491:5512   */\n      mstore\n        /* \"#utility.yul\":5543:5547   */\n      0x20\n        /* \"#utility.yul\":5536:5541   */\n      dup2\n        /* \"#utility.yul\":5532:5548   */\n      add\n        /* \"#utility.yul\":5581:5584   */\n      dup5\n        /* \"#utility.yul\":5572:5578   */\n      dup5\n        /* \"#utility.yul\":5567:5570   */\n      dup5\n        /* \"#utility.yul\":5563:5579   */\n      add\n        /* \"#utility.yul\":5560:5585   */\n      gt\n        /* \"#utility.yul\":5557:5669   */\n      iszero\n      tag_337\n      jumpi\n        /* \"#utility.yul\":5588:5667   */\n      tag_338\n      tag_227\n      jump\t// in\n    tag_338:\n        /* \"#utility.yul\":5557:5669   */\n    tag_337:\n        /* \"#utility.yul\":5678:5732   */\n      tag_339\n        /* \"#utility.yul\":5725:5731   */\n      dup5\n        /* \"#utility.yul\":5720:5723   */\n      dup3\n        /* \"#utility.yul\":5715:5718   */\n      dup6\n        /* \"#utility.yul\":5678:5732   */\n      tag_233\n      jump\t// in\n    tag_339:\n        /* \"#utility.yul\":5397:5738   */\n      pop\n        /* \"#utility.yul\":5313:5738   */\n      swap4\n      swap3\n      pop\n      pop\n      pop\n      jump\t// out\n        /* \"#utility.yul\":5758:6098   */\n    tag_235:\n        /* \"#utility.yul\":5814:5819   */\n      0x00\n        /* \"#utility.yul\":5863:5866   */\n      dup3\n        /* \"#utility.yul\":5856:5860   */\n      0x1f\n        /* \"#utility.yul\":5848:5854   */\n      dup4\n        /* \"#utility.yul\":5844:5861   */\n      add\n        /* \"#utility.yul\":5840:5867   */\n      slt\n        /* \"#utility.yul\":5830:5952   */\n      tag_341\n      jumpi\n        /* \"#utility.yul\":5871:5950   */\n      tag_342\n      tag_226\n      jump\t// in\n    tag_342:\n        /* \"#utility.yul\":5830:5952   */\n    tag_341:\n        /* \"#utility.yul\":5988:5994   */\n      dup2\n        /* \"#utility.yul\":5975:5995   */\n      calldataload\n        /* \"#utility.yul\":6013:6092   */\n      tag_343\n        /* \"#utility.yul\":6088:6091   */\n      dup5\n        /* \"#utility.yul\":6080:6086   */\n      dup3\n        /* \"#utility.yul\":6073:6077   */\n      0x20\n        /* \"#utility.yul\":6065:6071   */\n      dup7\n        /* \"#utility.yul\":6061:6078   */\n      add\n        /* \"#utility.yul\":6013:6092   */\n      tag_234\n      jump\t// in\n    tag_343:\n        /* \"#utility.yul\":6004:6092   */\n      swap2\n      pop\n        /* \"#utility.yul\":5820:6098   */\n      pop\n        /* \"#utility.yul\":5758:6098   */\n      swap3\n      swap2\n      pop\n      pop\n      jump\t// out\n        /* \"#utility.yul\":6104:6758   */\n    tag_64:\n        /* \"#utility.yul\":6182:6188   */\n      0x00\n        /* \"#utility.yul\":6190:6196   */\n      dup1\n        /* \"#utility.yul\":6239:6241   */\n      0x40\n        /* \"#utility.yul\":6227:6236   */\n      dup4\n        /* \"#utility.yul\":6218:6225   */\n      dup6\n        /* \"#utility.yul\":6214:6237   */\n      sub\n        /* \"#utility.yul\":6210:6242   */\n      slt\n        /* \"#utility.yul\":6207:6326   */\n      iszero\n      tag_345\n      jumpi\n        /* \"#utility.yul\":6245:6324   */\n      tag_346\n      tag_211\n      jump\t// in\n    tag_346:\n        /* \"#utility.yul\":6207:6326   */\n    tag_345:\n        /* \"#utility.yul\":6393:6394   */\n      0x00\n        /* \"#utility.yul\":6382:6391   */\n      dup4\n        /* \"#utility.yul\":6378:6395   */\n      add\n        /* \"#utility.yul\":6365:6396   */\n      calldataload\n        /* \"#utility.yul\":6423:6441   */\n      0xffffffffffffffff\n        /* \"#utility.yul\":6415:6421   */\n      dup2\n        /* \"#utility.yul\":6412:6442   */\n      gt\n        /* \"#utility.yul\":6409:6526   */\n      iszero\n      tag_347\n      jumpi\n        /* \"#utility.yul\":6445:6524   */\n      tag_348\n      tag_212\n      jump\t// in\n    tag_348:\n        /* \"#utility.yul\":6409:6526   */\n    tag_347:\n        /* \"#utility.yul\":6550:6613   */\n      tag_349\n        /* \"#utility.yul\":6605:6612   */\n      dup6\n        /* \"#utility.yul\":6596:6602   */\n      dup3\n        /* \"#utility.yul\":6585:6594   */\n      dup7\n        /* \"#utility.yul\":6581:6603   */\n      add\n        /* \"#utility.yul\":6550:6613   */\n      tag_235\n      jump\t// in\n    tag_349:\n        /* \"#utility.yul\":6540:6613   */\n      swap3\n      pop\n        /* \"#utility.yul\":6336:6623   */\n      pop\n        /* \"#utility.yul\":6662:6664   */\n      0x20\n        /* \"#utility.yul\":6688:6741   */\n      tag_350\n        /* \"#utility.yul\":6733:6740   */\n      dup6\n        /* \"#utility.yul\":6724:6730   */\n      dup3\n        /* \"#utility.yul\":6713:6722   */\n      dup7\n        /* \"#utility.yul\":6709:6731   */\n      add\n        /* \"#utility.yul\":6688:6741   */\n      tag_225\n      jump\t// in\n    tag_350:\n        /* \"#utility.yul\":6678:6741   */\n      swap2\n      pop\n        /* \"#utility.yul\":6633:6751   */\n      pop\n        /* \"#utility.yul\":6104:6758   */\n      swap3\n      pop\n      swap3\n      swap1\n      pop\n      jump\t// out\n        /* \"#utility.yul\":6764:7598   */\n    tag_68:\n        /* \"#utility.yul\":6852:6858   */\n      0x00\n        /* \"#utility.yul\":6860:6866   */\n      dup1\n        /* \"#utility.yul\":6909:6911   */\n      0x40\n        /* \"#utility.yul\":6897:6906   */\n      dup4\n        /* \"#utility.yul\":6888:6895   */\n      dup6\n        /* \"#utility.yul\":6884:6907   */\n      sub\n        /* \"#utility.yul\":6880:6912   */\n      slt\n        /* \"#utility.yul\":6877:6996   */\n      iszero\n      tag_352\n      jumpi\n        /* \"#utility.yul\":6915:6994   */\n      tag_353\n      tag_211\n      jump\t// in\n    tag_353:\n        /* \"#utility.yul\":6877:6996   */\n    tag_352:\n        /* \"#utility.yul\":7063:7064   */\n      0x00\n        /* \"#utility.yul\":7052:7061   */\n      dup4\n        /* \"#utility.yul\":7048:7065   */\n      add\n        /* \"#utility.yul\":7035:7066   */\n      calldataload\n        /* \"#utility.yul\":7093:7111   */\n      0xffffffffffffffff\n        /* \"#utility.yul\":7085:7091   */\n      dup2\n        /* \"#utility.yul\":7082:7112   */\n      gt\n        /* \"#utility.yul\":7079:7196   */\n      iszero\n      tag_354\n      jumpi\n        /* \"#utility.yul\":7115:7194   */\n      tag_355\n      tag_212\n      jump\t// in\n    tag_355:\n        /* \"#utility.yul\":7079:7196   */\n    tag_354:\n        /* \"#utility.yul\":7220:7283   */\n      tag_356\n        /* \"#utility.yul\":7275:7282   */\n      dup6\n        /* \"#utility.yul\":7266:7272   */\n      dup3\n        /* \"#utility.yul\":7255:7264   */\n      dup7\n        /* \"#utility.yul\":7251:7273   */\n      add\n        /* \"#utility.yul\":7220:7283   */\n      tag_235\n      jump\t// in\n    tag_356:\n        /* \"#utility.yul\":7210:7283   */\n      swap3\n      pop\n        /* \"#utility.yul\":7006:7293   */\n      pop\n        /* \"#utility.yul\":7360:7362   */\n      0x20\n        /* \"#utility.yul\":7349:7358   */\n      dup4\n        /* \"#utility.yul\":7345:7363   */\n      add\n        /* \"#utility.yul\":7332:7364   */\n      calldataload\n        /* \"#utility.yul\":7391:7409   */\n      0xffffffffffffffff\n        /* \"#utility.yul\":7383:7389   */\n      dup2\n        /* \"#utility.yul\":7380:7410   */\n      gt\n        /* \"#utility.yul\":7377:7494   */\n      iszero\n      tag_357\n      jumpi\n        /* \"#utility.yul\":7413:7492   */\n      tag_358\n      tag_212\n      jump\t// in\n    tag_358:\n        /* \"#utility.yul\":7377:7494   */\n    tag_357:\n        /* \"#utility.yul\":7518:7581   */\n      tag_359\n        /* \"#utility.yul\":7573:7580   */\n      dup6\n        /* \"#utility.yul\":7564:7570   */\n      dup3\n        /* \"#utility.yul\":7553:7562   */\n      dup7\n        /* \"#utility.yul\":7549:7571   */\n      add\n        /* \"#utility.yul\":7518:7581   */\n      tag_235\n      jump\t// in\n    tag_359:\n        /* \"#utility.yul\":7508:7581   */\n      swap2\n      pop\n        /* \"#utility.yul\":7303:7591   */\n      pop\n        /* \"#utility.yul\":6764:7598   */\n      swap3\n      pop\n      swap3\n      swap1\n      pop\n      jump\t// out\n        /* \"#utility.yul\":7604:9235   */\n    tag_75:\n        /* \"#utility.yul\":7739:7745   */\n      0x00\n        /* \"#utility.yul\":7747:7753   */\n      dup1\n        /* \"#utility.yul\":7755:7761   */\n      0x00\n        /* \"#utility.yul\":7763:7769   */\n      dup1\n        /* \"#utility.yul\":7771:7777   */\n      0x00\n        /* \"#utility.yul\":7820:7823   */\n      0xa0\n        /* \"#utility.yul\":7808:7817   */\n      dup7\n        /* \"#utility.yul\":7799:7806   */\n      dup9\n        /* \"#utility.yul\":7795:7818   */\n      sub\n        /* \"#utility.yul\":7791:7824   */\n      slt\n        /* \"#utility.yul\":7788:7908   */\n      iszero\n      tag_361\n      jumpi\n        /* \"#utility.yul\":7827:7906   */\n      tag_362\n      tag_211\n      jump\t// in\n    tag_362:\n        /* \"#utility.yul\":7788:7908   */\n    tag_361:\n        /* \"#utility.yul\":7975:7976   */\n      0x00\n        /* \"#utility.yul\":7964:7973   */\n      dup7\n        /* \"#utility.yul\":7960:7977   */\n      add\n        /* \"#utility.yul\":7947:7978   */\n      calldataload\n        /* \"#utility.yul\":8005:8023   */\n      0xffffffffffffffff\n        /* \"#utility.yul\":7997:8003   */\n      dup2\n        /* \"#utility.yul\":7994:8024   */\n      gt\n        /* \"#utility.yul\":7991:8108   */\n      iszero\n      tag_363\n      jumpi\n        /* \"#utility.yul\":8027:8106   */\n      tag_364\n      tag_212\n      jump\t// in\n    tag_364:\n        /* \"#utility.yul\":7991:8108   */\n    tag_363:\n        /* \"#utility.yul\":8132:8195   */\n      tag_365\n        /* \"#utility.yul\":8187:8194   */\n      dup9\n        /* \"#utility.yul\":8178:8184   */\n      dup3\n        /* \"#utility.yul\":8167:8176   */\n      dup10\n        /* \"#utility.yul\":8163:8185   */\n      add\n        /* \"#utility.yul\":8132:8195   */\n      tag_235\n      jump\t// in\n    tag_365:\n        /* \"#utility.yul\":8122:8195   */\n      swap6\n      pop\n        /* \"#utility.yul\":7918:8205   */\n      pop\n        /* \"#utility.yul\":8272:8274   */\n      0x20\n        /* \"#utility.yul\":8261:8270   */\n      dup7\n        /* \"#utility.yul\":8257:8275   */\n      add\n        /* \"#utility.yul\":8244:8276   */\n      calldataload\n        /* \"#utility.yul\":8303:8321   */\n      0xffffffffffffffff\n        /* \"#utility.yul\":8295:8301   */\n      dup2\n        /* \"#utility.yul\":8292:8322   */\n      gt\n        /* \"#utility.yul\":8289:8406   */\n      iszero\n      tag_366\n      jumpi\n        /* \"#utility.yul\":8325:8404   */\n      tag_367\n      tag_212\n      jump\t// in\n    tag_367:\n        /* \"#utility.yul\":8289:8406   */\n    tag_366:\n        /* \"#utility.yul\":8430:8493   */\n      tag_368\n        /* \"#utility.yul\":8485:8492   */\n      dup9\n        /* \"#utility.yul\":8476:8482   */\n      dup3\n        /* \"#utility.yul\":8465:8474   */\n      dup10\n        /* \"#utility.yul\":8461:8483   */\n      add\n        /* \"#utility.yul\":8430:8493   */\n      tag_235\n      jump\t// in\n    tag_368:\n        /* \"#utility.yul\":8420:8493   */\n      swap5\n      pop\n        /* \"#utility.yul\":8215:8503   */\n      pop\n        /* \"#utility.yul\":8570:8572   */\n      0x40\n        /* \"#utility.yul\":8559:8568   */\n      dup7\n        /* \"#utility.yul\":8555:8573   */\n      add\n        /* \"#utility.yul\":8542:8574   */\n      calldataload\n        /* \"#utility.yul\":8601:8619   */\n      0xffffffffffffffff\n        /* \"#utility.yul\":8593:8599   */\n      dup2\n        /* \"#utility.yul\":8590:8620   */\n      gt\n        /* \"#utility.yul\":8587:8704   */\n      iszero\n      tag_369\n      jumpi\n        /* \"#utility.yul\":8623:8702   */\n      tag_370\n      tag_212\n      jump\t// in\n    tag_370:\n        /* \"#utility.yul\":8587:8704   */\n    tag_369:\n        /* \"#utility.yul\":8728:8791   */\n      tag_371\n        /* \"#utility.yul\":8783:8790   */\n      dup9\n        /* \"#utility.yul\":8774:8780   */\n      dup3\n        /* \"#utility.yul\":8763:8772   */\n      dup10\n        /* \"#utility.yul\":8759:8781   */\n      add\n        /* \"#utility.yul\":8728:8791   */\n      tag_235\n      jump\t// in\n    tag_371:\n        /* \"#utility.yul\":8718:8791   */\n      swap4\n      pop\n        /* \"#utility.yul\":8513:8801   */\n      pop\n        /* \"#utility.yul\":8868:8870   */\n      0x60\n        /* \"#utility.yul\":8857:8866   */\n      dup7\n        /* \"#utility.yul\":8853:8871   */\n      add\n        /* \"#utility.yul\":8840:8872   */\n      calldataload\n        /* \"#utility.yul\":8899:8917   */\n      0xffffffffffffffff\n        /* \"#utility.yul\":8891:8897   */\n      dup2\n        /* \"#utility.yul\":8888:8918   */\n      gt\n        /* \"#utility.yul\":8885:9002   */\n      iszero\n      tag_372\n      jumpi\n        /* \"#utility.yul\":8921:9000   */\n      tag_373\n      tag_212\n      jump\t// in\n    tag_373:\n        /* \"#utility.yul\":8885:9002   */\n    tag_372:\n        /* \"#utility.yul\":9026:9089   */\n      tag_374\n        /* \"#utility.yul\":9081:9088   */\n      dup9\n        /* \"#utility.yul\":9072:9078   */\n      dup3\n        /* \"#utility.yul\":9061:9070   */\n      dup10\n        /* \"#utility.yul\":9057:9079   */\n      add\n        /* \"#utility.yul\":9026:9089   */\n      tag_235\n      jump\t// in\n    tag_374:\n        /* \"#utility.yul\":9016:9089   */\n      swap3\n      pop\n        /* \"#utility.yul\":8811:9099   */\n      pop\n        /* \"#utility.yul\":9138:9141   */\n      0x80\n        /* \"#utility.yul\":9165:9218   */\n      tag_375\n        /* \"#utility.yul\":9210:9217   */\n      dup9\n        /* \"#utility.yul\":9201:9207   */\n      dup3\n        /* \"#utility.yul\":9190:9199   */\n      dup10\n        /* \"#utility.yul\":9186:9208   */\n      add\n        /* \"#utility.yul\":9165:9218   */\n      tag_225\n      jump\t// in\n    tag_375:\n        /* \"#utility.yul\":9155:9218   */\n      swap2\n      pop\n        /* \"#utility.yul\":9109:9228   */\n      pop\n        /* \"#utility.yul\":7604:9235   */\n      swap3\n      swap6\n      pop\n      swap3\n      swap6\n      swap1\n      swap4\n      pop\n      jump\t// out\n        /* \"#utility.yul\":9241:10400   */\n    tag_82:\n        /* \"#utility.yul\":9348:9354   */\n      0x00\n        /* \"#utility.yul\":9356:9362   */\n      dup1\n        /* \"#utility.yul\":9364:9370   */\n      0x00\n        /* \"#utility.yul\":9413:9415   */\n      0x60\n        /* \"#utility.yul\":9401:9410   */\n      dup5\n        /* \"#utility.yul\":9392:9399   */\n      dup7\n        /* \"#utility.yul\":9388:9411   */\n      sub\n        /* \"#utility.yul\":9384:9416   */\n      slt\n        /* \"#utility.yul\":9381:9500   */\n      iszero\n      tag_377\n      jumpi\n        /* \"#utility.yul\":9419:9498   */\n      tag_378\n      tag_211\n      jump\t// in\n    tag_378:\n        /* \"#utility.yul\":9381:9500   */\n    tag_377:\n        /* \"#utility.yul\":9567:9568   */\n      0x00\n        /* \"#utility.yul\":9556:9565   */\n      dup5\n        /* \"#utility.yul\":9552:9569   */\n      add\n        /* \"#utility.yul\":9539:9570   */\n      calldataload\n        /* \"#utility.yul\":9597:9615   */\n      0xffffffffffffffff\n        /* \"#utility.yul\":9589:9595   */\n      dup2\n        /* \"#utility.yul\":9586:9616   */\n      gt\n        /* \"#utility.yul\":9583:9700   */\n      iszero\n      tag_379\n      jumpi\n        /* \"#utility.yul\":9619:9698   */\n      tag_380\n      tag_212\n      jump\t// in\n    tag_380:\n        /* \"#utility.yul\":9583:9700   */\n    tag_379:\n        /* \"#utility.yul\":9724:9787   */\n      tag_381\n        /* \"#utility.yul\":9779:9786   */\n      dup7\n        /* \"#utility.yul\":9770:9776   */\n      dup3\n        /* \"#utility.yul\":9759:9768   */\n      dup8\n        /* \"#utility.yul\":9755:9777   */\n      add\n        /* \"#utility.yul\":9724:9787   */\n      tag_235\n      jump\t// in\n    tag_381:\n        /* \"#utility.yul\":9714:9787   */\n      swap4\n      pop\n        /* \"#utility.yul\":9510:9797   */\n      pop\n        /* \"#utility.yul\":9864:9866   */\n      0x20\n        /* \"#utility.yul\":9853:9862   */\n      dup5\n        /* \"#utility.yul\":9849:9867   */\n      add\n        /* \"#utility.yul\":9836:9868   */\n      calldataload\n        /* \"#utility.yul\":9895:9913   */\n      0xffffffffffffffff\n        /* \"#utility.yul\":9887:9893   */\n      dup2\n        /* \"#utility.yul\":9884:9914   */\n      gt\n        /* \"#utility.yul\":9881:9998   */\n      iszero\n      tag_382\n      jumpi\n        /* \"#utility.yul\":9917:9996   */\n      tag_383\n      tag_212\n      jump\t// in\n    tag_383:\n        /* \"#utility.yul\":9881:9998   */\n    tag_382:\n        /* \"#utility.yul\":10022:10085   */\n      tag_384\n        /* \"#utility.yul\":10077:10084   */\n      dup7\n        /* \"#utility.yul\":10068:10074   */\n      dup3\n        /* \"#utility.yul\":10057:10066   */\n      dup8\n        /* \"#utility.yul\":10053:10075   */\n      add\n        /* \"#utility.yul\":10022:10085   */\n      tag_235\n      jump\t// in\n    tag_384:\n        /* \"#utility.yul\":10012:10085   */\n      swap3\n      pop\n        /* \"#utility.yul\":9807:10095   */\n      pop\n        /* \"#utility.yul\":10162:10164   */\n      0x40\n        /* \"#utility.yul\":10151:10160   */\n      dup5\n        /* \"#utility.yul\":10147:10165   */\n      add\n        /* \"#utility.yul\":10134:10166   */\n      calldataload\n        /* \"#utility.yul\":10193:10211   */\n      0xffffffffffffffff\n        /* \"#utility.yul\":10185:10191   */\n      dup2\n        /* \"#utility.yul\":10182:10212   */\n      gt\n        /* \"#utility.yul\":10179:10296   */\n      iszero\n      tag_385\n      jumpi\n        /* \"#utility.yul\":10215:10294   */\n      tag_386\n      tag_212\n      jump\t// in\n    tag_386:\n        /* \"#utility.yul\":10179:10296   */\n    tag_385:\n        /* \"#utility.yul\":10320:10383   */\n      tag_387\n        /* \"#utility.yul\":10375:10382   */\n      dup7\n        /* \"#utility.yul\":10366:10372   */\n      dup3\n        /* \"#utility.yul\":10355:10364   */\n      dup8\n        /* \"#utility.yul\":10351:10373   */\n      add\n        /* \"#utility.yul\":10320:10383   */\n      tag_235\n      jump\t// in\n    tag_387:\n        /* \"#utility.yul\":10310:10383   */\n      swap2\n      pop\n        /* \"#utility.yul\":10105:10393   */\n      pop\n        /* \"#utility.yul\":9241:10400   */\n      swap3\n      pop\n      swap3\n      pop\n      swap3\n      jump\t// out\n        /* \"#utility.yul\":10406:10915   */\n    tag_86:\n        /* \"#utility.yul\":10475:10481   */\n      0x00\n        /* \"#utility.yul\":10524:10526   */\n      0x20\n        /* \"#utility.yul\":10512:10521   */\n      dup3\n        /* \"#utility.yul\":10503:10510   */\n      dup5\n        /* \"#utility.yul\":10499:10522   */\n      sub\n        /* \"#utility.yul\":10495:10527   */\n      slt\n        /* \"#utility.yul\":10492:10611   */\n      iszero\n      tag_389\n      jumpi\n        /* \"#utility.yul\":10530:10609   */\n      tag_390\n      tag_211\n      jump\t// in\n    tag_390:\n        /* \"#utility.yul\":10492:10611   */\n    tag_389:\n        /* \"#utility.yul\":10678:10679   */\n      0x00\n        /* \"#utility.yul\":10667:10676   */\n      dup3\n        /* \"#utility.yul\":10663:10680   */\n      add\n        /* \"#utility.yul\":10650:10681   */\n      calldataload\n        /* \"#utility.yul\":10708:10726   */\n      0xffffffffffffffff\n        /* \"#utility.yul\":10700:10706   */\n      dup2\n        /* \"#utility.yul\":10697:10727   */\n      gt\n        /* \"#utility.yul\":10694:10811   */\n      iszero\n      tag_391\n      jumpi\n        /* \"#utility.yul\":10730:10809   */\n      tag_392\n      tag_212\n      jump\t// in\n    tag_392:\n        /* \"#utility.yul\":10694:10811   */\n    tag_391:\n        /* \"#utility.yul\":10835:10898   */\n      tag_393\n        /* \"#utility.yul\":10890:10897   */\n      dup5\n        /* \"#utility.yul\":10881:10887   */\n      dup3\n        /* \"#utility.yul\":10870:10879   */\n      dup6\n        /* \"#utility.yul\":10866:10888   */\n      add\n        /* \"#utility.yul\":10835:10898   */\n      tag_235\n      jump\t// in\n    tag_393:\n        /* \"#utility.yul\":10825:10898   */\n      swap2\n      pop\n        /* \"#utility.yul\":10621:10908   */\n      pop\n        /* \"#utility.yul\":10406:10915   */\n      swap3\n      swap2\n      pop\n      pop\n      jump\t// out\n        /* \"#utility.yul\":10921:11020   */\n    tag_236:\n        /* \"#utility.yul\":10973:10979   */\n      0x00\n        /* \"#utility.yul\":11007:11012   */\n      dup2\n        /* \"#utility.yul\":11001:11013   */\n      mload\n        /* \"#utility.yul\":10991:11013   */\n      swap1\n      pop\n        /* \"#utility.yul\":10921:11020   */\n      swap2\n      swap1\n      pop\n      jump\t// out\n        /* \"#utility.yul\":11026:11195   */\n    tag_237:\n        /* \"#utility.yul\":11110:11121   */\n      0x00\n        /* \"#utility.yul\":11144:11150   */\n      dup3\n        /* \"#utility.yul\":11139:11142   */\n      dup3\n        /* \"#utility.yul\":11132:11151   */\n      mstore\n        /* \"#utility.yul\":11184:11188   */\n      0x20\n        /* \"#utility.yul\":11179:11182   */\n      dup3\n        /* \"#utility.yul\":11175:11189   */\n      add\n        /* \"#utility.yul\":11160:11189   */\n      swap1\n      pop\n        /* \"#utility.yul\":11026:11195   */\n      swap3\n      swap2\n      pop\n      pop\n      jump\t// out\n        /* \"#utility.yul\":11201:11340   */\n    tag_238:\n        /* \"#utility.yul\":11290:11296   */\n      dup3\n        /* \"#utility.yul\":11285:11288   */\n      dup2\n        /* \"#utility.yul\":11280:11283   */\n      dup4\n        /* \"#utility.yul\":11274:11297   */\n      mcopy\n        /* \"#utility.yul\":11331:11332   */\n      0x00\n        /* \"#utility.yul\":11322:11328   */\n      dup4\n        /* \"#utility.yul\":11317:11320   */\n      dup4\n        /* \"#utility.yul\":11313:11329   */\n      add\n        /* \"#utility.yul\":11306:11333   */\n      mstore\n        /* \"#utility.yul\":11201:11340   */\n      pop\n      pop\n      pop\n      jump\t// out\n        /* \"#utility.yul\":11346:11723   */\n    tag_239:\n        /* \"#utility.yul\":11434:11437   */\n      0x00\n        /* \"#utility.yul\":11462:11501   */\n      tag_398\n        /* \"#utility.yul\":11495:11500   */\n      dup3\n        /* \"#utility.yul\":11462:11501   */\n      tag_236\n      jump\t// in\n    tag_398:\n        /* \"#utility.yul\":11517:11588   */\n      tag_399\n        /* \"#utility.yul\":11581:11587   */\n      dup2\n        /* \"#utility.yul\":11576:11579   */\n      dup6\n        /* \"#utility.yul\":11517:11588   */\n      tag_237\n      jump\t// in\n    tag_399:\n        /* \"#utility.yul\":11510:11588   */\n      swap4\n      pop\n        /* \"#utility.yul\":11597:11662   */\n      tag_400\n        /* \"#utility.yul\":11655:11661   */\n      dup2\n        /* \"#utility.yul\":11650:11653   */\n      dup6\n        /* \"#utility.yul\":11643:11647   */\n      0x20\n        /* \"#utility.yul\":11636:11641   */\n      dup7\n        /* \"#utility.yul\":11632:11648   */\n      add\n        /* \"#utility.yul\":11597:11662   */\n      tag_238\n      jump\t// in\n    tag_400:\n        /* \"#utility.yul\":11687:11716   */\n      tag_401\n        /* \"#utility.yul\":11709:11715   */\n      dup2\n        /* \"#utility.yul\":11687:11716   */\n      tag_228\n      jump\t// in\n    tag_401:\n        /* \"#utility.yul\":11682:11685   */\n      dup5\n        /* \"#utility.yul\":11678:11717   */\n      add\n        /* \"#utility.yul\":11671:11717   */\n      swap2\n      pop\n        /* \"#utility.yul\":11438:11723   */\n      pop\n        /* \"#utility.yul\":11346:11723   */\n      swap3\n      swap2\n      pop\n      pop\n      jump\t// out\n        /* \"#utility.yul\":11729:11847   */\n    tag_240:\n        /* \"#utility.yul\":11816:11840   */\n      tag_403\n        /* \"#utility.yul\":11834:11839   */\n      dup2\n        /* \"#utility.yul\":11816:11840   */\n      tag_223\n      jump\t// in\n    tag_403:\n        /* \"#utility.yul\":11811:11814   */\n      dup3\n        /* \"#utility.yul\":11804:11841   */\n      mstore\n        /* \"#utility.yul\":11729:11847   */\n      pop\n      pop\n      jump\t// out\n        /* \"#utility.yul\":11853:12679   */\n    tag_89:\n        /* \"#utility.yul\":12090:12094   */\n      0x00\n        /* \"#utility.yul\":12128:12131   */\n      0x80\n        /* \"#utility.yul\":12117:12126   */\n      dup3\n        /* \"#utility.yul\":12113:12132   */\n      add\n        /* \"#utility.yul\":12105:12132   */\n      swap1\n      pop\n        /* \"#utility.yul\":12178:12187   */\n      dup2\n        /* \"#utility.yul\":12172:12176   */\n      dup2\n        /* \"#utility.yul\":12168:12188   */\n      sub\n        /* \"#utility.yul\":12164:12165   */\n      0x00\n        /* \"#utility.yul\":12153:12162   */\n      dup4\n        /* \"#utility.yul\":12149:12166   */\n      add\n        /* \"#utility.yul\":12142:12189   */\n      mstore\n        /* \"#utility.yul\":12206:12284   */\n      tag_405\n        /* \"#utility.yul\":12279:12283   */\n      dup2\n        /* \"#utility.yul\":12270:12276   */\n      dup8\n        /* \"#utility.yul\":12206:12284   */\n      tag_239\n      jump\t// in\n    tag_405:\n        /* \"#utility.yul\":12198:12284   */\n      swap1\n      pop\n        /* \"#utility.yul\":12331:12340   */\n      dup2\n        /* \"#utility.yul\":12325:12329   */\n      dup2\n        /* \"#utility.yul\":12321:12341   */\n      sub\n        /* \"#utility.yul\":12316:12318   */\n      0x20\n        /* \"#utility.yul\":12305:12314   */\n      dup4\n        /* \"#utility.yul\":12301:12319   */\n      add\n        /* \"#utility.yul\":12294:12342   */\n      mstore\n        /* \"#utility.yul\":12359:12437   */\n      tag_406\n        /* \"#utility.yul\":12432:12436   */\n      dup2\n        /* \"#utility.yul\":12423:12429   */\n      dup7\n        /* \"#utility.yul\":12359:12437   */\n      tag_239\n      jump\t// in\n    tag_406:\n        /* \"#utility.yul\":12351:12437   */\n      swap1\n      pop\n        /* \"#utility.yul\":12484:12493   */\n      dup2\n        /* \"#utility.yul\":12478:12482   */\n      dup2\n        /* \"#utility.yul\":12474:12494   */\n      sub\n        /* \"#utility.yul\":12469:12471   */\n      0x40\n        /* \"#utility.yul\":12458:12467   */\n      dup4\n        /* \"#utility.yul\":12454:12472   */\n      add\n        /* \"#utility.yul\":12447:12495   */\n      mstore\n        /* \"#utility.yul\":12512:12590   */\n      tag_407\n        /* \"#utility.yul\":12585:12589   */\n      dup2\n        /* \"#utility.yul\":12576:12582   */\n      dup6\n        /* \"#utility.yul\":12512:12590   */\n      tag_239\n      jump\t// in\n    tag_407:\n        /* \"#utility.yul\":12504:12590   */\n      swap1\n      pop\n        /* \"#utility.yul\":12600:12672   */\n      tag_408\n        /* \"#utility.yul\":12668:12670   */\n      0x60\n        /* \"#utility.yul\":12657:12666   */\n      dup4\n        /* \"#utility.yul\":12653:12671   */\n      add\n        /* \"#utility.yul\":12644:12650   */\n      dup5\n        /* \"#utility.yul\":12600:12672   */\n      tag_240\n      jump\t// in\n    tag_408:\n        /* \"#utility.yul\":11853:12679   */\n      swap6\n      swap5\n      pop\n      pop\n      pop\n      pop\n      pop\n      jump\t// out\n        /* \"#utility.yul\":12685:12833   */\n    tag_241:\n        /* \"#utility.yul\":12787:12798   */\n      0x00\n        /* \"#utility.yul\":12824:12827   */\n      dup2\n        /* \"#utility.yul\":12809:12827   */\n      swap1\n      pop\n        /* \"#utility.yul\":12685:12833   */\n      swap3\n      swap2\n      pop\n      pop\n      jump\t// out\n        /* \"#utility.yul\":12839:13229   */\n    tag_242:\n        /* \"#utility.yul\":12945:12948   */\n      0x00\n        /* \"#utility.yul\":12973:13012   */\n      tag_411\n        /* \"#utility.yul\":13006:13011   */\n      dup3\n        /* \"#utility.yul\":12973:13012   */\n      tag_236\n      jump\t// in\n    tag_411:\n        /* \"#utility.yul\":13028:13117   */\n      tag_412\n        /* \"#utility.yul\":13110:13116   */\n      dup2\n        /* \"#utility.yul\":13105:13108   */\n      dup6\n        /* \"#utility.yul\":13028:13117   */\n      tag_241\n      jump\t// in\n    tag_412:\n        /* \"#utility.yul\":13021:13117   */\n      swap4\n      pop\n        /* \"#utility.yul\":13126:13191   */\n      tag_413\n        /* \"#utility.yul\":13184:13190   */\n      dup2\n        /* \"#utility.yul\":13179:13182   */\n      dup6\n        /* \"#utility.yul\":13172:13176   */\n      0x20\n        /* \"#utility.yul\":13165:13170   */\n      dup7\n        /* \"#utility.yul\":13161:13177   */\n      add\n        /* \"#utility.yul\":13126:13191   */\n      tag_238\n      jump\t// in\n    tag_413:\n        /* \"#utility.yul\":13216:13222   */\n      dup1\n        /* \"#utility.yul\":13211:13214   */\n      dup5\n        /* \"#utility.yul\":13207:13223   */\n      add\n        /* \"#utility.yul\":13200:13223   */\n      swap2\n      pop\n        /* \"#utility.yul\":12949:13229   */\n      pop\n        /* \"#utility.yul\":12839:13229   */\n      swap3\n      swap2\n      pop\n      pop\n      jump\t// out\n        /* \"#utility.yul\":13235:13510   */\n    tag_122:\n        /* \"#utility.yul\":13367:13370   */\n      0x00\n        /* \"#utility.yul\":13389:13484   */\n      tag_415\n        /* \"#utility.yul\":13480:13483   */\n      dup3\n        /* \"#utility.yul\":13471:13477   */\n      dup5\n        /* \"#utility.yul\":13389:13484   */\n      tag_242\n      jump\t// in\n    tag_415:\n        /* \"#utility.yul\":13382:13484   */\n      swap2\n      pop\n        /* \"#utility.yul\":13501:13504   */\n      dup2\n        /* \"#utility.yul\":13494:13504   */\n      swap1\n      pop\n        /* \"#utility.yul\":13235:13510   */\n      swap3\n      swap2\n      pop\n      pop\n      jump\t// out\n        /* \"#utility.yul\":13516:13684   */\n    tag_243:\n        /* \"#utility.yul\":13656:13676   */\n      0x44494420646f6573206e6f742065786973740000000000000000000000000000\n        /* \"#utility.yul\":13652:13653   */\n      0x00\n        /* \"#utility.yul\":13644:13650   */\n      dup3\n        /* \"#utility.yul\":13640:13654   */\n      add\n        /* \"#utility.yul\":13633:13677   */\n      mstore\n        /* \"#utility.yul\":13516:13684   */\n      pop\n      jump\t// out\n        /* \"#utility.yul\":13690:14056   */\n    tag_244:\n        /* \"#utility.yul\":13832:13835   */\n      0x00\n        /* \"#utility.yul\":13853:13920   */\n      tag_418\n        /* \"#utility.yul\":13917:13919   */\n      0x12\n        /* \"#utility.yul\":13912:13915   */\n      dup4\n        /* \"#utility.yul\":13853:13920   */\n      tag_237\n      jump\t// in\n    tag_418:\n        /* \"#utility.yul\":13846:13920   */\n      swap2\n      pop\n        /* \"#utility.yul\":13929:14022   */\n      tag_419\n        /* \"#utility.yul\":14018:14021   */\n      dup3\n        /* \"#utility.yul\":13929:14022   */\n      tag_243\n      jump\t// in\n    tag_419:\n        /* \"#utility.yul\":14047:14049   */\n      0x20\n        /* \"#utility.yul\":14042:14045   */\n      dup3\n        /* \"#utility.yul\":14038:14050   */\n      add\n        /* \"#utility.yul\":14031:14050   */\n      swap1\n      pop\n        /* \"#utility.yul\":13690:14056   */\n      swap2\n      swap1\n      pop\n      jump\t// out\n        /* \"#utility.yul\":14062:14481   */\n    tag_125:\n        /* \"#utility.yul\":14228:14232   */\n      0x00\n        /* \"#utility.yul\":14266:14268   */\n      0x20\n        /* \"#utility.yul\":14255:14264   */\n      dup3\n        /* \"#utility.yul\":14251:14269   */\n      add\n        /* \"#utility.yul\":14243:14269   */\n      swap1\n      pop\n        /* \"#utility.yul\":14315:14324   */\n      dup2\n        /* \"#utility.yul\":14309:14313   */\n      dup2\n        /* \"#utility.yul\":14305:14325   */\n      sub\n        /* \"#utility.yul\":14301:14302   */\n      0x00\n        /* \"#utility.yul\":14290:14299   */\n      dup4\n        /* \"#utility.yul\":14286:14303   */\n      add\n        /* \"#utility.yul\":14279:14326   */\n      mstore\n        /* \"#utility.yul\":14343:14474   */\n      tag_421\n        /* \"#utility.yul\":14469:14473   */\n      dup2\n        /* \"#utility.yul\":14343:14474   */\n      tag_244\n      jump\t// in\n    tag_421:\n        /* \"#utility.yul\":14335:14474   */\n      swap1\n      pop\n        /* \"#utility.yul\":14062:14481   */\n      swap2\n      swap1\n      pop\n      jump\t// out\n        /* \"#utility.yul\":14487:14665   */\n    tag_245:\n        /* \"#utility.yul\":14627:14657   */\n      0x4e6577206f776e6572206164647265737320697320696e76616c696400000000\n        /* \"#utility.yul\":14623:14624   */\n      0x00\n        /* \"#utility.yul\":14615:14621   */\n      dup3\n        /* \"#utility.yul\":14611:14625   */\n      add\n        /* \"#utility.yul\":14604:14658   */\n      mstore\n        /* \"#utility.yul\":14487:14665   */\n      pop\n      jump\t// out\n        /* \"#utility.yul\":14671:15037   */\n    tag_246:\n        /* \"#utility.yul\":14813:14816   */\n      0x00\n        /* \"#utility.yul\":14834:14901   */\n      tag_424\n        /* \"#utility.yul\":14898:14900   */\n      0x1c\n        /* \"#utility.yul\":14893:14896   */\n      dup4\n        /* \"#utility.yul\":14834:14901   */\n      tag_237\n      jump\t// in\n    tag_424:\n        /* \"#utility.yul\":14827:14901   */\n      swap2\n      pop\n        /* \"#utility.yul\":14910:15003   */\n      tag_425\n        /* \"#utility.yul\":14999:15002   */\n      dup3\n        /* \"#utility.yul\":14910:15003   */\n      tag_245\n      jump\t// in\n    tag_425:\n        /* \"#utility.yul\":15028:15030   */\n      0x20\n        /* \"#utility.yul\":15023:15026   */\n      dup3\n        /* \"#utility.yul\":15019:15031   */\n      add\n        /* \"#utility.yul\":15012:15031   */\n      swap1\n      pop\n        /* \"#utility.yul\":14671:15037   */\n      swap2\n      swap1\n      pop\n      jump\t// out\n        /* \"#utility.yul\":15043:15462   */\n    tag_128:\n        /* \"#utility.yul\":15209:15213   */\n      0x00\n        /* \"#utility.yul\":15247:15249   */\n      0x20\n        /* \"#utility.yul\":15236:15245   */\n      dup3\n        /* \"#utility.yul\":15232:15250   */\n      add\n        /* \"#utility.yul\":15224:15250   */\n      swap1\n      pop\n        /* \"#utility.yul\":15296:15305   */\n      dup2\n        /* \"#utility.yul\":15290:15294   */\n      dup2\n        /* \"#utility.yul\":15286:15306   */\n      sub\n        /* \"#utility.yul\":15282:15283   */\n      0x00\n        /* \"#utility.yul\":15271:15280   */\n      dup4\n        /* \"#utility.yul\":15267:15284   */\n      add\n        /* \"#utility.yul\":15260:15307   */\n      mstore\n        /* \"#utility.yul\":15324:15455   */\n      tag_427\n        /* \"#utility.yul\":15450:15454   */\n      dup2\n        /* \"#utility.yul\":15324:15455   */\n      tag_246\n      jump\t// in\n    tag_427:\n        /* \"#utility.yul\":15316:15455   */\n      swap1\n      pop\n        /* \"#utility.yul\":15043:15462   */\n      swap2\n      swap1\n      pop\n      jump\t// out\n        /* \"#utility.yul\":15468:15642   */\n    tag_247:\n        /* \"#utility.yul\":15608:15634   */\n      0x4e6f7420746865206f776e6572206f6620746865204449440000000000000000\n        /* \"#utility.yul\":15604:15605   */\n      0x00\n        /* \"#utility.yul\":15596:15602   */\n      dup3\n        /* \"#utility.yul\":15592:15606   */\n      add\n        /* \"#utility.yul\":15585:15635   */\n      mstore\n        /* \"#utility.yul\":15468:15642   */\n      pop\n      jump\t// out\n        /* \"#utility.yul\":15648:16014   */\n    tag_248:\n        /* \"#utility.yul\":15790:15793   */\n      0x00\n        /* \"#utility.yul\":15811:15878   */\n      tag_430\n        /* \"#utility.yul\":15875:15877   */\n      0x18\n        /* \"#utility.yul\":15870:15873   */\n      dup4\n        /* \"#utility.yul\":15811:15878   */\n      tag_237\n      jump\t// in\n    tag_430:\n        /* \"#utility.yul\":15804:15878   */\n      swap2\n      pop\n        /* \"#utility.yul\":15887:15980   */\n      tag_431\n        /* \"#utility.yul\":15976:15979   */\n      dup3\n        /* \"#utility.yul\":15887:15980   */\n      tag_247\n      jump\t// in\n    tag_431:\n        /* \"#utility.yul\":16005:16007   */\n      0x20\n        /* \"#utility.yul\":16000:16003   */\n      dup3\n        /* \"#utility.yul\":15996:16008   */\n      add\n        /* \"#utility.yul\":15989:16008   */\n      swap1\n      pop\n        /* \"#utility.yul\":15648:16014   */\n      swap2\n      swap1\n      pop\n      jump\t// out\n        /* \"#utility.yul\":16020:16439   */\n    tag_134:\n        /* \"#utility.yul\":16186:16190   */\n      0x00\n        /* \"#utility.yul\":16224:16226   */\n      0x20\n        /* \"#utility.yul\":16213:16222   */\n      dup3\n        /* \"#utility.yul\":16209:16227   */\n      add\n        /* \"#utility.yul\":16201:16227   */\n      swap1\n      pop\n        /* \"#utility.yul\":16273:16282   */\n      dup2\n        /* \"#utility.yul\":16267:16271   */\n      dup2\n        /* \"#utility.yul\":16263:16283   */\n      sub\n        /* \"#utility.yul\":16259:16260   */\n      0x00\n        /* \"#utility.yul\":16248:16257   */\n      dup4\n        /* \"#utility.yul\":16244:16261   */\n      add\n        /* \"#utility.yul\":16237:16284   */\n      mstore\n        /* \"#utility.yul\":16301:16432   */\n      tag_433\n        /* \"#utility.yul\":16427:16431   */\n      dup2\n        /* \"#utility.yul\":16301:16432   */\n      tag_248\n      jump\t// in\n    tag_433:\n        /* \"#utility.yul\":16293:16432   */\n      swap1\n      pop\n        /* \"#utility.yul\":16020:16439   */\n      swap2\n      swap1\n      pop\n      jump\t// out\n        /* \"#utility.yul\":16445:16625   */\n    tag_249:\n        /* \"#utility.yul\":16493:16570   */\n      0x4e487b7100000000000000000000000000000000000000000000000000000000\n        /* \"#utility.yul\":16490:16491   */\n      0x00\n        /* \"#utility.yul\":16483:16571   */\n      mstore\n        /* \"#utility.yul\":16590:16594   */\n      0x22\n        /* \"#utility.yul\":16587:16588   */\n      0x04\n        /* \"#utility.yul\":16580:16595   */\n      mstore\n        /* \"#utility.yul\":16614:16618   */\n      0x24\n        /* \"#utility.yul\":16611:16612   */\n      0x00\n        /* \"#utility.yul\":16604:16619   */\n      revert\n        /* \"#utility.yul\":16631:16951   */\n    tag_174:\n        /* \"#utility.yul\":16675:16681   */\n      0x00\n        /* \"#utility.yul\":16712:16713   */\n      0x02\n        /* \"#utility.yul\":16706:16710   */\n      dup3\n        /* \"#utility.yul\":16702:16714   */\n      div\n        /* \"#utility.yul\":16692:16714   */\n      swap1\n      pop\n        /* \"#utility.yul\":16759:16760   */\n      0x01\n        /* \"#utility.yul\":16753:16757   */\n      dup3\n        /* \"#utility.yul\":16749:16761   */\n      and\n        /* \"#utility.yul\":16780:16798   */\n      dup1\n        /* \"#utility.yul\":16770:16851   */\n      tag_436\n      jumpi\n        /* \"#utility.yul\":16836:16840   */\n      0x7f\n        /* \"#utility.yul\":16828:16834   */\n      dup3\n        /* \"#utility.yul\":16824:16841   */\n      and\n        /* \"#utility.yul\":16814:16841   */\n      swap2\n      pop\n        /* \"#utility.yul\":16770:16851   */\n    tag_436:\n        /* \"#utility.yul\":16898:16900   */\n      0x20\n        /* \"#utility.yul\":16890:16896   */\n      dup3\n        /* \"#utility.yul\":16887:16901   */\n      lt\n        /* \"#utility.yul\":16867:16885   */\n      dup2\n        /* \"#utility.yul\":16864:16902   */\n      sub\n        /* \"#utility.yul\":16861:16945   */\n      tag_437\n      jumpi\n        /* \"#utility.yul\":16917:16935   */\n      tag_438\n      tag_249\n      jump\t// in\n    tag_438:\n        /* \"#utility.yul\":16861:16945   */\n    tag_437:\n        /* \"#utility.yul\":16682:16951   */\n      pop\n        /* \"#utility.yul\":16631:16951   */\n      swap2\n      swap1\n      pop\n      jump\t// out\n        /* \"#utility.yul\":16957:17098   */\n    tag_250:\n        /* \"#utility.yul\":17006:17010   */\n      0x00\n        /* \"#utility.yul\":17029:17032   */\n      dup2\n        /* \"#utility.yul\":17021:17032   */\n      swap1\n      pop\n        /* \"#utility.yul\":17052:17055   */\n      dup2\n        /* \"#utility.yul\":17049:17050   */\n      0x00\n        /* \"#utility.yul\":17042:17056   */\n      mstore\n        /* \"#utility.yul\":17086:17090   */\n      0x20\n        /* \"#utility.yul\":17083:17084   */\n      0x00\n        /* \"#utility.yul\":17073:17091   */\n      keccak256\n        /* \"#utility.yul\":17065:17091   */\n      swap1\n      pop\n        /* \"#utility.yul\":16957:17098   */\n      swap2\n      swap1\n      pop\n      jump\t// out\n        /* \"#utility.yul\":17104:17197   */\n    tag_251:\n        /* \"#utility.yul\":17141:17147   */\n      0x00\n        /* \"#utility.yul\":17188:17190   */\n      0x20\n        /* \"#utility.yul\":17183:17185   */\n      0x1f\n        /* \"#utility.yul\":17176:17181   */\n      dup4\n        /* \"#utility.yul\":17172:17186   */\n      add\n        /* \"#utility.yul\":17168:17191   */\n      div\n        /* \"#utility.yul\":17158:17191   */\n      swap1\n      pop\n        /* \"#utility.yul\":17104:17197   */\n      swap2\n      swap1\n      pop\n      jump\t// out\n        /* \"#utility.yul\":17203:17310   */\n    tag_252:\n        /* \"#utility.yul\":17247:17255   */\n      0x00\n        /* \"#utility.yul\":17297:17302   */\n      dup3\n        /* \"#utility.yul\":17291:17295   */\n      dup3\n        /* \"#utility.yul\":17287:17303   */\n      shl\n        /* \"#utility.yul\":17266:17303   */\n      swap1\n      pop\n        /* \"#utility.yul\":17203:17310   */\n      swap3\n      swap2\n      pop\n      pop\n      jump\t// out\n        /* \"#utility.yul\":17316:17709   */\n    tag_253:\n        /* \"#utility.yul\":17385:17391   */\n      0x00\n        /* \"#utility.yul\":17435:17436   */\n      0x08\n        /* \"#utility.yul\":17423:17433   */\n      dup4\n        /* \"#utility.yul\":17419:17437   */\n      mul\n        /* \"#utility.yul\":17458:17555   */\n      tag_443\n        /* \"#utility.yul\":17488:17554   */\n      0xffffffffffffffffffffffffffffffffffffffffffffffffffffffffffffffff\n        /* \"#utility.yul\":17477:17486   */\n      dup3\n        /* \"#utility.yul\":17458:17555   */\n      tag_252\n      jump\t// in\n    tag_443:\n        /* \"#utility.yul\":17576:17615   */\n      tag_444\n        /* \"#utility.yul\":17606:17614   */\n      dup7\n        /* \"#utility.yul\":17595:17604   */\n      dup4\n        /* \"#utility.yul\":17576:17615   */\n      tag_252\n      jump\t// in\n    tag_444:\n        /* \"#utility.yul\":17564:17615   */\n      swap6\n      pop\n        /* \"#utility.yul\":17648:17652   */\n      dup1\n        /* \"#utility.yul\":17644:17653   */\n      not\n        /* \"#utility.yul\":17637:17642   */\n      dup5\n        /* \"#utility.yul\":17633:17654   */\n      and\n        /* \"#utility.yul\":17624:17654   */\n      swap4\n      pop\n        /* \"#utility.yul\":17697:17701   */\n      dup1\n        /* \"#utility.yul\":17687:17695   */\n      dup7\n        /* \"#utility.yul\":17683:17702   */\n      and\n        /* \"#utility.yul\":17676:17681   */\n      dup5\n        /* \"#utility.yul\":17673:17703   */\n      or\n        /* \"#utility.yul\":17663:17703   */\n      swap3\n      pop\n        /* \"#utility.yul\":17392:17709   */\n      pop\n      pop\n        /* \"#utility.yul\":17316:17709   */\n      swap4\n      swap3\n      pop\n      pop\n      pop\n      jump\t// out\n        /* \"#utility.yul\":17715:17792   */\n    tag_254:\n        /* \"#utility.yul\":17752:17759   */\n      0x00\n        /* \"#utility.yul\":17781:17786   */\n      dup2\n        /* \"#utility.yul\":17770:17786   */\n      swap1\n      pop\n        /* \"#utility.yul\":17715:17792   */\n      swap2\n      swap1\n      pop\n      jump\t// out\n        /* \"#utility.yul\":17798:17858   */\n    tag_255:\n        /* \"#utility.yul\":17826:17829   */\n      0x00\n        /* \"#utility.yul\":17847:17852   */\n      dup2\n        /* \"#utility.yul\":17840:17852   */\n      swap1\n      pop\n        /* \"#utility.yul\":17798:17858   */\n      swap2\n      swap1\n      pop\n      jump\t// out\n        /* \"#utility.yul\":17864:18006   */\n    tag_256:\n        /* \"#utility.yul\":17914:17923   */\n      0x00\n        /* \"#utility.yul\":17947:18000   */\n      tag_448\n        /* \"#utility.yul\":17965:17999   */\n      tag_449\n        /* \"#utility.yul\":17974:17998   */\n      tag_450\n        /* \"#utility.yul\":17992:17997   */\n      dup5\n        /* \"#utility.yul\":17974:17998   */\n      tag_254\n      jump\t// in\n    tag_450:\n        /* \"#utility.yul\":17965:17999   */\n      tag_255\n      jump\t// in\n    tag_449:\n        /* \"#utility.yul\":17947:18000   */\n      tag_254\n      jump\t// in\n    tag_448:\n        /* \"#utility.yul\":17934:18000   */\n      swap1\n      pop\n        /* \"#utility.yul\":17864:18006   */\n      swap2\n      swap1\n      pop\n      jump\t// out\n        /* \"#utility.yul\":18012:18087   */\n    tag_257:\n        /* \"#utility.yul\":18055:18058   */\n      0x00\n        /* \"#utility.yul\":18076:18081   */\n      dup2\n        /* \"#utility.yul\":18069:18081   */\n      swap1\n      pop\n        /* \"#utility.yul\":18012:18087   */\n      swap2\n      swap1\n      pop\n      jump\t// out\n        /* \"#utility.yul\":18093:18362   */\n    tag_258:\n        /* \"#utility.yul\":18203:18242   */\n      tag_453\n        /* \"#utility.yul\":18234:18241   */\n      dup4\n        /* \"#utility.yul\":18203:18242   */\n      tag_256\n      jump\t// in\n    tag_453:\n        /* \"#utility.yul\":18264:18355   */\n      tag_454\n        /* \"#utility.yul\":18313:18354   */\n      tag_455\n        /* \"#utility.yul\":18337:18353   */\n      dup3\n        /* \"#utility.yul\":18313:18354   */\n      tag_257\n      jump\t// in\n    tag_455:\n        /* \"#utility.yul\":18305:18311   */\n      dup5\n        /* \"#utility.yul\":18298:18302   */\n      dup5\n        /* \"#utility.yul\":18292:18303   */\n      sload\n        /* \"#utility.yul\":18264:18355   */\n      tag_253\n      jump\t// in\n    tag_454:\n        /* \"#utility.yul\":18258:18262   */\n      dup3\n        /* \"#utility.yul\":18251:18356   */\n      sstore\n        /* \"#utility.yul\":18169:18362   */\n      pop\n        /* \"#utility.yul\":18093:18362   */\n      pop\n      pop\n      pop\n      jump\t// out\n        /* \"#utility.yul\":18368:18441   */\n    tag_259:\n        /* \"#utility.yul\":18413:18416   */\n      0x00\n        /* \"#utility.yul\":18368:18441   */\n      swap1\n      jump\t// out\n        /* \"#utility.yul\":18447:18636   */\n    tag_260:\n        /* \"#utility.yul\":18524:18556   */\n      tag_458\n      tag_259\n      jump\t// in\n    tag_458:\n        /* \"#utility.yul\":18565:18630   */\n      tag_459\n        /* \"#utility.yul\":18623:18629   */\n      dup2\n        /* \"#utility.yul\":18615:18621   */\n      dup5\n        /* \"#utility.yul\":18609:18613   */\n      dup5\n        /* \"#utility.yul\":18565:18630   */\n      tag_258\n      jump\t// in\n    tag_459:\n        /* \"#utility.yul\":18500:18636   */\n      pop\n        /* \"#utility.yul\":18447:18636   */\n      pop\n      pop\n      jump\t// out\n        /* \"#utility.yul\":18642:18828   */\n    tag_261:\n        /* \"#utility.yul\":18702:18822   */\n    tag_461:\n        /* \"#utility.yul\":18719:18722   */\n      dup2\n        /* \"#utility.yul\":18712:18717   */\n      dup2\n        /* \"#utility.yul\":18709:18723   */\n      lt\n        /* \"#utility.yul\":18702:18822   */\n      iszero\n      tag_463\n      jumpi\n        /* \"#utility.yul\":18773:18812   */\n      tag_464\n        /* \"#utility.yul\":18810:18811   */\n      0x00\n        /* \"#utility.yul\":18803:18808   */\n      dup3\n        /* \"#utility.yul\":18773:18812   */\n      tag_260\n      jump\t// in\n    tag_464:\n        /* \"#utility.yul\":18746:18747   */\n      0x01\n        /* \"#utility.yul\":18739:18744   */\n      dup2\n        /* \"#utility.yul\":18735:18748   */\n      add\n        /* \"#utility.yul\":18726:18748   */\n      swap1\n      pop\n        /* \"#utility.yul\":18702:18822   */\n      jump(tag_461)\n    tag_463:\n        /* \"#utility.yul\":18642:18828   */\n      pop\n      pop\n      jump\t// out\n        /* \"#utility.yul\":18834:19377   */\n    tag_262:\n        /* \"#utility.yul\":18935:18937   */\n      0x1f\n        /* \"#utility.yul\":18930:18933   */\n      dup3\n        /* \"#utility.yul\":18927:18938   */\n      gt\n        /* \"#utility.yul\":18924:19370   */\n      iszero\n      tag_466\n      jumpi\n        /* \"#utility.yul\":18969:19007   */\n      tag_467\n        /* \"#utility.yul\":19001:19006   */\n      dup2\n        /* \"#utility.yul\":18969:19007   */\n      tag_250\n      jump\t// in\n    tag_467:\n        /* \"#utility.yul\":19053:19082   */\n      tag_468\n        /* \"#utility.yul\":19071:19081   */\n      dup5\n        /* \"#utility.yul\":19053:19082   */\n      tag_251\n      jump\t// in\n    tag_468:\n        /* \"#utility.yul\":19043:19051   */\n      dup2\n        /* \"#utility.yul\":19039:19083   */\n      add\n        /* \"#utility.yul\":19236:19238   */\n      0x20\n        /* \"#utility.yul\":19224:19234   */\n      dup6\n        /* \"#utility.yul\":19221:19239   */\n      lt\n        /* \"#utility.yul\":19218:19267   */\n      iszero\n      tag_469\n      jumpi\n        /* \"#utility.yul\":19257:19265   */\n      dup2\n        /* \"#utility.yul\":19242:19265   */\n      swap1\n      pop\n        /* \"#utility.yul\":19218:19267   */\n    tag_469:\n        /* \"#utility.yul\":19280:19360   */\n      tag_470\n        /* \"#utility.yul\":19336:19358   */\n      tag_471\n        /* \"#utility.yul\":19354:19357   */\n      dup6\n        /* \"#utility.yul\":19336:19358   */\n      tag_251\n      jump\t// in\n    tag_471:\n        /* \"#utility.yul\":19326:19334   */\n      dup4\n        /* \"#utility.yul\":19322:19359   */\n      add\n        /* \"#utility.yul\":19309:19320   */\n      dup3\n        /* \"#utility.yul\":19280:19360   */\n      tag_261\n      jump\t// in\n    tag_470:\n        /* \"#utility.yul\":18939:19370   */\n      pop\n      pop\n        /* \"#utility.yul\":18924:19370   */\n    tag_466:\n        /* \"#utility.yul\":18834:19377   */\n      pop\n      pop\n      pop\n      jump\t// out\n        /* \"#utility.yul\":19383:19500   */\n    tag_263:\n        /* \"#utility.yul\":19437:19445   */\n      0x00\n        /* \"#utility.yul\":19487:19492   */\n      dup3\n        /* \"#utility.yul\":19481:19485   */\n      dup3\n        /* \"#utility.yul\":19477:19493   */\n      shr\n        /* \"#utility.yul\":19456:19493   */\n      swap1\n      pop\n        /* \"#utility.yul\":19383:19500   */\n      swap3\n      swap2\n      pop\n      pop\n      jump\t// out\n        /* \"#utility.yul\":19506:19675   */\n    tag_264:\n        /* \"#utility.yul\":19550:19556   */\n      0x00\n        /* \"#utility.yul\":19583:19634   */\n      tag_474\n        /* \"#utility.yul\":19631:19632   */\n      0x00\n        /* \"#utility.yul\":19627:19633   */\n      not\n        /* \"#utility.yul\":19619:19624   */\n      dup5\n        /* \"#utility.yul\":19616:19617   */\n      0x08\n        /* \"#utility.yul\":19612:19625   */\n      mul\n        /* \"#utility.yul\":19583:19634   */\n      tag_263\n      jump\t// in\n    tag_474:\n        /* \"#utility.yul\":19579:19635   */\n      not\n        /* \"#utility.yul\":19664:19668   */\n      dup1\n        /* \"#utility.yul\":19658:19662   */\n      dup4\n        /* \"#utility.yul\":19654:19669   */\n      and\n        /* \"#utility.yul\":19644:19669   */\n      swap2\n      pop\n        /* \"#utility.yul\":19557:19675   */\n      pop\n        /* \"#utility.yul\":19506:19675   */\n      swap3\n      swap2\n      pop\n      pop\n      jump\t// out\n        /* \"#utility.yul\":19680:19975   */\n    tag_265:\n        /* \"#utility.yul\":19756:19760   */\n      0x00\n        /* \"#utility.yul\":19902:19931   */\n      tag_476\n        /* \"#utility.yul\":19927:19930   */\n      dup4\n        /* \"#utility.yul\":19921:19925   */\n      dup4\n        /* \"#utility.yul\":19902:19931   */\n      tag_264\n      jump\t// in\n    tag_476:\n        /* \"#utility.yul\":19894:19931   */\n      swap2\n      pop\n        /* \"#utility.yul\":19964:19967   */\n      dup3\n        /* \"#utility.yul\":19961:19962   */\n      0x02\n        /* \"#utility.yul\":19957:19968   */\n      mul\n        /* \"#utility.yul\":19951:19955   */\n      dup3\n        /* \"#utility.yul\":19948:19969   */\n      or\n        /* \"#utility.yul\":19940:19969   */\n      swap1\n      pop\n        /* \"#utility.yul\":19680:19975   */\n      swap3\n      swap2\n      pop\n      pop\n      jump\t// out\n        /* \"#utility.yul\":19980:21375   */\n    tag_137:\n        /* \"#utility.yul\":20097:20134   */\n      tag_478\n        /* \"#utility.yul\":20130:20133   */\n      dup3\n        /* \"#utility.yul\":20097:20134   */\n      tag_236\n      jump\t// in\n    tag_478:\n        /* \"#utility.yul\":20199:20217   */\n      0xffffffffffffffff\n        /* \"#utility.yul\":20191:20197   */\n      dup2\n        /* \"#utility.yul\":20188:20218   */\n      gt\n        /* \"#utility.yul\":20185:20241   */\n      iszero\n      tag_479\n      jumpi\n        /* \"#utility.yul\":20221:20239   */\n      tag_480\n      tag_229\n      jump\t// in\n    tag_480:\n        /* \"#utility.yul\":20185:20241   */\n    tag_479:\n        /* \"#utility.yul\":20265:20303   */\n      tag_481\n        /* \"#utility.yul\":20297:20301   */\n      dup3\n        /* \"#utility.yul\":20291:20302   */\n      sload\n        /* \"#utility.yul\":20265:20303   */\n      tag_174\n      jump\t// in\n    tag_481:\n        /* \"#utility.yul\":20350:20417   */\n      tag_482\n        /* \"#utility.yul\":20410:20416   */\n      dup3\n        /* \"#utility.yul\":20402:20408   */\n      dup3\n        /* \"#utility.yul\":20396:20400   */\n      dup6\n        /* \"#utility.yul\":20350:20417   */\n      tag_262\n      jump\t// in\n    tag_482:\n        /* \"#utility.yul\":20444:20445   */\n      0x00\n        /* \"#utility.yul\":20468:20472   */\n      0x20\n        /* \"#utility.yul\":20455:20472   */\n      swap1\n      pop\n        /* \"#utility.yul\":20500:20502   */\n      0x1f\n        /* \"#utility.yul\":20492:20498   */\n      dup4\n        /* \"#utility.yul\":20489:20503   */\n      gt\n        /* \"#utility.yul\":20517:20518   */\n      0x01\n        /* \"#utility.yul\":20512:21130   */\n      dup2\n      eq\n      tag_484\n      jumpi\n        /* \"#utility.yul\":21174:21175   */\n      0x00\n        /* \"#utility.yul\":21191:21197   */\n      dup5\n        /* \"#utility.yul\":21188:21265   */\n      iszero\n      tag_485\n      jumpi\n        /* \"#utility.yul\":21240:21249   */\n      dup3\n        /* \"#utility.yul\":21235:21238   */\n      dup8\n        /* \"#utility.yul\":21231:21250   */\n      add\n        /* \"#utility.yul\":21225:21251   */\n      mload\n        /* \"#utility.yul\":21216:21251   */\n      swap1\n      pop\n        /* \"#utility.yul\":21188:21265   */\n    tag_485:\n        /* \"#utility.yul\":21291:21358   */\n      tag_486\n        /* \"#utility.yul\":21351:21357   */\n      dup6\n        /* \"#utility.yul\":21344:21349   */\n      dup3\n        /* \"#utility.yul\":21291:21358   */\n      tag_265\n      jump\t// in\n    tag_486:\n        /* \"#utility.yul\":21285:21289   */\n      dup7\n        /* \"#utility.yul\":21278:21359   */\n      sstore\n        /* \"#utility.yul\":21147:21369   */\n      pop\n        /* \"#utility.yul\":20482:21369   */\n      jump(tag_483)\n        /* \"#utility.yul\":20512:21130   */\n    tag_484:\n        /* \"#utility.yul\":20564:20568   */\n      0x1f\n        /* \"#utility.yul\":20560:20569   */\n      not\n        /* \"#utility.yul\":20552:20558   */\n      dup5\n        /* \"#utility.yul\":20548:20570   */\n      and\n        /* \"#utility.yul\":20598:20635   */\n      tag_487\n        /* \"#utility.yul\":20630:20634   */\n      dup7\n        /* \"#utility.yul\":20598:20635   */\n      tag_250\n      jump\t// in\n    tag_487:\n        /* \"#utility.yul\":20657:20658   */\n      0x00\n        /* \"#utility.yul\":20671:20879   */\n    tag_488:\n        /* \"#utility.yul\":20685:20692   */\n      dup3\n        /* \"#utility.yul\":20682:20683   */\n      dup2\n        /* \"#utility.yul\":20679:20693   */\n      lt\n        /* \"#utility.yul\":20671:20879   */\n      iszero\n      tag_490\n      jumpi\n        /* \"#utility.yul\":20764:20773   */\n      dup5\n        /* \"#utility.yul\":20759:20762   */\n      dup10\n        /* \"#utility.yul\":20755:20774   */\n      add\n        /* \"#utility.yul\":20749:20775   */\n      mload\n        /* \"#utility.yul\":20741:20747   */\n      dup3\n        /* \"#utility.yul\":20734:20776   */\n      sstore\n        /* \"#utility.yul\":20815:20816   */\n      0x01\n        /* \"#utility.yul\":20807:20813   */\n      dup3\n        /* \"#utility.yul\":20803:20817   */\n      add\n        /* \"#utility.yul\":20793:20817   */\n      swap2\n      pop\n        /* \"#utility.yul\":20862:20864   */\n      0x20\n        /* \"#utility.yul\":20851:20860   */\n      dup6\n        /* \"#utility.yul\":20847:20865   */\n      add\n        /* \"#utility.yul\":20834:20865   */\n      swap5\n      pop\n        /* \"#utility.yul\":20708:20712   */\n      0x20\n        /* \"#utility.yul\":20705:20706   */\n      dup2\n        /* \"#utility.yul\":20701:20713   */\n      add\n        /* \"#utility.yul\":20696:20713   */\n      swap1\n      pop\n        /* \"#utility.yul\":20671:20879   */\n      jump(tag_488)\n    tag_490:\n        /* \"#utility.yul\":20907:20913   */\n      dup7\n        /* \"#utility.yul\":20898:20905   */\n      dup4\n        /* \"#utility.yul\":20895:20914   */\n      lt\n        /* \"#utility.yul\":20892:21071   */\n      iszero\n      tag_491\n      jumpi\n        /* \"#utility.yul\":20965:20974   */\n      dup5\n        /* \"#utility.yul\":20960:20963   */\n      dup10\n        /* \"#utility.yul\":20956:20975   */\n      add\n        /* \"#utility.yul\":20950:20976   */\n      mload\n        /* \"#utility.yul\":21008:21056   */\n      tag_492\n        /* \"#utility.yul\":21050:21054   */\n      0x1f\n        /* \"#utility.yul\":21042:21048   */\n      dup10\n        /* \"#utility.yul\":21038:21055   */\n      and\n        /* \"#utility.yul\":21027:21036   */\n      dup3\n        /* \"#utility.yul\":21008:21056   */\n      tag_264\n      jump\t// in\n    tag_492:\n        /* \"#utility.yul\":21000:21006   */\n      dup4\n        /* \"#utility.yul\":20993:21057   */\n      sstore\n        /* \"#utility.yul\":20915:21071   */\n      pop\n        /* \"#utility.yul\":20892:21071   */\n    tag_491:\n        /* \"#utility.yul\":21117:21118   */\n      0x01\n        /* \"#utility.yul\":21113:21114   */\n      0x02\n        /* \"#utility.yul\":21105:21111   */\n      dup9\n        /* \"#utility.yul\":21101:21115   */\n      mul\n        /* \"#utility.yul\":21097:21119   */\n      add\n        /* \"#utility.yul\":21091:21095   */\n      dup9\n        /* \"#utility.yul\":21084:21120   */\n      sstore\n        /* \"#utility.yul\":20519:21130   */\n      pop\n      pop\n      pop\n        /* \"#utility.yul\":20482:21369   */\n    tag_483:\n      pop\n        /* \"#utility.yul\":20072:21375   */\n      pop\n      pop\n      pop\n        /* \"#utility.yul\":19980:21375   */\n      pop\n      pop\n      jump\t// out\n        /* \"#utility.yul\":21381:21895   */\n    tag_139:\n        /* \"#utility.yul\":21542:21546   */\n      0x00\n        /* \"#utility.yul\":21580:21582   */\n      0x40\n        /* \"#utility.yul\":21569:21578   */\n      dup3\n        /* \"#utility.yul\":21565:21583   */\n      add\n        /* \"#utility.yul\":21557:21583   */\n      swap1\n      pop\n        /* \"#utility.yul\":21629:21638   */\n      dup2\n        /* \"#utility.yul\":21623:21627   */\n      dup2\n        /* \"#utility.yul\":21619:21639   */\n      sub\n        /* \"#utility.yul\":21615:21616   */\n      0x00\n        /* \"#utility.yul\":21604:21613   */\n      dup4\n        /* \"#utility.yul\":21600:21617   */\n      add\n        /* \"#utility.yul\":21593:21640   */\n      mstore\n        /* \"#utility.yul\":21657:21735   */\n      tag_494\n        /* \"#utility.yul\":21730:21734   */\n      dup2\n        /* \"#utility.yul\":21721:21727   */\n      dup6\n        /* \"#utility.yul\":21657:21735   */\n      tag_239\n      jump\t// in\n    tag_494:\n        /* \"#utility.yul\":21649:21735   */\n      swap1\n      pop\n        /* \"#utility.yul\":21782:21791   */\n      dup2\n        /* \"#utility.yul\":21776:21780   */\n      dup2\n        /* \"#utility.yul\":21772:21792   */\n      sub\n        /* \"#utility.yul\":21767:21769   */\n      0x20\n        /* \"#utility.yul\":21756:21765   */\n      dup4\n        /* \"#utility.yul\":21752:21770   */\n      add\n        /* \"#utility.yul\":21745:21793   */\n      mstore\n        /* \"#utility.yul\":21810:21888   */\n      tag_495\n        /* \"#utility.yul\":21883:21887   */\n      dup2\n        /* \"#utility.yul\":21874:21880   */\n      dup5\n        /* \"#utility.yul\":21810:21888   */\n      tag_239\n      jump\t// in\n    tag_495:\n        /* \"#utility.yul\":21802:21888   */\n      swap1\n      pop\n        /* \"#utility.yul\":21381:21895   */\n      swap4\n      swap3\n      pop\n      pop\n      pop\n      jump\t// out\n        /* \"#utility.yul\":21901:22069   */\n    tag_266:\n        /* \"#utility.yul\":22041:22061   */\n      0x44494420616c7265616479206578697374730000000000000000000000000000\n        /* \"#utility.yul\":22037:22038   */\n      0x00\n        /* \"#utility.yul\":22029:22035   */\n      dup3\n        /* \"#utility.yul\":22025:22039   */\n      add\n        /* \"#utility.yul\":22018:22062   */\n      mstore\n        /* \"#utility.yul\":21901:22069   */\n      pop\n      jump\t// out\n        /* \"#utility.yul\":22075:22441   */\n    tag_267:\n        /* \"#utility.yul\":22217:22220   */\n      0x00\n        /* \"#utility.yul\":22238:22305   */\n      tag_498\n        /* \"#utility.yul\":22302:22304   */\n      0x12\n        /* \"#utility.yul\":22297:22300   */\n      dup4\n        /* \"#utility.yul\":22238:22305   */\n      tag_237\n      jump\t// in\n    tag_498:\n        /* \"#utility.yul\":22231:22305   */\n      swap2\n      pop\n        /* \"#utility.yul\":22314:22407   */\n      tag_499\n        /* \"#utility.yul\":22403:22406   */\n      dup3\n        /* \"#utility.yul\":22314:22407   */\n      tag_266\n      jump\t// in\n    tag_499:\n        /* \"#utility.yul\":22432:22434   */\n      0x20\n        /* \"#utility.yul\":22427:22430   */\n      dup3\n        /* \"#utility.yul\":22423:22435   */\n      add\n        /* \"#utility.yul\":22416:22435   */\n      swap1\n      pop\n        /* \"#utility.yul\":22075:22441   */\n      swap2\n      swap1\n      pop\n      jump\t// out\n        /* \"#utility.yul\":22447:22866   */\n    tag_151:\n        /* \"#utility.yul\":22613:22617   */\n      0x00\n        /* \"#utility.yul\":22651:22653   */\n      0x20\n        /* \"#utility.yul\":22640:22649   */\n      dup3\n        /* \"#utility.yul\":22636:22654   */\n      add\n        /* \"#utility.yul\":22628:22654   */\n      swap1\n      pop\n        /* \"#utility.yul\":22700:22709   */\n      dup2\n        /* \"#utility.yul\":22694:22698   */\n      dup2\n        /* \"#utility.yul\":22690:22710   */\n      sub\n        /* \"#utility.yul\":22686:22687   */\n      0x00\n        /* \"#utility.yul\":22675:22684   */\n      dup4\n        /* \"#utility.yul\":22671:22688   */\n      add\n        /* \"#utility.yul\":22664:22711   */\n      mstore\n        /* \"#utility.yul\":22728:22859   */\n      tag_501\n        /* \"#utility.yul\":22854:22858   */\n      dup2\n        /* \"#utility.yul\":22728:22859   */\n      tag_267\n      jump\t// in\n    tag_501:\n        /* \"#utility.yul\":22720:22859   */\n      swap1\n      pop\n        /* \"#utility.yul\":22447:22866   */\n      swap2\n      swap1\n      pop\n      jump\t// out\n        /* \"#utility.yul\":22872:23295   */\n    tag_158:\n        /* \"#utility.yul\":23013:23017   */\n      0x00\n        /* \"#utility.yul\":23051:23053   */\n      0x40\n        /* \"#utility.yul\":23040:23049   */\n      dup3\n        /* \"#utility.yul\":23036:23054   */\n      add\n        /* \"#utility.yul\":23028:23054   */\n      swap1\n      pop\n        /* \"#utility.yul\":23100:23109   */\n      dup2\n        /* \"#utility.yul\":23094:23098   */\n      dup2\n        /* \"#utility.yul\":23090:23110   */\n      sub\n        /* \"#utility.yul\":23086:23087   */\n      0x00\n        /* \"#utility.yul\":23075:23084   */\n      dup4\n        /* \"#utility.yul\":23071:23088   */\n      add\n        /* \"#utility.yul\":23064:23111   */\n      mstore\n        /* \"#utility.yul\":23128:23206   */\n      tag_503\n        /* \"#utility.yul\":23201:23205   */\n      dup2\n        /* \"#utility.yul\":23192:23198   */\n      dup6\n        /* \"#utility.yul\":23128:23206   */\n      tag_239\n      jump\t// in\n    tag_503:\n        /* \"#utility.yul\":23120:23206   */\n      swap1\n      pop\n        /* \"#utility.yul\":23216:23288   */\n      tag_504\n        /* \"#utility.yul\":23284:23286   */\n      0x20\n        /* \"#utility.yul\":23273:23282   */\n      dup4\n        /* \"#utility.yul\":23269:23287   */\n      add\n        /* \"#utility.yul\":23260:23266   */\n      dup5\n        /* \"#utility.yul\":23216:23288   */\n      tag_240\n      jump\t// in\n    tag_504:\n        /* \"#utility.yul\":22872:23295   */\n      swap4\n      swap3\n      pop\n      pop\n      pop\n      jump\t// out\n        /* \"#utility.yul\":23301:24016   */\n    tag_168:\n        /* \"#utility.yul\":23510:23514   */\n      0x00\n        /* \"#utility.yul\":23548:23550   */\n      0x60\n        /* \"#utility.yul\":23537:23546   */\n      dup3\n        /* \"#utility.yul\":23533:23551   */\n      add\n        /* \"#utility.yul\":23525:23551   */\n      swap1\n      pop\n        /* \"#utility.yul\":23597:23606   */\n      dup2\n        /* \"#utility.yul\":23591:23595   */\n      dup2\n        /* \"#utility.yul\":23587:23607   */\n      sub\n        /* \"#utility.yul\":23583:23584   */\n      0x00\n        /* \"#utility.yul\":23572:23581   */\n      dup4\n        /* \"#utility.yul\":23568:23585   */\n      add\n        /* \"#utility.yul\":23561:23608   */\n      mstore\n        /* \"#utility.yul\":23625:23703   */\n      tag_506\n        /* \"#utility.yul\":23698:23702   */\n      dup2\n        /* \"#utility.yul\":23689:23695   */\n      dup7\n        /* \"#utility.yul\":23625:23703   */\n      tag_239\n      jump\t// in\n    tag_506:\n        /* \"#utility.yul\":23617:23703   */\n      swap1\n      pop\n        /* \"#utility.yul\":23750:23759   */\n      dup2\n        /* \"#utility.yul\":23744:23748   */\n      dup2\n        /* \"#utility.yul\":23740:23760   */\n      sub\n        /* \"#utility.yul\":23735:23737   */\n      0x20\n        /* \"#utility.yul\":23724:23733   */\n      dup4\n        /* \"#utility.yul\":23720:23738   */\n      add\n        /* \"#utility.yul\":23713:23761   */\n      mstore\n        /* \"#utility.yul\":23778:23856   */\n      tag_507\n        /* \"#utility.yul\":23851:23855   */\n      dup2\n        /* \"#utility.yul\":23842:23848   */\n      dup6\n        /* \"#utility.yul\":23778:23856   */\n      tag_239\n      jump\t// in\n    tag_507:\n        /* \"#utility.yul\":23770:23856   */\n      swap1\n      pop\n        /* \"#utility.yul\":23903:23912   */\n      dup2\n        /* \"#utility.yul\":23897:23901   */\n      dup2\n        /* \"#utility.yul\":23893:23913   */\n      sub\n        /* \"#utility.yul\":23888:23890   */\n      0x40\n        /* \"#utility.yul\":23877:23886   */\n      dup4\n        /* \"#utility.yul\":23873:23891   */\n      add\n        /* \"#utility.yul\":23866:23914   */\n      mstore\n        /* \"#utility.yul\":23931:24009   */\n      tag_508\n        /* \"#utility.yul\":24004:24008   */\n      dup2\n        /* \"#utility.yul\":23995:24001   */\n      dup5\n        /* \"#utility.yul\":23931:24009   */\n      tag_239\n      jump\t// in\n    tag_508:\n        /* \"#utility.yul\":23923:24009   */\n      swap1\n      pop\n        /* \"#utility.yul\":23301:24016   */\n      swap5\n      swap4\n      pop\n      pop\n      pop\n      pop\n      jump\t// out\n        /* \"#utility.yul\":24022:24354   */\n    tag_209:\n        /* \"#utility.yul\":24143:24147   */\n      0x00\n        /* \"#utility.yul\":24181:24183   */\n      0x40\n        /* \"#utility.yul\":24170:24179   */\n      dup3\n        /* \"#utility.yul\":24166:24184   */\n      add\n        /* \"#utility.yul\":24158:24184   */\n      swap1\n      pop\n        /* \"#utility.yul\":24194:24265   */\n      tag_510\n        /* \"#utility.yul\":24262:24263   */\n      0x00\n        /* \"#utility.yul\":24251:24260   */\n      dup4\n        /* \"#utility.yul\":24247:24264   */\n      add\n        /* \"#utility.yul\":24238:24244   */\n      dup6\n        /* \"#utility.yul\":24194:24265   */\n      tag_240\n      jump\t// in\n    tag_510:\n        /* \"#utility.yul\":24275:24347   */\n      tag_511\n        /* \"#utility.yul\":24343:24345   */\n      0x20\n        /* \"#utility.yul\":24332:24341   */\n      dup4\n        /* \"#utility.yul\":24328:24346   */\n      add\n        /* \"#utility.yul\":24319:24325   */\n      dup5\n        /* \"#utility.yul\":24275:24347   */\n      tag_219\n      jump\t// in\n    tag_511:\n        /* \"#utility.yul\":24022:24354   */\n      swap4\n      swap3\n      pop\n      pop\n      pop\n      jump\t// out\n\n    auxdata: 0xa2646970667358221220debafbf5cb533e41bb973cf931dae02b3f73417d31f8e00c2a84384a279d079364736f6c634300081a0033\n}\n",
				"bytecode": {
					"linkReferences": {},
					"object": "608060405234801561000f575f80fd5b505f735b38da6a701c568545dcfcb03fcb875f56beddc490505f73dc5c413a63ccece3a99063901e7f2497b81d455a90506100525f801b836100cf60201b60201c565b506100837f1b0a231506479db2482c2292b1c6a04ee5d0ab623a9347dd702500688937ab61836100cf60201b60201c565b506100965f801b826100cf60201b60201c565b506100c77f1b0a231506479db2482c2292b1c6a04ee5d0ab623a9347dd702500688937ab61826100cf60201b60201c565b50505061022e565b5f6100e083836101c460201b60201c565b6101ba5760015f808581526020019081526020015f205f015f8473ffffffffffffffffffffffffffffffffffffffff1673ffffffffffffffffffffffffffffffffffffffff1681526020019081526020015f205f6101000a81548160ff02191690831515021790555061015761022760201b60201c565b73ffffffffffffffffffffffffffffffffffffffff168273ffffffffffffffffffffffffffffffffffffffff16847f2f8788117e7eff1d82e926ec794901d17c78024a50270940304540a733656f0d60405160405180910390a4600190506101be565b5f90505b92915050565b5f805f8481526020019081526020015f205f015f8373ffffffffffffffffffffffffffffffffffffffff1673ffffffffffffffffffffffffffffffffffffffff1681526020019081526020015f205f9054906101000a900460ff16905092915050565b5f33905090565b611e218061023b5f395ff3fe608060405234801561000f575f80fd5b5060043610610109575f3560e01c806394fce43b116100a0578063d547741f1161006f578063d547741f1461029f578063dc25e068146102bb578063e7705db6146102d7578063facea43a146102f5578063fd8a00561461031157610109565b806394fce43b1461022b578063a217fddf14610249578063ab25837414610267578063b42a02b51461028357610109565b806336568abe116100dc57806336568abe146101a757806341858c4b146101c35780639000b3d6146101df57806391d14854146101fb57610109565b806301ffc9a71461010d578063131191611461013d578063248a9ca31461015b5780632f2ff15d1461018b575b5f80fd5b61012760048036038101906101229190611209565b610344565b604051610134919061124e565b60405180910390f35b6101456103bd565b604051610152919061127f565b60405180910390f35b610175600480360381019061017091906112c2565b6103e1565b604051610182919061127f565b60405180910390f35b6101a560048036038101906101a09190611347565b6103fd565b005b6101c160048036038101906101bc9190611347565b61041f565b005b6101dd60048036038101906101d89190611385565b61049a565b005b6101f960048036038101906101f49190611385565b61051c565b005b61021560048036038101906102109190611347565b610574565b604051610222919061124e565b60405180910390f35b6102336105d7565b604051610240919061127f565b60405180910390f35b6102516105fb565b60405161025e919061127f565b60405180910390f35b610281600480360381019061027c91906114ec565b610601565b005b61029d60048036038101906102989190611546565b6107ab565b005b6102b960048036038101906102b49190611347565b6108c4565b005b6102d560048036038101906102d091906115bc565b6108e6565b005b6102df610b08565b6040516102ec919061127f565b60405180910390f35b61030f600480360381019061030a91906116a3565b610b2c565b005b61032b60048036038101906103269190611747565b610c78565b60405161033b94939291906117fd565b60405180910390f35b5f7f7965db0b000000000000000000000000000000000000000000000000000000007bffffffffffffffffffffffffffffffffffffffffffffffffffffffff1916827bffffffffffffffffffffffffffffffffffffffffffffffffffffffff191614806103b657506103b582610efc565b5b9050919050565b7f14823911f2da1b49f045a0929a60b8c1f2a7fc8c06c7284ca3e8ab4e193a08c881565b5f805f8381526020019081526020015f20600101549050919050565b610406826103e1565b61040f81610f65565b6104198383610f79565b50505050565b610427611062565b73ffffffffffffffffffffffffffffffffffffffff168173ffffffffffffffffffffffffffffffffffffffff161461048b576040517f6697b23200000000000000000000000000000000000000000000000000000000815260040160405180910390fd5b6104958282611069565b505050565b7f1b0a231506479db2482c2292b1c6a04ee5d0ab623a9347dd702500688937ab616104c481610f65565b6104ee7f1b0a231506479db2482c2292b1c6a04ee5d0ab623a9347dd702500688937ab61836103fd565b6105187f1b0a231506479db2482c2292b1c6a04ee5d0ab623a9347dd702500688937ab61336108c4565b5050565b7f1b0a231506479db2482c2292b1c6a04ee5d0ab623a9347dd702500688937ab6161054681610f65565b6105707f0ce23c3e399818cfee81a7ab0880f714e53d7672b08df0fa62f2843416e1ea09836103fd565b5050565b5f805f8481526020019081526020015f205f015f8373ffffffffffffffffffffffffffffffffffffffff1673ffffffffffffffffffffffffffffffffffffffff1681526020019081526020015f205f9054906101000a900460ff16905092915050565b7f1b0a231506479db2482c2292b1c6a04ee5d0ab623a9347dd702500688937ab6181565b5f801b81565b7f1b0a231506479db2482c2292b1c6a04ee5d0ab623a9347dd702500688937ab6161062b81610f65565b5f73ffffffffffffffffffffffffffffffffffffffff16600184604051610652919061188f565b90815260200160405180910390206003015f9054906101000a900473ffffffffffffffffffffffffffffffffffffffff1673ffffffffffffffffffffffffffffffffffffffff16036106d9576040517f08c379a00000000000000000000000000000000000000000000000000000000081526004016106d0906118ef565b60405180910390fd5b5f73ffffffffffffffffffffffffffffffffffffffff168273ffffffffffffffffffffffffffffffffffffffff1603610747576040517f08c379a000000000000000000000000000000000000000000000000000000000815260040161073e90611957565b60405180910390fd5b81600184604051610758919061188f565b90815260200160405180910390206003015f6101000a81548173ffffffffffffffffffffffffffffffffffffffff021916908373ffffffffffffffffffffffffffffffffffffffff160217905550505050565b3373ffffffffffffffffffffffffffffffffffffffff166001836040516107d2919061188f565b90815260200160405180910390206003015f9054906101000a900473ffffffffffffffffffffffffffffffffffffffff1673ffffffffffffffffffffffffffffffffffffffff1614610859576040517f08c379a0000000000000000000000000000000000000000000000000000000008152600401610850906119bf565b60405180910390fd5b8060018360405161086a919061188f565b90815260200160405180910390205f0190816108869190611be0565b507fef928790e3ba239e686d4c1e6e85a60d67ddf17a606292c714ca966a2720f26882826040516108b8929190611caf565b60405180910390a15050565b6108cd826103e1565b6108d681610f65565b6108e08383611069565b50505050565b7f1b0a231506479db2482c2292b1c6a04ee5d0ab623a9347dd702500688937ab6161091081610f65565b5f73ffffffffffffffffffffffffffffffffffffffff16600187604051610937919061188f565b90815260200160405180910390206003015f9054906101000a900473ffffffffffffffffffffffffffffffffffffffff1673ffffffffffffffffffffffffffffffffffffffff16146109be576040517f08c379a00000000000000000000000000000000000000000000000000000000081526004016109b590611d2e565b60405180910390fd5b60405180608001604052808681526020018581526020018481526020018373ffffffffffffffffffffffffffffffffffffffff16815250600187604051610a05919061188f565b90815260200160405180910390205f820151815f019081610a269190611be0565b506020820151816001019081610a3c9190611be0565b506040820151816002019081610a529190611be0565b506060820151816003015f6101000a81548173ffffffffffffffffffffffffffffffffffffffff021916908373ffffffffffffffffffffffffffffffffffffffff160217905550905050610ac67f14823911f2da1b49f045a0929a60b8c1f2a7fc8c06c7284ca3e8ab4e193a08c883610f79565b507f44ca9609d2fe597457041d7e98533a969452ef425c10a46d0dd9f074497ea1ba8683604051610af8929190611d4c565b60405180910390a1505050505050565b7f0ce23c3e399818cfee81a7ab0880f714e53d7672b08df0fa62f2843416e1ea0981565b3373ffffffffffffffffffffffffffffffffffffffff16600184604051610b53919061188f565b90815260200160405180910390206003015f9054906101000a900473ffffffffffffffffffffffffffffffffffffffff1673ffffffffffffffffffffffffffffffffffffffff1614610bda576040517f08c379a0000000000000000000000000000000000000000000000000000000008152600401610bd1906119bf565b60405180910390fd5b81600184604051610beb919061188f565b90815260200160405180910390206001019081610c089190611be0565b5080600184604051610c1a919061188f565b90815260200160405180910390206002019081610c379190611be0565b507ffcdad05ce3c89a367c74c08f373cf092af7e367cdcdeecfd3a89bf55fa9d28e1838383604051610c6b93929190611d7a565b60405180910390a1505050565b60608060605f7f0ce23c3e399818cfee81a7ab0880f714e53d7672b08df0fa62f2843416e1ea09610ca881610f65565b5f600187604051610cb9919061188f565b90815260200160405180910390206040518060800160405290815f82018054610ce190611a0a565b80601f0160208091040260200160405190810160405280929190818152602001828054610d0d90611a0a565b8015610d585780601f10610d2f57610100808354040283529160200191610d58565b820191905f5260205f20905b815481529060010190602001808311610d3b57829003601f168201915b50505050508152602001600182018054610d7190611a0a565b80601f0160208091040260200160405190810160405280929190818152602001828054610d9d90611a0a565b8015610de85780601f10610dbf57610100808354040283529160200191610de8565b820191905f5260205f20905b815481529060010190602001808311610dcb57829003601f168201915b50505050508152602001600282018054610e0190611a0a565b80601f0160208091040260200160405190810160405280929190818152602001828054610e2d90611a0a565b8015610e785780601f10610e4f57610100808354040283529160200191610e78565b820191905f5260205f20905b815481529060010190602001808311610e5b57829003601f168201915b50505050508152602001600382015f9054906101000a900473ffffffffffffffffffffffffffffffffffffffff1673ffffffffffffffffffffffffffffffffffffffff1673ffffffffffffffffffffffffffffffffffffffff16815250509050805f0151816020015182604001518360600151955095509550955050509193509193565b5f7f01ffc9a7000000000000000000000000000000000000000000000000000000007bffffffffffffffffffffffffffffffffffffffffffffffffffffffff1916827bffffffffffffffffffffffffffffffffffffffffffffffffffffffff1916149050919050565b610f7681610f71611062565b611152565b50565b5f610f848383610574565b6110585760015f808581526020019081526020015f205f015f8473ffffffffffffffffffffffffffffffffffffffff1673ffffffffffffffffffffffffffffffffffffffff1681526020019081526020015f205f6101000a81548160ff021916908315150217905550610ff5611062565b73ffffffffffffffffffffffffffffffffffffffff168273ffffffffffffffffffffffffffffffffffffffff16847f2f8788117e7eff1d82e926ec794901d17c78024a50270940304540a733656f0d60405160405180910390a46001905061105c565b5f90505b92915050565b5f33905090565b5f6110748383610574565b15611148575f805f8581526020019081526020015f205f015f8473ffffffffffffffffffffffffffffffffffffffff1673ffffffffffffffffffffffffffffffffffffffff1681526020019081526020015f205f6101000a81548160ff0219169083151502179055506110e5611062565b73ffffffffffffffffffffffffffffffffffffffff168273ffffffffffffffffffffffffffffffffffffffff16847ff6391f5c32d9c69d2a47ea670b442974b53935d1edc7fd64eb21e047a839171b60405160405180910390a46001905061114c565b5f90505b92915050565b61115c8282610574565b61119f5780826040517fe2517d3f000000000000000000000000000000000000000000000000000000008152600401611196929190611dc4565b60405180910390fd5b5050565b5f604051905090565b5f80fd5b5f80fd5b5f7fffffffff0000000000000000000000000000000000000000000000000000000082169050919050565b6111e8816111b4565b81146111f2575f80fd5b50565b5f81359050611203816111df565b92915050565b5f6020828403121561121e5761121d6111ac565b5b5f61122b848285016111f5565b91505092915050565b5f8115159050919050565b61124881611234565b82525050565b5f6020820190506112615f83018461123f565b92915050565b5f819050919050565b61127981611267565b82525050565b5f6020820190506112925f830184611270565b92915050565b6112a181611267565b81146112ab575f80fd5b50565b5f813590506112bc81611298565b92915050565b5f602082840312156112d7576112d66111ac565b5b5f6112e4848285016112ae565b91505092915050565b5f73ffffffffffffffffffffffffffffffffffffffff82169050919050565b5f611316826112ed565b9050919050565b6113268161130c565b8114611330575f80fd5b50565b5f813590506113418161131d565b92915050565b5f806040838503121561135d5761135c6111ac565b5b5f61136a858286016112ae565b925050602061137b85828601611333565b9150509250929050565b5f6020828403121561139a576113996111ac565b5b5f6113a784828501611333565b91505092915050565b5f80fd5b5f80fd5b5f601f19601f8301169050919050565b7f4e487b71000000000000000000000000000000000000000000000000000000005f52604160045260245ffd5b6113fe826113b8565b810181811067ffffffffffffffff8211171561141d5761141c6113c8565b5b80604052505050565b5f61142f6111a3565b905061143b82826113f5565b919050565b5f67ffffffffffffffff82111561145a576114596113c8565b5b611463826113b8565b9050602081019050919050565b828183375f83830152505050565b5f61149061148b84611440565b611426565b9050828152602081018484840111156114ac576114ab6113b4565b5b6114b7848285611470565b509392505050565b5f82601f8301126114d3576114d26113b0565b5b81356114e384826020860161147e565b91505092915050565b5f8060408385031215611502576115016111ac565b5b5f83013567ffffffffffffffff81111561151f5761151e6111b0565b5b61152b858286016114bf565b925050602061153c85828601611333565b9150509250929050565b5f806040838503121561155c5761155b6111ac565b5b5f83013567ffffffffffffffff811115611579576115786111b0565b5b611585858286016114bf565b925050602083013567ffffffffffffffff8111156115a6576115a56111b0565b5b6115b2858286016114bf565b9150509250929050565b5f805f805f60a086880312156115d5576115d46111ac565b5b5f86013567ffffffffffffffff8111156115f2576115f16111b0565b5b6115fe888289016114bf565b955050602086013567ffffffffffffffff81111561161f5761161e6111b0565b5b61162b888289016114bf565b945050604086013567ffffffffffffffff81111561164c5761164b6111b0565b5b611658888289016114bf565b935050606086013567ffffffffffffffff811115611679576116786111b0565b5b611685888289016114bf565b925050608061169688828901611333565b9150509295509295909350565b5f805f606084860312156116ba576116b96111ac565b5b5f84013567ffffffffffffffff8111156116d7576116d66111b0565b5b6116e3868287016114bf565b935050602084013567ffffffffffffffff811115611704576117036111b0565b5b611710868287016114bf565b925050604084013567ffffffffffffffff811115611731576117306111b0565b5b61173d868287016114bf565b9150509250925092565b5f6020828403121561175c5761175b6111ac565b5b5f82013567ffffffffffffffff811115611779576117786111b0565b5b611785848285016114bf565b91505092915050565b5f81519050919050565b5f82825260208201905092915050565b8281835e5f83830152505050565b5f6117c08261178e565b6117ca8185611798565b93506117da8185602086016117a8565b6117e3816113b8565b840191505092915050565b6117f78161130c565b82525050565b5f6080820190508181035f83015261181581876117b6565b9050818103602083015261182981866117b6565b9050818103604083015261183d81856117b6565b905061184c60608301846117ee565b95945050505050565b5f81905092915050565b5f6118698261178e565b6118738185611855565b93506118838185602086016117a8565b80840191505092915050565b5f61189a828461185f565b915081905092915050565b7f44494420646f6573206e6f7420657869737400000000000000000000000000005f82015250565b5f6118d9601283611798565b91506118e4826118a5565b602082019050919050565b5f6020820190508181035f830152611906816118cd565b9050919050565b7f4e6577206f776e6572206164647265737320697320696e76616c6964000000005f82015250565b5f611941601c83611798565b915061194c8261190d565b602082019050919050565b5f6020820190508181035f83015261196e81611935565b9050919050565b7f4e6f7420746865206f776e6572206f66207468652044494400000000000000005f82015250565b5f6119a9601883611798565b91506119b482611975565b602082019050919050565b5f6020820190508181035f8301526119d68161199d565b9050919050565b7f4e487b71000000000000000000000000000000000000000000000000000000005f52602260045260245ffd5b5f6002820490506001821680611a2157607f821691505b602082108103611a3457611a336119dd565b5b50919050565b5f819050815f5260205f209050919050565b5f6020601f8301049050919050565b5f82821b905092915050565b5f60088302611a967fffffffffffffffffffffffffffffffffffffffffffffffffffffffffffffffff82611a5b565b611aa08683611a5b565b95508019841693508086168417925050509392505050565b5f819050919050565b5f819050919050565b5f611ae4611adf611ada84611ab8565b611ac1565b611ab8565b9050919050565b5f819050919050565b611afd83611aca565b611b11611b0982611aeb565b848454611a67565b825550505050565b5f90565b611b25611b19565b611b30818484611af4565b505050565b5b81811015611b5357611b485f82611b1d565b600181019050611b36565b5050565b601f821115611b9857611b6981611a3a565b611b7284611a4c565b81016020851015611b81578190505b611b95611b8d85611a4c565b830182611b35565b50505b505050565b5f82821c905092915050565b5f611bb85f1984600802611b9d565b1980831691505092915050565b5f611bd08383611ba9565b9150826002028217905092915050565b611be98261178e565b67ffffffffffffffff811115611c0257611c016113c8565b5b611c0c8254611a0a565b611c17828285611b57565b5f60209050601f831160018114611c48575f8415611c36578287015190505b611c408582611bc5565b865550611ca7565b601f198416611c5686611a3a565b5f5b82811015611c7d57848901518255600182019150602085019450602081019050611c58565b86831015611c9a5784890151611c96601f891682611ba9565b8355505b6001600288020188555050505b505050505050565b5f6040820190508181035f830152611cc781856117b6565b90508181036020830152611cdb81846117b6565b90509392505050565b7f44494420616c72656164792065786973747300000000000000000000000000005f82015250565b5f611d18601283611798565b9150611d2382611ce4565b602082019050919050565b5f6020820190508181035f830152611d4581611d0c565b9050919050565b5f6040820190508181035f830152611d6481856117b6565b9050611d7360208301846117ee565b9392505050565b5f6060820190508181035f830152611d9281866117b6565b90508181036020830152611da681856117b6565b90508181036040830152611dba81846117b6565b9050949350505050565b5f604082019050611dd75f8301856117ee565b611de46020830184611270565b939250505056fea2646970667358221220debafbf5cb533e41bb973cf931dae02b3f73417d31f8e00c2a84384a279d079364736f6c634300081a0033",
					"opcodes": "PUSH1 0x80 PUSH1 0x40 MSTORE CALLVALUE DUP1 ISZERO PUSH2 0xF JUMPI PUSH0 DUP1 REVERT JUMPDEST POP PUSH0 PUSH20 0x5B38DA6A701C568545DCFCB03FCB875F56BEDDC4 SWAP1 POP PUSH0 PUSH20 0xDC5C413A63CCECE3A99063901E7F2497B81D455A SWAP1 POP PUSH2 0x52 PUSH0 DUP1 SHL DUP4 PUSH2 0xCF PUSH1 0x20 SHL PUSH1 0x20 SHR JUMP JUMPDEST POP PUSH2 0x83 PUSH32 0x1B0A231506479DB2482C2292B1C6A04EE5D0AB623A9347DD702500688937AB61 DUP4 PUSH2 0xCF PUSH1 0x20 SHL PUSH1 0x20 SHR JUMP JUMPDEST POP PUSH2 0x96 PUSH0 DUP1 SHL DUP3 PUSH2 0xCF PUSH1 0x20 SHL PUSH1 0x20 SHR JUMP JUMPDEST POP PUSH2 0xC7 PUSH32 0x1B0A231506479DB2482C2292B1C6A04EE5D0AB623A9347DD702500688937AB61 DUP3 PUSH2 0xCF PUSH1 0x20 SHL PUSH1 0x20 SHR JUMP JUMPDEST POP POP POP PUSH2 0x22E JUMP JUMPDEST PUSH0 PUSH2 0xE0 DUP4 DUP4 PUSH2 0x1C4 PUSH1 0x20 SHL PUSH1 0x20 SHR JUMP JUMPDEST PUSH2 0x1BA JUMPI PUSH1 0x1 PUSH0 DUP1 DUP6 DUP2 MSTORE PUSH1 0x20 ADD SWAP1 DUP2 MSTORE PUSH1 0x20 ADD PUSH0 KECCAK256 PUSH0 ADD PUSH0 DUP5 PUSH20 0xFFFFFFFFFFFFFFFFFFFFFFFFFFFFFFFFFFFFFFFF AND PUSH20 0xFFFFFFFFFFFFFFFFFFFFFFFFFFFFFFFFFFFFFFFF AND DUP2 MSTORE PUSH1 0x20 ADD SWAP1 DUP2 MSTORE PUSH1 0x20 ADD PUSH0 KECCAK256 PUSH0 PUSH2 0x100 EXP DUP2 SLOAD DUP2 PUSH1 0xFF MUL NOT AND SWAP1 DUP4 ISZERO ISZERO MUL OR SWAP1 SSTORE POP PUSH2 0x157 PUSH2 0x227 PUSH1 0x20 SHL PUSH1 0x20 SHR JUMP JUMPDEST PUSH20 0xFFFFFFFFFFFFFFFFFFFFFFFFFFFFFFFFFFFFFFFF AND DUP3 PUSH20 0xFFFFFFFFFFFFFFFFFFFFFFFFFFFFFFFFFFFFFFFF AND DUP5 PUSH32 0x2F8788117E7EFF1D82E926EC794901D17C78024A50270940304540A733656F0D PUSH1 0x40 MLOAD PUSH1 0x40 MLOAD DUP1 SWAP2 SUB SWAP1 LOG4 PUSH1 0x1 SWAP1 POP PUSH2 0x1BE JUMP JUMPDEST PUSH0 SWAP1 POP JUMPDEST SWAP3 SWAP2 POP POP JUMP JUMPDEST PUSH0 DUP1 PUSH0 DUP5 DUP2 MSTORE PUSH1 0x20 ADD SWAP1 DUP2 MSTORE PUSH1 0x20 ADD PUSH0 KECCAK256 PUSH0 ADD PUSH0 DUP4 PUSH20 0xFFFFFFFFFFFFFFFFFFFFFFFFFFFFFFFFFFFFFFFF AND PUSH20 0xFFFFFFFFFFFFFFFFFFFFFFFFFFFFFFFFFFFFFFFF AND DUP2 MSTORE PUSH1 0x20 ADD SWAP1 DUP2 MSTORE PUSH1 0x20 ADD PUSH0 KECCAK256 PUSH0 SWAP1 SLOAD SWAP1 PUSH2 0x100 EXP SWAP1 DIV PUSH1 0xFF AND SWAP1 POP SWAP3 SWAP2 POP POP JUMP JUMPDEST PUSH0 CALLER SWAP1 POP SWAP1 JUMP JUMPDEST PUSH2 0x1E21 DUP1 PUSH2 0x23B PUSH0 CODECOPY PUSH0 RETURN INVALID PUSH1 0x80 PUSH1 0x40 MSTORE CALLVALUE DUP1 ISZERO PUSH2 0xF JUMPI PUSH0 DUP1 REVERT JUMPDEST POP PUSH1 0x4 CALLDATASIZE LT PUSH2 0x109 JUMPI PUSH0 CALLDATALOAD PUSH1 0xE0 SHR DUP1 PUSH4 0x94FCE43B GT PUSH2 0xA0 JUMPI DUP1 PUSH4 0xD547741F GT PUSH2 0x6F JUMPI DUP1 PUSH4 0xD547741F EQ PUSH2 0x29F JUMPI DUP1 PUSH4 0xDC25E068 EQ PUSH2 0x2BB JUMPI DUP1 PUSH4 0xE7705DB6 EQ PUSH2 0x2D7 JUMPI DUP1 PUSH4 0xFACEA43A EQ PUSH2 0x2F5 JUMPI DUP1 PUSH4 0xFD8A0056 EQ PUSH2 0x311 JUMPI PUSH2 0x109 JUMP JUMPDEST DUP1 PUSH4 0x94FCE43B EQ PUSH2 0x22B JUMPI DUP1 PUSH4 0xA217FDDF EQ PUSH2 0x249 JUMPI DUP1 PUSH4 0xAB258374 EQ PUSH2 0x267 JUMPI DUP1 PUSH4 0xB42A02B5 EQ PUSH2 0x283 JUMPI PUSH2 0x109 JUMP JUMPDEST DUP1 PUSH4 0x36568ABE GT PUSH2 0xDC JUMPI DUP1 PUSH4 0x36568ABE EQ PUSH2 0x1A7 JUMPI DUP1 PUSH4 0x41858C4B EQ PUSH2 0x1C3 JUMPI DUP1 PUSH4 0x9000B3D6 EQ PUSH2 0x1DF JUMPI DUP1 PUSH4 0x91D14854 EQ PUSH2 0x1FB JUMPI PUSH2 0x109 JUMP JUMPDEST DUP1 PUSH4 0x1FFC9A7 EQ PUSH2 0x10D JUMPI DUP1 PUSH4 0x13119161 EQ PUSH2 0x13D JUMPI DUP1 PUSH4 0x248A9CA3 EQ PUSH2 0x15B JUMPI DUP1 PUSH4 0x2F2FF15D EQ PUSH2 0x18B JUMPI JUMPDEST PUSH0 DUP1 REVERT JUMPDEST PUSH2 0x127 PUSH1 0x4 DUP1 CALLDATASIZE SUB DUP2 ADD SWAP1 PUSH2 0x122 SWAP2 SWAP1 PUSH2 0x1209 JUMP JUMPDEST PUSH2 0x344 JUMP JUMPDEST PUSH1 0x40 MLOAD PUSH2 0x134 SWAP2 SWAP1 PUSH2 0x124E JUMP JUMPDEST PUSH1 0x40 MLOAD DUP1 SWAP2 SUB SWAP1 RETURN JUMPDEST PUSH2 0x145 PUSH2 0x3BD JUMP JUMPDEST PUSH1 0x40 MLOAD PUSH2 0x152 SWAP2 SWAP1 PUSH2 0x127F JUMP JUMPDEST PUSH1 0x40 MLOAD DUP1 SWAP2 SUB SWAP1 RETURN JUMPDEST PUSH2 0x175 PUSH1 0x4 DUP1 CALLDATASIZE SUB DUP2 ADD SWAP1 PUSH2 0x170 SWAP2 SWAP1 PUSH2 0x12C2 JUMP JUMPDEST PUSH2 0x3E1 JUMP JUMPDEST PUSH1 0x40 MLOAD PUSH2 0x182 SWAP2 SWAP1 PUSH2 0x127F JUMP JUMPDEST PUSH1 0x40 MLOAD DUP1 SWAP2 SUB SWAP1 RETURN JUMPDEST PUSH2 0x1A5 PUSH1 0x4 DUP1 CALLDATASIZE SUB DUP2 ADD SWAP1 PUSH2 0x1A0 SWAP2 SWAP1 PUSH2 0x1347 JUMP JUMPDEST PUSH2 0x3FD JUMP JUMPDEST STOP JUMPDEST PUSH2 0x1C1 PUSH1 0x4 DUP1 CALLDATASIZE SUB DUP2 ADD SWAP1 PUSH2 0x1BC SWAP2 SWAP1 PUSH2 0x1347 JUMP JUMPDEST PUSH2 0x41F JUMP JUMPDEST STOP JUMPDEST PUSH2 0x1DD PUSH1 0x4 DUP1 CALLDATASIZE SUB DUP2 ADD SWAP1 PUSH2 0x1D8 SWAP2 SWAP1 PUSH2 0x1385 JUMP JUMPDEST PUSH2 0x49A JUMP JUMPDEST STOP JUMPDEST PUSH2 0x1F9 PUSH1 0x4 DUP1 CALLDATASIZE SUB DUP2 ADD SWAP1 PUSH2 0x1F4 SWAP2 SWAP1 PUSH2 0x1385 JUMP JUMPDEST PUSH2 0x51C JUMP JUMPDEST STOP JUMPDEST PUSH2 0x215 PUSH1 0x4 DUP1 CALLDATASIZE SUB DUP2 ADD SWAP1 PUSH2 0x210 SWAP2 SWAP1 PUSH2 0x1347 JUMP JUMPDEST PUSH2 0x574 JUMP JUMPDEST PUSH1 0x40 MLOAD PUSH2 0x222 SWAP2 SWAP1 PUSH2 0x124E JUMP JUMPDEST PUSH1 0x40 MLOAD DUP1 SWAP2 SUB SWAP1 RETURN JUMPDEST PUSH2 0x233 PUSH2 0x5D7 JUMP JUMPDEST PUSH1 0x40 MLOAD PUSH2 0x240 SWAP2 SWAP1 PUSH2 0x127F JUMP JUMPDEST PUSH1 0x40 MLOAD DUP1 SWAP2 SUB SWAP1 RETURN JUMPDEST PUSH2 0x251 PUSH2 0x5FB JUMP JUMPDEST PUSH1 0x40 MLOAD PUSH2 0x25E SWAP2 SWAP1 PUSH2 0x127F JUMP JUMPDEST PUSH1 0x40 MLOAD DUP1 SWAP2 SUB SWAP1 RETURN JUMPDEST PUSH2 0x281 PUSH1 0x4 DUP1 CALLDATASIZE SUB DUP2 ADD SWAP1 PUSH2 0x27C SWAP2 SWAP1 PUSH2 0x14EC JUMP JUMPDEST PUSH2 0x601 JUMP JUMPDEST STOP JUMPDEST PUSH2 0x29D PUSH1 0x4 DUP1 CALLDATASIZE SUB DUP2 ADD SWAP1 PUSH2 0x298 SWAP2 SWAP1 PUSH2 0x1546 JUMP JUMPDEST PUSH2 0x7AB JUMP JUMPDEST STOP JUMPDEST PUSH2 0x2B9 PUSH1 0x4 DUP1 CALLDATASIZE SUB DUP2 ADD SWAP1 PUSH2 0x2B4 SWAP2 SWAP1 PUSH2 0x1347 JUMP JUMPDEST PUSH2 0x8C4 JUMP JUMPDEST STOP JUMPDEST PUSH2 0x2D5 PUSH1 0x4 DUP1 CALLDATASIZE SUB DUP2 ADD SWAP1 PUSH2 0x2D0 SWAP2 SWAP1 PUSH2 0x15BC JUMP JUMPDEST PUSH2 0x8E6 JUMP JUMPDEST STOP JUMPDEST PUSH2 0x2DF PUSH2 0xB08 JUMP JUMPDEST PUSH1 0x40 MLOAD PUSH2 0x2EC SWAP2 SWAP1 PUSH2 0x127F JUMP JUMPDEST PUSH1 0x40 MLOAD DUP1 SWAP2 SUB SWAP1 RETURN JUMPDEST PUSH2 0x30F PUSH1 0x4 DUP1 CALLDATASIZE SUB DUP2 ADD SWAP1 PUSH2 0x30A SWAP2 SWAP1 PUSH2 0x16A3 JUMP JUMPDEST PUSH2 0xB2C JUMP JUMPDEST STOP JUMPDEST PUSH2 0x32B PUSH1 0x4 DUP1 CALLDATASIZE SUB DUP2 ADD SWAP1 PUSH2 0x326 SWAP2 SWAP1 PUSH2 0x1747 JUMP JUMPDEST PUSH2 0xC78 JUMP JUMPDEST PUSH1 0x40 MLOAD PUSH2 0x33B SWAP5 SWAP4 SWAP3 SWAP2 SWAP1 PUSH2 0x17FD JUMP JUMPDEST PUSH1 0x40 MLOAD DUP1 SWAP2 SUB SWAP1 RETURN JUMPDEST PUSH0 PUSH32 0x7965DB0B00000000000000000000000000000000000000000000000000000000 PUSH28 0xFFFFFFFFFFFFFFFFFFFFFFFFFFFFFFFFFFFFFFFFFFFFFFFFFFFFFFFF NOT AND DUP3 PUSH28 0xFFFFFFFFFFFFFFFFFFFFFFFFFFFFFFFFFFFFFFFFFFFFFFFFFFFFFFFF NOT AND EQ DUP1 PUSH2 0x3B6 JUMPI POP PUSH2 0x3B5 DUP3 PUSH2 0xEFC JUMP JUMPDEST JUMPDEST SWAP1 POP SWAP2 SWAP1 POP JUMP JUMPDEST PUSH32 0x14823911F2DA1B49F045A0929A60B8C1F2A7FC8C06C7284CA3E8AB4E193A08C8 DUP2 JUMP JUMPDEST PUSH0 DUP1 PUSH0 DUP4 DUP2 MSTORE PUSH1 0x20 ADD SWAP1 DUP2 MSTORE PUSH1 0x20 ADD PUSH0 KECCAK256 PUSH1 0x1 ADD SLOAD SWAP1 POP SWAP2 SWAP1 POP JUMP JUMPDEST PUSH2 0x406 DUP3 PUSH2 0x3E1 JUMP JUMPDEST PUSH2 0x40F DUP2 PUSH2 0xF65 JUMP JUMPDEST PUSH2 0x419 DUP4 DUP4 PUSH2 0xF79 JUMP JUMPDEST POP POP POP POP JUMP JUMPDEST PUSH2 0x427 PUSH2 0x1062 JUMP JUMPDEST PUSH20 0xFFFFFFFFFFFFFFFFFFFFFFFFFFFFFFFFFFFFFFFF AND DUP2 PUSH20 0xFFFFFFFFFFFFFFFFFFFFFFFFFFFFFFFFFFFFFFFF AND EQ PUSH2 0x48B JUMPI PUSH1 0x40 MLOAD PUSH32 0x6697B23200000000000000000000000000000000000000000000000000000000 DUP2 MSTORE PUSH1 0x4 ADD PUSH1 0x40 MLOAD DUP1 SWAP2 SUB SWAP1 REVERT JUMPDEST PUSH2 0x495 DUP3 DUP3 PUSH2 0x1069 JUMP JUMPDEST POP POP POP JUMP JUMPDEST PUSH32 0x1B0A231506479DB2482C2292B1C6A04EE5D0AB623A9347DD702500688937AB61 PUSH2 0x4C4 DUP2 PUSH2 0xF65 JUMP JUMPDEST PUSH2 0x4EE PUSH32 0x1B0A231506479DB2482C2292B1C6A04EE5D0AB623A9347DD702500688937AB61 DUP4 PUSH2 0x3FD JUMP JUMPDEST PUSH2 0x518 PUSH32 0x1B0A231506479DB2482C2292B1C6A04EE5D0AB623A9347DD702500688937AB61 CALLER PUSH2 0x8C4 JUMP JUMPDEST POP POP JUMP JUMPDEST PUSH32 0x1B0A231506479DB2482C2292B1C6A04EE5D0AB623A9347DD702500688937AB61 PUSH2 0x546 DUP2 PUSH2 0xF65 JUMP JUMPDEST PUSH2 0x570 PUSH32 0xCE23C3E399818CFEE81A7AB0880F714E53D7672B08DF0FA62F2843416E1EA09 DUP4 PUSH2 0x3FD JUMP JUMPDEST POP POP JUMP JUMPDEST PUSH0 DUP1 PUSH0 DUP5 DUP2 MSTORE PUSH1 0x20 ADD SWAP1 DUP2 MSTORE PUSH1 0x20 ADD PUSH0 KECCAK256 PUSH0 ADD PUSH0 DUP4 PUSH20 0xFFFFFFFFFFFFFFFFFFFFFFFFFFFFFFFFFFFFFFFF AND PUSH20 0xFFFFFFFFFFFFFFFFFFFFFFFFFFFFFFFFFFFFFFFF AND DUP2 MSTORE PUSH1 0x20 ADD SWAP1 DUP2 MSTORE PUSH1 0x20 ADD PUSH0 KECCAK256 PUSH0 SWAP1 SLOAD SWAP1 PUSH2 0x100 EXP SWAP1 DIV PUSH1 0xFF AND SWAP1 POP SWAP3 SWAP2 POP POP JUMP JUMPDEST PUSH32 0x1B0A231506479DB2482C2292B1C6A04EE5D0AB623A9347DD702500688937AB61 DUP2 JUMP JUMPDEST PUSH0 DUP1 SHL DUP2 JUMP JUMPDEST PUSH32 0x1B0A231506479DB2482C2292B1C6A04EE5D0AB623A9347DD702500688937AB61 PUSH2 0x62B DUP2 PUSH2 0xF65 JUMP JUMPDEST PUSH0 PUSH20 0xFFFFFFFFFFFFFFFFFFFFFFFFFFFFFFFFFFFFFFFF AND PUSH1 0x1 DUP5 PUSH1 0x40 MLOAD PUSH2 0x652 SWAP2 SWAP1 PUSH2 0x188F JUMP JUMPDEST SWAP1 DUP2 MSTORE PUSH1 0x20 ADD PUSH1 0x40 MLOAD DUP1 SWAP2 SUB SWAP1 KECCAK256 PUSH1 0x3 ADD PUSH0 SWAP1 SLOAD SWAP1 PUSH2 0x100 EXP SWAP1 DIV PUSH20 0xFFFFFFFFFFFFFFFFFFFFFFFFFFFFFFFFFFFFFFFF AND PUSH20 0xFFFFFFFFFFFFFFFFFFFFFFFFFFFFFFFFFFFFFFFF AND SUB PUSH2 0x6D9 JUMPI PUSH1 0x40 MLOAD PUSH32 0x8C379A000000000000000000000000000000000000000000000000000000000 DUP2 MSTORE PUSH1 0x4 ADD PUSH2 0x6D0 SWAP1 PUSH2 0x18EF JUMP JUMPDEST PUSH1 0x40 MLOAD DUP1 SWAP2 SUB SWAP1 REVERT JUMPDEST PUSH0 PUSH20 0xFFFFFFFFFFFFFFFFFFFFFFFFFFFFFFFFFFFFFFFF AND DUP3 PUSH20 0xFFFFFFFFFFFFFFFFFFFFFFFFFFFFFFFFFFFFFFFF AND SUB PUSH2 0x747 JUMPI PUSH1 0x40 MLOAD PUSH32 0x8C379A000000000000000000000000000000000000000000000000000000000 DUP2 MSTORE PUSH1 0x4 ADD PUSH2 0x73E SWAP1 PUSH2 0x1957 JUMP JUMPDEST PUSH1 0x40 MLOAD DUP1 SWAP2 SUB SWAP1 REVERT JUMPDEST DUP2 PUSH1 0x1 DUP5 PUSH1 0x40 MLOAD PUSH2 0x758 SWAP2 SWAP1 PUSH2 0x188F JUMP JUMPDEST SWAP1 DUP2 MSTORE PUSH1 0x20 ADD PUSH1 0x40 MLOAD DUP1 SWAP2 SUB SWAP1 KECCAK256 PUSH1 0x3 ADD PUSH0 PUSH2 0x100 EXP DUP2 SLOAD DUP2 PUSH20 0xFFFFFFFFFFFFFFFFFFFFFFFFFFFFFFFFFFFFFFFF MUL NOT AND SWAP1 DUP4 PUSH20 0xFFFFFFFFFFFFFFFFFFFFFFFFFFFFFFFFFFFFFFFF AND MUL OR SWAP1 SSTORE POP POP POP POP JUMP JUMPDEST CALLER PUSH20 0xFFFFFFFFFFFFFFFFFFFFFFFFFFFFFFFFFFFFFFFF AND PUSH1 0x1 DUP4 PUSH1 0x40 MLOAD PUSH2 0x7D2 SWAP2 SWAP1 PUSH2 0x188F JUMP JUMPDEST SWAP1 DUP2 MSTORE PUSH1 0x20 ADD PUSH1 0x40 MLOAD DUP1 SWAP2 SUB SWAP1 KECCAK256 PUSH1 0x3 ADD PUSH0 SWAP1 SLOAD SWAP1 PUSH2 0x100 EXP SWAP1 DIV PUSH20 0xFFFFFFFFFFFFFFFFFFFFFFFFFFFFFFFFFFFFFFFF AND PUSH20 0xFFFFFFFFFFFFFFFFFFFFFFFFFFFFFFFFFFFFFFFF AND EQ PUSH2 0x859 JUMPI PUSH1 0x40 MLOAD PUSH32 0x8C379A000000000000000000000000000000000000000000000000000000000 DUP2 MSTORE PUSH1 0x4 ADD PUSH2 0x850 SWAP1 PUSH2 0x19BF JUMP JUMPDEST PUSH1 0x40 MLOAD DUP1 SWAP2 SUB SWAP1 REVERT JUMPDEST DUP1 PUSH1 0x1 DUP4 PUSH1 0x40 MLOAD PUSH2 0x86A SWAP2 SWAP1 PUSH2 0x188F JUMP JUMPDEST SWAP1 DUP2 MSTORE PUSH1 0x20 ADD PUSH1 0x40 MLOAD DUP1 SWAP2 SUB SWAP1 KECCAK256 PUSH0 ADD SWAP1 DUP2 PUSH2 0x886 SWAP2 SWAP1 PUSH2 0x1BE0 JUMP JUMPDEST POP PUSH32 0xEF928790E3BA239E686D4C1E6E85A60D67DDF17A606292C714CA966A2720F268 DUP3 DUP3 PUSH1 0x40 MLOAD PUSH2 0x8B8 SWAP3 SWAP2 SWAP1 PUSH2 0x1CAF JUMP JUMPDEST PUSH1 0x40 MLOAD DUP1 SWAP2 SUB SWAP1 LOG1 POP POP JUMP JUMPDEST PUSH2 0x8CD DUP3 PUSH2 0x3E1 JUMP JUMPDEST PUSH2 0x8D6 DUP2 PUSH2 0xF65 JUMP JUMPDEST PUSH2 0x8E0 DUP4 DUP4 PUSH2 0x1069 JUMP JUMPDEST POP POP POP POP JUMP JUMPDEST PUSH32 0x1B0A231506479DB2482C2292B1C6A04EE5D0AB623A9347DD702500688937AB61 PUSH2 0x910 DUP2 PUSH2 0xF65 JUMP JUMPDEST PUSH0 PUSH20 0xFFFFFFFFFFFFFFFFFFFFFFFFFFFFFFFFFFFFFFFF AND PUSH1 0x1 DUP8 PUSH1 0x40 MLOAD PUSH2 0x937 SWAP2 SWAP1 PUSH2 0x188F JUMP JUMPDEST SWAP1 DUP2 MSTORE PUSH1 0x20 ADD PUSH1 0x40 MLOAD DUP1 SWAP2 SUB SWAP1 KECCAK256 PUSH1 0x3 ADD PUSH0 SWAP1 SLOAD SWAP1 PUSH2 0x100 EXP SWAP1 DIV PUSH20 0xFFFFFFFFFFFFFFFFFFFFFFFFFFFFFFFFFFFFFFFF AND PUSH20 0xFFFFFFFFFFFFFFFFFFFFFFFFFFFFFFFFFFFFFFFF AND EQ PUSH2 0x9BE JUMPI PUSH1 0x40 MLOAD PUSH32 0x8C379A000000000000000000000000000000000000000000000000000000000 DUP2 MSTORE PUSH1 0x4 ADD PUSH2 0x9B5 SWAP1 PUSH2 0x1D2E JUMP JUMPDEST PUSH1 0x40 MLOAD DUP1 SWAP2 SUB SWAP1 REVERT JUMPDEST PUSH1 0x40 MLOAD DUP1 PUSH1 0x80 ADD PUSH1 0x40 MSTORE DUP1 DUP7 DUP2 MSTORE PUSH1 0x20 ADD DUP6 DUP2 MSTORE PUSH1 0x20 ADD DUP5 DUP2 MSTORE PUSH1 0x20 ADD DUP4 PUSH20 0xFFFFFFFFFFFFFFFFFFFFFFFFFFFFFFFFFFFFFFFF AND DUP2 MSTORE POP PUSH1 0x1 DUP8 PUSH1 0x40 MLOAD PUSH2 0xA05 SWAP2 SWAP1 PUSH2 0x188F JUMP JUMPDEST SWAP1 DUP2 MSTORE PUSH1 0x20 ADD PUSH1 0x40 MLOAD DUP1 SWAP2 SUB SWAP1 KECCAK256 PUSH0 DUP3 ADD MLOAD DUP2 PUSH0 ADD SWAP1 DUP2 PUSH2 0xA26 SWAP2 SWAP1 PUSH2 0x1BE0 JUMP JUMPDEST POP PUSH1 0x20 DUP3 ADD MLOAD DUP2 PUSH1 0x1 ADD SWAP1 DUP2 PUSH2 0xA3C SWAP2 SWAP1 PUSH2 0x1BE0 JUMP JUMPDEST POP PUSH1 0x40 DUP3 ADD MLOAD DUP2 PUSH1 0x2 ADD SWAP1 DUP2 PUSH2 0xA52 SWAP2 SWAP1 PUSH2 0x1BE0 JUMP JUMPDEST POP PUSH1 0x60 DUP3 ADD MLOAD DUP2 PUSH1 0x3 ADD PUSH0 PUSH2 0x100 EXP DUP2 SLOAD DUP2 PUSH20 0xFFFFFFFFFFFFFFFFFFFFFFFFFFFFFFFFFFFFFFFF MUL NOT AND SWAP1 DUP4 PUSH20 0xFFFFFFFFFFFFFFFFFFFFFFFFFFFFFFFFFFFFFFFF AND MUL OR SWAP1 SSTORE POP SWAP1 POP POP PUSH2 0xAC6 PUSH32 0x14823911F2DA1B49F045A0929A60B8C1F2A7FC8C06C7284CA3E8AB4E193A08C8 DUP4 PUSH2 0xF79 JUMP JUMPDEST POP PUSH32 0x44CA9609D2FE597457041D7E98533A969452EF425C10A46D0DD9F074497EA1BA DUP7 DUP4 PUSH1 0x40 MLOAD PUSH2 0xAF8 SWAP3 SWAP2 SWAP1 PUSH2 0x1D4C JUMP JUMPDEST PUSH1 0x40 MLOAD DUP1 SWAP2 SUB SWAP1 LOG1 POP POP POP POP POP POP JUMP JUMPDEST PUSH32 0xCE23C3E399818CFEE81A7AB0880F714E53D7672B08DF0FA62F2843416E1EA09 DUP2 JUMP JUMPDEST CALLER PUSH20 0xFFFFFFFFFFFFFFFFFFFFFFFFFFFFFFFFFFFFFFFF AND PUSH1 0x1 DUP5 PUSH1 0x40 MLOAD PUSH2 0xB53 SWAP2 SWAP1 PUSH2 0x188F JUMP JUMPDEST SWAP1 DUP2 MSTORE PUSH1 0x20 ADD PUSH1 0x40 MLOAD DUP1 SWAP2 SUB SWAP1 KECCAK256 PUSH1 0x3 ADD PUSH0 SWAP1 SLOAD SWAP1 PUSH2 0x100 EXP SWAP1 DIV PUSH20 0xFFFFFFFFFFFFFFFFFFFFFFFFFFFFFFFFFFFFFFFF AND PUSH20 0xFFFFFFFFFFFFFFFFFFFFFFFFFFFFFFFFFFFFFFFF AND EQ PUSH2 0xBDA JUMPI PUSH1 0x40 MLOAD PUSH32 0x8C379A000000000000000000000000000000000000000000000000000000000 DUP2 MSTORE PUSH1 0x4 ADD PUSH2 0xBD1 SWAP1 PUSH2 0x19BF JUMP JUMPDEST PUSH1 0x40 MLOAD DUP1 SWAP2 SUB SWAP1 REVERT JUMPDEST DUP2 PUSH1 0x1 DUP5 PUSH1 0x40 MLOAD PUSH2 0xBEB SWAP2 SWAP1 PUSH2 0x188F JUMP JUMPDEST SWAP1 DUP2 MSTORE PUSH1 0x20 ADD PUSH1 0x40 MLOAD DUP1 SWAP2 SUB SWAP1 KECCAK256 PUSH1 0x1 ADD SWAP1 DUP2 PUSH2 0xC08 SWAP2 SWAP1 PUSH2 0x1BE0 JUMP JUMPDEST POP DUP1 PUSH1 0x1 DUP5 PUSH1 0x40 MLOAD PUSH2 0xC1A SWAP2 SWAP1 PUSH2 0x188F JUMP JUMPDEST SWAP1 DUP2 MSTORE PUSH1 0x20 ADD PUSH1 0x40 MLOAD DUP1 SWAP2 SUB SWAP1 KECCAK256 PUSH1 0x2 ADD SWAP1 DUP2 PUSH2 0xC37 SWAP2 SWAP1 PUSH2 0x1BE0 JUMP JUMPDEST POP PUSH32 0xFCDAD05CE3C89A367C74C08F373CF092AF7E367CDCDEECFD3A89BF55FA9D28E1 DUP4 DUP4 DUP4 PUSH1 0x40 MLOAD PUSH2 0xC6B SWAP4 SWAP3 SWAP2 SWAP1 PUSH2 0x1D7A JUMP JUMPDEST PUSH1 0x40 MLOAD DUP1 SWAP2 SUB SWAP1 LOG1 POP POP POP JUMP JUMPDEST PUSH1 0x60 DUP1 PUSH1 0x60 PUSH0 PUSH32 0xCE23C3E399818CFEE81A7AB0880F714E53D7672B08DF0FA62F2843416E1EA09 PUSH2 0xCA8 DUP2 PUSH2 0xF65 JUMP JUMPDEST PUSH0 PUSH1 0x1 DUP8 PUSH1 0x40 MLOAD PUSH2 0xCB9 SWAP2 SWAP1 PUSH2 0x188F JUMP JUMPDEST SWAP1 DUP2 MSTORE PUSH1 0x20 ADD PUSH1 0x40 MLOAD DUP1 SWAP2 SUB SWAP1 KECCAK256 PUSH1 0x40 MLOAD DUP1 PUSH1 0x80 ADD PUSH1 0x40 MSTORE SWAP1 DUP2 PUSH0 DUP3 ADD DUP1 SLOAD PUSH2 0xCE1 SWAP1 PUSH2 0x1A0A JUMP JUMPDEST DUP1 PUSH1 0x1F ADD PUSH1 0x20 DUP1 SWAP2 DIV MUL PUSH1 0x20 ADD PUSH1 0x40 MLOAD SWAP1 DUP2 ADD PUSH1 0x40 MSTORE DUP1 SWAP3 SWAP2 SWAP1 DUP2 DUP2 MSTORE PUSH1 0x20 ADD DUP3 DUP1 SLOAD PUSH2 0xD0D SWAP1 PUSH2 0x1A0A JUMP JUMPDEST DUP1 ISZERO PUSH2 0xD58 JUMPI DUP1 PUSH1 0x1F LT PUSH2 0xD2F JUMPI PUSH2 0x100 DUP1 DUP4 SLOAD DIV MUL DUP4 MSTORE SWAP2 PUSH1 0x20 ADD SWAP2 PUSH2 0xD58 JUMP JUMPDEST DUP3 ADD SWAP2 SWAP1 PUSH0 MSTORE PUSH1 0x20 PUSH0 KECCAK256 SWAP1 JUMPDEST DUP2 SLOAD DUP2 MSTORE SWAP1 PUSH1 0x1 ADD SWAP1 PUSH1 0x20 ADD DUP1 DUP4 GT PUSH2 0xD3B JUMPI DUP3 SWAP1 SUB PUSH1 0x1F AND DUP3 ADD SWAP2 JUMPDEST POP POP POP POP POP DUP2 MSTORE PUSH1 0x20 ADD PUSH1 0x1 DUP3 ADD DUP1 SLOAD PUSH2 0xD71 SWAP1 PUSH2 0x1A0A JUMP JUMPDEST DUP1 PUSH1 0x1F ADD PUSH1 0x20 DUP1 SWAP2 DIV MUL PUSH1 0x20 ADD PUSH1 0x40 MLOAD SWAP1 DUP2 ADD PUSH1 0x40 MSTORE DUP1 SWAP3 SWAP2 SWAP1 DUP2 DUP2 MSTORE PUSH1 0x20 ADD DUP3 DUP1 SLOAD PUSH2 0xD9D SWAP1 PUSH2 0x1A0A JUMP JUMPDEST DUP1 ISZERO PUSH2 0xDE8 JUMPI DUP1 PUSH1 0x1F LT PUSH2 0xDBF JUMPI PUSH2 0x100 DUP1 DUP4 SLOAD DIV MUL DUP4 MSTORE SWAP2 PUSH1 0x20 ADD SWAP2 PUSH2 0xDE8 JUMP JUMPDEST DUP3 ADD SWAP2 SWAP1 PUSH0 MSTORE PUSH1 0x20 PUSH0 KECCAK256 SWAP1 JUMPDEST DUP2 SLOAD DUP2 MSTORE SWAP1 PUSH1 0x1 ADD SWAP1 PUSH1 0x20 ADD DUP1 DUP4 GT PUSH2 0xDCB JUMPI DUP3 SWAP1 SUB PUSH1 0x1F AND DUP3 ADD SWAP2 JUMPDEST POP POP POP POP POP DUP2 MSTORE PUSH1 0x20 ADD PUSH1 0x2 DUP3 ADD DUP1 SLOAD PUSH2 0xE01 SWAP1 PUSH2 0x1A0A JUMP JUMPDEST DUP1 PUSH1 0x1F ADD PUSH1 0x20 DUP1 SWAP2 DIV MUL PUSH1 0x20 ADD PUSH1 0x40 MLOAD SWAP1 DUP2 ADD PUSH1 0x40 MSTORE DUP1 SWAP3 SWAP2 SWAP1 DUP2 DUP2 MSTORE PUSH1 0x20 ADD DUP3 DUP1 SLOAD PUSH2 0xE2D SWAP1 PUSH2 0x1A0A JUMP JUMPDEST DUP1 ISZERO PUSH2 0xE78 JUMPI DUP1 PUSH1 0x1F LT PUSH2 0xE4F JUMPI PUSH2 0x100 DUP1 DUP4 SLOAD DIV MUL DUP4 MSTORE SWAP2 PUSH1 0x20 ADD SWAP2 PUSH2 0xE78 JUMP JUMPDEST DUP3 ADD SWAP2 SWAP1 PUSH0 MSTORE PUSH1 0x20 PUSH0 KECCAK256 SWAP1 JUMPDEST DUP2 SLOAD DUP2 MSTORE SWAP1 PUSH1 0x1 ADD SWAP1 PUSH1 0x20 ADD DUP1 DUP4 GT PUSH2 0xE5B JUMPI DUP3 SWAP1 SUB PUSH1 0x1F AND DUP3 ADD SWAP2 JUMPDEST POP POP POP POP POP DUP2 MSTORE PUSH1 0x20 ADD PUSH1 0x3 DUP3 ADD PUSH0 SWAP1 SLOAD SWAP1 PUSH2 0x100 EXP SWAP1 DIV PUSH20 0xFFFFFFFFFFFFFFFFFFFFFFFFFFFFFFFFFFFFFFFF AND PUSH20 0xFFFFFFFFFFFFFFFFFFFFFFFFFFFFFFFFFFFFFFFF AND PUSH20 0xFFFFFFFFFFFFFFFFFFFFFFFFFFFFFFFFFFFFFFFF AND DUP2 MSTORE POP POP SWAP1 POP DUP1 PUSH0 ADD MLOAD DUP2 PUSH1 0x20 ADD MLOAD DUP3 PUSH1 0x40 ADD MLOAD DUP4 PUSH1 0x60 ADD MLOAD SWAP6 POP SWAP6 POP SWAP6 POP SWAP6 POP POP POP SWAP2 SWAP4 POP SWAP2 SWAP4 JUMP JUMPDEST PUSH0 PUSH32 0x1FFC9A700000000000000000000000000000000000000000000000000000000 PUSH28 0xFFFFFFFFFFFFFFFFFFFFFFFFFFFFFFFFFFFFFFFFFFFFFFFFFFFFFFFF NOT AND DUP3 PUSH28 0xFFFFFFFFFFFFFFFFFFFFFFFFFFFFFFFFFFFFFFFFFFFFFFFFFFFFFFFF NOT AND EQ SWAP1 POP SWAP2 SWAP1 POP JUMP JUMPDEST PUSH2 0xF76 DUP2 PUSH2 0xF71 PUSH2 0x1062 JUMP JUMPDEST PUSH2 0x1152 JUMP JUMPDEST POP JUMP JUMPDEST PUSH0 PUSH2 0xF84 DUP4 DUP4 PUSH2 0x574 JUMP JUMPDEST PUSH2 0x1058 JUMPI PUSH1 0x1 PUSH0 DUP1 DUP6 DUP2 MSTORE PUSH1 0x20 ADD SWAP1 DUP2 MSTORE PUSH1 0x20 ADD PUSH0 KECCAK256 PUSH0 ADD PUSH0 DUP5 PUSH20 0xFFFFFFFFFFFFFFFFFFFFFFFFFFFFFFFFFFFFFFFF AND PUSH20 0xFFFFFFFFFFFFFFFFFFFFFFFFFFFFFFFFFFFFFFFF AND DUP2 MSTORE PUSH1 0x20 ADD SWAP1 DUP2 MSTORE PUSH1 0x20 ADD PUSH0 KECCAK256 PUSH0 PUSH2 0x100 EXP DUP2 SLOAD DUP2 PUSH1 0xFF MUL NOT AND SWAP1 DUP4 ISZERO ISZERO MUL OR SWAP1 SSTORE POP PUSH2 0xFF5 PUSH2 0x1062 JUMP JUMPDEST PUSH20 0xFFFFFFFFFFFFFFFFFFFFFFFFFFFFFFFFFFFFFFFF AND DUP3 PUSH20 0xFFFFFFFFFFFFFFFFFFFFFFFFFFFFFFFFFFFFFFFF AND DUP5 PUSH32 0x2F8788117E7EFF1D82E926EC794901D17C78024A50270940304540A733656F0D PUSH1 0x40 MLOAD PUSH1 0x40 MLOAD DUP1 SWAP2 SUB SWAP1 LOG4 PUSH1 0x1 SWAP1 POP PUSH2 0x105C JUMP JUMPDEST PUSH0 SWAP1 POP JUMPDEST SWAP3 SWAP2 POP POP JUMP JUMPDEST PUSH0 CALLER SWAP1 POP SWAP1 JUMP JUMPDEST PUSH0 PUSH2 0x1074 DUP4 DUP4 PUSH2 0x574 JUMP JUMPDEST ISZERO PUSH2 0x1148 JUMPI PUSH0 DUP1 PUSH0 DUP6 DUP2 MSTORE PUSH1 0x20 ADD SWAP1 DUP2 MSTORE PUSH1 0x20 ADD PUSH0 KECCAK256 PUSH0 ADD PUSH0 DUP5 PUSH20 0xFFFFFFFFFFFFFFFFFFFFFFFFFFFFFFFFFFFFFFFF AND PUSH20 0xFFFFFFFFFFFFFFFFFFFFFFFFFFFFFFFFFFFFFFFF AND DUP2 MSTORE PUSH1 0x20 ADD SWAP1 DUP2 MSTORE PUSH1 0x20 ADD PUSH0 KECCAK256 PUSH0 PUSH2 0x100 EXP DUP2 SLOAD DUP2 PUSH1 0xFF MUL NOT AND SWAP1 DUP4 ISZERO ISZERO MUL OR SWAP1 SSTORE POP PUSH2 0x10E5 PUSH2 0x1062 JUMP JUMPDEST PUSH20 0xFFFFFFFFFFFFFFFFFFFFFFFFFFFFFFFFFFFFFFFF AND DUP3 PUSH20 0xFFFFFFFFFFFFFFFFFFFFFFFFFFFFFFFFFFFFFFFF AND DUP5 PUSH32 0xF6391F5C32D9C69D2A47EA670B442974B53935D1EDC7FD64EB21E047A839171B PUSH1 0x40 MLOAD PUSH1 0x40 MLOAD DUP1 SWAP2 SUB SWAP1 LOG4 PUSH1 0x1 SWAP1 POP PUSH2 0x114C JUMP JUMPDEST PUSH0 SWAP1 POP JUMPDEST SWAP3 SWAP2 POP POP JUMP JUMPDEST PUSH2 0x115C DUP3 DUP3 PUSH2 0x574 JUMP JUMPDEST PUSH2 0x119F JUMPI DUP1 DUP3 PUSH1 0x40 MLOAD PUSH32 0xE2517D3F00000000000000000000000000000000000000000000000000000000 DUP2 MSTORE PUSH1 0x4 ADD PUSH2 0x1196 SWAP3 SWAP2 SWAP1 PUSH2 0x1DC4 JUMP JUMPDEST PUSH1 0x40 MLOAD DUP1 SWAP2 SUB SWAP1 REVERT JUMPDEST POP POP JUMP JUMPDEST PUSH0 PUSH1 0x40 MLOAD SWAP1 POP SWAP1 JUMP JUMPDEST PUSH0 DUP1 REVERT JUMPDEST PUSH0 DUP1 REVERT JUMPDEST PUSH0 PUSH32 0xFFFFFFFF00000000000000000000000000000000000000000000000000000000 DUP3 AND SWAP1 POP SWAP2 SWAP1 POP JUMP JUMPDEST PUSH2 0x11E8 DUP2 PUSH2 0x11B4 JUMP JUMPDEST DUP2 EQ PUSH2 0x11F2 JUMPI PUSH0 DUP1 REVERT JUMPDEST POP JUMP JUMPDEST PUSH0 DUP2 CALLDATALOAD SWAP1 POP PUSH2 0x1203 DUP2 PUSH2 0x11DF JUMP JUMPDEST SWAP3 SWAP2 POP POP JUMP JUMPDEST PUSH0 PUSH1 0x20 DUP3 DUP5 SUB SLT ISZERO PUSH2 0x121E JUMPI PUSH2 0x121D PUSH2 0x11AC JUMP JUMPDEST JUMPDEST PUSH0 PUSH2 0x122B DUP5 DUP3 DUP6 ADD PUSH2 0x11F5 JUMP JUMPDEST SWAP2 POP POP SWAP3 SWAP2 POP POP JUMP JUMPDEST PUSH0 DUP2 ISZERO ISZERO SWAP1 POP SWAP2 SWAP1 POP JUMP JUMPDEST PUSH2 0x1248 DUP2 PUSH2 0x1234 JUMP JUMPDEST DUP3 MSTORE POP POP JUMP JUMPDEST PUSH0 PUSH1 0x20 DUP3 ADD SWAP1 POP PUSH2 0x1261 PUSH0 DUP4 ADD DUP5 PUSH2 0x123F JUMP JUMPDEST SWAP3 SWAP2 POP POP JUMP JUMPDEST PUSH0 DUP2 SWAP1 POP SWAP2 SWAP1 POP JUMP JUMPDEST PUSH2 0x1279 DUP2 PUSH2 0x1267 JUMP JUMPDEST DUP3 MSTORE POP POP JUMP JUMPDEST PUSH0 PUSH1 0x20 DUP3 ADD SWAP1 POP PUSH2 0x1292 PUSH0 DUP4 ADD DUP5 PUSH2 0x1270 JUMP JUMPDEST SWAP3 SWAP2 POP POP JUMP JUMPDEST PUSH2 0x12A1 DUP2 PUSH2 0x1267 JUMP JUMPDEST DUP2 EQ PUSH2 0x12AB JUMPI PUSH0 DUP1 REVERT JUMPDEST POP JUMP JUMPDEST PUSH0 DUP2 CALLDATALOAD SWAP1 POP PUSH2 0x12BC DUP2 PUSH2 0x1298 JUMP JUMPDEST SWAP3 SWAP2 POP POP JUMP JUMPDEST PUSH0 PUSH1 0x20 DUP3 DUP5 SUB SLT ISZERO PUSH2 0x12D7 JUMPI PUSH2 0x12D6 PUSH2 0x11AC JUMP JUMPDEST JUMPDEST PUSH0 PUSH2 0x12E4 DUP5 DUP3 DUP6 ADD PUSH2 0x12AE JUMP JUMPDEST SWAP2 POP POP SWAP3 SWAP2 POP POP JUMP JUMPDEST PUSH0 PUSH20 0xFFFFFFFFFFFFFFFFFFFFFFFFFFFFFFFFFFFFFFFF DUP3 AND SWAP1 POP SWAP2 SWAP1 POP JUMP JUMPDEST PUSH0 PUSH2 0x1316 DUP3 PUSH2 0x12ED JUMP JUMPDEST SWAP1 POP SWAP2 SWAP1 POP JUMP JUMPDEST PUSH2 0x1326 DUP2 PUSH2 0x130C JUMP JUMPDEST DUP2 EQ PUSH2 0x1330 JUMPI PUSH0 DUP1 REVERT JUMPDEST POP JUMP JUMPDEST PUSH0 DUP2 CALLDATALOAD SWAP1 POP PUSH2 0x1341 DUP2 PUSH2 0x131D JUMP JUMPDEST SWAP3 SWAP2 POP POP JUMP JUMPDEST PUSH0 DUP1 PUSH1 0x40 DUP4 DUP6 SUB SLT ISZERO PUSH2 0x135D JUMPI PUSH2 0x135C PUSH2 0x11AC JUMP JUMPDEST JUMPDEST PUSH0 PUSH2 0x136A DUP6 DUP3 DUP7 ADD PUSH2 0x12AE JUMP JUMPDEST SWAP3 POP POP PUSH1 0x20 PUSH2 0x137B DUP6 DUP3 DUP7 ADD PUSH2 0x1333 JUMP JUMPDEST SWAP2 POP POP SWAP3 POP SWAP3 SWAP1 POP JUMP JUMPDEST PUSH0 PUSH1 0x20 DUP3 DUP5 SUB SLT ISZERO PUSH2 0x139A JUMPI PUSH2 0x1399 PUSH2 0x11AC JUMP JUMPDEST JUMPDEST PUSH0 PUSH2 0x13A7 DUP5 DUP3 DUP6 ADD PUSH2 0x1333 JUMP JUMPDEST SWAP2 POP POP SWAP3 SWAP2 POP POP JUMP JUMPDEST PUSH0 DUP1 REVERT JUMPDEST PUSH0 DUP1 REVERT JUMPDEST PUSH0 PUSH1 0x1F NOT PUSH1 0x1F DUP4 ADD AND SWAP1 POP SWAP2 SWAP1 POP JUMP JUMPDEST PUSH32 0x4E487B7100000000000000000000000000000000000000000000000000000000 PUSH0 MSTORE PUSH1 0x41 PUSH1 0x4 MSTORE PUSH1 0x24 PUSH0 REVERT JUMPDEST PUSH2 0x13FE DUP3 PUSH2 0x13B8 JUMP JUMPDEST DUP2 ADD DUP2 DUP2 LT PUSH8 0xFFFFFFFFFFFFFFFF DUP3 GT OR ISZERO PUSH2 0x141D JUMPI PUSH2 0x141C PUSH2 0x13C8 JUMP JUMPDEST JUMPDEST DUP1 PUSH1 0x40 MSTORE POP POP POP JUMP JUMPDEST PUSH0 PUSH2 0x142F PUSH2 0x11A3 JUMP JUMPDEST SWAP1 POP PUSH2 0x143B DUP3 DUP3 PUSH2 0x13F5 JUMP JUMPDEST SWAP2 SWAP1 POP JUMP JUMPDEST PUSH0 PUSH8 0xFFFFFFFFFFFFFFFF DUP3 GT ISZERO PUSH2 0x145A JUMPI PUSH2 0x1459 PUSH2 0x13C8 JUMP JUMPDEST JUMPDEST PUSH2 0x1463 DUP3 PUSH2 0x13B8 JUMP JUMPDEST SWAP1 POP PUSH1 0x20 DUP2 ADD SWAP1 POP SWAP2 SWAP1 POP JUMP JUMPDEST DUP3 DUP2 DUP4 CALLDATACOPY PUSH0 DUP4 DUP4 ADD MSTORE POP POP POP JUMP JUMPDEST PUSH0 PUSH2 0x1490 PUSH2 0x148B DUP5 PUSH2 0x1440 JUMP JUMPDEST PUSH2 0x1426 JUMP JUMPDEST SWAP1 POP DUP3 DUP2 MSTORE PUSH1 0x20 DUP2 ADD DUP5 DUP5 DUP5 ADD GT ISZERO PUSH2 0x14AC JUMPI PUSH2 0x14AB PUSH2 0x13B4 JUMP JUMPDEST JUMPDEST PUSH2 0x14B7 DUP5 DUP3 DUP6 PUSH2 0x1470 JUMP JUMPDEST POP SWAP4 SWAP3 POP POP POP JUMP JUMPDEST PUSH0 DUP3 PUSH1 0x1F DUP4 ADD SLT PUSH2 0x14D3 JUMPI PUSH2 0x14D2 PUSH2 0x13B0 JUMP JUMPDEST JUMPDEST DUP2 CALLDATALOAD PUSH2 0x14E3 DUP5 DUP3 PUSH1 0x20 DUP7 ADD PUSH2 0x147E JUMP JUMPDEST SWAP2 POP POP SWAP3 SWAP2 POP POP JUMP JUMPDEST PUSH0 DUP1 PUSH1 0x40 DUP4 DUP6 SUB SLT ISZERO PUSH2 0x1502 JUMPI PUSH2 0x1501 PUSH2 0x11AC JUMP JUMPDEST JUMPDEST PUSH0 DUP4 ADD CALLDATALOAD PUSH8 0xFFFFFFFFFFFFFFFF DUP2 GT ISZERO PUSH2 0x151F JUMPI PUSH2 0x151E PUSH2 0x11B0 JUMP JUMPDEST JUMPDEST PUSH2 0x152B DUP6 DUP3 DUP7 ADD PUSH2 0x14BF JUMP JUMPDEST SWAP3 POP POP PUSH1 0x20 PUSH2 0x153C DUP6 DUP3 DUP7 ADD PUSH2 0x1333 JUMP JUMPDEST SWAP2 POP POP SWAP3 POP SWAP3 SWAP1 POP JUMP JUMPDEST PUSH0 DUP1 PUSH1 0x40 DUP4 DUP6 SUB SLT ISZERO PUSH2 0x155C JUMPI PUSH2 0x155B PUSH2 0x11AC JUMP JUMPDEST JUMPDEST PUSH0 DUP4 ADD CALLDATALOAD PUSH8 0xFFFFFFFFFFFFFFFF DUP2 GT ISZERO PUSH2 0x1579 JUMPI PUSH2 0x1578 PUSH2 0x11B0 JUMP JUMPDEST JUMPDEST PUSH2 0x1585 DUP6 DUP3 DUP7 ADD PUSH2 0x14BF JUMP JUMPDEST SWAP3 POP POP PUSH1 0x20 DUP4 ADD CALLDATALOAD PUSH8 0xFFFFFFFFFFFFFFFF DUP2 GT ISZERO PUSH2 0x15A6 JUMPI PUSH2 0x15A5 PUSH2 0x11B0 JUMP JUMPDEST JUMPDEST PUSH2 0x15B2 DUP6 DUP3 DUP7 ADD PUSH2 0x14BF JUMP JUMPDEST SWAP2 POP POP SWAP3 POP SWAP3 SWAP1 POP JUMP JUMPDEST PUSH0 DUP1 PUSH0 DUP1 PUSH0 PUSH1 0xA0 DUP7 DUP9 SUB SLT ISZERO PUSH2 0x15D5 JUMPI PUSH2 0x15D4 PUSH2 0x11AC JUMP JUMPDEST JUMPDEST PUSH0 DUP7 ADD CALLDATALOAD PUSH8 0xFFFFFFFFFFFFFFFF DUP2 GT ISZERO PUSH2 0x15F2 JUMPI PUSH2 0x15F1 PUSH2 0x11B0 JUMP JUMPDEST JUMPDEST PUSH2 0x15FE DUP9 DUP3 DUP10 ADD PUSH2 0x14BF JUMP JUMPDEST SWAP6 POP POP PUSH1 0x20 DUP7 ADD CALLDATALOAD PUSH8 0xFFFFFFFFFFFFFFFF DUP2 GT ISZERO PUSH2 0x161F JUMPI PUSH2 0x161E PUSH2 0x11B0 JUMP JUMPDEST JUMPDEST PUSH2 0x162B DUP9 DUP3 DUP10 ADD PUSH2 0x14BF JUMP JUMPDEST SWAP5 POP POP PUSH1 0x40 DUP7 ADD CALLDATALOAD PUSH8 0xFFFFFFFFFFFFFFFF DUP2 GT ISZERO PUSH2 0x164C JUMPI PUSH2 0x164B PUSH2 0x11B0 JUMP JUMPDEST JUMPDEST PUSH2 0x1658 DUP9 DUP3 DUP10 ADD PUSH2 0x14BF JUMP JUMPDEST SWAP4 POP POP PUSH1 0x60 DUP7 ADD CALLDATALOAD PUSH8 0xFFFFFFFFFFFFFFFF DUP2 GT ISZERO PUSH2 0x1679 JUMPI PUSH2 0x1678 PUSH2 0x11B0 JUMP JUMPDEST JUMPDEST PUSH2 0x1685 DUP9 DUP3 DUP10 ADD PUSH2 0x14BF JUMP JUMPDEST SWAP3 POP POP PUSH1 0x80 PUSH2 0x1696 DUP9 DUP3 DUP10 ADD PUSH2 0x1333 JUMP JUMPDEST SWAP2 POP POP SWAP3 SWAP6 POP SWAP3 SWAP6 SWAP1 SWAP4 POP JUMP JUMPDEST PUSH0 DUP1 PUSH0 PUSH1 0x60 DUP5 DUP7 SUB SLT ISZERO PUSH2 0x16BA JUMPI PUSH2 0x16B9 PUSH2 0x11AC JUMP JUMPDEST JUMPDEST PUSH0 DUP5 ADD CALLDATALOAD PUSH8 0xFFFFFFFFFFFFFFFF DUP2 GT ISZERO PUSH2 0x16D7 JUMPI PUSH2 0x16D6 PUSH2 0x11B0 JUMP JUMPDEST JUMPDEST PUSH2 0x16E3 DUP7 DUP3 DUP8 ADD PUSH2 0x14BF JUMP JUMPDEST SWAP4 POP POP PUSH1 0x20 DUP5 ADD CALLDATALOAD PUSH8 0xFFFFFFFFFFFFFFFF DUP2 GT ISZERO PUSH2 0x1704 JUMPI PUSH2 0x1703 PUSH2 0x11B0 JUMP JUMPDEST JUMPDEST PUSH2 0x1710 DUP7 DUP3 DUP8 ADD PUSH2 0x14BF JUMP JUMPDEST SWAP3 POP POP PUSH1 0x40 DUP5 ADD CALLDATALOAD PUSH8 0xFFFFFFFFFFFFFFFF DUP2 GT ISZERO PUSH2 0x1731 JUMPI PUSH2 0x1730 PUSH2 0x11B0 JUMP JUMPDEST JUMPDEST PUSH2 0x173D DUP7 DUP3 DUP8 ADD PUSH2 0x14BF JUMP JUMPDEST SWAP2 POP POP SWAP3 POP SWAP3 POP SWAP3 JUMP JUMPDEST PUSH0 PUSH1 0x20 DUP3 DUP5 SUB SLT ISZERO PUSH2 0x175C JUMPI PUSH2 0x175B PUSH2 0x11AC JUMP JUMPDEST JUMPDEST PUSH0 DUP3 ADD CALLDATALOAD PUSH8 0xFFFFFFFFFFFFFFFF DUP2 GT ISZERO PUSH2 0x1779 JUMPI PUSH2 0x1778 PUSH2 0x11B0 JUMP JUMPDEST JUMPDEST PUSH2 0x1785 DUP5 DUP3 DUP6 ADD PUSH2 0x14BF JUMP JUMPDEST SWAP2 POP POP SWAP3 SWAP2 POP POP JUMP JUMPDEST PUSH0 DUP2 MLOAD SWAP1 POP SWAP2 SWAP1 POP JUMP JUMPDEST PUSH0 DUP3 DUP3 MSTORE PUSH1 0x20 DUP3 ADD SWAP1 POP SWAP3 SWAP2 POP POP JUMP JUMPDEST DUP3 DUP2 DUP4 MCOPY PUSH0 DUP4 DUP4 ADD MSTORE POP POP POP JUMP JUMPDEST PUSH0 PUSH2 0x17C0 DUP3 PUSH2 0x178E JUMP JUMPDEST PUSH2 0x17CA DUP2 DUP6 PUSH2 0x1798 JUMP JUMPDEST SWAP4 POP PUSH2 0x17DA DUP2 DUP6 PUSH1 0x20 DUP7 ADD PUSH2 0x17A8 JUMP JUMPDEST PUSH2 0x17E3 DUP2 PUSH2 0x13B8 JUMP JUMPDEST DUP5 ADD SWAP2 POP POP SWAP3 SWAP2 POP POP JUMP JUMPDEST PUSH2 0x17F7 DUP2 PUSH2 0x130C JUMP JUMPDEST DUP3 MSTORE POP POP JUMP JUMPDEST PUSH0 PUSH1 0x80 DUP3 ADD SWAP1 POP DUP2 DUP2 SUB PUSH0 DUP4 ADD MSTORE PUSH2 0x1815 DUP2 DUP8 PUSH2 0x17B6 JUMP JUMPDEST SWAP1 POP DUP2 DUP2 SUB PUSH1 0x20 DUP4 ADD MSTORE PUSH2 0x1829 DUP2 DUP7 PUSH2 0x17B6 JUMP JUMPDEST SWAP1 POP DUP2 DUP2 SUB PUSH1 0x40 DUP4 ADD MSTORE PUSH2 0x183D DUP2 DUP6 PUSH2 0x17B6 JUMP JUMPDEST SWAP1 POP PUSH2 0x184C PUSH1 0x60 DUP4 ADD DUP5 PUSH2 0x17EE JUMP JUMPDEST SWAP6 SWAP5 POP POP POP POP POP JUMP JUMPDEST PUSH0 DUP2 SWAP1 POP SWAP3 SWAP2 POP POP JUMP JUMPDEST PUSH0 PUSH2 0x1869 DUP3 PUSH2 0x178E JUMP JUMPDEST PUSH2 0x1873 DUP2 DUP6 PUSH2 0x1855 JUMP JUMPDEST SWAP4 POP PUSH2 0x1883 DUP2 DUP6 PUSH1 0x20 DUP7 ADD PUSH2 0x17A8 JUMP JUMPDEST DUP1 DUP5 ADD SWAP2 POP POP SWAP3 SWAP2 POP POP JUMP JUMPDEST PUSH0 PUSH2 0x189A DUP3 DUP5 PUSH2 0x185F JUMP JUMPDEST SWAP2 POP DUP2 SWAP1 POP SWAP3 SWAP2 POP POP JUMP JUMPDEST PUSH32 0x44494420646F6573206E6F742065786973740000000000000000000000000000 PUSH0 DUP3 ADD MSTORE POP JUMP JUMPDEST PUSH0 PUSH2 0x18D9 PUSH1 0x12 DUP4 PUSH2 0x1798 JUMP JUMPDEST SWAP2 POP PUSH2 0x18E4 DUP3 PUSH2 0x18A5 JUMP JUMPDEST PUSH1 0x20 DUP3 ADD SWAP1 POP SWAP2 SWAP1 POP JUMP JUMPDEST PUSH0 PUSH1 0x20 DUP3 ADD SWAP1 POP DUP2 DUP2 SUB PUSH0 DUP4 ADD MSTORE PUSH2 0x1906 DUP2 PUSH2 0x18CD JUMP JUMPDEST SWAP1 POP SWAP2 SWAP1 POP JUMP JUMPDEST PUSH32 0x4E6577206F776E6572206164647265737320697320696E76616C696400000000 PUSH0 DUP3 ADD MSTORE POP JUMP JUMPDEST PUSH0 PUSH2 0x1941 PUSH1 0x1C DUP4 PUSH2 0x1798 JUMP JUMPDEST SWAP2 POP PUSH2 0x194C DUP3 PUSH2 0x190D JUMP JUMPDEST PUSH1 0x20 DUP3 ADD SWAP1 POP SWAP2 SWAP1 POP JUMP JUMPDEST PUSH0 PUSH1 0x20 DUP3 ADD SWAP1 POP DUP2 DUP2 SUB PUSH0 DUP4 ADD MSTORE PUSH2 0x196E DUP2 PUSH2 0x1935 JUMP JUMPDEST SWAP1 POP SWAP2 SWAP1 POP JUMP JUMPDEST PUSH32 0x4E6F7420746865206F776E6572206F6620746865204449440000000000000000 PUSH0 DUP3 ADD MSTORE POP JUMP JUMPDEST PUSH0 PUSH2 0x19A9 PUSH1 0x18 DUP4 PUSH2 0x1798 JUMP JUMPDEST SWAP2 POP PUSH2 0x19B4 DUP3 PUSH2 0x1975 JUMP JUMPDEST PUSH1 0x20 DUP3 ADD SWAP1 POP SWAP2 SWAP1 POP JUMP JUMPDEST PUSH0 PUSH1 0x20 DUP3 ADD SWAP1 POP DUP2 DUP2 SUB PUSH0 DUP4 ADD MSTORE PUSH2 0x19D6 DUP2 PUSH2 0x199D JUMP JUMPDEST SWAP1 POP SWAP2 SWAP1 POP JUMP JUMPDEST PUSH32 0x4E487B7100000000000000000000000000000000000000000000000000000000 PUSH0 MSTORE PUSH1 0x22 PUSH1 0x4 MSTORE PUSH1 0x24 PUSH0 REVERT JUMPDEST PUSH0 PUSH1 0x2 DUP3 DIV SWAP1 POP PUSH1 0x1 DUP3 AND DUP1 PUSH2 0x1A21 JUMPI PUSH1 0x7F DUP3 AND SWAP2 POP JUMPDEST PUSH1 0x20 DUP3 LT DUP2 SUB PUSH2 0x1A34 JUMPI PUSH2 0x1A33 PUSH2 0x19DD JUMP JUMPDEST JUMPDEST POP SWAP2 SWAP1 POP JUMP JUMPDEST PUSH0 DUP2 SWAP1 POP DUP2 PUSH0 MSTORE PUSH1 0x20 PUSH0 KECCAK256 SWAP1 POP SWAP2 SWAP1 POP JUMP JUMPDEST PUSH0 PUSH1 0x20 PUSH1 0x1F DUP4 ADD DIV SWAP1 POP SWAP2 SWAP1 POP JUMP JUMPDEST PUSH0 DUP3 DUP3 SHL SWAP1 POP SWAP3 SWAP2 POP POP JUMP JUMPDEST PUSH0 PUSH1 0x8 DUP4 MUL PUSH2 0x1A96 PUSH32 0xFFFFFFFFFFFFFFFFFFFFFFFFFFFFFFFFFFFFFFFFFFFFFFFFFFFFFFFFFFFFFFFF DUP3 PUSH2 0x1A5B JUMP JUMPDEST PUSH2 0x1AA0 DUP7 DUP4 PUSH2 0x1A5B JUMP JUMPDEST SWAP6 POP DUP1 NOT DUP5 AND SWAP4 POP DUP1 DUP7 AND DUP5 OR SWAP3 POP POP POP SWAP4 SWAP3 POP POP POP JUMP JUMPDEST PUSH0 DUP2 SWAP1 POP SWAP2 SWAP1 POP JUMP JUMPDEST PUSH0 DUP2 SWAP1 POP SWAP2 SWAP1 POP JUMP JUMPDEST PUSH0 PUSH2 0x1AE4 PUSH2 0x1ADF PUSH2 0x1ADA DUP5 PUSH2 0x1AB8 JUMP JUMPDEST PUSH2 0x1AC1 JUMP JUMPDEST PUSH2 0x1AB8 JUMP JUMPDEST SWAP1 POP SWAP2 SWAP1 POP JUMP JUMPDEST PUSH0 DUP2 SWAP1 POP SWAP2 SWAP1 POP JUMP JUMPDEST PUSH2 0x1AFD DUP4 PUSH2 0x1ACA JUMP JUMPDEST PUSH2 0x1B11 PUSH2 0x1B09 DUP3 PUSH2 0x1AEB JUMP JUMPDEST DUP5 DUP5 SLOAD PUSH2 0x1A67 JUMP JUMPDEST DUP3 SSTORE POP POP POP POP JUMP JUMPDEST PUSH0 SWAP1 JUMP JUMPDEST PUSH2 0x1B25 PUSH2 0x1B19 JUMP JUMPDEST PUSH2 0x1B30 DUP2 DUP5 DUP5 PUSH2 0x1AF4 JUMP JUMPDEST POP POP POP JUMP JUMPDEST JUMPDEST DUP2 DUP2 LT ISZERO PUSH2 0x1B53 JUMPI PUSH2 0x1B48 PUSH0 DUP3 PUSH2 0x1B1D JUMP JUMPDEST PUSH1 0x1 DUP2 ADD SWAP1 POP PUSH2 0x1B36 JUMP JUMPDEST POP POP JUMP JUMPDEST PUSH1 0x1F DUP3 GT ISZERO PUSH2 0x1B98 JUMPI PUSH2 0x1B69 DUP2 PUSH2 0x1A3A JUMP JUMPDEST PUSH2 0x1B72 DUP5 PUSH2 0x1A4C JUMP JUMPDEST DUP2 ADD PUSH1 0x20 DUP6 LT ISZERO PUSH2 0x1B81 JUMPI DUP2 SWAP1 POP JUMPDEST PUSH2 0x1B95 PUSH2 0x1B8D DUP6 PUSH2 0x1A4C JUMP JUMPDEST DUP4 ADD DUP3 PUSH2 0x1B35 JUMP JUMPDEST POP POP JUMPDEST POP POP POP JUMP JUMPDEST PUSH0 DUP3 DUP3 SHR SWAP1 POP SWAP3 SWAP2 POP POP JUMP JUMPDEST PUSH0 PUSH2 0x1BB8 PUSH0 NOT DUP5 PUSH1 0x8 MUL PUSH2 0x1B9D JUMP JUMPDEST NOT DUP1 DUP4 AND SWAP2 POP POP SWAP3 SWAP2 POP POP JUMP JUMPDEST PUSH0 PUSH2 0x1BD0 DUP4 DUP4 PUSH2 0x1BA9 JUMP JUMPDEST SWAP2 POP DUP3 PUSH1 0x2 MUL DUP3 OR SWAP1 POP SWAP3 SWAP2 POP POP JUMP JUMPDEST PUSH2 0x1BE9 DUP3 PUSH2 0x178E JUMP JUMPDEST PUSH8 0xFFFFFFFFFFFFFFFF DUP2 GT ISZERO PUSH2 0x1C02 JUMPI PUSH2 0x1C01 PUSH2 0x13C8 JUMP JUMPDEST JUMPDEST PUSH2 0x1C0C DUP3 SLOAD PUSH2 0x1A0A JUMP JUMPDEST PUSH2 0x1C17 DUP3 DUP3 DUP6 PUSH2 0x1B57 JUMP JUMPDEST PUSH0 PUSH1 0x20 SWAP1 POP PUSH1 0x1F DUP4 GT PUSH1 0x1 DUP2 EQ PUSH2 0x1C48 JUMPI PUSH0 DUP5 ISZERO PUSH2 0x1C36 JUMPI DUP3 DUP8 ADD MLOAD SWAP1 POP JUMPDEST PUSH2 0x1C40 DUP6 DUP3 PUSH2 0x1BC5 JUMP JUMPDEST DUP7 SSTORE POP PUSH2 0x1CA7 JUMP JUMPDEST PUSH1 0x1F NOT DUP5 AND PUSH2 0x1C56 DUP7 PUSH2 0x1A3A JUMP JUMPDEST PUSH0 JUMPDEST DUP3 DUP2 LT ISZERO PUSH2 0x1C7D JUMPI DUP5 DUP10 ADD MLOAD DUP3 SSTORE PUSH1 0x1 DUP3 ADD SWAP2 POP PUSH1 0x20 DUP6 ADD SWAP5 POP PUSH1 0x20 DUP2 ADD SWAP1 POP PUSH2 0x1C58 JUMP JUMPDEST DUP7 DUP4 LT ISZERO PUSH2 0x1C9A JUMPI DUP5 DUP10 ADD MLOAD PUSH2 0x1C96 PUSH1 0x1F DUP10 AND DUP3 PUSH2 0x1BA9 JUMP JUMPDEST DUP4 SSTORE POP JUMPDEST PUSH1 0x1 PUSH1 0x2 DUP9 MUL ADD DUP9 SSTORE POP POP POP JUMPDEST POP POP POP POP POP POP JUMP JUMPDEST PUSH0 PUSH1 0x40 DUP3 ADD SWAP1 POP DUP2 DUP2 SUB PUSH0 DUP4 ADD MSTORE PUSH2 0x1CC7 DUP2 DUP6 PUSH2 0x17B6 JUMP JUMPDEST SWAP1 POP DUP2 DUP2 SUB PUSH1 0x20 DUP4 ADD MSTORE PUSH2 0x1CDB DUP2 DUP5 PUSH2 0x17B6 JUMP JUMPDEST SWAP1 POP SWAP4 SWAP3 POP POP POP JUMP JUMPDEST PUSH32 0x44494420616C7265616479206578697374730000000000000000000000000000 PUSH0 DUP3 ADD MSTORE POP JUMP JUMPDEST PUSH0 PUSH2 0x1D18 PUSH1 0x12 DUP4 PUSH2 0x1798 JUMP JUMPDEST SWAP2 POP PUSH2 0x1D23 DUP3 PUSH2 0x1CE4 JUMP JUMPDEST PUSH1 0x20 DUP3 ADD SWAP1 POP SWAP2 SWAP1 POP JUMP JUMPDEST PUSH0 PUSH1 0x20 DUP3 ADD SWAP1 POP DUP2 DUP2 SUB PUSH0 DUP4 ADD MSTORE PUSH2 0x1D45 DUP2 PUSH2 0x1D0C JUMP JUMPDEST SWAP1 POP SWAP2 SWAP1 POP JUMP JUMPDEST PUSH0 PUSH1 0x40 DUP3 ADD SWAP1 POP DUP2 DUP2 SUB PUSH0 DUP4 ADD MSTORE PUSH2 0x1D64 DUP2 DUP6 PUSH2 0x17B6 JUMP JUMPDEST SWAP1 POP PUSH2 0x1D73 PUSH1 0x20 DUP4 ADD DUP5 PUSH2 0x17EE JUMP JUMPDEST SWAP4 SWAP3 POP POP POP JUMP JUMPDEST PUSH0 PUSH1 0x60 DUP3 ADD SWAP1 POP DUP2 DUP2 SUB PUSH0 DUP4 ADD MSTORE PUSH2 0x1D92 DUP2 DUP7 PUSH2 0x17B6 JUMP JUMPDEST SWAP1 POP DUP2 DUP2 SUB PUSH1 0x20 DUP4 ADD MSTORE PUSH2 0x1DA6 DUP2 DUP6 PUSH2 0x17B6 JUMP JUMPDEST SWAP1 POP DUP2 DUP2 SUB PUSH1 0x40 DUP4 ADD MSTORE PUSH2 0x1DBA DUP2 DUP5 PUSH2 0x17B6 JUMP JUMPDEST SWAP1 POP SWAP5 SWAP4 POP POP POP POP JUMP JUMPDEST PUSH0 PUSH1 0x40 DUP3 ADD SWAP1 POP PUSH2 0x1DD7 PUSH0 DUP4 ADD DUP6 PUSH2 0x17EE JUMP JUMPDEST PUSH2 0x1DE4 PUSH1 0x20 DUP4 ADD DUP5 PUSH2 0x1270 JUMP JUMPDEST SWAP4 SWAP3 POP POP POP JUMP INVALID LOG2 PUSH5 0x6970667358 0x22 SLT KECCAK256 0xDE 0xBA 0xFB CREATE2 0xCB MSTORE8 RETURNDATACOPY COINBASE 0xBB SWAP8 EXTCODECOPY 0xF9 BALANCE 0xDA 0xE0 0x2B EXTCODEHASH PUSH20 0x417D31F8E00C2A84384A279D079364736F6C6343 STOP ADDMOD BYTE STOP CALLER "
				},
				"gasEstimates": {
					"creation": {
						"codeDepositCost": "1542600",
						"executionCost": "infinite",
						"totalCost": "infinite"
					},
					"external": {
						"CONSTRUCTOR_ADMIN_ROLE()": "348",
						"DEFAULT_ADMIN_ROLE()": "375",
						"USER_ROLE()": "371",
						"VERIFIER_ROLE()": "391",
						"addVerifier(address)": "infinite",
						"changeSuperAdmin(address)": "infinite",
						"createDID(string,string,string,string,address)": "infinite",
						"getRoleAdmin(bytes32)": "infinite",
						"grantRole(bytes32,address)": "infinite",
						"hasRole(bytes32,address)": "3211",
						"renounceRole(bytes32,address)": "infinite",
						"revokeRole(bytes32,address)": "infinite",
						"supportsInterface(bytes4)": "741",
						"transferDID(string,address)": "infinite",
						"updateDID(string,string)": "infinite",
						"updateUserInfo(string,string,string)": "infinite",
						"verifyDID(string)": "infinite"
					}
				},
				"methodIdentifiers": {
					"CONSTRUCTOR_ADMIN_ROLE()": "94fce43b",
					"DEFAULT_ADMIN_ROLE()": "a217fddf",
					"USER_ROLE()": "13119161",
					"VERIFIER_ROLE()": "e7705db6",
					"addVerifier(address)": "9000b3d6",
					"changeSuperAdmin(address)": "41858c4b",
					"createDID(string,string,string,string,address)": "dc25e068",
					"getRoleAdmin(bytes32)": "248a9ca3",
					"grantRole(bytes32,address)": "2f2ff15d",
					"hasRole(bytes32,address)": "91d14854",
					"renounceRole(bytes32,address)": "36568abe",
					"revokeRole(bytes32,address)": "d547741f",
					"supportsInterface(bytes4)": "01ffc9a7",
					"transferDID(string,address)": "ab258374",
					"updateDID(string,string)": "b42a02b5",
					"updateUserInfo(string,string,string)": "facea43a",
					"verifyDID(string)": "fd8a0056"
				}
			},
			"storageLayout": {
				"storage": [
					{
						"astId": 26,
						"contract": "contracts/DIDContract.sol:DIDContract",
						"label": "_roles",
						"offset": 0,
						"slot": "0",
						"type": "t_mapping(t_bytes32,t_struct(RoleData)21_storage)"
					},
					{
						"astId": 478,
						"contract": "contracts/DIDContract.sol:DIDContract",
						"label": "dids",
						"offset": 0,
						"slot": "1",
						"type": "t_mapping(t_string_memory_ptr,t_struct(DID)473_storage)"
					}
				],
				"types": {
					"t_address": {
						"encoding": "inplace",
						"label": "address",
						"numberOfBytes": "20"
					},
					"t_bool": {
						"encoding": "inplace",
						"label": "bool",
						"numberOfBytes": "1"
					},
					"t_bytes32": {
						"encoding": "inplace",
						"label": "bytes32",
						"numberOfBytes": "32"
					},
					"t_mapping(t_address,t_bool)": {
						"encoding": "mapping",
						"key": "t_address",
						"label": "mapping(address => bool)",
						"numberOfBytes": "32",
						"value": "t_bool"
					},
					"t_mapping(t_bytes32,t_struct(RoleData)21_storage)": {
						"encoding": "mapping",
						"key": "t_bytes32",
						"label": "mapping(bytes32 => struct AccessControl.RoleData)",
						"numberOfBytes": "32",
						"value": "t_struct(RoleData)21_storage"
					},
					"t_mapping(t_string_memory_ptr,t_struct(DID)473_storage)": {
						"encoding": "mapping",
						"key": "t_string_memory_ptr",
						"label": "mapping(string => struct DIDContract.DID)",
						"numberOfBytes": "32",
						"value": "t_struct(DID)473_storage"
					},
					"t_string_memory_ptr": {
						"encoding": "bytes",
						"label": "string",
						"numberOfBytes": "32"
					},
					"t_string_storage": {
						"encoding": "bytes",
						"label": "string",
						"numberOfBytes": "32"
					},
					"t_struct(DID)473_storage": {
						"encoding": "inplace",
						"label": "struct DIDContract.DID",
						"members": [
							{
								"astId": 466,
								"contract": "contracts/DIDContract.sol:DIDContract",
								"label": "didDocument",
								"offset": 0,
								"slot": "0",
								"type": "t_string_storage"
							},
							{
								"astId": 468,
								"contract": "contracts/DIDContract.sol:DIDContract",
								"label": "name",
								"offset": 0,
								"slot": "1",
								"type": "t_string_storage"
							},
							{
								"astId": 470,
								"contract": "contracts/DIDContract.sol:DIDContract",
								"label": "email",
								"offset": 0,
								"slot": "2",
								"type": "t_string_storage"
							},
							{
								"astId": 472,
								"contract": "contracts/DIDContract.sol:DIDContract",
								"label": "owner",
								"offset": 0,
								"slot": "3",
								"type": "t_address"
							}
						],
						"numberOfBytes": "128"
					},
					"t_struct(RoleData)21_storage": {
						"encoding": "inplace",
						"label": "struct AccessControl.RoleData",
						"members": [
							{
								"astId": 18,
								"contract": "contracts/DIDContract.sol:DIDContract",
								"label": "hasRole",
								"offset": 0,
								"slot": "0",
								"type": "t_mapping(t_address,t_bool)"
							},
							{
								"astId": 20,
								"contract": "contracts/DIDContract.sol:DIDContract",
								"label": "adminRole",
								"offset": 0,
								"slot": "1",
								"type": "t_bytes32"
							}
						],
						"numberOfBytes": "64"
					}
				}
			},
			"userdoc": {
				"kind": "user",
				"methods": {},
				"version": 1
			}
		}
	}
}